{
	"day4prog/d4p1.sol": {
		"TicketIssuance": {
			"abi": [
				{
					"inputs": [
						{
							"internalType": "uint256",
							"name": "_maxQueueSize",
							"type": "uint256"
						}
					],
					"stateMutability": "nonpayable",
					"type": "constructor"
				},
				{
					"anonymous": false,
					"inputs": [
						{
							"indexed": false,
							"internalType": "uint256",
							"name": "ticketNo",
							"type": "uint256"
						},
						{
							"indexed": false,
							"internalType": "string",
							"name": "customerName",
							"type": "string"
						}
					],
					"name": "TicketIssued",
					"type": "event"
				},
				{
					"inputs": [],
					"name": "getIssuedTicketsCount",
					"outputs": [
						{
							"internalType": "uint256",
							"name": "",
							"type": "uint256"
						}
					],
					"stateMutability": "view",
					"type": "function"
				},
				{
					"inputs": [
						{
							"internalType": "uint256",
							"name": "ticketNo",
							"type": "uint256"
						}
					],
					"name": "getTicket",
					"outputs": [
						{
							"internalType": "string",
							"name": "customerName",
							"type": "string"
						}
					],
					"stateMutability": "view",
					"type": "function"
				},
				{
					"inputs": [
						{
							"internalType": "string",
							"name": "customerName",
							"type": "string"
						}
					],
					"name": "issueTicket",
					"outputs": [],
					"stateMutability": "nonpayable",
					"type": "function"
				},
				{
					"inputs": [],
					"name": "maxQueueSize",
					"outputs": [
						{
							"internalType": "uint256",
							"name": "",
							"type": "uint256"
						}
					],
					"stateMutability": "view",
					"type": "function"
				},
				{
					"inputs": [
						{
							"internalType": "uint256",
							"name": "",
							"type": "uint256"
						}
					],
					"name": "tickets",
					"outputs": [
						{
							"internalType": "uint256",
							"name": "ticketNo",
							"type": "uint256"
						},
						{
							"internalType": "string",
							"name": "customerName",
							"type": "string"
						}
					],
					"stateMutability": "view",
					"type": "function"
				}
			],
			"devdoc": {
				"kind": "dev",
				"methods": {},
				"version": 1
			},
			"evm": {
				"assembly": "    /* \"day4prog/d4p1.sol\":29:1082  contract TicketIssuance {... */\n  mstore(0x40, 0x80)\n    /* \"day4prog/d4p1.sol\":290:369  constructor(uint _maxQueueSize) {... */\n  callvalue\n  dup1\n  iszero\n  tag_1\n  jumpi\n  0x00\n  dup1\n  revert\ntag_1:\n  pop\n  mload(0x40)\n  sub(codesize, bytecodeSize)\n  dup1\n  bytecodeSize\n  dup4\n  codecopy\n  dup2\n  dup2\n  add\n  0x40\n  mstore\n  dup2\n  add\n  swap1\n  tag_2\n  swap2\n  swap1\n  tag_3\n  jump\t// in\ntag_2:\n    /* \"day4prog/d4p1.sol\":348:361  _maxQueueSize */\n  dup1\n    /* \"day4prog/d4p1.sol\":333:345  maxQueueSize */\n  0x01\n    /* \"day4prog/d4p1.sol\":333:361  maxQueueSize = _maxQueueSize */\n  dup2\n  swap1\n  sstore\n  pop\n    /* \"day4prog/d4p1.sol\":290:369  constructor(uint _maxQueueSize) {... */\n  pop\n    /* \"day4prog/d4p1.sol\":29:1082  contract TicketIssuance {... */\n  jump(tag_6)\n    /* \"#utility.yul\":88:205   */\ntag_8:\n    /* \"#utility.yul\":197:198   */\n  0x00\n    /* \"#utility.yul\":194:195   */\n  dup1\n    /* \"#utility.yul\":187:199   */\n  revert\n    /* \"#utility.yul\":334:411   */\ntag_10:\n    /* \"#utility.yul\":371:378   */\n  0x00\n    /* \"#utility.yul\":400:405   */\n  dup2\n    /* \"#utility.yul\":389:405   */\n  swap1\n  pop\n    /* \"#utility.yul\":334:411   */\n  swap2\n  swap1\n  pop\n  jump\t// out\n    /* \"#utility.yul\":417:539   */\ntag_11:\n    /* \"#utility.yul\":490:514   */\n  tag_19\n    /* \"#utility.yul\":508:513   */\n  dup2\n    /* \"#utility.yul\":490:514   */\n  tag_10\n  jump\t// in\ntag_19:\n    /* \"#utility.yul\":483:488   */\n  dup2\n    /* \"#utility.yul\":480:515   */\n  eq\n    /* \"#utility.yul\":470:533   */\n  tag_20\n  jumpi\n    /* \"#utility.yul\":529:530   */\n  0x00\n    /* \"#utility.yul\":526:527   */\n  dup1\n    /* \"#utility.yul\":519:531   */\n  revert\n    /* \"#utility.yul\":470:533   */\ntag_20:\n    /* \"#utility.yul\":417:539   */\n  pop\n  jump\t// out\n    /* \"#utility.yul\":545:688   */\ntag_12:\n    /* \"#utility.yul\":602:607   */\n  0x00\n    /* \"#utility.yul\":633:639   */\n  dup2\n    /* \"#utility.yul\":627:640   */\n  mload\n    /* \"#utility.yul\":618:640   */\n  swap1\n  pop\n    /* \"#utility.yul\":649:682   */\n  tag_22\n    /* \"#utility.yul\":676:681   */\n  dup2\n    /* \"#utility.yul\":649:682   */\n  tag_11\n  jump\t// in\ntag_22:\n    /* \"#utility.yul\":545:688   */\n  swap3\n  swap2\n  pop\n  pop\n  jump\t// out\n    /* \"#utility.yul\":694:1045   */\ntag_3:\n    /* \"#utility.yul\":764:770   */\n  0x00\n    /* \"#utility.yul\":813:815   */\n  0x20\n    /* \"#utility.yul\":801:810   */\n  dup3\n    /* \"#utility.yul\":792:799   */\n  dup5\n    /* \"#utility.yul\":788:811   */\n  sub\n    /* \"#utility.yul\":784:816   */\n  slt\n    /* \"#utility.yul\":781:900   */\n  iszero\n  tag_24\n  jumpi\n    /* \"#utility.yul\":819:898   */\n  tag_25\n  tag_8\n  jump\t// in\ntag_25:\n    /* \"#utility.yul\":781:900   */\ntag_24:\n    /* \"#utility.yul\":939:940   */\n  0x00\n    /* \"#utility.yul\":964:1028   */\n  tag_26\n    /* \"#utility.yul\":1020:1027   */\n  dup5\n    /* \"#utility.yul\":1011:1017   */\n  dup3\n    /* \"#utility.yul\":1000:1009   */\n  dup6\n    /* \"#utility.yul\":996:1018   */\n  add\n    /* \"#utility.yul\":964:1028   */\n  tag_12\n  jump\t// in\ntag_26:\n    /* \"#utility.yul\":954:1028   */\n  swap2\n  pop\n    /* \"#utility.yul\":910:1038   */\n  pop\n    /* \"#utility.yul\":694:1045   */\n  swap3\n  swap2\n  pop\n  pop\n  jump\t// out\n    /* \"day4prog/d4p1.sol\":29:1082  contract TicketIssuance {... */\ntag_6:\n  dataSize(sub_0)\n  dup1\n  dataOffset(sub_0)\n  0x00\n  codecopy\n  0x00\n  return\nstop\n\nsub_0: assembly {\n        /* \"day4prog/d4p1.sol\":29:1082  contract TicketIssuance {... */\n      mstore(0x40, 0x80)\n      callvalue\n      dup1\n      iszero\n      tag_1\n      jumpi\n      0x00\n      dup1\n      revert\n    tag_1:\n      pop\n      jumpi(tag_2, lt(calldatasize, 0x04))\n      shr(0xe0, calldataload(0x00))\n      dup1\n      0x50b44712\n      eq\n      tag_3\n      jumpi\n      dup1\n      0x7dc379fa\n      eq\n      tag_4\n      jumpi\n      dup1\n      0xa6a77d98\n      eq\n      tag_5\n      jumpi\n      dup1\n      0xc4bcd4dc\n      eq\n      tag_6\n      jumpi\n      dup1\n      0xf7d9cc1e\n      eq\n      tag_7\n      jumpi\n    tag_2:\n      0x00\n      dup1\n      revert\n        /* \"day4prog/d4p1.sol\":155:178  Ticket[] public tickets */\n    tag_3:\n      tag_8\n      0x04\n      dup1\n      calldatasize\n      sub\n      dup2\n      add\n      swap1\n      tag_9\n      swap2\n      swap1\n      tag_10\n      jump\t// in\n    tag_9:\n      tag_11\n      jump\t// in\n    tag_8:\n      mload(0x40)\n      tag_12\n      swap3\n      swap2\n      swap1\n      tag_13\n      jump\t// in\n    tag_12:\n      mload(0x40)\n      dup1\n      swap2\n      sub\n      swap1\n      return\n        /* \"day4prog/d4p1.sol\":733:967  function getTicket(uint ticketNo) public view returns (string memory customerName) {... */\n    tag_4:\n      tag_14\n      0x04\n      dup1\n      calldatasize\n      sub\n      dup2\n      add\n      swap1\n      tag_15\n      swap2\n      swap1\n      tag_10\n      jump\t// in\n    tag_15:\n      tag_16\n      jump\t// in\n    tag_14:\n      mload(0x40)\n      tag_17\n      swap2\n      swap1\n      tag_18\n      jump\t// in\n    tag_17:\n      mload(0x40)\n      dup1\n      swap2\n      sub\n      swap1\n      return\n        /* \"day4prog/d4p1.sol\":383:719  function issueTicket(string memory customerName) public {... */\n    tag_5:\n      tag_19\n      0x04\n      dup1\n      calldatasize\n      sub\n      dup2\n      add\n      swap1\n      tag_20\n      swap2\n      swap1\n      tag_21\n      jump\t// in\n    tag_20:\n      tag_22\n      jump\t// in\n    tag_19:\n      stop\n        /* \"day4prog/d4p1.sol\":979:1079  function getIssuedTicketsCount() public view returns (uint) {... */\n    tag_6:\n      tag_23\n      tag_24\n      jump\t// in\n    tag_23:\n      mload(0x40)\n      tag_25\n      swap2\n      swap1\n      tag_26\n      jump\t// in\n    tag_25:\n      mload(0x40)\n      dup1\n      swap2\n      sub\n      swap1\n      return\n        /* \"day4prog/d4p1.sol\":189:213  uint public maxQueueSize */\n    tag_7:\n      tag_27\n      tag_28\n      jump\t// in\n    tag_27:\n      mload(0x40)\n      tag_29\n      swap2\n      swap1\n      tag_26\n      jump\t// in\n    tag_29:\n      mload(0x40)\n      dup1\n      swap2\n      sub\n      swap1\n      return\n        /* \"day4prog/d4p1.sol\":155:178  Ticket[] public tickets */\n    tag_11:\n      0x00\n      dup2\n      dup2\n      sload\n      dup2\n      lt\n      tag_30\n      jumpi\n      0x00\n      dup1\n      revert\n    tag_30:\n      swap1\n      0x00\n      mstore\n      keccak256(0x00, 0x20)\n      swap1\n      0x02\n      mul\n      add\n      0x00\n      swap2\n      pop\n      swap1\n      pop\n      dup1\n      0x00\n      add\n      sload\n      swap1\n      dup1\n      0x01\n      add\n      dup1\n      sload\n      tag_32\n      swap1\n      tag_33\n      jump\t// in\n    tag_32:\n      dup1\n      0x1f\n      add\n      0x20\n      dup1\n      swap2\n      div\n      mul\n      0x20\n      add\n      mload(0x40)\n      swap1\n      dup2\n      add\n      0x40\n      mstore\n      dup1\n      swap3\n      swap2\n      swap1\n      dup2\n      dup2\n      mstore\n      0x20\n      add\n      dup3\n      dup1\n      sload\n      tag_34\n      swap1\n      tag_33\n      jump\t// in\n    tag_34:\n      dup1\n      iszero\n      tag_35\n      jumpi\n      dup1\n      0x1f\n      lt\n      tag_36\n      jumpi\n      0x0100\n      dup1\n      dup4\n      sload\n      div\n      mul\n      dup4\n      mstore\n      swap2\n      0x20\n      add\n      swap2\n      jump(tag_35)\n    tag_36:\n      dup3\n      add\n      swap2\n      swap1\n      0x00\n      mstore\n      keccak256(0x00, 0x20)\n      swap1\n    tag_37:\n      dup2\n      sload\n      dup2\n      mstore\n      swap1\n      0x01\n      add\n      swap1\n      0x20\n      add\n      dup1\n      dup4\n      gt\n      tag_37\n      jumpi\n      dup3\n      swap1\n      sub\n      0x1f\n      and\n      dup3\n      add\n      swap2\n    tag_35:\n      pop\n      pop\n      pop\n      pop\n      pop\n      swap1\n      pop\n      dup3\n      jump\t// out\n        /* \"day4prog/d4p1.sol\":733:967  function getTicket(uint ticketNo) public view returns (string memory customerName) {... */\n    tag_16:\n        /* \"day4prog/d4p1.sol\":788:814  string memory customerName */\n      0x60\n        /* \"day4prog/d4p1.sol\":846:847  0 */\n      0x00\n        /* \"day4prog/d4p1.sol\":835:843  ticketNo */\n      dup3\n        /* \"day4prog/d4p1.sol\":835:847  ticketNo > 0 */\n      gt\n        /* \"day4prog/d4p1.sol\":835:877  ticketNo > 0 && ticketNo <= tickets.length */\n      dup1\n      iszero\n      tag_39\n      jumpi\n      pop\n        /* \"day4prog/d4p1.sol\":863:870  tickets */\n      0x00\n        /* \"day4prog/d4p1.sol\":863:877  tickets.length */\n      dup1\n      sload\n      swap1\n      pop\n        /* \"day4prog/d4p1.sol\":851:859  ticketNo */\n      dup3\n        /* \"day4prog/d4p1.sol\":851:877  ticketNo <= tickets.length */\n      gt\n      iszero\n        /* \"day4prog/d4p1.sol\":835:877  ticketNo > 0 && ticketNo <= tickets.length */\n    tag_39:\n        /* \"day4prog/d4p1.sol\":827:907  require(ticketNo > 0 && ticketNo <= tickets.length, \"Ticket number is invalid.\") */\n      tag_40\n      jumpi\n      mload(0x40)\n      0x08c379a000000000000000000000000000000000000000000000000000000000\n      dup2\n      mstore\n      0x04\n      add\n      tag_41\n      swap1\n      tag_42\n      jump\t// in\n    tag_41:\n      mload(0x40)\n      dup1\n      swap2\n      sub\n      swap1\n      revert\n    tag_40:\n        /* \"day4prog/d4p1.sol\":925:932  tickets */\n      0x00\n        /* \"day4prog/d4p1.sol\":944:945  1 */\n      0x01\n        /* \"day4prog/d4p1.sol\":933:941  ticketNo */\n      dup4\n        /* \"day4prog/d4p1.sol\":933:945  ticketNo - 1 */\n      tag_43\n      swap2\n      swap1\n      tag_44\n      jump\t// in\n    tag_43:\n        /* \"day4prog/d4p1.sol\":925:946  tickets[ticketNo - 1] */\n      dup2\n      sload\n      dup2\n      lt\n      tag_45\n      jumpi\n      tag_46\n      tag_47\n      jump\t// in\n    tag_46:\n    tag_45:\n      swap1\n      0x00\n      mstore\n      keccak256(0x00, 0x20)\n      swap1\n      0x02\n      mul\n      add\n        /* \"day4prog/d4p1.sol\":925:959  tickets[ticketNo - 1].customerName */\n      0x01\n      add\n        /* \"day4prog/d4p1.sol\":918:959  return tickets[ticketNo - 1].customerName */\n      dup1\n      sload\n      tag_49\n      swap1\n      tag_33\n      jump\t// in\n    tag_49:\n      dup1\n      0x1f\n      add\n      0x20\n      dup1\n      swap2\n      div\n      mul\n      0x20\n      add\n      mload(0x40)\n      swap1\n      dup2\n      add\n      0x40\n      mstore\n      dup1\n      swap3\n      swap2\n      swap1\n      dup2\n      dup2\n      mstore\n      0x20\n      add\n      dup3\n      dup1\n      sload\n      tag_50\n      swap1\n      tag_33\n      jump\t// in\n    tag_50:\n      dup1\n      iszero\n      tag_51\n      jumpi\n      dup1\n      0x1f\n      lt\n      tag_52\n      jumpi\n      0x0100\n      dup1\n      dup4\n      sload\n      div\n      mul\n      dup4\n      mstore\n      swap2\n      0x20\n      add\n      swap2\n      jump(tag_51)\n    tag_52:\n      dup3\n      add\n      swap2\n      swap1\n      0x00\n      mstore\n      keccak256(0x00, 0x20)\n      swap1\n    tag_53:\n      dup2\n      sload\n      dup2\n      mstore\n      swap1\n      0x01\n      add\n      swap1\n      0x20\n      add\n      dup1\n      dup4\n      gt\n      tag_53\n      jumpi\n      dup3\n      swap1\n      sub\n      0x1f\n      and\n      dup3\n      add\n      swap2\n    tag_51:\n      pop\n      pop\n      pop\n      pop\n      pop\n      swap1\n      pop\n        /* \"day4prog/d4p1.sol\":733:967  function getTicket(uint ticketNo) public view returns (string memory customerName) {... */\n      swap2\n      swap1\n      pop\n      jump\t// out\n        /* \"day4prog/d4p1.sol\":383:719  function issueTicket(string memory customerName) public {... */\n    tag_22:\n        /* \"day4prog/d4p1.sol\":475:487  maxQueueSize */\n      sload(0x01)\n        /* \"day4prog/d4p1.sol\":458:465  tickets */\n      0x00\n        /* \"day4prog/d4p1.sol\":458:472  tickets.length */\n      dup1\n      sload\n      swap1\n      pop\n        /* \"day4prog/d4p1.sol\":458:487  tickets.length < maxQueueSize */\n      lt\n        /* \"day4prog/d4p1.sol\":450:537  require(tickets.length < maxQueueSize, \"Queue is full, no more tickets can be issued.\") */\n      tag_55\n      jumpi\n      mload(0x40)\n      0x08c379a000000000000000000000000000000000000000000000000000000000\n      dup2\n      mstore\n      0x04\n      add\n      tag_56\n      swap1\n      tag_57\n      jump\t// in\n    tag_56:\n      mload(0x40)\n      dup1\n      swap2\n      sub\n      swap1\n      revert\n    tag_55:\n        /* \"day4prog/d4p1.sol\":558:571  uint ticketNo */\n      0x00\n        /* \"day4prog/d4p1.sol\":591:592  1 */\n      0x01\n        /* \"day4prog/d4p1.sol\":574:581  tickets */\n      0x00\n        /* \"day4prog/d4p1.sol\":574:588  tickets.length */\n      dup1\n      sload\n      swap1\n      pop\n        /* \"day4prog/d4p1.sol\":574:592  tickets.length + 1 */\n      tag_58\n      swap2\n      swap1\n      tag_59\n      jump\t// in\n    tag_58:\n        /* \"day4prog/d4p1.sol\":558:592  uint ticketNo = tickets.length + 1 */\n      swap1\n      pop\n        /* \"day4prog/d4p1.sol\":604:611  tickets */\n      0x00\n        /* \"day4prog/d4p1.sol\":617:647  Ticket(ticketNo, customerName) */\n      mload(0x40)\n      dup1\n      0x40\n      add\n      0x40\n      mstore\n      dup1\n        /* \"day4prog/d4p1.sol\":624:632  ticketNo */\n      dup4\n        /* \"day4prog/d4p1.sol\":617:647  Ticket(ticketNo, customerName) */\n      dup2\n      mstore\n      0x20\n      add\n        /* \"day4prog/d4p1.sol\":634:646  customerName */\n      dup5\n        /* \"day4prog/d4p1.sol\":617:647  Ticket(ticketNo, customerName) */\n      dup2\n      mstore\n      pop\n        /* \"day4prog/d4p1.sol\":604:648  tickets.push(Ticket(ticketNo, customerName)) */\n      swap1\n      dup1\n      0x01\n      dup2\n      sload\n      add\n      dup1\n      dup3\n      sstore\n      dup1\n      swap2\n      pop\n      pop\n      0x01\n      swap1\n      sub\n      swap1\n      0x00\n      mstore\n      keccak256(0x00, 0x20)\n      swap1\n      0x02\n      mul\n      add\n      0x00\n      swap1\n      swap2\n      swap1\n      swap2\n      swap1\n      swap2\n      pop\n      0x00\n      dup3\n      add\n      mload\n      dup2\n      0x00\n      add\n      sstore\n      0x20\n      dup3\n      add\n      mload\n      dup2\n      0x01\n      add\n      swap1\n      dup2\n      tag_61\n      swap2\n      swap1\n      tag_62\n      jump\t// in\n    tag_61:\n      pop\n      pop\n      pop\n        /* \"day4prog/d4p1.sol\":675:711  TicketIssued(ticketNo, customerName) */\n      0x1ba30fd76c09b4b9fed660bee1d769cfc3252b9192ab5e79b7f499563ace780a\n        /* \"day4prog/d4p1.sol\":688:696  ticketNo */\n      dup2\n        /* \"day4prog/d4p1.sol\":698:710  customerName */\n      dup4\n        /* \"day4prog/d4p1.sol\":675:711  TicketIssued(ticketNo, customerName) */\n      mload(0x40)\n      tag_63\n      swap3\n      swap2\n      swap1\n      tag_13\n      jump\t// in\n    tag_63:\n      mload(0x40)\n      dup1\n      swap2\n      sub\n      swap1\n      log1\n        /* \"day4prog/d4p1.sol\":439:719  {... */\n      pop\n        /* \"day4prog/d4p1.sol\":383:719  function issueTicket(string memory customerName) public {... */\n      pop\n      jump\t// out\n        /* \"day4prog/d4p1.sol\":979:1079  function getIssuedTicketsCount() public view returns (uint) {... */\n    tag_24:\n        /* \"day4prog/d4p1.sol\":1033:1037  uint */\n      0x00\n        /* \"day4prog/d4p1.sol\":1057:1064  tickets */\n      dup1\n        /* \"day4prog/d4p1.sol\":1057:1071  tickets.length */\n      dup1\n      sload\n      swap1\n      pop\n        /* \"day4prog/d4p1.sol\":1050:1071  return tickets.length */\n      swap1\n      pop\n        /* \"day4prog/d4p1.sol\":979:1079  function getIssuedTicketsCount() public view returns (uint) {... */\n      swap1\n      jump\t// out\n        /* \"day4prog/d4p1.sol\":189:213  uint public maxQueueSize */\n    tag_28:\n      sload(0x01)\n      dup2\n      jump\t// out\n        /* \"#utility.yul\":7:82   */\n    tag_65:\n        /* \"#utility.yul\":40:46   */\n      0x00\n        /* \"#utility.yul\":73:75   */\n      0x40\n        /* \"#utility.yul\":67:76   */\n      mload\n        /* \"#utility.yul\":57:76   */\n      swap1\n      pop\n        /* \"#utility.yul\":7:82   */\n      swap1\n      jump\t// out\n        /* \"#utility.yul\":88:205   */\n    tag_66:\n        /* \"#utility.yul\":197:198   */\n      0x00\n        /* \"#utility.yul\":194:195   */\n      dup1\n        /* \"#utility.yul\":187:199   */\n      revert\n        /* \"#utility.yul\":211:328   */\n    tag_67:\n        /* \"#utility.yul\":320:321   */\n      0x00\n        /* \"#utility.yul\":317:318   */\n      dup1\n        /* \"#utility.yul\":310:322   */\n      revert\n        /* \"#utility.yul\":334:411   */\n    tag_68:\n        /* \"#utility.yul\":371:378   */\n      0x00\n        /* \"#utility.yul\":400:405   */\n      dup2\n        /* \"#utility.yul\":389:405   */\n      swap1\n      pop\n        /* \"#utility.yul\":334:411   */\n      swap2\n      swap1\n      pop\n      jump\t// out\n        /* \"#utility.yul\":417:539   */\n    tag_69:\n        /* \"#utility.yul\":490:514   */\n      tag_113\n        /* \"#utility.yul\":508:513   */\n      dup2\n        /* \"#utility.yul\":490:514   */\n      tag_68\n      jump\t// in\n    tag_113:\n        /* \"#utility.yul\":483:488   */\n      dup2\n        /* \"#utility.yul\":480:515   */\n      eq\n        /* \"#utility.yul\":470:533   */\n      tag_114\n      jumpi\n        /* \"#utility.yul\":529:530   */\n      0x00\n        /* \"#utility.yul\":526:527   */\n      dup1\n        /* \"#utility.yul\":519:531   */\n      revert\n        /* \"#utility.yul\":470:533   */\n    tag_114:\n        /* \"#utility.yul\":417:539   */\n      pop\n      jump\t// out\n        /* \"#utility.yul\":545:684   */\n    tag_70:\n        /* \"#utility.yul\":591:596   */\n      0x00\n        /* \"#utility.yul\":629:635   */\n      dup2\n        /* \"#utility.yul\":616:636   */\n      calldataload\n        /* \"#utility.yul\":607:636   */\n      swap1\n      pop\n        /* \"#utility.yul\":645:678   */\n      tag_116\n        /* \"#utility.yul\":672:677   */\n      dup2\n        /* \"#utility.yul\":645:678   */\n      tag_69\n      jump\t// in\n    tag_116:\n        /* \"#utility.yul\":545:684   */\n      swap3\n      swap2\n      pop\n      pop\n      jump\t// out\n        /* \"#utility.yul\":690:1019   */\n    tag_10:\n        /* \"#utility.yul\":749:755   */\n      0x00\n        /* \"#utility.yul\":798:800   */\n      0x20\n        /* \"#utility.yul\":786:795   */\n      dup3\n        /* \"#utility.yul\":777:784   */\n      dup5\n        /* \"#utility.yul\":773:796   */\n      sub\n        /* \"#utility.yul\":769:801   */\n      slt\n        /* \"#utility.yul\":766:885   */\n      iszero\n      tag_118\n      jumpi\n        /* \"#utility.yul\":804:883   */\n      tag_119\n      tag_66\n      jump\t// in\n    tag_119:\n        /* \"#utility.yul\":766:885   */\n    tag_118:\n        /* \"#utility.yul\":924:925   */\n      0x00\n        /* \"#utility.yul\":949:1002   */\n      tag_120\n        /* \"#utility.yul\":994:1001   */\n      dup5\n        /* \"#utility.yul\":985:991   */\n      dup3\n        /* \"#utility.yul\":974:983   */\n      dup6\n        /* \"#utility.yul\":970:992   */\n      add\n        /* \"#utility.yul\":949:1002   */\n      tag_70\n      jump\t// in\n    tag_120:\n        /* \"#utility.yul\":939:1002   */\n      swap2\n      pop\n        /* \"#utility.yul\":895:1012   */\n      pop\n        /* \"#utility.yul\":690:1019   */\n      swap3\n      swap2\n      pop\n      pop\n      jump\t// out\n        /* \"#utility.yul\":1025:1143   */\n    tag_71:\n        /* \"#utility.yul\":1112:1136   */\n      tag_122\n        /* \"#utility.yul\":1130:1135   */\n      dup2\n        /* \"#utility.yul\":1112:1136   */\n      tag_68\n      jump\t// in\n    tag_122:\n        /* \"#utility.yul\":1107:1110   */\n      dup3\n        /* \"#utility.yul\":1100:1137   */\n      mstore\n        /* \"#utility.yul\":1025:1143   */\n      pop\n      pop\n      jump\t// out\n        /* \"#utility.yul\":1149:1248   */\n    tag_72:\n        /* \"#utility.yul\":1201:1207   */\n      0x00\n        /* \"#utility.yul\":1235:1240   */\n      dup2\n        /* \"#utility.yul\":1229:1241   */\n      mload\n        /* \"#utility.yul\":1219:1241   */\n      swap1\n      pop\n        /* \"#utility.yul\":1149:1248   */\n      swap2\n      swap1\n      pop\n      jump\t// out\n        /* \"#utility.yul\":1254:1423   */\n    tag_73:\n        /* \"#utility.yul\":1338:1349   */\n      0x00\n        /* \"#utility.yul\":1372:1378   */\n      dup3\n        /* \"#utility.yul\":1367:1370   */\n      dup3\n        /* \"#utility.yul\":1360:1379   */\n      mstore\n        /* \"#utility.yul\":1412:1416   */\n      0x20\n        /* \"#utility.yul\":1407:1410   */\n      dup3\n        /* \"#utility.yul\":1403:1417   */\n      add\n        /* \"#utility.yul\":1388:1417   */\n      swap1\n      pop\n        /* \"#utility.yul\":1254:1423   */\n      swap3\n      swap2\n      pop\n      pop\n      jump\t// out\n        /* \"#utility.yul\":1429:1568   */\n    tag_74:\n        /* \"#utility.yul\":1518:1524   */\n      dup3\n        /* \"#utility.yul\":1513:1516   */\n      dup2\n        /* \"#utility.yul\":1508:1511   */\n      dup4\n        /* \"#utility.yul\":1502:1525   */\n      mcopy\n        /* \"#utility.yul\":1559:1560   */\n      0x00\n        /* \"#utility.yul\":1550:1556   */\n      dup4\n        /* \"#utility.yul\":1545:1548   */\n      dup4\n        /* \"#utility.yul\":1541:1557   */\n      add\n        /* \"#utility.yul\":1534:1561   */\n      mstore\n        /* \"#utility.yul\":1429:1568   */\n      pop\n      pop\n      pop\n      jump\t// out\n        /* \"#utility.yul\":1574:1676   */\n    tag_75:\n        /* \"#utility.yul\":1615:1621   */\n      0x00\n        /* \"#utility.yul\":1666:1668   */\n      0x1f\n        /* \"#utility.yul\":1662:1669   */\n      not\n        /* \"#utility.yul\":1657:1659   */\n      0x1f\n        /* \"#utility.yul\":1650:1655   */\n      dup4\n        /* \"#utility.yul\":1646:1660   */\n      add\n        /* \"#utility.yul\":1642:1670   */\n      and\n        /* \"#utility.yul\":1632:1670   */\n      swap1\n      pop\n        /* \"#utility.yul\":1574:1676   */\n      swap2\n      swap1\n      pop\n      jump\t// out\n        /* \"#utility.yul\":1682:2059   */\n    tag_76:\n        /* \"#utility.yul\":1770:1773   */\n      0x00\n        /* \"#utility.yul\":1798:1837   */\n      tag_128\n        /* \"#utility.yul\":1831:1836   */\n      dup3\n        /* \"#utility.yul\":1798:1837   */\n      tag_72\n      jump\t// in\n    tag_128:\n        /* \"#utility.yul\":1853:1924   */\n      tag_129\n        /* \"#utility.yul\":1917:1923   */\n      dup2\n        /* \"#utility.yul\":1912:1915   */\n      dup6\n        /* \"#utility.yul\":1853:1924   */\n      tag_73\n      jump\t// in\n    tag_129:\n        /* \"#utility.yul\":1846:1924   */\n      swap4\n      pop\n        /* \"#utility.yul\":1933:1998   */\n      tag_130\n        /* \"#utility.yul\":1991:1997   */\n      dup2\n        /* \"#utility.yul\":1986:1989   */\n      dup6\n        /* \"#utility.yul\":1979:1983   */\n      0x20\n        /* \"#utility.yul\":1972:1977   */\n      dup7\n        /* \"#utility.yul\":1968:1984   */\n      add\n        /* \"#utility.yul\":1933:1998   */\n      tag_74\n      jump\t// in\n    tag_130:\n        /* \"#utility.yul\":2023:2052   */\n      tag_131\n        /* \"#utility.yul\":2045:2051   */\n      dup2\n        /* \"#utility.yul\":2023:2052   */\n      tag_75\n      jump\t// in\n    tag_131:\n        /* \"#utility.yul\":2018:2021   */\n      dup5\n        /* \"#utility.yul\":2014:2053   */\n      add\n        /* \"#utility.yul\":2007:2053   */\n      swap2\n      pop\n        /* \"#utility.yul\":1774:2059   */\n      pop\n        /* \"#utility.yul\":1682:2059   */\n      swap3\n      swap2\n      pop\n      pop\n      jump\t// out\n        /* \"#utility.yul\":2065:2488   */\n    tag_13:\n        /* \"#utility.yul\":2206:2210   */\n      0x00\n        /* \"#utility.yul\":2244:2246   */\n      0x40\n        /* \"#utility.yul\":2233:2242   */\n      dup3\n        /* \"#utility.yul\":2229:2247   */\n      add\n        /* \"#utility.yul\":2221:2247   */\n      swap1\n      pop\n        /* \"#utility.yul\":2257:2328   */\n      tag_133\n        /* \"#utility.yul\":2325:2326   */\n      0x00\n        /* \"#utility.yul\":2314:2323   */\n      dup4\n        /* \"#utility.yul\":2310:2327   */\n      add\n        /* \"#utility.yul\":2301:2307   */\n      dup6\n        /* \"#utility.yul\":2257:2328   */\n      tag_71\n      jump\t// in\n    tag_133:\n        /* \"#utility.yul\":2375:2384   */\n      dup2\n        /* \"#utility.yul\":2369:2373   */\n      dup2\n        /* \"#utility.yul\":2365:2385   */\n      sub\n        /* \"#utility.yul\":2360:2362   */\n      0x20\n        /* \"#utility.yul\":2349:2358   */\n      dup4\n        /* \"#utility.yul\":2345:2363   */\n      add\n        /* \"#utility.yul\":2338:2386   */\n      mstore\n        /* \"#utility.yul\":2403:2481   */\n      tag_134\n        /* \"#utility.yul\":2476:2480   */\n      dup2\n        /* \"#utility.yul\":2467:2473   */\n      dup5\n        /* \"#utility.yul\":2403:2481   */\n      tag_76\n      jump\t// in\n    tag_134:\n        /* \"#utility.yul\":2395:2481   */\n      swap1\n      pop\n        /* \"#utility.yul\":2065:2488   */\n      swap4\n      swap3\n      pop\n      pop\n      pop\n      jump\t// out\n        /* \"#utility.yul\":2494:2807   */\n    tag_18:\n        /* \"#utility.yul\":2607:2611   */\n      0x00\n        /* \"#utility.yul\":2645:2647   */\n      0x20\n        /* \"#utility.yul\":2634:2643   */\n      dup3\n        /* \"#utility.yul\":2630:2648   */\n      add\n        /* \"#utility.yul\":2622:2648   */\n      swap1\n      pop\n        /* \"#utility.yul\":2694:2703   */\n      dup2\n        /* \"#utility.yul\":2688:2692   */\n      dup2\n        /* \"#utility.yul\":2684:2704   */\n      sub\n        /* \"#utility.yul\":2680:2681   */\n      0x00\n        /* \"#utility.yul\":2669:2678   */\n      dup4\n        /* \"#utility.yul\":2665:2682   */\n      add\n        /* \"#utility.yul\":2658:2705   */\n      mstore\n        /* \"#utility.yul\":2722:2800   */\n      tag_136\n        /* \"#utility.yul\":2795:2799   */\n      dup2\n        /* \"#utility.yul\":2786:2792   */\n      dup5\n        /* \"#utility.yul\":2722:2800   */\n      tag_76\n      jump\t// in\n    tag_136:\n        /* \"#utility.yul\":2714:2800   */\n      swap1\n      pop\n        /* \"#utility.yul\":2494:2807   */\n      swap3\n      swap2\n      pop\n      pop\n      jump\t// out\n        /* \"#utility.yul\":2813:2930   */\n    tag_77:\n        /* \"#utility.yul\":2922:2923   */\n      0x00\n        /* \"#utility.yul\":2919:2920   */\n      dup1\n        /* \"#utility.yul\":2912:2924   */\n      revert\n        /* \"#utility.yul\":2936:3053   */\n    tag_78:\n        /* \"#utility.yul\":3045:3046   */\n      0x00\n        /* \"#utility.yul\":3042:3043   */\n      dup1\n        /* \"#utility.yul\":3035:3047   */\n      revert\n        /* \"#utility.yul\":3059:3239   */\n    tag_79:\n        /* \"#utility.yul\":3107:3184   */\n      0x4e487b7100000000000000000000000000000000000000000000000000000000\n        /* \"#utility.yul\":3104:3105   */\n      0x00\n        /* \"#utility.yul\":3097:3185   */\n      mstore\n        /* \"#utility.yul\":3204:3208   */\n      0x41\n        /* \"#utility.yul\":3201:3202   */\n      0x04\n        /* \"#utility.yul\":3194:3209   */\n      mstore\n        /* \"#utility.yul\":3228:3232   */\n      0x24\n        /* \"#utility.yul\":3225:3226   */\n      0x00\n        /* \"#utility.yul\":3218:3233   */\n      revert\n        /* \"#utility.yul\":3245:3526   */\n    tag_80:\n        /* \"#utility.yul\":3328:3355   */\n      tag_141\n        /* \"#utility.yul\":3350:3354   */\n      dup3\n        /* \"#utility.yul\":3328:3355   */\n      tag_75\n      jump\t// in\n    tag_141:\n        /* \"#utility.yul\":3320:3326   */\n      dup2\n        /* \"#utility.yul\":3316:3356   */\n      add\n        /* \"#utility.yul\":3458:3464   */\n      dup2\n        /* \"#utility.yul\":3446:3456   */\n      dup2\n        /* \"#utility.yul\":3443:3465   */\n      lt\n        /* \"#utility.yul\":3422:3440   */\n      0xffffffffffffffff\n        /* \"#utility.yul\":3410:3420   */\n      dup3\n        /* \"#utility.yul\":3407:3441   */\n      gt\n        /* \"#utility.yul\":3404:3466   */\n      or\n        /* \"#utility.yul\":3401:3489   */\n      iszero\n      tag_142\n      jumpi\n        /* \"#utility.yul\":3469:3487   */\n      tag_143\n      tag_79\n      jump\t// in\n    tag_143:\n        /* \"#utility.yul\":3401:3489   */\n    tag_142:\n        /* \"#utility.yul\":3509:3519   */\n      dup1\n        /* \"#utility.yul\":3505:3507   */\n      0x40\n        /* \"#utility.yul\":3498:3520   */\n      mstore\n        /* \"#utility.yul\":3288:3526   */\n      pop\n        /* \"#utility.yul\":3245:3526   */\n      pop\n      pop\n      jump\t// out\n        /* \"#utility.yul\":3532:3661   */\n    tag_81:\n        /* \"#utility.yul\":3566:3572   */\n      0x00\n        /* \"#utility.yul\":3593:3613   */\n      tag_145\n      tag_65\n      jump\t// in\n    tag_145:\n        /* \"#utility.yul\":3583:3613   */\n      swap1\n      pop\n        /* \"#utility.yul\":3622:3655   */\n      tag_146\n        /* \"#utility.yul\":3650:3654   */\n      dup3\n        /* \"#utility.yul\":3642:3648   */\n      dup3\n        /* \"#utility.yul\":3622:3655   */\n      tag_80\n      jump\t// in\n    tag_146:\n        /* \"#utility.yul\":3532:3661   */\n      swap2\n      swap1\n      pop\n      jump\t// out\n        /* \"#utility.yul\":3667:3975   */\n    tag_82:\n        /* \"#utility.yul\":3729:3733   */\n      0x00\n        /* \"#utility.yul\":3819:3837   */\n      0xffffffffffffffff\n        /* \"#utility.yul\":3811:3817   */\n      dup3\n        /* \"#utility.yul\":3808:3838   */\n      gt\n        /* \"#utility.yul\":3805:3861   */\n      iszero\n      tag_148\n      jumpi\n        /* \"#utility.yul\":3841:3859   */\n      tag_149\n      tag_79\n      jump\t// in\n    tag_149:\n        /* \"#utility.yul\":3805:3861   */\n    tag_148:\n        /* \"#utility.yul\":3879:3908   */\n      tag_150\n        /* \"#utility.yul\":3901:3907   */\n      dup3\n        /* \"#utility.yul\":3879:3908   */\n      tag_75\n      jump\t// in\n    tag_150:\n        /* \"#utility.yul\":3871:3908   */\n      swap1\n      pop\n        /* \"#utility.yul\":3963:3967   */\n      0x20\n        /* \"#utility.yul\":3957:3961   */\n      dup2\n        /* \"#utility.yul\":3953:3968   */\n      add\n        /* \"#utility.yul\":3945:3968   */\n      swap1\n      pop\n        /* \"#utility.yul\":3667:3975   */\n      swap2\n      swap1\n      pop\n      jump\t// out\n        /* \"#utility.yul\":3981:4129   */\n    tag_83:\n        /* \"#utility.yul\":4079:4085   */\n      dup3\n        /* \"#utility.yul\":4074:4077   */\n      dup2\n        /* \"#utility.yul\":4069:4072   */\n      dup4\n        /* \"#utility.yul\":4056:4086   */\n      calldatacopy\n        /* \"#utility.yul\":4120:4121   */\n      0x00\n        /* \"#utility.yul\":4111:4117   */\n      dup4\n        /* \"#utility.yul\":4106:4109   */\n      dup4\n        /* \"#utility.yul\":4102:4118   */\n      add\n        /* \"#utility.yul\":4095:4122   */\n      mstore\n        /* \"#utility.yul\":3981:4129   */\n      pop\n      pop\n      pop\n      jump\t// out\n        /* \"#utility.yul\":4135:4560   */\n    tag_84:\n        /* \"#utility.yul\":4213:4218   */\n      0x00\n        /* \"#utility.yul\":4238:4304   */\n      tag_153\n        /* \"#utility.yul\":4254:4303   */\n      tag_154\n        /* \"#utility.yul\":4296:4302   */\n      dup5\n        /* \"#utility.yul\":4254:4303   */\n      tag_82\n      jump\t// in\n    tag_154:\n        /* \"#utility.yul\":4238:4304   */\n      tag_81\n      jump\t// in\n    tag_153:\n        /* \"#utility.yul\":4229:4304   */\n      swap1\n      pop\n        /* \"#utility.yul\":4327:4333   */\n      dup3\n        /* \"#utility.yul\":4320:4325   */\n      dup2\n        /* \"#utility.yul\":4313:4334   */\n      mstore\n        /* \"#utility.yul\":4365:4369   */\n      0x20\n        /* \"#utility.yul\":4358:4363   */\n      dup2\n        /* \"#utility.yul\":4354:4370   */\n      add\n        /* \"#utility.yul\":4403:4406   */\n      dup5\n        /* \"#utility.yul\":4394:4400   */\n      dup5\n        /* \"#utility.yul\":4389:4392   */\n      dup5\n        /* \"#utility.yul\":4385:4401   */\n      add\n        /* \"#utility.yul\":4382:4407   */\n      gt\n        /* \"#utility.yul\":4379:4491   */\n      iszero\n      tag_155\n      jumpi\n        /* \"#utility.yul\":4410:4489   */\n      tag_156\n      tag_78\n      jump\t// in\n    tag_156:\n        /* \"#utility.yul\":4379:4491   */\n    tag_155:\n        /* \"#utility.yul\":4500:4554   */\n      tag_157\n        /* \"#utility.yul\":4547:4553   */\n      dup5\n        /* \"#utility.yul\":4542:4545   */\n      dup3\n        /* \"#utility.yul\":4537:4540   */\n      dup6\n        /* \"#utility.yul\":4500:4554   */\n      tag_83\n      jump\t// in\n    tag_157:\n        /* \"#utility.yul\":4219:4560   */\n      pop\n        /* \"#utility.yul\":4135:4560   */\n      swap4\n      swap3\n      pop\n      pop\n      pop\n      jump\t// out\n        /* \"#utility.yul\":4580:4920   */\n    tag_85:\n        /* \"#utility.yul\":4636:4641   */\n      0x00\n        /* \"#utility.yul\":4685:4688   */\n      dup3\n        /* \"#utility.yul\":4678:4682   */\n      0x1f\n        /* \"#utility.yul\":4670:4676   */\n      dup4\n        /* \"#utility.yul\":4666:4683   */\n      add\n        /* \"#utility.yul\":4662:4689   */\n      slt\n        /* \"#utility.yul\":4652:4774   */\n      tag_159\n      jumpi\n        /* \"#utility.yul\":4693:4772   */\n      tag_160\n      tag_77\n      jump\t// in\n    tag_160:\n        /* \"#utility.yul\":4652:4774   */\n    tag_159:\n        /* \"#utility.yul\":4810:4816   */\n      dup2\n        /* \"#utility.yul\":4797:4817   */\n      calldataload\n        /* \"#utility.yul\":4835:4914   */\n      tag_161\n        /* \"#utility.yul\":4910:4913   */\n      dup5\n        /* \"#utility.yul\":4902:4908   */\n      dup3\n        /* \"#utility.yul\":4895:4899   */\n      0x20\n        /* \"#utility.yul\":4887:4893   */\n      dup7\n        /* \"#utility.yul\":4883:4900   */\n      add\n        /* \"#utility.yul\":4835:4914   */\n      tag_84\n      jump\t// in\n    tag_161:\n        /* \"#utility.yul\":4826:4914   */\n      swap2\n      pop\n        /* \"#utility.yul\":4642:4920   */\n      pop\n        /* \"#utility.yul\":4580:4920   */\n      swap3\n      swap2\n      pop\n      pop\n      jump\t// out\n        /* \"#utility.yul\":4926:5435   */\n    tag_21:\n        /* \"#utility.yul\":4995:5001   */\n      0x00\n        /* \"#utility.yul\":5044:5046   */\n      0x20\n        /* \"#utility.yul\":5032:5041   */\n      dup3\n        /* \"#utility.yul\":5023:5030   */\n      dup5\n        /* \"#utility.yul\":5019:5042   */\n      sub\n        /* \"#utility.yul\":5015:5047   */\n      slt\n        /* \"#utility.yul\":5012:5131   */\n      iszero\n      tag_163\n      jumpi\n        /* \"#utility.yul\":5050:5129   */\n      tag_164\n      tag_66\n      jump\t// in\n    tag_164:\n        /* \"#utility.yul\":5012:5131   */\n    tag_163:\n        /* \"#utility.yul\":5198:5199   */\n      0x00\n        /* \"#utility.yul\":5187:5196   */\n      dup3\n        /* \"#utility.yul\":5183:5200   */\n      add\n        /* \"#utility.yul\":5170:5201   */\n      calldataload\n        /* \"#utility.yul\":5228:5246   */\n      0xffffffffffffffff\n        /* \"#utility.yul\":5220:5226   */\n      dup2\n        /* \"#utility.yul\":5217:5247   */\n      gt\n        /* \"#utility.yul\":5214:5331   */\n      iszero\n      tag_165\n      jumpi\n        /* \"#utility.yul\":5250:5329   */\n      tag_166\n      tag_67\n      jump\t// in\n    tag_166:\n        /* \"#utility.yul\":5214:5331   */\n    tag_165:\n        /* \"#utility.yul\":5355:5418   */\n      tag_167\n        /* \"#utility.yul\":5410:5417   */\n      dup5\n        /* \"#utility.yul\":5401:5407   */\n      dup3\n        /* \"#utility.yul\":5390:5399   */\n      dup6\n        /* \"#utility.yul\":5386:5408   */\n      add\n        /* \"#utility.yul\":5355:5418   */\n      tag_85\n      jump\t// in\n    tag_167:\n        /* \"#utility.yul\":5345:5418   */\n      swap2\n      pop\n        /* \"#utility.yul\":5141:5428   */\n      pop\n        /* \"#utility.yul\":4926:5435   */\n      swap3\n      swap2\n      pop\n      pop\n      jump\t// out\n        /* \"#utility.yul\":5441:5663   */\n    tag_26:\n        /* \"#utility.yul\":5534:5538   */\n      0x00\n        /* \"#utility.yul\":5572:5574   */\n      0x20\n        /* \"#utility.yul\":5561:5570   */\n      dup3\n        /* \"#utility.yul\":5557:5575   */\n      add\n        /* \"#utility.yul\":5549:5575   */\n      swap1\n      pop\n        /* \"#utility.yul\":5585:5656   */\n      tag_169\n        /* \"#utility.yul\":5653:5654   */\n      0x00\n        /* \"#utility.yul\":5642:5651   */\n      dup4\n        /* \"#utility.yul\":5638:5655   */\n      add\n        /* \"#utility.yul\":5629:5635   */\n      dup5\n        /* \"#utility.yul\":5585:5656   */\n      tag_71\n      jump\t// in\n    tag_169:\n        /* \"#utility.yul\":5441:5663   */\n      swap3\n      swap2\n      pop\n      pop\n      jump\t// out\n        /* \"#utility.yul\":5669:5849   */\n    tag_86:\n        /* \"#utility.yul\":5717:5794   */\n      0x4e487b7100000000000000000000000000000000000000000000000000000000\n        /* \"#utility.yul\":5714:5715   */\n      0x00\n        /* \"#utility.yul\":5707:5795   */\n      mstore\n        /* \"#utility.yul\":5814:5818   */\n      0x22\n        /* \"#utility.yul\":5811:5812   */\n      0x04\n        /* \"#utility.yul\":5804:5819   */\n      mstore\n        /* \"#utility.yul\":5838:5842   */\n      0x24\n        /* \"#utility.yul\":5835:5836   */\n      0x00\n        /* \"#utility.yul\":5828:5843   */\n      revert\n        /* \"#utility.yul\":5855:6175   */\n    tag_33:\n        /* \"#utility.yul\":5899:5905   */\n      0x00\n        /* \"#utility.yul\":5936:5937   */\n      0x02\n        /* \"#utility.yul\":5930:5934   */\n      dup3\n        /* \"#utility.yul\":5926:5938   */\n      div\n        /* \"#utility.yul\":5916:5938   */\n      swap1\n      pop\n        /* \"#utility.yul\":5983:5984   */\n      0x01\n        /* \"#utility.yul\":5977:5981   */\n      dup3\n        /* \"#utility.yul\":5973:5985   */\n      and\n        /* \"#utility.yul\":6004:6022   */\n      dup1\n        /* \"#utility.yul\":5994:6075   */\n      tag_172\n      jumpi\n        /* \"#utility.yul\":6060:6064   */\n      0x7f\n        /* \"#utility.yul\":6052:6058   */\n      dup3\n        /* \"#utility.yul\":6048:6065   */\n      and\n        /* \"#utility.yul\":6038:6065   */\n      swap2\n      pop\n        /* \"#utility.yul\":5994:6075   */\n    tag_172:\n        /* \"#utility.yul\":6122:6124   */\n      0x20\n        /* \"#utility.yul\":6114:6120   */\n      dup3\n        /* \"#utility.yul\":6111:6125   */\n      lt\n        /* \"#utility.yul\":6091:6109   */\n      dup2\n        /* \"#utility.yul\":6088:6126   */\n      sub\n        /* \"#utility.yul\":6085:6169   */\n      tag_173\n      jumpi\n        /* \"#utility.yul\":6141:6159   */\n      tag_174\n      tag_86\n      jump\t// in\n    tag_174:\n        /* \"#utility.yul\":6085:6169   */\n    tag_173:\n        /* \"#utility.yul\":5906:6175   */\n      pop\n        /* \"#utility.yul\":5855:6175   */\n      swap2\n      swap1\n      pop\n      jump\t// out\n        /* \"#utility.yul\":6181:6356   */\n    tag_87:\n        /* \"#utility.yul\":6321:6348   */\n      0x5469636b6574206e756d62657220697320696e76616c69642e00000000000000\n        /* \"#utility.yul\":6317:6318   */\n      0x00\n        /* \"#utility.yul\":6309:6315   */\n      dup3\n        /* \"#utility.yul\":6305:6319   */\n      add\n        /* \"#utility.yul\":6298:6349   */\n      mstore\n        /* \"#utility.yul\":6181:6356   */\n      pop\n      jump\t// out\n        /* \"#utility.yul\":6362:6728   */\n    tag_88:\n        /* \"#utility.yul\":6504:6507   */\n      0x00\n        /* \"#utility.yul\":6525:6592   */\n      tag_177\n        /* \"#utility.yul\":6589:6591   */\n      0x19\n        /* \"#utility.yul\":6584:6587   */\n      dup4\n        /* \"#utility.yul\":6525:6592   */\n      tag_73\n      jump\t// in\n    tag_177:\n        /* \"#utility.yul\":6518:6592   */\n      swap2\n      pop\n        /* \"#utility.yul\":6601:6694   */\n      tag_178\n        /* \"#utility.yul\":6690:6693   */\n      dup3\n        /* \"#utility.yul\":6601:6694   */\n      tag_87\n      jump\t// in\n    tag_178:\n        /* \"#utility.yul\":6719:6721   */\n      0x20\n        /* \"#utility.yul\":6714:6717   */\n      dup3\n        /* \"#utility.yul\":6710:6722   */\n      add\n        /* \"#utility.yul\":6703:6722   */\n      swap1\n      pop\n        /* \"#utility.yul\":6362:6728   */\n      swap2\n      swap1\n      pop\n      jump\t// out\n        /* \"#utility.yul\":6734:7153   */\n    tag_42:\n        /* \"#utility.yul\":6900:6904   */\n      0x00\n        /* \"#utility.yul\":6938:6940   */\n      0x20\n        /* \"#utility.yul\":6927:6936   */\n      dup3\n        /* \"#utility.yul\":6923:6941   */\n      add\n        /* \"#utility.yul\":6915:6941   */\n      swap1\n      pop\n        /* \"#utility.yul\":6987:6996   */\n      dup2\n        /* \"#utility.yul\":6981:6985   */\n      dup2\n        /* \"#utility.yul\":6977:6997   */\n      sub\n        /* \"#utility.yul\":6973:6974   */\n      0x00\n        /* \"#utility.yul\":6962:6971   */\n      dup4\n        /* \"#utility.yul\":6958:6975   */\n      add\n        /* \"#utility.yul\":6951:6998   */\n      mstore\n        /* \"#utility.yul\":7015:7146   */\n      tag_180\n        /* \"#utility.yul\":7141:7145   */\n      dup2\n        /* \"#utility.yul\":7015:7146   */\n      tag_88\n      jump\t// in\n    tag_180:\n        /* \"#utility.yul\":7007:7146   */\n      swap1\n      pop\n        /* \"#utility.yul\":6734:7153   */\n      swap2\n      swap1\n      pop\n      jump\t// out\n        /* \"#utility.yul\":7159:7339   */\n    tag_89:\n        /* \"#utility.yul\":7207:7284   */\n      0x4e487b7100000000000000000000000000000000000000000000000000000000\n        /* \"#utility.yul\":7204:7205   */\n      0x00\n        /* \"#utility.yul\":7197:7285   */\n      mstore\n        /* \"#utility.yul\":7304:7308   */\n      0x11\n        /* \"#utility.yul\":7301:7302   */\n      0x04\n        /* \"#utility.yul\":7294:7309   */\n      mstore\n        /* \"#utility.yul\":7328:7332   */\n      0x24\n        /* \"#utility.yul\":7325:7326   */\n      0x00\n        /* \"#utility.yul\":7318:7333   */\n      revert\n        /* \"#utility.yul\":7345:7539   */\n    tag_44:\n        /* \"#utility.yul\":7385:7389   */\n      0x00\n        /* \"#utility.yul\":7405:7425   */\n      tag_183\n        /* \"#utility.yul\":7423:7424   */\n      dup3\n        /* \"#utility.yul\":7405:7425   */\n      tag_68\n      jump\t// in\n    tag_183:\n        /* \"#utility.yul\":7400:7425   */\n      swap2\n      pop\n        /* \"#utility.yul\":7439:7459   */\n      tag_184\n        /* \"#utility.yul\":7457:7458   */\n      dup4\n        /* \"#utility.yul\":7439:7459   */\n      tag_68\n      jump\t// in\n    tag_184:\n        /* \"#utility.yul\":7434:7459   */\n      swap3\n      pop\n        /* \"#utility.yul\":7483:7484   */\n      dup3\n        /* \"#utility.yul\":7480:7481   */\n      dup3\n        /* \"#utility.yul\":7476:7485   */\n      sub\n        /* \"#utility.yul\":7468:7485   */\n      swap1\n      pop\n        /* \"#utility.yul\":7507:7508   */\n      dup2\n        /* \"#utility.yul\":7501:7505   */\n      dup2\n        /* \"#utility.yul\":7498:7509   */\n      gt\n        /* \"#utility.yul\":7495:7532   */\n      iszero\n      tag_185\n      jumpi\n        /* \"#utility.yul\":7512:7530   */\n      tag_186\n      tag_89\n      jump\t// in\n    tag_186:\n        /* \"#utility.yul\":7495:7532   */\n    tag_185:\n        /* \"#utility.yul\":7345:7539   */\n      swap3\n      swap2\n      pop\n      pop\n      jump\t// out\n        /* \"#utility.yul\":7545:7725   */\n    tag_47:\n        /* \"#utility.yul\":7593:7670   */\n      0x4e487b7100000000000000000000000000000000000000000000000000000000\n        /* \"#utility.yul\":7590:7591   */\n      0x00\n        /* \"#utility.yul\":7583:7671   */\n      mstore\n        /* \"#utility.yul\":7690:7694   */\n      0x32\n        /* \"#utility.yul\":7687:7688   */\n      0x04\n        /* \"#utility.yul\":7680:7695   */\n      mstore\n        /* \"#utility.yul\":7714:7718   */\n      0x24\n        /* \"#utility.yul\":7711:7712   */\n      0x00\n        /* \"#utility.yul\":7704:7719   */\n      revert\n        /* \"#utility.yul\":7731:7963   */\n    tag_90:\n        /* \"#utility.yul\":7871:7905   */\n      0x51756575652069732066756c6c2c206e6f206d6f7265207469636b6574732063\n        /* \"#utility.yul\":7867:7868   */\n      0x00\n        /* \"#utility.yul\":7859:7865   */\n      dup3\n        /* \"#utility.yul\":7855:7869   */\n      add\n        /* \"#utility.yul\":7848:7906   */\n      mstore\n        /* \"#utility.yul\":7940:7955   */\n      0x616e206265206973737565642e00000000000000000000000000000000000000\n        /* \"#utility.yul\":7935:7937   */\n      0x20\n        /* \"#utility.yul\":7927:7933   */\n      dup3\n        /* \"#utility.yul\":7923:7938   */\n      add\n        /* \"#utility.yul\":7916:7956   */\n      mstore\n        /* \"#utility.yul\":7731:7963   */\n      pop\n      jump\t// out\n        /* \"#utility.yul\":7969:8335   */\n    tag_91:\n        /* \"#utility.yul\":8111:8114   */\n      0x00\n        /* \"#utility.yul\":8132:8199   */\n      tag_190\n        /* \"#utility.yul\":8196:8198   */\n      0x2d\n        /* \"#utility.yul\":8191:8194   */\n      dup4\n        /* \"#utility.yul\":8132:8199   */\n      tag_73\n      jump\t// in\n    tag_190:\n        /* \"#utility.yul\":8125:8199   */\n      swap2\n      pop\n        /* \"#utility.yul\":8208:8301   */\n      tag_191\n        /* \"#utility.yul\":8297:8300   */\n      dup3\n        /* \"#utility.yul\":8208:8301   */\n      tag_90\n      jump\t// in\n    tag_191:\n        /* \"#utility.yul\":8326:8328   */\n      0x40\n        /* \"#utility.yul\":8321:8324   */\n      dup3\n        /* \"#utility.yul\":8317:8329   */\n      add\n        /* \"#utility.yul\":8310:8329   */\n      swap1\n      pop\n        /* \"#utility.yul\":7969:8335   */\n      swap2\n      swap1\n      pop\n      jump\t// out\n        /* \"#utility.yul\":8341:8760   */\n    tag_57:\n        /* \"#utility.yul\":8507:8511   */\n      0x00\n        /* \"#utility.yul\":8545:8547   */\n      0x20\n        /* \"#utility.yul\":8534:8543   */\n      dup3\n        /* \"#utility.yul\":8530:8548   */\n      add\n        /* \"#utility.yul\":8522:8548   */\n      swap1\n      pop\n        /* \"#utility.yul\":8594:8603   */\n      dup2\n        /* \"#utility.yul\":8588:8592   */\n      dup2\n        /* \"#utility.yul\":8584:8604   */\n      sub\n        /* \"#utility.yul\":8580:8581   */\n      0x00\n        /* \"#utility.yul\":8569:8578   */\n      dup4\n        /* \"#utility.yul\":8565:8582   */\n      add\n        /* \"#utility.yul\":8558:8605   */\n      mstore\n        /* \"#utility.yul\":8622:8753   */\n      tag_193\n        /* \"#utility.yul\":8748:8752   */\n      dup2\n        /* \"#utility.yul\":8622:8753   */\n      tag_91\n      jump\t// in\n    tag_193:\n        /* \"#utility.yul\":8614:8753   */\n      swap1\n      pop\n        /* \"#utility.yul\":8341:8760   */\n      swap2\n      swap1\n      pop\n      jump\t// out\n        /* \"#utility.yul\":8766:8957   */\n    tag_59:\n        /* \"#utility.yul\":8806:8809   */\n      0x00\n        /* \"#utility.yul\":8825:8845   */\n      tag_195\n        /* \"#utility.yul\":8843:8844   */\n      dup3\n        /* \"#utility.yul\":8825:8845   */\n      tag_68\n      jump\t// in\n    tag_195:\n        /* \"#utility.yul\":8820:8845   */\n      swap2\n      pop\n        /* \"#utility.yul\":8859:8879   */\n      tag_196\n        /* \"#utility.yul\":8877:8878   */\n      dup4\n        /* \"#utility.yul\":8859:8879   */\n      tag_68\n      jump\t// in\n    tag_196:\n        /* \"#utility.yul\":8854:8879   */\n      swap3\n      pop\n        /* \"#utility.yul\":8902:8903   */\n      dup3\n        /* \"#utility.yul\":8899:8900   */\n      dup3\n        /* \"#utility.yul\":8895:8904   */\n      add\n        /* \"#utility.yul\":8888:8904   */\n      swap1\n      pop\n        /* \"#utility.yul\":8923:8926   */\n      dup1\n        /* \"#utility.yul\":8920:8921   */\n      dup3\n        /* \"#utility.yul\":8917:8927   */\n      gt\n        /* \"#utility.yul\":8914:8950   */\n      iszero\n      tag_197\n      jumpi\n        /* \"#utility.yul\":8930:8948   */\n      tag_198\n      tag_89\n      jump\t// in\n    tag_198:\n        /* \"#utility.yul\":8914:8950   */\n    tag_197:\n        /* \"#utility.yul\":8766:8957   */\n      swap3\n      swap2\n      pop\n      pop\n      jump\t// out\n        /* \"#utility.yul\":8963:9104   */\n    tag_92:\n        /* \"#utility.yul\":9012:9016   */\n      0x00\n        /* \"#utility.yul\":9035:9038   */\n      dup2\n        /* \"#utility.yul\":9027:9038   */\n      swap1\n      pop\n        /* \"#utility.yul\":9058:9061   */\n      dup2\n        /* \"#utility.yul\":9055:9056   */\n      0x00\n        /* \"#utility.yul\":9048:9062   */\n      mstore\n        /* \"#utility.yul\":9092:9096   */\n      0x20\n        /* \"#utility.yul\":9089:9090   */\n      0x00\n        /* \"#utility.yul\":9079:9097   */\n      keccak256\n        /* \"#utility.yul\":9071:9097   */\n      swap1\n      pop\n        /* \"#utility.yul\":8963:9104   */\n      swap2\n      swap1\n      pop\n      jump\t// out\n        /* \"#utility.yul\":9110:9203   */\n    tag_93:\n        /* \"#utility.yul\":9147:9153   */\n      0x00\n        /* \"#utility.yul\":9194:9196   */\n      0x20\n        /* \"#utility.yul\":9189:9191   */\n      0x1f\n        /* \"#utility.yul\":9182:9187   */\n      dup4\n        /* \"#utility.yul\":9178:9192   */\n      add\n        /* \"#utility.yul\":9174:9197   */\n      div\n        /* \"#utility.yul\":9164:9197   */\n      swap1\n      pop\n        /* \"#utility.yul\":9110:9203   */\n      swap2\n      swap1\n      pop\n      jump\t// out\n        /* \"#utility.yul\":9209:9316   */\n    tag_94:\n        /* \"#utility.yul\":9253:9261   */\n      0x00\n        /* \"#utility.yul\":9303:9308   */\n      dup3\n        /* \"#utility.yul\":9297:9301   */\n      dup3\n        /* \"#utility.yul\":9293:9309   */\n      shl\n        /* \"#utility.yul\":9272:9309   */\n      swap1\n      pop\n        /* \"#utility.yul\":9209:9316   */\n      swap3\n      swap2\n      pop\n      pop\n      jump\t// out\n        /* \"#utility.yul\":9322:9715   */\n    tag_95:\n        /* \"#utility.yul\":9391:9397   */\n      0x00\n        /* \"#utility.yul\":9441:9442   */\n      0x08\n        /* \"#utility.yul\":9429:9439   */\n      dup4\n        /* \"#utility.yul\":9425:9443   */\n      mul\n        /* \"#utility.yul\":9464:9561   */\n      tag_203\n        /* \"#utility.yul\":9494:9560   */\n      0xffffffffffffffffffffffffffffffffffffffffffffffffffffffffffffffff\n        /* \"#utility.yul\":9483:9492   */\n      dup3\n        /* \"#utility.yul\":9464:9561   */\n      tag_94\n      jump\t// in\n    tag_203:\n        /* \"#utility.yul\":9582:9621   */\n      tag_204\n        /* \"#utility.yul\":9612:9620   */\n      dup7\n        /* \"#utility.yul\":9601:9610   */\n      dup4\n        /* \"#utility.yul\":9582:9621   */\n      tag_94\n      jump\t// in\n    tag_204:\n        /* \"#utility.yul\":9570:9621   */\n      swap6\n      pop\n        /* \"#utility.yul\":9654:9658   */\n      dup1\n        /* \"#utility.yul\":9650:9659   */\n      not\n        /* \"#utility.yul\":9643:9648   */\n      dup5\n        /* \"#utility.yul\":9639:9660   */\n      and\n        /* \"#utility.yul\":9630:9660   */\n      swap4\n      pop\n        /* \"#utility.yul\":9703:9707   */\n      dup1\n        /* \"#utility.yul\":9693:9701   */\n      dup7\n        /* \"#utility.yul\":9689:9708   */\n      and\n        /* \"#utility.yul\":9682:9687   */\n      dup5\n        /* \"#utility.yul\":9679:9709   */\n      or\n        /* \"#utility.yul\":9669:9709   */\n      swap3\n      pop\n        /* \"#utility.yul\":9398:9715   */\n      pop\n      pop\n        /* \"#utility.yul\":9322:9715   */\n      swap4\n      swap3\n      pop\n      pop\n      pop\n      jump\t// out\n        /* \"#utility.yul\":9721:9781   */\n    tag_96:\n        /* \"#utility.yul\":9749:9752   */\n      0x00\n        /* \"#utility.yul\":9770:9775   */\n      dup2\n        /* \"#utility.yul\":9763:9775   */\n      swap1\n      pop\n        /* \"#utility.yul\":9721:9781   */\n      swap2\n      swap1\n      pop\n      jump\t// out\n        /* \"#utility.yul\":9787:9929   */\n    tag_97:\n        /* \"#utility.yul\":9837:9846   */\n      0x00\n        /* \"#utility.yul\":9870:9923   */\n      tag_207\n        /* \"#utility.yul\":9888:9922   */\n      tag_208\n        /* \"#utility.yul\":9897:9921   */\n      tag_209\n        /* \"#utility.yul\":9915:9920   */\n      dup5\n        /* \"#utility.yul\":9897:9921   */\n      tag_68\n      jump\t// in\n    tag_209:\n        /* \"#utility.yul\":9888:9922   */\n      tag_96\n      jump\t// in\n    tag_208:\n        /* \"#utility.yul\":9870:9923   */\n      tag_68\n      jump\t// in\n    tag_207:\n        /* \"#utility.yul\":9857:9923   */\n      swap1\n      pop\n        /* \"#utility.yul\":9787:9929   */\n      swap2\n      swap1\n      pop\n      jump\t// out\n        /* \"#utility.yul\":9935:10010   */\n    tag_98:\n        /* \"#utility.yul\":9978:9981   */\n      0x00\n        /* \"#utility.yul\":9999:10004   */\n      dup2\n        /* \"#utility.yul\":9992:10004   */\n      swap1\n      pop\n        /* \"#utility.yul\":9935:10010   */\n      swap2\n      swap1\n      pop\n      jump\t// out\n        /* \"#utility.yul\":10016:10285   */\n    tag_99:\n        /* \"#utility.yul\":10126:10165   */\n      tag_212\n        /* \"#utility.yul\":10157:10164   */\n      dup4\n        /* \"#utility.yul\":10126:10165   */\n      tag_97\n      jump\t// in\n    tag_212:\n        /* \"#utility.yul\":10187:10278   */\n      tag_213\n        /* \"#utility.yul\":10236:10277   */\n      tag_214\n        /* \"#utility.yul\":10260:10276   */\n      dup3\n        /* \"#utility.yul\":10236:10277   */\n      tag_98\n      jump\t// in\n    tag_214:\n        /* \"#utility.yul\":10228:10234   */\n      dup5\n        /* \"#utility.yul\":10221:10225   */\n      dup5\n        /* \"#utility.yul\":10215:10226   */\n      sload\n        /* \"#utility.yul\":10187:10278   */\n      tag_95\n      jump\t// in\n    tag_213:\n        /* \"#utility.yul\":10181:10185   */\n      dup3\n        /* \"#utility.yul\":10174:10279   */\n      sstore\n        /* \"#utility.yul\":10092:10285   */\n      pop\n        /* \"#utility.yul\":10016:10285   */\n      pop\n      pop\n      pop\n      jump\t// out\n        /* \"#utility.yul\":10291:10364   */\n    tag_100:\n        /* \"#utility.yul\":10336:10339   */\n      0x00\n        /* \"#utility.yul\":10291:10364   */\n      swap1\n      jump\t// out\n        /* \"#utility.yul\":10370:10559   */\n    tag_101:\n        /* \"#utility.yul\":10447:10479   */\n      tag_217\n      tag_100\n      jump\t// in\n    tag_217:\n        /* \"#utility.yul\":10488:10553   */\n      tag_218\n        /* \"#utility.yul\":10546:10552   */\n      dup2\n        /* \"#utility.yul\":10538:10544   */\n      dup5\n        /* \"#utility.yul\":10532:10536   */\n      dup5\n        /* \"#utility.yul\":10488:10553   */\n      tag_99\n      jump\t// in\n    tag_218:\n        /* \"#utility.yul\":10423:10559   */\n      pop\n        /* \"#utility.yul\":10370:10559   */\n      pop\n      pop\n      jump\t// out\n        /* \"#utility.yul\":10565:10751   */\n    tag_102:\n        /* \"#utility.yul\":10625:10745   */\n    tag_220:\n        /* \"#utility.yul\":10642:10645   */\n      dup2\n        /* \"#utility.yul\":10635:10640   */\n      dup2\n        /* \"#utility.yul\":10632:10646   */\n      lt\n        /* \"#utility.yul\":10625:10745   */\n      iszero\n      tag_222\n      jumpi\n        /* \"#utility.yul\":10696:10735   */\n      tag_223\n        /* \"#utility.yul\":10733:10734   */\n      0x00\n        /* \"#utility.yul\":10726:10731   */\n      dup3\n        /* \"#utility.yul\":10696:10735   */\n      tag_101\n      jump\t// in\n    tag_223:\n        /* \"#utility.yul\":10669:10670   */\n      0x01\n        /* \"#utility.yul\":10662:10667   */\n      dup2\n        /* \"#utility.yul\":10658:10671   */\n      add\n        /* \"#utility.yul\":10649:10671   */\n      swap1\n      pop\n        /* \"#utility.yul\":10625:10745   */\n      jump(tag_220)\n    tag_222:\n        /* \"#utility.yul\":10565:10751   */\n      pop\n      pop\n      jump\t// out\n        /* \"#utility.yul\":10757:11300   */\n    tag_103:\n        /* \"#utility.yul\":10858:10860   */\n      0x1f\n        /* \"#utility.yul\":10853:10856   */\n      dup3\n        /* \"#utility.yul\":10850:10861   */\n      gt\n        /* \"#utility.yul\":10847:11293   */\n      iszero\n      tag_225\n      jumpi\n        /* \"#utility.yul\":10892:10930   */\n      tag_226\n        /* \"#utility.yul\":10924:10929   */\n      dup2\n        /* \"#utility.yul\":10892:10930   */\n      tag_92\n      jump\t// in\n    tag_226:\n        /* \"#utility.yul\":10976:11005   */\n      tag_227\n        /* \"#utility.yul\":10994:11004   */\n      dup5\n        /* \"#utility.yul\":10976:11005   */\n      tag_93\n      jump\t// in\n    tag_227:\n        /* \"#utility.yul\":10966:10974   */\n      dup2\n        /* \"#utility.yul\":10962:11006   */\n      add\n        /* \"#utility.yul\":11159:11161   */\n      0x20\n        /* \"#utility.yul\":11147:11157   */\n      dup6\n        /* \"#utility.yul\":11144:11162   */\n      lt\n        /* \"#utility.yul\":11141:11190   */\n      iszero\n      tag_228\n      jumpi\n        /* \"#utility.yul\":11180:11188   */\n      dup2\n        /* \"#utility.yul\":11165:11188   */\n      swap1\n      pop\n        /* \"#utility.yul\":11141:11190   */\n    tag_228:\n        /* \"#utility.yul\":11203:11283   */\n      tag_229\n        /* \"#utility.yul\":11259:11281   */\n      tag_230\n        /* \"#utility.yul\":11277:11280   */\n      dup6\n        /* \"#utility.yul\":11259:11281   */\n      tag_93\n      jump\t// in\n    tag_230:\n        /* \"#utility.yul\":11249:11257   */\n      dup4\n        /* \"#utility.yul\":11245:11282   */\n      add\n        /* \"#utility.yul\":11232:11243   */\n      dup3\n        /* \"#utility.yul\":11203:11283   */\n      tag_102\n      jump\t// in\n    tag_229:\n        /* \"#utility.yul\":10862:11293   */\n      pop\n      pop\n        /* \"#utility.yul\":10847:11293   */\n    tag_225:\n        /* \"#utility.yul\":10757:11300   */\n      pop\n      pop\n      pop\n      jump\t// out\n        /* \"#utility.yul\":11306:11423   */\n    tag_104:\n        /* \"#utility.yul\":11360:11368   */\n      0x00\n        /* \"#utility.yul\":11410:11415   */\n      dup3\n        /* \"#utility.yul\":11404:11408   */\n      dup3\n        /* \"#utility.yul\":11400:11416   */\n      shr\n        /* \"#utility.yul\":11379:11416   */\n      swap1\n      pop\n        /* \"#utility.yul\":11306:11423   */\n      swap3\n      swap2\n      pop\n      pop\n      jump\t// out\n        /* \"#utility.yul\":11429:11598   */\n    tag_105:\n        /* \"#utility.yul\":11473:11479   */\n      0x00\n        /* \"#utility.yul\":11506:11557   */\n      tag_233\n        /* \"#utility.yul\":11554:11555   */\n      0x00\n        /* \"#utility.yul\":11550:11556   */\n      not\n        /* \"#utility.yul\":11542:11547   */\n      dup5\n        /* \"#utility.yul\":11539:11540   */\n      0x08\n        /* \"#utility.yul\":11535:11548   */\n      mul\n        /* \"#utility.yul\":11506:11557   */\n      tag_104\n      jump\t// in\n    tag_233:\n        /* \"#utility.yul\":11502:11558   */\n      not\n        /* \"#utility.yul\":11587:11591   */\n      dup1\n        /* \"#utility.yul\":11581:11585   */\n      dup4\n        /* \"#utility.yul\":11577:11592   */\n      and\n        /* \"#utility.yul\":11567:11592   */\n      swap2\n      pop\n        /* \"#utility.yul\":11480:11598   */\n      pop\n        /* \"#utility.yul\":11429:11598   */\n      swap3\n      swap2\n      pop\n      pop\n      jump\t// out\n        /* \"#utility.yul\":11603:11898   */\n    tag_106:\n        /* \"#utility.yul\":11679:11683   */\n      0x00\n        /* \"#utility.yul\":11825:11854   */\n      tag_235\n        /* \"#utility.yul\":11850:11853   */\n      dup4\n        /* \"#utility.yul\":11844:11848   */\n      dup4\n        /* \"#utility.yul\":11825:11854   */\n      tag_105\n      jump\t// in\n    tag_235:\n        /* \"#utility.yul\":11817:11854   */\n      swap2\n      pop\n        /* \"#utility.yul\":11887:11890   */\n      dup3\n        /* \"#utility.yul\":11884:11885   */\n      0x02\n        /* \"#utility.yul\":11880:11891   */\n      mul\n        /* \"#utility.yul\":11874:11878   */\n      dup3\n        /* \"#utility.yul\":11871:11892   */\n      or\n        /* \"#utility.yul\":11863:11892   */\n      swap1\n      pop\n        /* \"#utility.yul\":11603:11898   */\n      swap3\n      swap2\n      pop\n      pop\n      jump\t// out\n        /* \"#utility.yul\":11903:13298   */\n    tag_62:\n        /* \"#utility.yul\":12020:12057   */\n      tag_237\n        /* \"#utility.yul\":12053:12056   */\n      dup3\n        /* \"#utility.yul\":12020:12057   */\n      tag_72\n      jump\t// in\n    tag_237:\n        /* \"#utility.yul\":12122:12140   */\n      0xffffffffffffffff\n        /* \"#utility.yul\":12114:12120   */\n      dup2\n        /* \"#utility.yul\":12111:12141   */\n      gt\n        /* \"#utility.yul\":12108:12164   */\n      iszero\n      tag_238\n      jumpi\n        /* \"#utility.yul\":12144:12162   */\n      tag_239\n      tag_79\n      jump\t// in\n    tag_239:\n        /* \"#utility.yul\":12108:12164   */\n    tag_238:\n        /* \"#utility.yul\":12188:12226   */\n      tag_240\n        /* \"#utility.yul\":12220:12224   */\n      dup3\n        /* \"#utility.yul\":12214:12225   */\n      sload\n        /* \"#utility.yul\":12188:12226   */\n      tag_33\n      jump\t// in\n    tag_240:\n        /* \"#utility.yul\":12273:12340   */\n      tag_241\n        /* \"#utility.yul\":12333:12339   */\n      dup3\n        /* \"#utility.yul\":12325:12331   */\n      dup3\n        /* \"#utility.yul\":12319:12323   */\n      dup6\n        /* \"#utility.yul\":12273:12340   */\n      tag_103\n      jump\t// in\n    tag_241:\n        /* \"#utility.yul\":12367:12368   */\n      0x00\n        /* \"#utility.yul\":12391:12395   */\n      0x20\n        /* \"#utility.yul\":12378:12395   */\n      swap1\n      pop\n        /* \"#utility.yul\":12423:12425   */\n      0x1f\n        /* \"#utility.yul\":12415:12421   */\n      dup4\n        /* \"#utility.yul\":12412:12426   */\n      gt\n        /* \"#utility.yul\":12440:12441   */\n      0x01\n        /* \"#utility.yul\":12435:13053   */\n      dup2\n      eq\n      tag_243\n      jumpi\n        /* \"#utility.yul\":13097:13098   */\n      0x00\n        /* \"#utility.yul\":13114:13120   */\n      dup5\n        /* \"#utility.yul\":13111:13188   */\n      iszero\n      tag_244\n      jumpi\n        /* \"#utility.yul\":13163:13172   */\n      dup3\n        /* \"#utility.yul\":13158:13161   */\n      dup8\n        /* \"#utility.yul\":13154:13173   */\n      add\n        /* \"#utility.yul\":13148:13174   */\n      mload\n        /* \"#utility.yul\":13139:13174   */\n      swap1\n      pop\n        /* \"#utility.yul\":13111:13188   */\n    tag_244:\n        /* \"#utility.yul\":13214:13281   */\n      tag_245\n        /* \"#utility.yul\":13274:13280   */\n      dup6\n        /* \"#utility.yul\":13267:13272   */\n      dup3\n        /* \"#utility.yul\":13214:13281   */\n      tag_106\n      jump\t// in\n    tag_245:\n        /* \"#utility.yul\":13208:13212   */\n      dup7\n        /* \"#utility.yul\":13201:13282   */\n      sstore\n        /* \"#utility.yul\":13070:13292   */\n      pop\n        /* \"#utility.yul\":12405:13292   */\n      jump(tag_242)\n        /* \"#utility.yul\":12435:13053   */\n    tag_243:\n        /* \"#utility.yul\":12487:12491   */\n      0x1f\n        /* \"#utility.yul\":12483:12492   */\n      not\n        /* \"#utility.yul\":12475:12481   */\n      dup5\n        /* \"#utility.yul\":12471:12493   */\n      and\n        /* \"#utility.yul\":12521:12558   */\n      tag_246\n        /* \"#utility.yul\":12553:12557   */\n      dup7\n        /* \"#utility.yul\":12521:12558   */\n      tag_92\n      jump\t// in\n    tag_246:\n        /* \"#utility.yul\":12580:12581   */\n      0x00\n        /* \"#utility.yul\":12594:12802   */\n    tag_247:\n        /* \"#utility.yul\":12608:12615   */\n      dup3\n        /* \"#utility.yul\":12605:12606   */\n      dup2\n        /* \"#utility.yul\":12602:12616   */\n      lt\n        /* \"#utility.yul\":12594:12802   */\n      iszero\n      tag_249\n      jumpi\n        /* \"#utility.yul\":12687:12696   */\n      dup5\n        /* \"#utility.yul\":12682:12685   */\n      dup10\n        /* \"#utility.yul\":12678:12697   */\n      add\n        /* \"#utility.yul\":12672:12698   */\n      mload\n        /* \"#utility.yul\":12664:12670   */\n      dup3\n        /* \"#utility.yul\":12657:12699   */\n      sstore\n        /* \"#utility.yul\":12738:12739   */\n      0x01\n        /* \"#utility.yul\":12730:12736   */\n      dup3\n        /* \"#utility.yul\":12726:12740   */\n      add\n        /* \"#utility.yul\":12716:12740   */\n      swap2\n      pop\n        /* \"#utility.yul\":12785:12787   */\n      0x20\n        /* \"#utility.yul\":12774:12783   */\n      dup6\n        /* \"#utility.yul\":12770:12788   */\n      add\n        /* \"#utility.yul\":12757:12788   */\n      swap5\n      pop\n        /* \"#utility.yul\":12631:12635   */\n      0x20\n        /* \"#utility.yul\":12628:12629   */\n      dup2\n        /* \"#utility.yul\":12624:12636   */\n      add\n        /* \"#utility.yul\":12619:12636   */\n      swap1\n      pop\n        /* \"#utility.yul\":12594:12802   */\n      jump(tag_247)\n    tag_249:\n        /* \"#utility.yul\":12830:12836   */\n      dup7\n        /* \"#utility.yul\":12821:12828   */\n      dup4\n        /* \"#utility.yul\":12818:12837   */\n      lt\n        /* \"#utility.yul\":12815:12994   */\n      iszero\n      tag_250\n      jumpi\n        /* \"#utility.yul\":12888:12897   */\n      dup5\n        /* \"#utility.yul\":12883:12886   */\n      dup10\n        /* \"#utility.yul\":12879:12898   */\n      add\n        /* \"#utility.yul\":12873:12899   */\n      mload\n        /* \"#utility.yul\":12931:12979   */\n      tag_251\n        /* \"#utility.yul\":12973:12977   */\n      0x1f\n        /* \"#utility.yul\":12965:12971   */\n      dup10\n        /* \"#utility.yul\":12961:12978   */\n      and\n        /* \"#utility.yul\":12950:12959   */\n      dup3\n        /* \"#utility.yul\":12931:12979   */\n      tag_105\n      jump\t// in\n    tag_251:\n        /* \"#utility.yul\":12923:12929   */\n      dup4\n        /* \"#utility.yul\":12916:12980   */\n      sstore\n        /* \"#utility.yul\":12838:12994   */\n      pop\n        /* \"#utility.yul\":12815:12994   */\n    tag_250:\n        /* \"#utility.yul\":13040:13041   */\n      0x01\n        /* \"#utility.yul\":13036:13037   */\n      0x02\n        /* \"#utility.yul\":13028:13034   */\n      dup9\n        /* \"#utility.yul\":13024:13038   */\n      mul\n        /* \"#utility.yul\":13020:13042   */\n      add\n        /* \"#utility.yul\":13014:13018   */\n      dup9\n        /* \"#utility.yul\":13007:13043   */\n      sstore\n        /* \"#utility.yul\":12442:13053   */\n      pop\n      pop\n      pop\n        /* \"#utility.yul\":12405:13292   */\n    tag_242:\n      pop\n        /* \"#utility.yul\":11995:13298   */\n      pop\n      pop\n      pop\n        /* \"#utility.yul\":11903:13298   */\n      pop\n      pop\n      jump\t// out\n\n    auxdata: 0xa26469706673582212201e6be8907ec2e41655df067ccf90f240739f81379d4cf06bc870e40df37100fe64736f6c634300081a0033\n}\n",
				"bytecode": {
					"linkReferences": {},
					"object": "6080604052348015600e575f80fd5b50604051610bf8380380610bf88339818101604052810190602e9190606c565b80600181905550506092565b5f80fd5b5f819050919050565b604e81603e565b81146057575f80fd5b50565b5f815190506066816047565b92915050565b5f60208284031215607e57607d603a565b5b5f608984828501605a565b91505092915050565b610b598061009f5f395ff3fe608060405234801561000f575f80fd5b5060043610610055575f3560e01c806350b44712146100595780637dc379fa1461008a578063a6a77d98146100ba578063c4bcd4dc146100d6578063f7d9cc1e146100f4575b5f80fd5b610073600480360381019061006e9190610420565b610112565b6040516100819291906104ca565b60405180910390f35b6100a4600480360381019061009f9190610420565b6101c6565b6040516100b191906104f8565b60405180910390f35b6100d460048036038101906100cf9190610644565b6102d6565b005b6100de6103cb565b6040516100eb919061068b565b60405180910390f35b6100fc6103d6565b604051610109919061068b565b60405180910390f35b5f8181548110610120575f80fd5b905f5260205f2090600202015f91509050805f015490806001018054610145906106d1565b80601f0160208091040260200160405190810160405280929190818152602001828054610171906106d1565b80156101bc5780601f10610193576101008083540402835291602001916101bc565b820191905f5260205f20905b81548152906001019060200180831161019f57829003601f168201915b5050505050905082565b60605f821180156101db57505f805490508211155b61021a576040517f08c379a00000000000000000000000000000000000000000000000000000000081526004016102119061074b565b60405180910390fd5b5f6001836102289190610796565b81548110610239576102386107c9565b5b905f5260205f2090600202016001018054610253906106d1565b80601f016020809104026020016040519081016040528092919081815260200182805461027f906106d1565b80156102ca5780601f106102a1576101008083540402835291602001916102ca565b820191905f5260205f20905b8154815290600101906020018083116102ad57829003601f168201915b50505050509050919050565b6001545f805490501061031e576040517f08c379a000000000000000000000000000000000000000000000000000000000815260040161031590610866565b60405180910390fd5b5f60015f805490506103309190610884565b90505f604051806040016040528083815260200184815250908060018154018082558091505060019003905f5260205f2090600202015f909190919091505f820151815f0155602082015181600101908161038b9190610a54565b5050507f1ba30fd76c09b4b9fed660bee1d769cfc3252b9192ab5e79b7f499563ace780a81836040516103bf9291906104ca565b60405180910390a15050565b5f8080549050905090565b60015481565b5f604051905090565b5f80fd5b5f80fd5b5f819050919050565b6103ff816103ed565b8114610409575f80fd5b50565b5f8135905061041a816103f6565b92915050565b5f60208284031215610435576104346103e5565b5b5f6104428482850161040c565b91505092915050565b610454816103ed565b82525050565b5f81519050919050565b5f82825260208201905092915050565b8281835e5f83830152505050565b5f601f19601f8301169050919050565b5f61049c8261045a565b6104a68185610464565b93506104b6818560208601610474565b6104bf81610482565b840191505092915050565b5f6040820190506104dd5f83018561044b565b81810360208301526104ef8184610492565b90509392505050565b5f6020820190508181035f8301526105108184610492565b905092915050565b5f80fd5b5f80fd5b7f4e487b71000000000000000000000000000000000000000000000000000000005f52604160045260245ffd5b61055682610482565b810181811067ffffffffffffffff8211171561057557610574610520565b5b80604052505050565b5f6105876103dc565b9050610593828261054d565b919050565b5f67ffffffffffffffff8211156105b2576105b1610520565b5b6105bb82610482565b9050602081019050919050565b828183375f83830152505050565b5f6105e86105e384610598565b61057e565b9050828152602081018484840111156106045761060361051c565b5b61060f8482856105c8565b509392505050565b5f82601f83011261062b5761062a610518565b5b813561063b8482602086016105d6565b91505092915050565b5f60208284031215610659576106586103e5565b5b5f82013567ffffffffffffffff811115610676576106756103e9565b5b61068284828501610617565b91505092915050565b5f60208201905061069e5f83018461044b565b92915050565b7f4e487b71000000000000000000000000000000000000000000000000000000005f52602260045260245ffd5b5f60028204905060018216806106e857607f821691505b6020821081036106fb576106fa6106a4565b5b50919050565b7f5469636b6574206e756d62657220697320696e76616c69642e000000000000005f82015250565b5f610735601983610464565b915061074082610701565b602082019050919050565b5f6020820190508181035f83015261076281610729565b9050919050565b7f4e487b71000000000000000000000000000000000000000000000000000000005f52601160045260245ffd5b5f6107a0826103ed565b91506107ab836103ed565b92508282039050818111156107c3576107c2610769565b5b92915050565b7f4e487b71000000000000000000000000000000000000000000000000000000005f52603260045260245ffd5b7f51756575652069732066756c6c2c206e6f206d6f7265207469636b65747320635f8201527f616e206265206973737565642e00000000000000000000000000000000000000602082015250565b5f610850602d83610464565b915061085b826107f6565b604082019050919050565b5f6020820190508181035f83015261087d81610844565b9050919050565b5f61088e826103ed565b9150610899836103ed565b92508282019050808211156108b1576108b0610769565b5b92915050565b5f819050815f5260205f209050919050565b5f6020601f8301049050919050565b5f82821b905092915050565b5f600883026109137fffffffffffffffffffffffffffffffffffffffffffffffffffffffffffffffff826108d8565b61091d86836108d8565b95508019841693508086168417925050509392505050565b5f819050919050565b5f61095861095361094e846103ed565b610935565b6103ed565b9050919050565b5f819050919050565b6109718361093e565b61098561097d8261095f565b8484546108e4565b825550505050565b5f90565b61099961098d565b6109a4818484610968565b505050565b5b818110156109c7576109bc5f82610991565b6001810190506109aa565b5050565b601f821115610a0c576109dd816108b7565b6109e6846108c9565b810160208510156109f5578190505b610a09610a01856108c9565b8301826109a9565b50505b505050565b5f82821c905092915050565b5f610a2c5f1984600802610a11565b1980831691505092915050565b5f610a448383610a1d565b9150826002028217905092915050565b610a5d8261045a565b67ffffffffffffffff811115610a7657610a75610520565b5b610a8082546106d1565b610a8b8282856109cb565b5f60209050601f831160018114610abc575f8415610aaa578287015190505b610ab48582610a39565b865550610b1b565b601f198416610aca866108b7565b5f5b82811015610af157848901518255600182019150602085019450602081019050610acc565b86831015610b0e5784890151610b0a601f891682610a1d565b8355505b6001600288020188555050505b50505050505056fea26469706673582212201e6be8907ec2e41655df067ccf90f240739f81379d4cf06bc870e40df37100fe64736f6c634300081a0033",
					"opcodes": "PUSH1 0x80 PUSH1 0x40 MSTORE CALLVALUE DUP1 ISZERO PUSH1 0xE JUMPI PUSH0 DUP1 REVERT JUMPDEST POP PUSH1 0x40 MLOAD PUSH2 0xBF8 CODESIZE SUB DUP1 PUSH2 0xBF8 DUP4 CODECOPY DUP2 DUP2 ADD PUSH1 0x40 MSTORE DUP2 ADD SWAP1 PUSH1 0x2E SWAP2 SWAP1 PUSH1 0x6C JUMP JUMPDEST DUP1 PUSH1 0x1 DUP2 SWAP1 SSTORE POP POP PUSH1 0x92 JUMP JUMPDEST PUSH0 DUP1 REVERT JUMPDEST PUSH0 DUP2 SWAP1 POP SWAP2 SWAP1 POP JUMP JUMPDEST PUSH1 0x4E DUP2 PUSH1 0x3E JUMP JUMPDEST DUP2 EQ PUSH1 0x57 JUMPI PUSH0 DUP1 REVERT JUMPDEST POP JUMP JUMPDEST PUSH0 DUP2 MLOAD SWAP1 POP PUSH1 0x66 DUP2 PUSH1 0x47 JUMP JUMPDEST SWAP3 SWAP2 POP POP JUMP JUMPDEST PUSH0 PUSH1 0x20 DUP3 DUP5 SUB SLT ISZERO PUSH1 0x7E JUMPI PUSH1 0x7D PUSH1 0x3A JUMP JUMPDEST JUMPDEST PUSH0 PUSH1 0x89 DUP5 DUP3 DUP6 ADD PUSH1 0x5A JUMP JUMPDEST SWAP2 POP POP SWAP3 SWAP2 POP POP JUMP JUMPDEST PUSH2 0xB59 DUP1 PUSH2 0x9F PUSH0 CODECOPY PUSH0 RETURN INVALID PUSH1 0x80 PUSH1 0x40 MSTORE CALLVALUE DUP1 ISZERO PUSH2 0xF JUMPI PUSH0 DUP1 REVERT JUMPDEST POP PUSH1 0x4 CALLDATASIZE LT PUSH2 0x55 JUMPI PUSH0 CALLDATALOAD PUSH1 0xE0 SHR DUP1 PUSH4 0x50B44712 EQ PUSH2 0x59 JUMPI DUP1 PUSH4 0x7DC379FA EQ PUSH2 0x8A JUMPI DUP1 PUSH4 0xA6A77D98 EQ PUSH2 0xBA JUMPI DUP1 PUSH4 0xC4BCD4DC EQ PUSH2 0xD6 JUMPI DUP1 PUSH4 0xF7D9CC1E EQ PUSH2 0xF4 JUMPI JUMPDEST PUSH0 DUP1 REVERT JUMPDEST PUSH2 0x73 PUSH1 0x4 DUP1 CALLDATASIZE SUB DUP2 ADD SWAP1 PUSH2 0x6E SWAP2 SWAP1 PUSH2 0x420 JUMP JUMPDEST PUSH2 0x112 JUMP JUMPDEST PUSH1 0x40 MLOAD PUSH2 0x81 SWAP3 SWAP2 SWAP1 PUSH2 0x4CA JUMP JUMPDEST PUSH1 0x40 MLOAD DUP1 SWAP2 SUB SWAP1 RETURN JUMPDEST PUSH2 0xA4 PUSH1 0x4 DUP1 CALLDATASIZE SUB DUP2 ADD SWAP1 PUSH2 0x9F SWAP2 SWAP1 PUSH2 0x420 JUMP JUMPDEST PUSH2 0x1C6 JUMP JUMPDEST PUSH1 0x40 MLOAD PUSH2 0xB1 SWAP2 SWAP1 PUSH2 0x4F8 JUMP JUMPDEST PUSH1 0x40 MLOAD DUP1 SWAP2 SUB SWAP1 RETURN JUMPDEST PUSH2 0xD4 PUSH1 0x4 DUP1 CALLDATASIZE SUB DUP2 ADD SWAP1 PUSH2 0xCF SWAP2 SWAP1 PUSH2 0x644 JUMP JUMPDEST PUSH2 0x2D6 JUMP JUMPDEST STOP JUMPDEST PUSH2 0xDE PUSH2 0x3CB JUMP JUMPDEST PUSH1 0x40 MLOAD PUSH2 0xEB SWAP2 SWAP1 PUSH2 0x68B JUMP JUMPDEST PUSH1 0x40 MLOAD DUP1 SWAP2 SUB SWAP1 RETURN JUMPDEST PUSH2 0xFC PUSH2 0x3D6 JUMP JUMPDEST PUSH1 0x40 MLOAD PUSH2 0x109 SWAP2 SWAP1 PUSH2 0x68B JUMP JUMPDEST PUSH1 0x40 MLOAD DUP1 SWAP2 SUB SWAP1 RETURN JUMPDEST PUSH0 DUP2 DUP2 SLOAD DUP2 LT PUSH2 0x120 JUMPI PUSH0 DUP1 REVERT JUMPDEST SWAP1 PUSH0 MSTORE PUSH1 0x20 PUSH0 KECCAK256 SWAP1 PUSH1 0x2 MUL ADD PUSH0 SWAP2 POP SWAP1 POP DUP1 PUSH0 ADD SLOAD SWAP1 DUP1 PUSH1 0x1 ADD DUP1 SLOAD PUSH2 0x145 SWAP1 PUSH2 0x6D1 JUMP JUMPDEST DUP1 PUSH1 0x1F ADD PUSH1 0x20 DUP1 SWAP2 DIV MUL PUSH1 0x20 ADD PUSH1 0x40 MLOAD SWAP1 DUP2 ADD PUSH1 0x40 MSTORE DUP1 SWAP3 SWAP2 SWAP1 DUP2 DUP2 MSTORE PUSH1 0x20 ADD DUP3 DUP1 SLOAD PUSH2 0x171 SWAP1 PUSH2 0x6D1 JUMP JUMPDEST DUP1 ISZERO PUSH2 0x1BC JUMPI DUP1 PUSH1 0x1F LT PUSH2 0x193 JUMPI PUSH2 0x100 DUP1 DUP4 SLOAD DIV MUL DUP4 MSTORE SWAP2 PUSH1 0x20 ADD SWAP2 PUSH2 0x1BC JUMP JUMPDEST DUP3 ADD SWAP2 SWAP1 PUSH0 MSTORE PUSH1 0x20 PUSH0 KECCAK256 SWAP1 JUMPDEST DUP2 SLOAD DUP2 MSTORE SWAP1 PUSH1 0x1 ADD SWAP1 PUSH1 0x20 ADD DUP1 DUP4 GT PUSH2 0x19F JUMPI DUP3 SWAP1 SUB PUSH1 0x1F AND DUP3 ADD SWAP2 JUMPDEST POP POP POP POP POP SWAP1 POP DUP3 JUMP JUMPDEST PUSH1 0x60 PUSH0 DUP3 GT DUP1 ISZERO PUSH2 0x1DB JUMPI POP PUSH0 DUP1 SLOAD SWAP1 POP DUP3 GT ISZERO JUMPDEST PUSH2 0x21A JUMPI PUSH1 0x40 MLOAD PUSH32 0x8C379A000000000000000000000000000000000000000000000000000000000 DUP2 MSTORE PUSH1 0x4 ADD PUSH2 0x211 SWAP1 PUSH2 0x74B JUMP JUMPDEST PUSH1 0x40 MLOAD DUP1 SWAP2 SUB SWAP1 REVERT JUMPDEST PUSH0 PUSH1 0x1 DUP4 PUSH2 0x228 SWAP2 SWAP1 PUSH2 0x796 JUMP JUMPDEST DUP2 SLOAD DUP2 LT PUSH2 0x239 JUMPI PUSH2 0x238 PUSH2 0x7C9 JUMP JUMPDEST JUMPDEST SWAP1 PUSH0 MSTORE PUSH1 0x20 PUSH0 KECCAK256 SWAP1 PUSH1 0x2 MUL ADD PUSH1 0x1 ADD DUP1 SLOAD PUSH2 0x253 SWAP1 PUSH2 0x6D1 JUMP JUMPDEST DUP1 PUSH1 0x1F ADD PUSH1 0x20 DUP1 SWAP2 DIV MUL PUSH1 0x20 ADD PUSH1 0x40 MLOAD SWAP1 DUP2 ADD PUSH1 0x40 MSTORE DUP1 SWAP3 SWAP2 SWAP1 DUP2 DUP2 MSTORE PUSH1 0x20 ADD DUP3 DUP1 SLOAD PUSH2 0x27F SWAP1 PUSH2 0x6D1 JUMP JUMPDEST DUP1 ISZERO PUSH2 0x2CA JUMPI DUP1 PUSH1 0x1F LT PUSH2 0x2A1 JUMPI PUSH2 0x100 DUP1 DUP4 SLOAD DIV MUL DUP4 MSTORE SWAP2 PUSH1 0x20 ADD SWAP2 PUSH2 0x2CA JUMP JUMPDEST DUP3 ADD SWAP2 SWAP1 PUSH0 MSTORE PUSH1 0x20 PUSH0 KECCAK256 SWAP1 JUMPDEST DUP2 SLOAD DUP2 MSTORE SWAP1 PUSH1 0x1 ADD SWAP1 PUSH1 0x20 ADD DUP1 DUP4 GT PUSH2 0x2AD JUMPI DUP3 SWAP1 SUB PUSH1 0x1F AND DUP3 ADD SWAP2 JUMPDEST POP POP POP POP POP SWAP1 POP SWAP2 SWAP1 POP JUMP JUMPDEST PUSH1 0x1 SLOAD PUSH0 DUP1 SLOAD SWAP1 POP LT PUSH2 0x31E JUMPI PUSH1 0x40 MLOAD PUSH32 0x8C379A000000000000000000000000000000000000000000000000000000000 DUP2 MSTORE PUSH1 0x4 ADD PUSH2 0x315 SWAP1 PUSH2 0x866 JUMP JUMPDEST PUSH1 0x40 MLOAD DUP1 SWAP2 SUB SWAP1 REVERT JUMPDEST PUSH0 PUSH1 0x1 PUSH0 DUP1 SLOAD SWAP1 POP PUSH2 0x330 SWAP2 SWAP1 PUSH2 0x884 JUMP JUMPDEST SWAP1 POP PUSH0 PUSH1 0x40 MLOAD DUP1 PUSH1 0x40 ADD PUSH1 0x40 MSTORE DUP1 DUP4 DUP2 MSTORE PUSH1 0x20 ADD DUP5 DUP2 MSTORE POP SWAP1 DUP1 PUSH1 0x1 DUP2 SLOAD ADD DUP1 DUP3 SSTORE DUP1 SWAP2 POP POP PUSH1 0x1 SWAP1 SUB SWAP1 PUSH0 MSTORE PUSH1 0x20 PUSH0 KECCAK256 SWAP1 PUSH1 0x2 MUL ADD PUSH0 SWAP1 SWAP2 SWAP1 SWAP2 SWAP1 SWAP2 POP PUSH0 DUP3 ADD MLOAD DUP2 PUSH0 ADD SSTORE PUSH1 0x20 DUP3 ADD MLOAD DUP2 PUSH1 0x1 ADD SWAP1 DUP2 PUSH2 0x38B SWAP2 SWAP1 PUSH2 0xA54 JUMP JUMPDEST POP POP POP PUSH32 0x1BA30FD76C09B4B9FED660BEE1D769CFC3252B9192AB5E79B7F499563ACE780A DUP2 DUP4 PUSH1 0x40 MLOAD PUSH2 0x3BF SWAP3 SWAP2 SWAP1 PUSH2 0x4CA JUMP JUMPDEST PUSH1 0x40 MLOAD DUP1 SWAP2 SUB SWAP1 LOG1 POP POP JUMP JUMPDEST PUSH0 DUP1 DUP1 SLOAD SWAP1 POP SWAP1 POP SWAP1 JUMP JUMPDEST PUSH1 0x1 SLOAD DUP2 JUMP JUMPDEST PUSH0 PUSH1 0x40 MLOAD SWAP1 POP SWAP1 JUMP JUMPDEST PUSH0 DUP1 REVERT JUMPDEST PUSH0 DUP1 REVERT JUMPDEST PUSH0 DUP2 SWAP1 POP SWAP2 SWAP1 POP JUMP JUMPDEST PUSH2 0x3FF DUP2 PUSH2 0x3ED JUMP JUMPDEST DUP2 EQ PUSH2 0x409 JUMPI PUSH0 DUP1 REVERT JUMPDEST POP JUMP JUMPDEST PUSH0 DUP2 CALLDATALOAD SWAP1 POP PUSH2 0x41A DUP2 PUSH2 0x3F6 JUMP JUMPDEST SWAP3 SWAP2 POP POP JUMP JUMPDEST PUSH0 PUSH1 0x20 DUP3 DUP5 SUB SLT ISZERO PUSH2 0x435 JUMPI PUSH2 0x434 PUSH2 0x3E5 JUMP JUMPDEST JUMPDEST PUSH0 PUSH2 0x442 DUP5 DUP3 DUP6 ADD PUSH2 0x40C JUMP JUMPDEST SWAP2 POP POP SWAP3 SWAP2 POP POP JUMP JUMPDEST PUSH2 0x454 DUP2 PUSH2 0x3ED JUMP JUMPDEST DUP3 MSTORE POP POP JUMP JUMPDEST PUSH0 DUP2 MLOAD SWAP1 POP SWAP2 SWAP1 POP JUMP JUMPDEST PUSH0 DUP3 DUP3 MSTORE PUSH1 0x20 DUP3 ADD SWAP1 POP SWAP3 SWAP2 POP POP JUMP JUMPDEST DUP3 DUP2 DUP4 MCOPY PUSH0 DUP4 DUP4 ADD MSTORE POP POP POP JUMP JUMPDEST PUSH0 PUSH1 0x1F NOT PUSH1 0x1F DUP4 ADD AND SWAP1 POP SWAP2 SWAP1 POP JUMP JUMPDEST PUSH0 PUSH2 0x49C DUP3 PUSH2 0x45A JUMP JUMPDEST PUSH2 0x4A6 DUP2 DUP6 PUSH2 0x464 JUMP JUMPDEST SWAP4 POP PUSH2 0x4B6 DUP2 DUP6 PUSH1 0x20 DUP7 ADD PUSH2 0x474 JUMP JUMPDEST PUSH2 0x4BF DUP2 PUSH2 0x482 JUMP JUMPDEST DUP5 ADD SWAP2 POP POP SWAP3 SWAP2 POP POP JUMP JUMPDEST PUSH0 PUSH1 0x40 DUP3 ADD SWAP1 POP PUSH2 0x4DD PUSH0 DUP4 ADD DUP6 PUSH2 0x44B JUMP JUMPDEST DUP2 DUP2 SUB PUSH1 0x20 DUP4 ADD MSTORE PUSH2 0x4EF DUP2 DUP5 PUSH2 0x492 JUMP JUMPDEST SWAP1 POP SWAP4 SWAP3 POP POP POP JUMP JUMPDEST PUSH0 PUSH1 0x20 DUP3 ADD SWAP1 POP DUP2 DUP2 SUB PUSH0 DUP4 ADD MSTORE PUSH2 0x510 DUP2 DUP5 PUSH2 0x492 JUMP JUMPDEST SWAP1 POP SWAP3 SWAP2 POP POP JUMP JUMPDEST PUSH0 DUP1 REVERT JUMPDEST PUSH0 DUP1 REVERT JUMPDEST PUSH32 0x4E487B7100000000000000000000000000000000000000000000000000000000 PUSH0 MSTORE PUSH1 0x41 PUSH1 0x4 MSTORE PUSH1 0x24 PUSH0 REVERT JUMPDEST PUSH2 0x556 DUP3 PUSH2 0x482 JUMP JUMPDEST DUP2 ADD DUP2 DUP2 LT PUSH8 0xFFFFFFFFFFFFFFFF DUP3 GT OR ISZERO PUSH2 0x575 JUMPI PUSH2 0x574 PUSH2 0x520 JUMP JUMPDEST JUMPDEST DUP1 PUSH1 0x40 MSTORE POP POP POP JUMP JUMPDEST PUSH0 PUSH2 0x587 PUSH2 0x3DC JUMP JUMPDEST SWAP1 POP PUSH2 0x593 DUP3 DUP3 PUSH2 0x54D JUMP JUMPDEST SWAP2 SWAP1 POP JUMP JUMPDEST PUSH0 PUSH8 0xFFFFFFFFFFFFFFFF DUP3 GT ISZERO PUSH2 0x5B2 JUMPI PUSH2 0x5B1 PUSH2 0x520 JUMP JUMPDEST JUMPDEST PUSH2 0x5BB DUP3 PUSH2 0x482 JUMP JUMPDEST SWAP1 POP PUSH1 0x20 DUP2 ADD SWAP1 POP SWAP2 SWAP1 POP JUMP JUMPDEST DUP3 DUP2 DUP4 CALLDATACOPY PUSH0 DUP4 DUP4 ADD MSTORE POP POP POP JUMP JUMPDEST PUSH0 PUSH2 0x5E8 PUSH2 0x5E3 DUP5 PUSH2 0x598 JUMP JUMPDEST PUSH2 0x57E JUMP JUMPDEST SWAP1 POP DUP3 DUP2 MSTORE PUSH1 0x20 DUP2 ADD DUP5 DUP5 DUP5 ADD GT ISZERO PUSH2 0x604 JUMPI PUSH2 0x603 PUSH2 0x51C JUMP JUMPDEST JUMPDEST PUSH2 0x60F DUP5 DUP3 DUP6 PUSH2 0x5C8 JUMP JUMPDEST POP SWAP4 SWAP3 POP POP POP JUMP JUMPDEST PUSH0 DUP3 PUSH1 0x1F DUP4 ADD SLT PUSH2 0x62B JUMPI PUSH2 0x62A PUSH2 0x518 JUMP JUMPDEST JUMPDEST DUP2 CALLDATALOAD PUSH2 0x63B DUP5 DUP3 PUSH1 0x20 DUP7 ADD PUSH2 0x5D6 JUMP JUMPDEST SWAP2 POP POP SWAP3 SWAP2 POP POP JUMP JUMPDEST PUSH0 PUSH1 0x20 DUP3 DUP5 SUB SLT ISZERO PUSH2 0x659 JUMPI PUSH2 0x658 PUSH2 0x3E5 JUMP JUMPDEST JUMPDEST PUSH0 DUP3 ADD CALLDATALOAD PUSH8 0xFFFFFFFFFFFFFFFF DUP2 GT ISZERO PUSH2 0x676 JUMPI PUSH2 0x675 PUSH2 0x3E9 JUMP JUMPDEST JUMPDEST PUSH2 0x682 DUP5 DUP3 DUP6 ADD PUSH2 0x617 JUMP JUMPDEST SWAP2 POP POP SWAP3 SWAP2 POP POP JUMP JUMPDEST PUSH0 PUSH1 0x20 DUP3 ADD SWAP1 POP PUSH2 0x69E PUSH0 DUP4 ADD DUP5 PUSH2 0x44B JUMP JUMPDEST SWAP3 SWAP2 POP POP JUMP JUMPDEST PUSH32 0x4E487B7100000000000000000000000000000000000000000000000000000000 PUSH0 MSTORE PUSH1 0x22 PUSH1 0x4 MSTORE PUSH1 0x24 PUSH0 REVERT JUMPDEST PUSH0 PUSH1 0x2 DUP3 DIV SWAP1 POP PUSH1 0x1 DUP3 AND DUP1 PUSH2 0x6E8 JUMPI PUSH1 0x7F DUP3 AND SWAP2 POP JUMPDEST PUSH1 0x20 DUP3 LT DUP2 SUB PUSH2 0x6FB JUMPI PUSH2 0x6FA PUSH2 0x6A4 JUMP JUMPDEST JUMPDEST POP SWAP2 SWAP1 POP JUMP JUMPDEST PUSH32 0x5469636B6574206E756D62657220697320696E76616C69642E00000000000000 PUSH0 DUP3 ADD MSTORE POP JUMP JUMPDEST PUSH0 PUSH2 0x735 PUSH1 0x19 DUP4 PUSH2 0x464 JUMP JUMPDEST SWAP2 POP PUSH2 0x740 DUP3 PUSH2 0x701 JUMP JUMPDEST PUSH1 0x20 DUP3 ADD SWAP1 POP SWAP2 SWAP1 POP JUMP JUMPDEST PUSH0 PUSH1 0x20 DUP3 ADD SWAP1 POP DUP2 DUP2 SUB PUSH0 DUP4 ADD MSTORE PUSH2 0x762 DUP2 PUSH2 0x729 JUMP JUMPDEST SWAP1 POP SWAP2 SWAP1 POP JUMP JUMPDEST PUSH32 0x4E487B7100000000000000000000000000000000000000000000000000000000 PUSH0 MSTORE PUSH1 0x11 PUSH1 0x4 MSTORE PUSH1 0x24 PUSH0 REVERT JUMPDEST PUSH0 PUSH2 0x7A0 DUP3 PUSH2 0x3ED JUMP JUMPDEST SWAP2 POP PUSH2 0x7AB DUP4 PUSH2 0x3ED JUMP JUMPDEST SWAP3 POP DUP3 DUP3 SUB SWAP1 POP DUP2 DUP2 GT ISZERO PUSH2 0x7C3 JUMPI PUSH2 0x7C2 PUSH2 0x769 JUMP JUMPDEST JUMPDEST SWAP3 SWAP2 POP POP JUMP JUMPDEST PUSH32 0x4E487B7100000000000000000000000000000000000000000000000000000000 PUSH0 MSTORE PUSH1 0x32 PUSH1 0x4 MSTORE PUSH1 0x24 PUSH0 REVERT JUMPDEST PUSH32 0x51756575652069732066756C6C2C206E6F206D6F7265207469636B6574732063 PUSH0 DUP3 ADD MSTORE PUSH32 0x616E206265206973737565642E00000000000000000000000000000000000000 PUSH1 0x20 DUP3 ADD MSTORE POP JUMP JUMPDEST PUSH0 PUSH2 0x850 PUSH1 0x2D DUP4 PUSH2 0x464 JUMP JUMPDEST SWAP2 POP PUSH2 0x85B DUP3 PUSH2 0x7F6 JUMP JUMPDEST PUSH1 0x40 DUP3 ADD SWAP1 POP SWAP2 SWAP1 POP JUMP JUMPDEST PUSH0 PUSH1 0x20 DUP3 ADD SWAP1 POP DUP2 DUP2 SUB PUSH0 DUP4 ADD MSTORE PUSH2 0x87D DUP2 PUSH2 0x844 JUMP JUMPDEST SWAP1 POP SWAP2 SWAP1 POP JUMP JUMPDEST PUSH0 PUSH2 0x88E DUP3 PUSH2 0x3ED JUMP JUMPDEST SWAP2 POP PUSH2 0x899 DUP4 PUSH2 0x3ED JUMP JUMPDEST SWAP3 POP DUP3 DUP3 ADD SWAP1 POP DUP1 DUP3 GT ISZERO PUSH2 0x8B1 JUMPI PUSH2 0x8B0 PUSH2 0x769 JUMP JUMPDEST JUMPDEST SWAP3 SWAP2 POP POP JUMP JUMPDEST PUSH0 DUP2 SWAP1 POP DUP2 PUSH0 MSTORE PUSH1 0x20 PUSH0 KECCAK256 SWAP1 POP SWAP2 SWAP1 POP JUMP JUMPDEST PUSH0 PUSH1 0x20 PUSH1 0x1F DUP4 ADD DIV SWAP1 POP SWAP2 SWAP1 POP JUMP JUMPDEST PUSH0 DUP3 DUP3 SHL SWAP1 POP SWAP3 SWAP2 POP POP JUMP JUMPDEST PUSH0 PUSH1 0x8 DUP4 MUL PUSH2 0x913 PUSH32 0xFFFFFFFFFFFFFFFFFFFFFFFFFFFFFFFFFFFFFFFFFFFFFFFFFFFFFFFFFFFFFFFF DUP3 PUSH2 0x8D8 JUMP JUMPDEST PUSH2 0x91D DUP7 DUP4 PUSH2 0x8D8 JUMP JUMPDEST SWAP6 POP DUP1 NOT DUP5 AND SWAP4 POP DUP1 DUP7 AND DUP5 OR SWAP3 POP POP POP SWAP4 SWAP3 POP POP POP JUMP JUMPDEST PUSH0 DUP2 SWAP1 POP SWAP2 SWAP1 POP JUMP JUMPDEST PUSH0 PUSH2 0x958 PUSH2 0x953 PUSH2 0x94E DUP5 PUSH2 0x3ED JUMP JUMPDEST PUSH2 0x935 JUMP JUMPDEST PUSH2 0x3ED JUMP JUMPDEST SWAP1 POP SWAP2 SWAP1 POP JUMP JUMPDEST PUSH0 DUP2 SWAP1 POP SWAP2 SWAP1 POP JUMP JUMPDEST PUSH2 0x971 DUP4 PUSH2 0x93E JUMP JUMPDEST PUSH2 0x985 PUSH2 0x97D DUP3 PUSH2 0x95F JUMP JUMPDEST DUP5 DUP5 SLOAD PUSH2 0x8E4 JUMP JUMPDEST DUP3 SSTORE POP POP POP POP JUMP JUMPDEST PUSH0 SWAP1 JUMP JUMPDEST PUSH2 0x999 PUSH2 0x98D JUMP JUMPDEST PUSH2 0x9A4 DUP2 DUP5 DUP5 PUSH2 0x968 JUMP JUMPDEST POP POP POP JUMP JUMPDEST JUMPDEST DUP2 DUP2 LT ISZERO PUSH2 0x9C7 JUMPI PUSH2 0x9BC PUSH0 DUP3 PUSH2 0x991 JUMP JUMPDEST PUSH1 0x1 DUP2 ADD SWAP1 POP PUSH2 0x9AA JUMP JUMPDEST POP POP JUMP JUMPDEST PUSH1 0x1F DUP3 GT ISZERO PUSH2 0xA0C JUMPI PUSH2 0x9DD DUP2 PUSH2 0x8B7 JUMP JUMPDEST PUSH2 0x9E6 DUP5 PUSH2 0x8C9 JUMP JUMPDEST DUP2 ADD PUSH1 0x20 DUP6 LT ISZERO PUSH2 0x9F5 JUMPI DUP2 SWAP1 POP JUMPDEST PUSH2 0xA09 PUSH2 0xA01 DUP6 PUSH2 0x8C9 JUMP JUMPDEST DUP4 ADD DUP3 PUSH2 0x9A9 JUMP JUMPDEST POP POP JUMPDEST POP POP POP JUMP JUMPDEST PUSH0 DUP3 DUP3 SHR SWAP1 POP SWAP3 SWAP2 POP POP JUMP JUMPDEST PUSH0 PUSH2 0xA2C PUSH0 NOT DUP5 PUSH1 0x8 MUL PUSH2 0xA11 JUMP JUMPDEST NOT DUP1 DUP4 AND SWAP2 POP POP SWAP3 SWAP2 POP POP JUMP JUMPDEST PUSH0 PUSH2 0xA44 DUP4 DUP4 PUSH2 0xA1D JUMP JUMPDEST SWAP2 POP DUP3 PUSH1 0x2 MUL DUP3 OR SWAP1 POP SWAP3 SWAP2 POP POP JUMP JUMPDEST PUSH2 0xA5D DUP3 PUSH2 0x45A JUMP JUMPDEST PUSH8 0xFFFFFFFFFFFFFFFF DUP2 GT ISZERO PUSH2 0xA76 JUMPI PUSH2 0xA75 PUSH2 0x520 JUMP JUMPDEST JUMPDEST PUSH2 0xA80 DUP3 SLOAD PUSH2 0x6D1 JUMP JUMPDEST PUSH2 0xA8B DUP3 DUP3 DUP6 PUSH2 0x9CB JUMP JUMPDEST PUSH0 PUSH1 0x20 SWAP1 POP PUSH1 0x1F DUP4 GT PUSH1 0x1 DUP2 EQ PUSH2 0xABC JUMPI PUSH0 DUP5 ISZERO PUSH2 0xAAA JUMPI DUP3 DUP8 ADD MLOAD SWAP1 POP JUMPDEST PUSH2 0xAB4 DUP6 DUP3 PUSH2 0xA39 JUMP JUMPDEST DUP7 SSTORE POP PUSH2 0xB1B JUMP JUMPDEST PUSH1 0x1F NOT DUP5 AND PUSH2 0xACA DUP7 PUSH2 0x8B7 JUMP JUMPDEST PUSH0 JUMPDEST DUP3 DUP2 LT ISZERO PUSH2 0xAF1 JUMPI DUP5 DUP10 ADD MLOAD DUP3 SSTORE PUSH1 0x1 DUP3 ADD SWAP2 POP PUSH1 0x20 DUP6 ADD SWAP5 POP PUSH1 0x20 DUP2 ADD SWAP1 POP PUSH2 0xACC JUMP JUMPDEST DUP7 DUP4 LT ISZERO PUSH2 0xB0E JUMPI DUP5 DUP10 ADD MLOAD PUSH2 0xB0A PUSH1 0x1F DUP10 AND DUP3 PUSH2 0xA1D JUMP JUMPDEST DUP4 SSTORE POP JUMPDEST PUSH1 0x1 PUSH1 0x2 DUP9 MUL ADD DUP9 SSTORE POP POP POP JUMPDEST POP POP POP POP POP POP JUMP INVALID LOG2 PUSH5 0x6970667358 0x22 SLT KECCAK256 0x1E PUSH12 0xE8907EC2E41655DF067CCF90 CALLCODE BLOCKHASH PUSH20 0x9F81379D4CF06BC870E40DF37100FE64736F6C63 NUMBER STOP ADDMOD BYTE STOP CALLER "
				},
				"gasEstimates": {
					"creation": {
						"codeDepositCost": "581000",
						"executionCost": "infinite",
						"totalCost": "infinite"
					},
					"external": {
						"getIssuedTicketsCount()": "2484",
						"getTicket(uint256)": "infinite",
						"issueTicket(string)": "infinite",
						"maxQueueSize()": "2491",
						"tickets(uint256)": "infinite"
					}
				},
				"methodIdentifiers": {
					"getIssuedTicketsCount()": "c4bcd4dc",
					"getTicket(uint256)": "7dc379fa",
					"issueTicket(string)": "a6a77d98",
					"maxQueueSize()": "f7d9cc1e",
					"tickets(uint256)": "50b44712"
				}
			},
			"storageLayout": {
				"storage": [
					{
						"astId": 10,
						"contract": "day4prog/d4p1.sol:TicketIssuance",
						"label": "tickets",
						"offset": 0,
						"slot": "0",
						"type": "t_array(t_struct(Ticket)6_storage)dyn_storage"
					},
					{
						"astId": 12,
						"contract": "day4prog/d4p1.sol:TicketIssuance",
						"label": "maxQueueSize",
						"offset": 0,
						"slot": "1",
						"type": "t_uint256"
					}
				],
				"types": {
					"t_array(t_struct(Ticket)6_storage)dyn_storage": {
						"base": "t_struct(Ticket)6_storage",
						"encoding": "dynamic_array",
						"label": "struct TicketIssuance.Ticket[]",
						"numberOfBytes": "32"
					},
					"t_string_storage": {
						"encoding": "bytes",
						"label": "string",
						"numberOfBytes": "32"
					},
					"t_struct(Ticket)6_storage": {
						"encoding": "inplace",
						"label": "struct TicketIssuance.Ticket",
						"members": [
							{
								"astId": 3,
								"contract": "day4prog/d4p1.sol:TicketIssuance",
								"label": "ticketNo",
								"offset": 0,
								"slot": "0",
								"type": "t_uint256"
							},
							{
								"astId": 5,
								"contract": "day4prog/d4p1.sol:TicketIssuance",
								"label": "customerName",
								"offset": 0,
								"slot": "1",
								"type": "t_string_storage"
							}
						],
						"numberOfBytes": "64"
					},
					"t_uint256": {
						"encoding": "inplace",
						"label": "uint256",
						"numberOfBytes": "32"
					}
				}
			},
			"userdoc": {
				"kind": "user",
				"methods": {},
				"version": 1
			}
		}
	}
}