{
	"data": {
		"bytecode": {
			"linkReferences": {},
			"object": "6080604052348015600e575f80fd5b506106238061001c5f395ff3fe608060405234801561000f575f80fd5b506004361061007b575f3560e01c80636cc99ad5116100595780636cc99ad5146100d757806371e5ee5f146100f3578063939b676714610123578063d504ea1d146101535761007b565b806315d4266c1461007f5780633b9eac4b1461009d578063669e48aa146100bb575b5f80fd5b610087610171565b604051610094919061032f565b60405180910390f35b6100a5610177565b6040516100b2919061032f565b60405180910390f35b6100d560048036038101906100d09190610376565b61017c565b005b6100f160048036038101906100ec9190610376565b61018d565b005b61010d600480360381019061010891906103b4565b61021b565b60405161011a919061032f565b60405180910390f35b61013d60048036038101906101389190610376565b61023b565b60405161014a91906103f9565b60405180910390f35b61015b610288565b60405161016891906104c9565b60405180910390f35b60015481565b5f5481565b815f81905550806001819055505050565b60025f61019a91906102de565b5f8290505b81811015610216575f6001826101b59190610516565b90505b828111610208576101c9828261023b565b156101f557600282908060018154018082558091505060019003905f5260205f20015f90919091909150555b808061020090610549565b9150506101b8565b50808060010191505061019f565b505050565b6002818154811061022a575f80fd5b905f5260205f20015f915090505481565b5f808390505f8390508082111561025757808280925081935050505b5b5f811461027a575f819050818361026f91906105bd565b915080925050610258565b600182149250505092915050565b606060028054806020026020016040519081016040528092919081815260200182805480156102d457602002820191905f5260205f20905b8154815260200190600101908083116102c0575b5050505050905090565b5080545f8255905f5260205f20908101906102f991906102fc565b50565b5b80821115610313575f815f9055506001016102fd565b5090565b5f819050919050565b61032981610317565b82525050565b5f6020820190506103425f830184610320565b92915050565b5f80fd5b61035581610317565b811461035f575f80fd5b50565b5f813590506103708161034c565b92915050565b5f806040838503121561038c5761038b610348565b5b5f61039985828601610362565b92505060206103aa85828601610362565b9150509250929050565b5f602082840312156103c9576103c8610348565b5b5f6103d684828501610362565b91505092915050565b5f8115159050919050565b6103f3816103df565b82525050565b5f60208201905061040c5f8301846103ea565b92915050565b5f81519050919050565b5f82825260208201905092915050565b5f819050602082019050919050565b61044481610317565b82525050565b5f610455838361043b565b60208301905092915050565b5f602082019050919050565b5f61047782610412565b610481818561041c565b935061048c8361042c565b805f5b838110156104bc5781516104a3888261044a565b97506104ae83610461565b92505060018101905061048f565b5085935050505092915050565b5f6020820190508181035f8301526104e1818461046d565b905092915050565b7f4e487b71000000000000000000000000000000000000000000000000000000005f52601160045260245ffd5b5f61052082610317565b915061052b83610317565b9250828201905080821115610543576105426104e9565b5b92915050565b5f61055382610317565b91507fffffffffffffffffffffffffffffffffffffffffffffffffffffffffffffffff8203610585576105846104e9565b5b600182019050919050565b7f4e487b71000000000000000000000000000000000000000000000000000000005f52601260045260245ffd5b5f6105c782610317565b91506105d283610317565b9250826105e2576105e1610590565b5b82820690509291505056fea2646970667358221220d51ff61a215c8198d2b0ec1fafdf74009abbe465113b8617095d739fc56343be64736f6c634300081a0033",
			"opcodes": "PUSH1 0x80 PUSH1 0x40 MSTORE CALLVALUE DUP1 ISZERO PUSH1 0xE JUMPI PUSH0 DUP1 REVERT JUMPDEST POP PUSH2 0x623 DUP1 PUSH2 0x1C PUSH0 CODECOPY PUSH0 RETURN INVALID PUSH1 0x80 PUSH1 0x40 MSTORE CALLVALUE DUP1 ISZERO PUSH2 0xF JUMPI PUSH0 DUP1 REVERT JUMPDEST POP PUSH1 0x4 CALLDATASIZE LT PUSH2 0x7B JUMPI PUSH0 CALLDATALOAD PUSH1 0xE0 SHR DUP1 PUSH4 0x6CC99AD5 GT PUSH2 0x59 JUMPI DUP1 PUSH4 0x6CC99AD5 EQ PUSH2 0xD7 JUMPI DUP1 PUSH4 0x71E5EE5F EQ PUSH2 0xF3 JUMPI DUP1 PUSH4 0x939B6767 EQ PUSH2 0x123 JUMPI DUP1 PUSH4 0xD504EA1D EQ PUSH2 0x153 JUMPI PUSH2 0x7B JUMP JUMPDEST DUP1 PUSH4 0x15D4266C EQ PUSH2 0x7F JUMPI DUP1 PUSH4 0x3B9EAC4B EQ PUSH2 0x9D JUMPI DUP1 PUSH4 0x669E48AA EQ PUSH2 0xBB JUMPI JUMPDEST PUSH0 DUP1 REVERT JUMPDEST PUSH2 0x87 PUSH2 0x171 JUMP JUMPDEST PUSH1 0x40 MLOAD PUSH2 0x94 SWAP2 SWAP1 PUSH2 0x32F JUMP JUMPDEST PUSH1 0x40 MLOAD DUP1 SWAP2 SUB SWAP1 RETURN JUMPDEST PUSH2 0xA5 PUSH2 0x177 JUMP JUMPDEST PUSH1 0x40 MLOAD PUSH2 0xB2 SWAP2 SWAP1 PUSH2 0x32F JUMP JUMPDEST PUSH1 0x40 MLOAD DUP1 SWAP2 SUB SWAP1 RETURN JUMPDEST PUSH2 0xD5 PUSH1 0x4 DUP1 CALLDATASIZE SUB DUP2 ADD SWAP1 PUSH2 0xD0 SWAP2 SWAP1 PUSH2 0x376 JUMP JUMPDEST PUSH2 0x17C JUMP JUMPDEST STOP JUMPDEST PUSH2 0xF1 PUSH1 0x4 DUP1 CALLDATASIZE SUB DUP2 ADD SWAP1 PUSH2 0xEC SWAP2 SWAP1 PUSH2 0x376 JUMP JUMPDEST PUSH2 0x18D JUMP JUMPDEST STOP JUMPDEST PUSH2 0x10D PUSH1 0x4 DUP1 CALLDATASIZE SUB DUP2 ADD SWAP1 PUSH2 0x108 SWAP2 SWAP1 PUSH2 0x3B4 JUMP JUMPDEST PUSH2 0x21B JUMP JUMPDEST PUSH1 0x40 MLOAD PUSH2 0x11A SWAP2 SWAP1 PUSH2 0x32F JUMP JUMPDEST PUSH1 0x40 MLOAD DUP1 SWAP2 SUB SWAP1 RETURN JUMPDEST PUSH2 0x13D PUSH1 0x4 DUP1 CALLDATASIZE SUB DUP2 ADD SWAP1 PUSH2 0x138 SWAP2 SWAP1 PUSH2 0x376 JUMP JUMPDEST PUSH2 0x23B JUMP JUMPDEST PUSH1 0x40 MLOAD PUSH2 0x14A SWAP2 SWAP1 PUSH2 0x3F9 JUMP JUMPDEST PUSH1 0x40 MLOAD DUP1 SWAP2 SUB SWAP1 RETURN JUMPDEST PUSH2 0x15B PUSH2 0x288 JUMP JUMPDEST PUSH1 0x40 MLOAD PUSH2 0x168 SWAP2 SWAP1 PUSH2 0x4C9 JUMP JUMPDEST PUSH1 0x40 MLOAD DUP1 SWAP2 SUB SWAP1 RETURN JUMPDEST PUSH1 0x1 SLOAD DUP2 JUMP JUMPDEST PUSH0 SLOAD DUP2 JUMP JUMPDEST DUP2 PUSH0 DUP2 SWAP1 SSTORE POP DUP1 PUSH1 0x1 DUP2 SWAP1 SSTORE POP POP POP JUMP JUMPDEST PUSH1 0x2 PUSH0 PUSH2 0x19A SWAP2 SWAP1 PUSH2 0x2DE JUMP JUMPDEST PUSH0 DUP3 SWAP1 POP JUMPDEST DUP2 DUP2 LT ISZERO PUSH2 0x216 JUMPI PUSH0 PUSH1 0x1 DUP3 PUSH2 0x1B5 SWAP2 SWAP1 PUSH2 0x516 JUMP JUMPDEST SWAP1 POP JUMPDEST DUP3 DUP2 GT PUSH2 0x208 JUMPI PUSH2 0x1C9 DUP3 DUP3 PUSH2 0x23B JUMP JUMPDEST ISZERO PUSH2 0x1F5 JUMPI PUSH1 0x2 DUP3 SWAP1 DUP1 PUSH1 0x1 DUP2 SLOAD ADD DUP1 DUP3 SSTORE DUP1 SWAP2 POP POP PUSH1 0x1 SWAP1 SUB SWAP1 PUSH0 MSTORE PUSH1 0x20 PUSH0 KECCAK256 ADD PUSH0 SWAP1 SWAP2 SWAP1 SWAP2 SWAP1 SWAP2 POP SSTORE JUMPDEST DUP1 DUP1 PUSH2 0x200 SWAP1 PUSH2 0x549 JUMP JUMPDEST SWAP2 POP POP PUSH2 0x1B8 JUMP JUMPDEST POP DUP1 DUP1 PUSH1 0x1 ADD SWAP2 POP POP PUSH2 0x19F JUMP JUMPDEST POP POP POP JUMP JUMPDEST PUSH1 0x2 DUP2 DUP2 SLOAD DUP2 LT PUSH2 0x22A JUMPI PUSH0 DUP1 REVERT JUMPDEST SWAP1 PUSH0 MSTORE PUSH1 0x20 PUSH0 KECCAK256 ADD PUSH0 SWAP2 POP SWAP1 POP SLOAD DUP2 JUMP JUMPDEST PUSH0 DUP1 DUP4 SWAP1 POP PUSH0 DUP4 SWAP1 POP DUP1 DUP3 GT ISZERO PUSH2 0x257 JUMPI DUP1 DUP3 DUP1 SWAP3 POP DUP2 SWAP4 POP POP POP JUMPDEST JUMPDEST PUSH0 DUP2 EQ PUSH2 0x27A JUMPI PUSH0 DUP2 SWAP1 POP DUP2 DUP4 PUSH2 0x26F SWAP2 SWAP1 PUSH2 0x5BD JUMP JUMPDEST SWAP2 POP DUP1 SWAP3 POP POP PUSH2 0x258 JUMP JUMPDEST PUSH1 0x1 DUP3 EQ SWAP3 POP POP POP SWAP3 SWAP2 POP POP JUMP JUMPDEST PUSH1 0x60 PUSH1 0x2 DUP1 SLOAD DUP1 PUSH1 0x20 MUL PUSH1 0x20 ADD PUSH1 0x40 MLOAD SWAP1 DUP2 ADD PUSH1 0x40 MSTORE DUP1 SWAP3 SWAP2 SWAP1 DUP2 DUP2 MSTORE PUSH1 0x20 ADD DUP3 DUP1 SLOAD DUP1 ISZERO PUSH2 0x2D4 JUMPI PUSH1 0x20 MUL DUP3 ADD SWAP2 SWAP1 PUSH0 MSTORE PUSH1 0x20 PUSH0 KECCAK256 SWAP1 JUMPDEST DUP2 SLOAD DUP2 MSTORE PUSH1 0x20 ADD SWAP1 PUSH1 0x1 ADD SWAP1 DUP1 DUP4 GT PUSH2 0x2C0 JUMPI JUMPDEST POP POP POP POP POP SWAP1 POP SWAP1 JUMP JUMPDEST POP DUP1 SLOAD PUSH0 DUP3 SSTORE SWAP1 PUSH0 MSTORE PUSH1 0x20 PUSH0 KECCAK256 SWAP1 DUP2 ADD SWAP1 PUSH2 0x2F9 SWAP2 SWAP1 PUSH2 0x2FC JUMP JUMPDEST POP JUMP JUMPDEST JUMPDEST DUP1 DUP3 GT ISZERO PUSH2 0x313 JUMPI PUSH0 DUP2 PUSH0 SWAP1 SSTORE POP PUSH1 0x1 ADD PUSH2 0x2FD JUMP JUMPDEST POP SWAP1 JUMP JUMPDEST PUSH0 DUP2 SWAP1 POP SWAP2 SWAP1 POP JUMP JUMPDEST PUSH2 0x329 DUP2 PUSH2 0x317 JUMP JUMPDEST DUP3 MSTORE POP POP JUMP JUMPDEST PUSH0 PUSH1 0x20 DUP3 ADD SWAP1 POP PUSH2 0x342 PUSH0 DUP4 ADD DUP5 PUSH2 0x320 JUMP JUMPDEST SWAP3 SWAP2 POP POP JUMP JUMPDEST PUSH0 DUP1 REVERT JUMPDEST PUSH2 0x355 DUP2 PUSH2 0x317 JUMP JUMPDEST DUP2 EQ PUSH2 0x35F JUMPI PUSH0 DUP1 REVERT JUMPDEST POP JUMP JUMPDEST PUSH0 DUP2 CALLDATALOAD SWAP1 POP PUSH2 0x370 DUP2 PUSH2 0x34C JUMP JUMPDEST SWAP3 SWAP2 POP POP JUMP JUMPDEST PUSH0 DUP1 PUSH1 0x40 DUP4 DUP6 SUB SLT ISZERO PUSH2 0x38C JUMPI PUSH2 0x38B PUSH2 0x348 JUMP JUMPDEST JUMPDEST PUSH0 PUSH2 0x399 DUP6 DUP3 DUP7 ADD PUSH2 0x362 JUMP JUMPDEST SWAP3 POP POP PUSH1 0x20 PUSH2 0x3AA DUP6 DUP3 DUP7 ADD PUSH2 0x362 JUMP JUMPDEST SWAP2 POP POP SWAP3 POP SWAP3 SWAP1 POP JUMP JUMPDEST PUSH0 PUSH1 0x20 DUP3 DUP5 SUB SLT ISZERO PUSH2 0x3C9 JUMPI PUSH2 0x3C8 PUSH2 0x348 JUMP JUMPDEST JUMPDEST PUSH0 PUSH2 0x3D6 DUP5 DUP3 DUP6 ADD PUSH2 0x362 JUMP JUMPDEST SWAP2 POP POP SWAP3 SWAP2 POP POP JUMP JUMPDEST PUSH0 DUP2 ISZERO ISZERO SWAP1 POP SWAP2 SWAP1 POP JUMP JUMPDEST PUSH2 0x3F3 DUP2 PUSH2 0x3DF JUMP JUMPDEST DUP3 MSTORE POP POP JUMP JUMPDEST PUSH0 PUSH1 0x20 DUP3 ADD SWAP1 POP PUSH2 0x40C PUSH0 DUP4 ADD DUP5 PUSH2 0x3EA JUMP JUMPDEST SWAP3 SWAP2 POP POP JUMP JUMPDEST PUSH0 DUP2 MLOAD SWAP1 POP SWAP2 SWAP1 POP JUMP JUMPDEST PUSH0 DUP3 DUP3 MSTORE PUSH1 0x20 DUP3 ADD SWAP1 POP SWAP3 SWAP2 POP POP JUMP JUMPDEST PUSH0 DUP2 SWAP1 POP PUSH1 0x20 DUP3 ADD SWAP1 POP SWAP2 SWAP1 POP JUMP JUMPDEST PUSH2 0x444 DUP2 PUSH2 0x317 JUMP JUMPDEST DUP3 MSTORE POP POP JUMP JUMPDEST PUSH0 PUSH2 0x455 DUP4 DUP4 PUSH2 0x43B JUMP JUMPDEST PUSH1 0x20 DUP4 ADD SWAP1 POP SWAP3 SWAP2 POP POP JUMP JUMPDEST PUSH0 PUSH1 0x20 DUP3 ADD SWAP1 POP SWAP2 SWAP1 POP JUMP JUMPDEST PUSH0 PUSH2 0x477 DUP3 PUSH2 0x412 JUMP JUMPDEST PUSH2 0x481 DUP2 DUP6 PUSH2 0x41C JUMP JUMPDEST SWAP4 POP PUSH2 0x48C DUP4 PUSH2 0x42C JUMP JUMPDEST DUP1 PUSH0 JUMPDEST DUP4 DUP2 LT ISZERO PUSH2 0x4BC JUMPI DUP2 MLOAD PUSH2 0x4A3 DUP9 DUP3 PUSH2 0x44A JUMP JUMPDEST SWAP8 POP PUSH2 0x4AE DUP4 PUSH2 0x461 JUMP JUMPDEST SWAP3 POP POP PUSH1 0x1 DUP2 ADD SWAP1 POP PUSH2 0x48F JUMP JUMPDEST POP DUP6 SWAP4 POP POP POP POP SWAP3 SWAP2 POP POP JUMP JUMPDEST PUSH0 PUSH1 0x20 DUP3 ADD SWAP1 POP DUP2 DUP2 SUB PUSH0 DUP4 ADD MSTORE PUSH2 0x4E1 DUP2 DUP5 PUSH2 0x46D JUMP JUMPDEST SWAP1 POP SWAP3 SWAP2 POP POP JUMP JUMPDEST PUSH32 0x4E487B7100000000000000000000000000000000000000000000000000000000 PUSH0 MSTORE PUSH1 0x11 PUSH1 0x4 MSTORE PUSH1 0x24 PUSH0 REVERT JUMPDEST PUSH0 PUSH2 0x520 DUP3 PUSH2 0x317 JUMP JUMPDEST SWAP2 POP PUSH2 0x52B DUP4 PUSH2 0x317 JUMP JUMPDEST SWAP3 POP DUP3 DUP3 ADD SWAP1 POP DUP1 DUP3 GT ISZERO PUSH2 0x543 JUMPI PUSH2 0x542 PUSH2 0x4E9 JUMP JUMPDEST JUMPDEST SWAP3 SWAP2 POP POP JUMP JUMPDEST PUSH0 PUSH2 0x553 DUP3 PUSH2 0x317 JUMP JUMPDEST SWAP2 POP PUSH32 0xFFFFFFFFFFFFFFFFFFFFFFFFFFFFFFFFFFFFFFFFFFFFFFFFFFFFFFFFFFFFFFFF DUP3 SUB PUSH2 0x585 JUMPI PUSH2 0x584 PUSH2 0x4E9 JUMP JUMPDEST JUMPDEST PUSH1 0x1 DUP3 ADD SWAP1 POP SWAP2 SWAP1 POP JUMP JUMPDEST PUSH32 0x4E487B7100000000000000000000000000000000000000000000000000000000 PUSH0 MSTORE PUSH1 0x12 PUSH1 0x4 MSTORE PUSH1 0x24 PUSH0 REVERT JUMPDEST PUSH0 PUSH2 0x5C7 DUP3 PUSH2 0x317 JUMP JUMPDEST SWAP2 POP PUSH2 0x5D2 DUP4 PUSH2 0x317 JUMP JUMPDEST SWAP3 POP DUP3 PUSH2 0x5E2 JUMPI PUSH2 0x5E1 PUSH2 0x590 JUMP JUMPDEST JUMPDEST DUP3 DUP3 MOD SWAP1 POP SWAP3 SWAP2 POP POP JUMP INVALID LOG2 PUSH5 0x6970667358 0x22 SLT KECCAK256 0xD5 0x1F 0xF6 BYTE 0x21 TLOAD DUP2 SWAP9 0xD2 0xB0 0xEC 0x1F 0xAF 0xDF PUSH21 0x9ABBE465113B8617095D739FC56343BE64736F6C PUSH4 0x4300081A STOP CALLER "
		},
		"gasEstimates": {
			"creation": {
				"codeDepositCost": "314200",
				"executionCost": "353",
				"totalCost": "314553"
			},
			"external": {
				"arr(uint256)": "infinite",
				"checkRange(uint256,uint256)": "infinite",
				"checkcoprime(uint256,uint256)": "infinite",
				"get(uint256,uint256)": "infinite",
				"getArray()": "infinite",
				"num1()": "2447",
				"num2()": "2426"
			}
		},
		"methodIdentifiers": {
			"arr(uint256)": "71e5ee5f",
			"checkRange(uint256,uint256)": "6cc99ad5",
			"checkcoprime(uint256,uint256)": "939b6767",
			"get(uint256,uint256)": "669e48aa",
			"getArray()": "d504ea1d",
			"num1()": "3b9eac4b",
			"num2()": "15d4266c"
		}
	},
	"abi": [
		{
			"inputs": [
				{
					"internalType": "uint256",
					"name": "",
					"type": "uint256"
				}
			],
			"name": "arr",
			"outputs": [
				{
					"internalType": "uint256",
					"name": "",
					"type": "uint256"
				}
			],
			"stateMutability": "view",
			"type": "function"
		},
		{
			"inputs": [
				{
					"internalType": "uint256",
					"name": "start",
					"type": "uint256"
				},
				{
					"internalType": "uint256",
					"name": "end",
					"type": "uint256"
				}
			],
			"name": "checkRange",
			"outputs": [],
			"stateMutability": "nonpayable",
			"type": "function"
		},
		{
			"inputs": [
				{
					"internalType": "uint256",
					"name": "n1",
					"type": "uint256"
				},
				{
					"internalType": "uint256",
					"name": "n2",
					"type": "uint256"
				}
			],
			"name": "checkcoprime",
			"outputs": [
				{
					"internalType": "bool",
					"name": "",
					"type": "bool"
				}
			],
			"stateMutability": "pure",
			"type": "function"
		},
		{
			"inputs": [
				{
					"internalType": "uint256",
					"name": "n1",
					"type": "uint256"
				},
				{
					"internalType": "uint256",
					"name": "n2",
					"type": "uint256"
				}
			],
			"name": "get",
			"outputs": [],
			"stateMutability": "nonpayable",
			"type": "function"
		},
		{
			"inputs": [],
			"name": "getArray",
			"outputs": [
				{
					"internalType": "uint256[]",
					"name": "",
					"type": "uint256[]"
				}
			],
			"stateMutability": "view",
			"type": "function"
		},
		{
			"inputs": [],
			"name": "num1",
			"outputs": [
				{
					"internalType": "uint256",
					"name": "",
					"type": "uint256"
				}
			],
			"stateMutability": "view",
			"type": "function"
		},
		{
			"inputs": [],
			"name": "num2",
			"outputs": [
				{
					"internalType": "uint256",
					"name": "",
					"type": "uint256"
				}
			],
			"stateMutability": "view",
			"type": "function"
		}
	]
}