{
	"data": {
		"bytecode": {
			"linkReferences": {},
			"object": "608060405234801561000f575f80fd5b50604051610d2d380380610d2d833981810160405281019061003191906101f8565b83838383835f908161004391906104b4565b50826001908161005391906104b4565b5081600281905550806003908161006a91906104b4565b505050505050505050610583565b5f604051905090565b5f80fd5b5f80fd5b5f80fd5b5f80fd5b5f601f19601f8301169050919050565b7f4e487b71000000000000000000000000000000000000000000000000000000005f52604160045260245ffd5b6100d782610091565b810181811067ffffffffffffffff821117156100f6576100f56100a1565b5b80604052505050565b5f610108610078565b905061011482826100ce565b919050565b5f67ffffffffffffffff821115610133576101326100a1565b5b61013c82610091565b9050602081019050919050565b8281835e5f83830152505050565b5f61016961016484610119565b6100ff565b9050828152602081018484840111156101855761018461008d565b5b610190848285610149565b509392505050565b5f82601f8301126101ac576101ab610089565b5b81516101bc848260208601610157565b91505092915050565b5f819050919050565b6101d7816101c5565b81146101e1575f80fd5b50565b5f815190506101f2816101ce565b92915050565b5f805f80608085870312156102105761020f610081565b5b5f85015167ffffffffffffffff81111561022d5761022c610085565b5b61023987828801610198565b945050602085015167ffffffffffffffff81111561025a57610259610085565b5b61026687828801610198565b9350506040610277878288016101e4565b925050606085015167ffffffffffffffff81111561029857610297610085565b5b6102a487828801610198565b91505092959194509250565b5f81519050919050565b7f4e487b71000000000000000000000000000000000000000000000000000000005f52602260045260245ffd5b5f60028204905060018216806102fe57607f821691505b602082108103610311576103106102ba565b5b50919050565b5f819050815f5260205f209050919050565b5f6020601f8301049050919050565b5f82821b905092915050565b5f600883026103737fffffffffffffffffffffffffffffffffffffffffffffffffffffffffffffffff82610338565b61037d8683610338565b95508019841693508086168417925050509392505050565b5f819050919050565b5f6103b86103b36103ae846101c5565b610395565b6101c5565b9050919050565b5f819050919050565b6103d18361039e565b6103e56103dd826103bf565b848454610344565b825550505050565b5f90565b6103f96103ed565b6104048184846103c8565b505050565b5b818110156104275761041c5f826103f1565b60018101905061040a565b5050565b601f82111561046c5761043d81610317565b61044684610329565b81016020851015610455578190505b61046961046185610329565b830182610409565b50505b505050565b5f82821c905092915050565b5f61048c5f1984600802610471565b1980831691505092915050565b5f6104a4838361047d565b9150826002028217905092915050565b6104bd826102b0565b67ffffffffffffffff8111156104d6576104d56100a1565b5b6104e082546102e7565b6104eb82828561042b565b5f60209050601f83116001811461051c575f841561050a578287015190505b6105148582610499565b86555061057b565b601f19841661052a86610317565b5f5b828110156105515784890151825560018201915060208501945060208101905061052c565b8683101561056e578489015161056a601f89168261047d565b8355505b6001600288020188555050505b505050505050565b61079d806105905f395ff3fe608060405234801561000f575f80fd5b506004361061007b575f3560e01c8063402e7f4b11610059578063402e7f4b146100d9578063516f279e146100f757806397c16e7814610115578063a4e7d437146101335761007b565b80630397b6521461007f57806306fdde031461009d5780633ff4b938146100bb575b5f80fd5b610087610151565b6040516100949190610383565b60405180910390f35b6100a5610157565b6040516100b2919061040c565b60405180910390f35b6100c36101e2565b6040516100d0919061040c565b60405180910390f35b6100e161026e565b6040516100ee919061040c565b60405180910390f35b6100ff610296565b60405161010c919061040c565b60405180910390f35b61011d610322565b60405161012a919061040c565b60405180910390f35b61013b61034a565b6040516101489190610383565b60405180910390f35b60025481565b5f805461016390610459565b80601f016020809104026020016040519081016040528092919081815260200182805461018f90610459565b80156101da5780601f106101b1576101008083540402835291602001916101da565b820191905f5260205f20905b8154815290600101906020018083116101bd57829003601f168201915b505050505081565b600380546101ef90610459565b80601f016020809104026020016040519081016040528092919081815260200182805461021b90610459565b80156102665780601f1061023d57610100808354040283529160200191610266565b820191905f5260205f20905b81548152906001019060200180831161024957829003601f168201915b505050505081565b606060036040516020016102829190610595565b604051602081830303815290604052905090565b600180546102a390610459565b80601f01602080910402602001604051908101604052809291908181526020018280546102cf90610459565b801561031a5780601f106102f15761010080835404028352916020019161031a565b820191905f5260205f20905b8154815290600101906020018083116102fd57829003601f168201915b505050505081565b606060036040516020016103369190610670565b604051602081830303815290604052905090565b5f6064600a60025461035c91906106c9565b6103669190610737565b905090565b5f819050919050565b61037d8161036b565b82525050565b5f6020820190506103965f830184610374565b92915050565b5f81519050919050565b5f82825260208201905092915050565b8281835e5f83830152505050565b5f601f19601f8301169050919050565b5f6103de8261039c565b6103e881856103a6565b93506103f88185602086016103b6565b610401816103c4565b840191505092915050565b5f6020820190508181035f83015261042481846103d4565b905092915050565b7f4e487b71000000000000000000000000000000000000000000000000000000005f52602260045260245ffd5b5f600282049050600182168061047057607f821691505b6020821081036104835761048261042c565b5b50919050565b5f81905092915050565b7f446576656c6f70657220706572666f726d616e63653a20486967682d7175616c5f8201527f69747920636f64652064656c69766572792e204a6f62205469746c653a200000602082015250565b5f6104ed603e83610489565b91506104f882610493565b603e82019050919050565b5f819050815f5260205f209050919050565b5f815461052181610459565b61052b8186610489565b9450600182165f8114610545576001811461055a5761058c565b60ff198316865281151582028601935061058c565b61056385610503565b5f5b8381101561058457815481890152600182019150602081019050610565565b838801955050505b50505092915050565b5f61059f826104e1565b91506105ab8284610515565b915081905092915050565b7f446576656c6f7065722077697468207469746c652000000000000000000000005f82015250565b5f6105ea601583610489565b91506105f5826105b6565b601582019050919050565b7f20636f6e747269627574657320746f2070726f6a65637420636f64696e6720745f8201527f61736b732e000000000000000000000000000000000000000000000000000000602082015250565b5f61065a602583610489565b915061066582610600565b602582019050919050565b5f61067a826105de565b91506106868284610515565b91506106918261064e565b915081905092915050565b7f4e487b71000000000000000000000000000000000000000000000000000000005f52601160045260245ffd5b5f6106d38261036b565b91506106de8361036b565b92508282026106ec8161036b565b915082820484148315176107035761070261069c565b5b5092915050565b7f4e487b71000000000000000000000000000000000000000000000000000000005f52601260045260245ffd5b5f6107418261036b565b915061074c8361036b565b92508261075c5761075b61070a565b5b82820490509291505056fea2646970667358221220fbfd676dabad8e7033f655b9eebaea9aab571d7a8fdf4314f411a80d6c06e2e164736f6c634300081a0033",
			"opcodes": "PUSH1 0x80 PUSH1 0x40 MSTORE CALLVALUE DUP1 ISZERO PUSH2 0xF JUMPI PUSH0 DUP1 REVERT JUMPDEST POP PUSH1 0x40 MLOAD PUSH2 0xD2D CODESIZE SUB DUP1 PUSH2 0xD2D DUP4 CODECOPY DUP2 DUP2 ADD PUSH1 0x40 MSTORE DUP2 ADD SWAP1 PUSH2 0x31 SWAP2 SWAP1 PUSH2 0x1F8 JUMP JUMPDEST DUP4 DUP4 DUP4 DUP4 DUP4 PUSH0 SWAP1 DUP2 PUSH2 0x43 SWAP2 SWAP1 PUSH2 0x4B4 JUMP JUMPDEST POP DUP3 PUSH1 0x1 SWAP1 DUP2 PUSH2 0x53 SWAP2 SWAP1 PUSH2 0x4B4 JUMP JUMPDEST POP DUP2 PUSH1 0x2 DUP2 SWAP1 SSTORE POP DUP1 PUSH1 0x3 SWAP1 DUP2 PUSH2 0x6A SWAP2 SWAP1 PUSH2 0x4B4 JUMP JUMPDEST POP POP POP POP POP POP POP POP POP PUSH2 0x583 JUMP JUMPDEST PUSH0 PUSH1 0x40 MLOAD SWAP1 POP SWAP1 JUMP JUMPDEST PUSH0 DUP1 REVERT JUMPDEST PUSH0 DUP1 REVERT JUMPDEST PUSH0 DUP1 REVERT JUMPDEST PUSH0 DUP1 REVERT JUMPDEST PUSH0 PUSH1 0x1F NOT PUSH1 0x1F DUP4 ADD AND SWAP1 POP SWAP2 SWAP1 POP JUMP JUMPDEST PUSH32 0x4E487B7100000000000000000000000000000000000000000000000000000000 PUSH0 MSTORE PUSH1 0x41 PUSH1 0x4 MSTORE PUSH1 0x24 PUSH0 REVERT JUMPDEST PUSH2 0xD7 DUP3 PUSH2 0x91 JUMP JUMPDEST DUP2 ADD DUP2 DUP2 LT PUSH8 0xFFFFFFFFFFFFFFFF DUP3 GT OR ISZERO PUSH2 0xF6 JUMPI PUSH2 0xF5 PUSH2 0xA1 JUMP JUMPDEST JUMPDEST DUP1 PUSH1 0x40 MSTORE POP POP POP JUMP JUMPDEST PUSH0 PUSH2 0x108 PUSH2 0x78 JUMP JUMPDEST SWAP1 POP PUSH2 0x114 DUP3 DUP3 PUSH2 0xCE JUMP JUMPDEST SWAP2 SWAP1 POP JUMP JUMPDEST PUSH0 PUSH8 0xFFFFFFFFFFFFFFFF DUP3 GT ISZERO PUSH2 0x133 JUMPI PUSH2 0x132 PUSH2 0xA1 JUMP JUMPDEST JUMPDEST PUSH2 0x13C DUP3 PUSH2 0x91 JUMP JUMPDEST SWAP1 POP PUSH1 0x20 DUP2 ADD SWAP1 POP SWAP2 SWAP1 POP JUMP JUMPDEST DUP3 DUP2 DUP4 MCOPY PUSH0 DUP4 DUP4 ADD MSTORE POP POP POP JUMP JUMPDEST PUSH0 PUSH2 0x169 PUSH2 0x164 DUP5 PUSH2 0x119 JUMP JUMPDEST PUSH2 0xFF JUMP JUMPDEST SWAP1 POP DUP3 DUP2 MSTORE PUSH1 0x20 DUP2 ADD DUP5 DUP5 DUP5 ADD GT ISZERO PUSH2 0x185 JUMPI PUSH2 0x184 PUSH2 0x8D JUMP JUMPDEST JUMPDEST PUSH2 0x190 DUP5 DUP3 DUP6 PUSH2 0x149 JUMP JUMPDEST POP SWAP4 SWAP3 POP POP POP JUMP JUMPDEST PUSH0 DUP3 PUSH1 0x1F DUP4 ADD SLT PUSH2 0x1AC JUMPI PUSH2 0x1AB PUSH2 0x89 JUMP JUMPDEST JUMPDEST DUP2 MLOAD PUSH2 0x1BC DUP5 DUP3 PUSH1 0x20 DUP7 ADD PUSH2 0x157 JUMP JUMPDEST SWAP2 POP POP SWAP3 SWAP2 POP POP JUMP JUMPDEST PUSH0 DUP2 SWAP1 POP SWAP2 SWAP1 POP JUMP JUMPDEST PUSH2 0x1D7 DUP2 PUSH2 0x1C5 JUMP JUMPDEST DUP2 EQ PUSH2 0x1E1 JUMPI PUSH0 DUP1 REVERT JUMPDEST POP JUMP JUMPDEST PUSH0 DUP2 MLOAD SWAP1 POP PUSH2 0x1F2 DUP2 PUSH2 0x1CE JUMP JUMPDEST SWAP3 SWAP2 POP POP JUMP JUMPDEST PUSH0 DUP1 PUSH0 DUP1 PUSH1 0x80 DUP6 DUP8 SUB SLT ISZERO PUSH2 0x210 JUMPI PUSH2 0x20F PUSH2 0x81 JUMP JUMPDEST JUMPDEST PUSH0 DUP6 ADD MLOAD PUSH8 0xFFFFFFFFFFFFFFFF DUP2 GT ISZERO PUSH2 0x22D JUMPI PUSH2 0x22C PUSH2 0x85 JUMP JUMPDEST JUMPDEST PUSH2 0x239 DUP8 DUP3 DUP9 ADD PUSH2 0x198 JUMP JUMPDEST SWAP5 POP POP PUSH1 0x20 DUP6 ADD MLOAD PUSH8 0xFFFFFFFFFFFFFFFF DUP2 GT ISZERO PUSH2 0x25A JUMPI PUSH2 0x259 PUSH2 0x85 JUMP JUMPDEST JUMPDEST PUSH2 0x266 DUP8 DUP3 DUP9 ADD PUSH2 0x198 JUMP JUMPDEST SWAP4 POP POP PUSH1 0x40 PUSH2 0x277 DUP8 DUP3 DUP9 ADD PUSH2 0x1E4 JUMP JUMPDEST SWAP3 POP POP PUSH1 0x60 DUP6 ADD MLOAD PUSH8 0xFFFFFFFFFFFFFFFF DUP2 GT ISZERO PUSH2 0x298 JUMPI PUSH2 0x297 PUSH2 0x85 JUMP JUMPDEST JUMPDEST PUSH2 0x2A4 DUP8 DUP3 DUP9 ADD PUSH2 0x198 JUMP JUMPDEST SWAP2 POP POP SWAP3 SWAP6 SWAP2 SWAP5 POP SWAP3 POP JUMP JUMPDEST PUSH0 DUP2 MLOAD SWAP1 POP SWAP2 SWAP1 POP JUMP JUMPDEST PUSH32 0x4E487B7100000000000000000000000000000000000000000000000000000000 PUSH0 MSTORE PUSH1 0x22 PUSH1 0x4 MSTORE PUSH1 0x24 PUSH0 REVERT JUMPDEST PUSH0 PUSH1 0x2 DUP3 DIV SWAP1 POP PUSH1 0x1 DUP3 AND DUP1 PUSH2 0x2FE JUMPI PUSH1 0x7F DUP3 AND SWAP2 POP JUMPDEST PUSH1 0x20 DUP3 LT DUP2 SUB PUSH2 0x311 JUMPI PUSH2 0x310 PUSH2 0x2BA JUMP JUMPDEST JUMPDEST POP SWAP2 SWAP1 POP JUMP JUMPDEST PUSH0 DUP2 SWAP1 POP DUP2 PUSH0 MSTORE PUSH1 0x20 PUSH0 KECCAK256 SWAP1 POP SWAP2 SWAP1 POP JUMP JUMPDEST PUSH0 PUSH1 0x20 PUSH1 0x1F DUP4 ADD DIV SWAP1 POP SWAP2 SWAP1 POP JUMP JUMPDEST PUSH0 DUP3 DUP3 SHL SWAP1 POP SWAP3 SWAP2 POP POP JUMP JUMPDEST PUSH0 PUSH1 0x8 DUP4 MUL PUSH2 0x373 PUSH32 0xFFFFFFFFFFFFFFFFFFFFFFFFFFFFFFFFFFFFFFFFFFFFFFFFFFFFFFFFFFFFFFFF DUP3 PUSH2 0x338 JUMP JUMPDEST PUSH2 0x37D DUP7 DUP4 PUSH2 0x338 JUMP JUMPDEST SWAP6 POP DUP1 NOT DUP5 AND SWAP4 POP DUP1 DUP7 AND DUP5 OR SWAP3 POP POP POP SWAP4 SWAP3 POP POP POP JUMP JUMPDEST PUSH0 DUP2 SWAP1 POP SWAP2 SWAP1 POP JUMP JUMPDEST PUSH0 PUSH2 0x3B8 PUSH2 0x3B3 PUSH2 0x3AE DUP5 PUSH2 0x1C5 JUMP JUMPDEST PUSH2 0x395 JUMP JUMPDEST PUSH2 0x1C5 JUMP JUMPDEST SWAP1 POP SWAP2 SWAP1 POP JUMP JUMPDEST PUSH0 DUP2 SWAP1 POP SWAP2 SWAP1 POP JUMP JUMPDEST PUSH2 0x3D1 DUP4 PUSH2 0x39E JUMP JUMPDEST PUSH2 0x3E5 PUSH2 0x3DD DUP3 PUSH2 0x3BF JUMP JUMPDEST DUP5 DUP5 SLOAD PUSH2 0x344 JUMP JUMPDEST DUP3 SSTORE POP POP POP POP JUMP JUMPDEST PUSH0 SWAP1 JUMP JUMPDEST PUSH2 0x3F9 PUSH2 0x3ED JUMP JUMPDEST PUSH2 0x404 DUP2 DUP5 DUP5 PUSH2 0x3C8 JUMP JUMPDEST POP POP POP JUMP JUMPDEST JUMPDEST DUP2 DUP2 LT ISZERO PUSH2 0x427 JUMPI PUSH2 0x41C PUSH0 DUP3 PUSH2 0x3F1 JUMP JUMPDEST PUSH1 0x1 DUP2 ADD SWAP1 POP PUSH2 0x40A JUMP JUMPDEST POP POP JUMP JUMPDEST PUSH1 0x1F DUP3 GT ISZERO PUSH2 0x46C JUMPI PUSH2 0x43D DUP2 PUSH2 0x317 JUMP JUMPDEST PUSH2 0x446 DUP5 PUSH2 0x329 JUMP JUMPDEST DUP2 ADD PUSH1 0x20 DUP6 LT ISZERO PUSH2 0x455 JUMPI DUP2 SWAP1 POP JUMPDEST PUSH2 0x469 PUSH2 0x461 DUP6 PUSH2 0x329 JUMP JUMPDEST DUP4 ADD DUP3 PUSH2 0x409 JUMP JUMPDEST POP POP JUMPDEST POP POP POP JUMP JUMPDEST PUSH0 DUP3 DUP3 SHR SWAP1 POP SWAP3 SWAP2 POP POP JUMP JUMPDEST PUSH0 PUSH2 0x48C PUSH0 NOT DUP5 PUSH1 0x8 MUL PUSH2 0x471 JUMP JUMPDEST NOT DUP1 DUP4 AND SWAP2 POP POP SWAP3 SWAP2 POP POP JUMP JUMPDEST PUSH0 PUSH2 0x4A4 DUP4 DUP4 PUSH2 0x47D JUMP JUMPDEST SWAP2 POP DUP3 PUSH1 0x2 MUL DUP3 OR SWAP1 POP SWAP3 SWAP2 POP POP JUMP JUMPDEST PUSH2 0x4BD DUP3 PUSH2 0x2B0 JUMP JUMPDEST PUSH8 0xFFFFFFFFFFFFFFFF DUP2 GT ISZERO PUSH2 0x4D6 JUMPI PUSH2 0x4D5 PUSH2 0xA1 JUMP JUMPDEST JUMPDEST PUSH2 0x4E0 DUP3 SLOAD PUSH2 0x2E7 JUMP JUMPDEST PUSH2 0x4EB DUP3 DUP3 DUP6 PUSH2 0x42B JUMP JUMPDEST PUSH0 PUSH1 0x20 SWAP1 POP PUSH1 0x1F DUP4 GT PUSH1 0x1 DUP2 EQ PUSH2 0x51C JUMPI PUSH0 DUP5 ISZERO PUSH2 0x50A JUMPI DUP3 DUP8 ADD MLOAD SWAP1 POP JUMPDEST PUSH2 0x514 DUP6 DUP3 PUSH2 0x499 JUMP JUMPDEST DUP7 SSTORE POP PUSH2 0x57B JUMP JUMPDEST PUSH1 0x1F NOT DUP5 AND PUSH2 0x52A DUP7 PUSH2 0x317 JUMP JUMPDEST PUSH0 JUMPDEST DUP3 DUP2 LT ISZERO PUSH2 0x551 JUMPI DUP5 DUP10 ADD MLOAD DUP3 SSTORE PUSH1 0x1 DUP3 ADD SWAP2 POP PUSH1 0x20 DUP6 ADD SWAP5 POP PUSH1 0x20 DUP2 ADD SWAP1 POP PUSH2 0x52C JUMP JUMPDEST DUP7 DUP4 LT ISZERO PUSH2 0x56E JUMPI DUP5 DUP10 ADD MLOAD PUSH2 0x56A PUSH1 0x1F DUP10 AND DUP3 PUSH2 0x47D JUMP JUMPDEST DUP4 SSTORE POP JUMPDEST PUSH1 0x1 PUSH1 0x2 DUP9 MUL ADD DUP9 SSTORE POP POP POP JUMPDEST POP POP POP POP POP POP JUMP JUMPDEST PUSH2 0x79D DUP1 PUSH2 0x590 PUSH0 CODECOPY PUSH0 RETURN INVALID PUSH1 0x80 PUSH1 0x40 MSTORE CALLVALUE DUP1 ISZERO PUSH2 0xF JUMPI PUSH0 DUP1 REVERT JUMPDEST POP PUSH1 0x4 CALLDATASIZE LT PUSH2 0x7B JUMPI PUSH0 CALLDATALOAD PUSH1 0xE0 SHR DUP1 PUSH4 0x402E7F4B GT PUSH2 0x59 JUMPI DUP1 PUSH4 0x402E7F4B EQ PUSH2 0xD9 JUMPI DUP1 PUSH4 0x516F279E EQ PUSH2 0xF7 JUMPI DUP1 PUSH4 0x97C16E78 EQ PUSH2 0x115 JUMPI DUP1 PUSH4 0xA4E7D437 EQ PUSH2 0x133 JUMPI PUSH2 0x7B JUMP JUMPDEST DUP1 PUSH4 0x397B652 EQ PUSH2 0x7F JUMPI DUP1 PUSH4 0x6FDDE03 EQ PUSH2 0x9D JUMPI DUP1 PUSH4 0x3FF4B938 EQ PUSH2 0xBB JUMPI JUMPDEST PUSH0 DUP1 REVERT JUMPDEST PUSH2 0x87 PUSH2 0x151 JUMP JUMPDEST PUSH1 0x40 MLOAD PUSH2 0x94 SWAP2 SWAP1 PUSH2 0x383 JUMP JUMPDEST PUSH1 0x40 MLOAD DUP1 SWAP2 SUB SWAP1 RETURN JUMPDEST PUSH2 0xA5 PUSH2 0x157 JUMP JUMPDEST PUSH1 0x40 MLOAD PUSH2 0xB2 SWAP2 SWAP1 PUSH2 0x40C JUMP JUMPDEST PUSH1 0x40 MLOAD DUP1 SWAP2 SUB SWAP1 RETURN JUMPDEST PUSH2 0xC3 PUSH2 0x1E2 JUMP JUMPDEST PUSH1 0x40 MLOAD PUSH2 0xD0 SWAP2 SWAP1 PUSH2 0x40C JUMP JUMPDEST PUSH1 0x40 MLOAD DUP1 SWAP2 SUB SWAP1 RETURN JUMPDEST PUSH2 0xE1 PUSH2 0x26E JUMP JUMPDEST PUSH1 0x40 MLOAD PUSH2 0xEE SWAP2 SWAP1 PUSH2 0x40C JUMP JUMPDEST PUSH1 0x40 MLOAD DUP1 SWAP2 SUB SWAP1 RETURN JUMPDEST PUSH2 0xFF PUSH2 0x296 JUMP JUMPDEST PUSH1 0x40 MLOAD PUSH2 0x10C SWAP2 SWAP1 PUSH2 0x40C JUMP JUMPDEST PUSH1 0x40 MLOAD DUP1 SWAP2 SUB SWAP1 RETURN JUMPDEST PUSH2 0x11D PUSH2 0x322 JUMP JUMPDEST PUSH1 0x40 MLOAD PUSH2 0x12A SWAP2 SWAP1 PUSH2 0x40C JUMP JUMPDEST PUSH1 0x40 MLOAD DUP1 SWAP2 SUB SWAP1 RETURN JUMPDEST PUSH2 0x13B PUSH2 0x34A JUMP JUMPDEST PUSH1 0x40 MLOAD PUSH2 0x148 SWAP2 SWAP1 PUSH2 0x383 JUMP JUMPDEST PUSH1 0x40 MLOAD DUP1 SWAP2 SUB SWAP1 RETURN JUMPDEST PUSH1 0x2 SLOAD DUP2 JUMP JUMPDEST PUSH0 DUP1 SLOAD PUSH2 0x163 SWAP1 PUSH2 0x459 JUMP JUMPDEST DUP1 PUSH1 0x1F ADD PUSH1 0x20 DUP1 SWAP2 DIV MUL PUSH1 0x20 ADD PUSH1 0x40 MLOAD SWAP1 DUP2 ADD PUSH1 0x40 MSTORE DUP1 SWAP3 SWAP2 SWAP1 DUP2 DUP2 MSTORE PUSH1 0x20 ADD DUP3 DUP1 SLOAD PUSH2 0x18F SWAP1 PUSH2 0x459 JUMP JUMPDEST DUP1 ISZERO PUSH2 0x1DA JUMPI DUP1 PUSH1 0x1F LT PUSH2 0x1B1 JUMPI PUSH2 0x100 DUP1 DUP4 SLOAD DIV MUL DUP4 MSTORE SWAP2 PUSH1 0x20 ADD SWAP2 PUSH2 0x1DA JUMP JUMPDEST DUP3 ADD SWAP2 SWAP1 PUSH0 MSTORE PUSH1 0x20 PUSH0 KECCAK256 SWAP1 JUMPDEST DUP2 SLOAD DUP2 MSTORE SWAP1 PUSH1 0x1 ADD SWAP1 PUSH1 0x20 ADD DUP1 DUP4 GT PUSH2 0x1BD JUMPI DUP3 SWAP1 SUB PUSH1 0x1F AND DUP3 ADD SWAP2 JUMPDEST POP POP POP POP POP DUP2 JUMP JUMPDEST PUSH1 0x3 DUP1 SLOAD PUSH2 0x1EF SWAP1 PUSH2 0x459 JUMP JUMPDEST DUP1 PUSH1 0x1F ADD PUSH1 0x20 DUP1 SWAP2 DIV MUL PUSH1 0x20 ADD PUSH1 0x40 MLOAD SWAP1 DUP2 ADD PUSH1 0x40 MSTORE DUP1 SWAP3 SWAP2 SWAP1 DUP2 DUP2 MSTORE PUSH1 0x20 ADD DUP3 DUP1 SLOAD PUSH2 0x21B SWAP1 PUSH2 0x459 JUMP JUMPDEST DUP1 ISZERO PUSH2 0x266 JUMPI DUP1 PUSH1 0x1F LT PUSH2 0x23D JUMPI PUSH2 0x100 DUP1 DUP4 SLOAD DIV MUL DUP4 MSTORE SWAP2 PUSH1 0x20 ADD SWAP2 PUSH2 0x266 JUMP JUMPDEST DUP3 ADD SWAP2 SWAP1 PUSH0 MSTORE PUSH1 0x20 PUSH0 KECCAK256 SWAP1 JUMPDEST DUP2 SLOAD DUP2 MSTORE SWAP1 PUSH1 0x1 ADD SWAP1 PUSH1 0x20 ADD DUP1 DUP4 GT PUSH2 0x249 JUMPI DUP3 SWAP1 SUB PUSH1 0x1F AND DUP3 ADD SWAP2 JUMPDEST POP POP POP POP POP DUP2 JUMP JUMPDEST PUSH1 0x60 PUSH1 0x3 PUSH1 0x40 MLOAD PUSH1 0x20 ADD PUSH2 0x282 SWAP2 SWAP1 PUSH2 0x595 JUMP JUMPDEST PUSH1 0x40 MLOAD PUSH1 0x20 DUP2 DUP4 SUB SUB DUP2 MSTORE SWAP1 PUSH1 0x40 MSTORE SWAP1 POP SWAP1 JUMP JUMPDEST PUSH1 0x1 DUP1 SLOAD PUSH2 0x2A3 SWAP1 PUSH2 0x459 JUMP JUMPDEST DUP1 PUSH1 0x1F ADD PUSH1 0x20 DUP1 SWAP2 DIV MUL PUSH1 0x20 ADD PUSH1 0x40 MLOAD SWAP1 DUP2 ADD PUSH1 0x40 MSTORE DUP1 SWAP3 SWAP2 SWAP1 DUP2 DUP2 MSTORE PUSH1 0x20 ADD DUP3 DUP1 SLOAD PUSH2 0x2CF SWAP1 PUSH2 0x459 JUMP JUMPDEST DUP1 ISZERO PUSH2 0x31A JUMPI DUP1 PUSH1 0x1F LT PUSH2 0x2F1 JUMPI PUSH2 0x100 DUP1 DUP4 SLOAD DIV MUL DUP4 MSTORE SWAP2 PUSH1 0x20 ADD SWAP2 PUSH2 0x31A JUMP JUMPDEST DUP3 ADD SWAP2 SWAP1 PUSH0 MSTORE PUSH1 0x20 PUSH0 KECCAK256 SWAP1 JUMPDEST DUP2 SLOAD DUP2 MSTORE SWAP1 PUSH1 0x1 ADD SWAP1 PUSH1 0x20 ADD DUP1 DUP4 GT PUSH2 0x2FD JUMPI DUP3 SWAP1 SUB PUSH1 0x1F AND DUP3 ADD SWAP2 JUMPDEST POP POP POP POP POP DUP2 JUMP JUMPDEST PUSH1 0x60 PUSH1 0x3 PUSH1 0x40 MLOAD PUSH1 0x20 ADD PUSH2 0x336 SWAP2 SWAP1 PUSH2 0x670 JUMP JUMPDEST PUSH1 0x40 MLOAD PUSH1 0x20 DUP2 DUP4 SUB SUB DUP2 MSTORE SWAP1 PUSH1 0x40 MSTORE SWAP1 POP SWAP1 JUMP JUMPDEST PUSH0 PUSH1 0x64 PUSH1 0xA PUSH1 0x2 SLOAD PUSH2 0x35C SWAP2 SWAP1 PUSH2 0x6C9 JUMP JUMPDEST PUSH2 0x366 SWAP2 SWAP1 PUSH2 0x737 JUMP JUMPDEST SWAP1 POP SWAP1 JUMP JUMPDEST PUSH0 DUP2 SWAP1 POP SWAP2 SWAP1 POP JUMP JUMPDEST PUSH2 0x37D DUP2 PUSH2 0x36B JUMP JUMPDEST DUP3 MSTORE POP POP JUMP JUMPDEST PUSH0 PUSH1 0x20 DUP3 ADD SWAP1 POP PUSH2 0x396 PUSH0 DUP4 ADD DUP5 PUSH2 0x374 JUMP JUMPDEST SWAP3 SWAP2 POP POP JUMP JUMPDEST PUSH0 DUP2 MLOAD SWAP1 POP SWAP2 SWAP1 POP JUMP JUMPDEST PUSH0 DUP3 DUP3 MSTORE PUSH1 0x20 DUP3 ADD SWAP1 POP SWAP3 SWAP2 POP POP JUMP JUMPDEST DUP3 DUP2 DUP4 MCOPY PUSH0 DUP4 DUP4 ADD MSTORE POP POP POP JUMP JUMPDEST PUSH0 PUSH1 0x1F NOT PUSH1 0x1F DUP4 ADD AND SWAP1 POP SWAP2 SWAP1 POP JUMP JUMPDEST PUSH0 PUSH2 0x3DE DUP3 PUSH2 0x39C JUMP JUMPDEST PUSH2 0x3E8 DUP2 DUP6 PUSH2 0x3A6 JUMP JUMPDEST SWAP4 POP PUSH2 0x3F8 DUP2 DUP6 PUSH1 0x20 DUP7 ADD PUSH2 0x3B6 JUMP JUMPDEST PUSH2 0x401 DUP2 PUSH2 0x3C4 JUMP JUMPDEST DUP5 ADD SWAP2 POP POP SWAP3 SWAP2 POP POP JUMP JUMPDEST PUSH0 PUSH1 0x20 DUP3 ADD SWAP1 POP DUP2 DUP2 SUB PUSH0 DUP4 ADD MSTORE PUSH2 0x424 DUP2 DUP5 PUSH2 0x3D4 JUMP JUMPDEST SWAP1 POP SWAP3 SWAP2 POP POP JUMP JUMPDEST PUSH32 0x4E487B7100000000000000000000000000000000000000000000000000000000 PUSH0 MSTORE PUSH1 0x22 PUSH1 0x4 MSTORE PUSH1 0x24 PUSH0 REVERT JUMPDEST PUSH0 PUSH1 0x2 DUP3 DIV SWAP1 POP PUSH1 0x1 DUP3 AND DUP1 PUSH2 0x470 JUMPI PUSH1 0x7F DUP3 AND SWAP2 POP JUMPDEST PUSH1 0x20 DUP3 LT DUP2 SUB PUSH2 0x483 JUMPI PUSH2 0x482 PUSH2 0x42C JUMP JUMPDEST JUMPDEST POP SWAP2 SWAP1 POP JUMP JUMPDEST PUSH0 DUP2 SWAP1 POP SWAP3 SWAP2 POP POP JUMP JUMPDEST PUSH32 0x446576656C6F70657220706572666F726D616E63653A20486967682D7175616C PUSH0 DUP3 ADD MSTORE PUSH32 0x69747920636F64652064656C69766572792E204A6F62205469746C653A200000 PUSH1 0x20 DUP3 ADD MSTORE POP JUMP JUMPDEST PUSH0 PUSH2 0x4ED PUSH1 0x3E DUP4 PUSH2 0x489 JUMP JUMPDEST SWAP2 POP PUSH2 0x4F8 DUP3 PUSH2 0x493 JUMP JUMPDEST PUSH1 0x3E DUP3 ADD SWAP1 POP SWAP2 SWAP1 POP JUMP JUMPDEST PUSH0 DUP2 SWAP1 POP DUP2 PUSH0 MSTORE PUSH1 0x20 PUSH0 KECCAK256 SWAP1 POP SWAP2 SWAP1 POP JUMP JUMPDEST PUSH0 DUP2 SLOAD PUSH2 0x521 DUP2 PUSH2 0x459 JUMP JUMPDEST PUSH2 0x52B DUP2 DUP7 PUSH2 0x489 JUMP JUMPDEST SWAP5 POP PUSH1 0x1 DUP3 AND PUSH0 DUP2 EQ PUSH2 0x545 JUMPI PUSH1 0x1 DUP2 EQ PUSH2 0x55A JUMPI PUSH2 0x58C JUMP JUMPDEST PUSH1 0xFF NOT DUP4 AND DUP7 MSTORE DUP2 ISZERO ISZERO DUP3 MUL DUP7 ADD SWAP4 POP PUSH2 0x58C JUMP JUMPDEST PUSH2 0x563 DUP6 PUSH2 0x503 JUMP JUMPDEST PUSH0 JUMPDEST DUP4 DUP2 LT ISZERO PUSH2 0x584 JUMPI DUP2 SLOAD DUP2 DUP10 ADD MSTORE PUSH1 0x1 DUP3 ADD SWAP2 POP PUSH1 0x20 DUP2 ADD SWAP1 POP PUSH2 0x565 JUMP JUMPDEST DUP4 DUP9 ADD SWAP6 POP POP POP JUMPDEST POP POP POP SWAP3 SWAP2 POP POP JUMP JUMPDEST PUSH0 PUSH2 0x59F DUP3 PUSH2 0x4E1 JUMP JUMPDEST SWAP2 POP PUSH2 0x5AB DUP3 DUP5 PUSH2 0x515 JUMP JUMPDEST SWAP2 POP DUP2 SWAP1 POP SWAP3 SWAP2 POP POP JUMP JUMPDEST PUSH32 0x446576656C6F7065722077697468207469746C65200000000000000000000000 PUSH0 DUP3 ADD MSTORE POP JUMP JUMPDEST PUSH0 PUSH2 0x5EA PUSH1 0x15 DUP4 PUSH2 0x489 JUMP JUMPDEST SWAP2 POP PUSH2 0x5F5 DUP3 PUSH2 0x5B6 JUMP JUMPDEST PUSH1 0x15 DUP3 ADD SWAP1 POP SWAP2 SWAP1 POP JUMP JUMPDEST PUSH32 0x20636F6E747269627574657320746F2070726F6A65637420636F64696E672074 PUSH0 DUP3 ADD MSTORE PUSH32 0x61736B732E000000000000000000000000000000000000000000000000000000 PUSH1 0x20 DUP3 ADD MSTORE POP JUMP JUMPDEST PUSH0 PUSH2 0x65A PUSH1 0x25 DUP4 PUSH2 0x489 JUMP JUMPDEST SWAP2 POP PUSH2 0x665 DUP3 PUSH2 0x600 JUMP JUMPDEST PUSH1 0x25 DUP3 ADD SWAP1 POP SWAP2 SWAP1 POP JUMP JUMPDEST PUSH0 PUSH2 0x67A DUP3 PUSH2 0x5DE JUMP JUMPDEST SWAP2 POP PUSH2 0x686 DUP3 DUP5 PUSH2 0x515 JUMP JUMPDEST SWAP2 POP PUSH2 0x691 DUP3 PUSH2 0x64E JUMP JUMPDEST SWAP2 POP DUP2 SWAP1 POP SWAP3 SWAP2 POP POP JUMP JUMPDEST PUSH32 0x4E487B7100000000000000000000000000000000000000000000000000000000 PUSH0 MSTORE PUSH1 0x11 PUSH1 0x4 MSTORE PUSH1 0x24 PUSH0 REVERT JUMPDEST PUSH0 PUSH2 0x6D3 DUP3 PUSH2 0x36B JUMP JUMPDEST SWAP2 POP PUSH2 0x6DE DUP4 PUSH2 0x36B JUMP JUMPDEST SWAP3 POP DUP3 DUP3 MUL PUSH2 0x6EC DUP2 PUSH2 0x36B JUMP JUMPDEST SWAP2 POP DUP3 DUP3 DIV DUP5 EQ DUP4 ISZERO OR PUSH2 0x703 JUMPI PUSH2 0x702 PUSH2 0x69C JUMP JUMPDEST JUMPDEST POP SWAP3 SWAP2 POP POP JUMP JUMPDEST PUSH32 0x4E487B7100000000000000000000000000000000000000000000000000000000 PUSH0 MSTORE PUSH1 0x12 PUSH1 0x4 MSTORE PUSH1 0x24 PUSH0 REVERT JUMPDEST PUSH0 PUSH2 0x741 DUP3 PUSH2 0x36B JUMP JUMPDEST SWAP2 POP PUSH2 0x74C DUP4 PUSH2 0x36B JUMP JUMPDEST SWAP3 POP DUP3 PUSH2 0x75C JUMPI PUSH2 0x75B PUSH2 0x70A JUMP JUMPDEST JUMPDEST DUP3 DUP3 DIV SWAP1 POP SWAP3 SWAP2 POP POP JUMP INVALID LOG2 PUSH5 0x6970667358 0x22 SLT KECCAK256 0xFB REVERT PUSH8 0x6DABAD8E7033F655 0xB9 0xEE 0xBA 0xEA SWAP11 0xAB JUMPI SAR PUSH27 0x8FDF4314F411A80D6C06E2E164736F6C634300081A003300000000 "
		},
		"gasEstimates": {
			"creation": {
				"codeDepositCost": "389800",
				"executionCost": "infinite",
				"totalCost": "infinite"
			},
			"external": {
				"calculateBonus()": "infinite",
				"jobTitle()": "infinite",
				"location()": "infinite",
				"manageProjects()": "infinite",
				"name()": "infinite",
				"performanceReport()": "infinite",
				"salary()": "2426"
			}
		},
		"methodIdentifiers": {
			"calculateBonus()": "a4e7d437",
			"jobTitle()": "3ff4b938",
			"location()": "516f279e",
			"manageProjects()": "97c16e78",
			"name()": "06fdde03",
			"performanceReport()": "402e7f4b",
			"salary()": "0397b652"
		}
	},
	"abi": [
		{
			"inputs": [
				{
					"internalType": "string",
					"name": "_name",
					"type": "string"
				},
				{
					"internalType": "string",
					"name": "_location",
					"type": "string"
				},
				{
					"internalType": "uint256",
					"name": "_salary",
					"type": "uint256"
				},
				{
					"internalType": "string",
					"name": "_jobTitle",
					"type": "string"
				}
			],
			"stateMutability": "nonpayable",
			"type": "constructor"
		},
		{
			"inputs": [],
			"name": "calculateBonus",
			"outputs": [
				{
					"internalType": "uint256",
					"name": "",
					"type": "uint256"
				}
			],
			"stateMutability": "view",
			"type": "function"
		},
		{
			"inputs": [],
			"name": "jobTitle",
			"outputs": [
				{
					"internalType": "string",
					"name": "",
					"type": "string"
				}
			],
			"stateMutability": "view",
			"type": "function"
		},
		{
			"inputs": [],
			"name": "location",
			"outputs": [
				{
					"internalType": "string",
					"name": "",
					"type": "string"
				}
			],
			"stateMutability": "view",
			"type": "function"
		},
		{
			"inputs": [],
			"name": "manageProjects",
			"outputs": [
				{
					"internalType": "string",
					"name": "",
					"type": "string"
				}
			],
			"stateMutability": "view",
			"type": "function"
		},
		{
			"inputs": [],
			"name": "name",
			"outputs": [
				{
					"internalType": "string",
					"name": "",
					"type": "string"
				}
			],
			"stateMutability": "view",
			"type": "function"
		},
		{
			"inputs": [],
			"name": "performanceReport",
			"outputs": [
				{
					"internalType": "string",
					"name": "",
					"type": "string"
				}
			],
			"stateMutability": "view",
			"type": "function"
		},
		{
			"inputs": [],
			"name": "salary",
			"outputs": [
				{
					"internalType": "uint256",
					"name": "",
					"type": "uint256"
				}
			],
			"stateMutability": "view",
			"type": "function"
		}
	]
}