{
	"data": {
		"bytecode": {
			"linkReferences": {},
			"object": "6080604052348015600e575f80fd5b506107f88061001c5f395ff3fe608060405234801561000f575f80fd5b506004361061004a575f3560e01c8063041a4e561461004e5780631ec126031461007e5780633d41c222146100ae57806342703494146100de575b5f80fd5b610068600480360381019061006391906103f8565b61010e565b604051610075919061043d565b60405180910390f35b610098600480360381019061009391906103f8565b610163565b6040516100a5919061050d565b60405180910390f35b6100c860048036038101906100c391906103f8565b61025a565b6040516100d5919061053c565b60405180910390f35b6100f860048036038101906100f391906103f8565b6102f9565b604051610105919061043d565b60405180910390f35b5f808290505f5b5f84111561015757600a8461012a9190610582565b600a8261013791906105df565b6101419190610620565b9050600a846101509190610653565b9350610115565b80821492505050919050565b60605f80600290505b8381116101a35761017c816102f9565b1561019057818061018c90610683565b9250505b808061019b90610683565b91505061016c565b505f8167ffffffffffffffff8111156101bf576101be6106ca565b5b6040519080825280602002602001820160405280156101ed5781602001602082028036833780820191505090505b5090505f80600290505b85811161024e57610207816102f9565b1561023b57808383815181106102205761021f6106f7565b5b602002602001018181525050818061023790610683565b9250505b808061024690610683565b9150506101f7565b50819350505050919050565b5f601482111561029f576040517f08c379a0000000000000000000000000000000000000000000000000000000008152600401610296906107a4565b60405180910390fd5b5f8214806102ad5750600182145b156102bb57600190506102f4565b5f600190505f600290505b8381116102ee5780826102d991906105df565b915080806102e690610683565b9150506102c6565b50809150505b919050565b5f6001821161030a575f90506103bc565b6003821161031b57600190506103bc565b5f6002836103299190610582565b148061034057505f60038361033e9190610582565b145b1561034d575f90506103bc565b5f600590505b82818261036091906105df565b116103b6575f81846103729190610582565b148061039457505f6002826103879190610620565b846103929190610582565b145b156103a2575f9150506103bc565b6006816103af9190610620565b9050610353565b50600190505b919050565b5f80fd5b5f819050919050565b6103d7816103c5565b81146103e1575f80fd5b50565b5f813590506103f2816103ce565b92915050565b5f6020828403121561040d5761040c6103c1565b5b5f61041a848285016103e4565b91505092915050565b5f8115159050919050565b61043781610423565b82525050565b5f6020820190506104505f83018461042e565b92915050565b5f81519050919050565b5f82825260208201905092915050565b5f819050602082019050919050565b610488816103c5565b82525050565b5f610499838361047f565b60208301905092915050565b5f602082019050919050565b5f6104bb82610456565b6104c58185610460565b93506104d083610470565b805f5b838110156105005781516104e7888261048e565b97506104f2836104a5565b9250506001810190506104d3565b5085935050505092915050565b5f6020820190508181035f83015261052581846104b1565b905092915050565b610536816103c5565b82525050565b5f60208201905061054f5f83018461052d565b92915050565b7f4e487b71000000000000000000000000000000000000000000000000000000005f52601260045260245ffd5b5f61058c826103c5565b9150610597836103c5565b9250826105a7576105a6610555565b5b828206905092915050565b7f4e487b71000000000000000000000000000000000000000000000000000000005f52601160045260245ffd5b5f6105e9826103c5565b91506105f4836103c5565b9250828202610602816103c5565b91508282048414831517610619576106186105b2565b5b5092915050565b5f61062a826103c5565b9150610635836103c5565b925082820190508082111561064d5761064c6105b2565b5b92915050565b5f61065d826103c5565b9150610668836103c5565b92508261067857610677610555565b5b828204905092915050565b5f61068d826103c5565b91507fffffffffffffffffffffffffffffffffffffffffffffffffffffffffffffffff82036106bf576106be6105b2565b5b600182019050919050565b7f4e487b71000000000000000000000000000000000000000000000000000000005f52604160045260245ffd5b7f4e487b71000000000000000000000000000000000000000000000000000000005f52603260045260245ffd5b5f82825260208201905092915050565b7f4e756d62657220746f6f206c6172676520666f7220666163746f7269616c20635f8201527f616c63756c6174696f6e00000000000000000000000000000000000000000000602082015250565b5f61078e602a83610724565b915061079982610734565b604082019050919050565b5f6020820190508181035f8301526107bb81610782565b905091905056fea26469706673582212205ad2539914a89d28808f6d39a1537e9998a01519f5ad0f86b5a9c2d6351cc31b64736f6c634300081a0033",
			"opcodes": "PUSH1 0x80 PUSH1 0x40 MSTORE CALLVALUE DUP1 ISZERO PUSH1 0xE JUMPI PUSH0 DUP1 REVERT JUMPDEST POP PUSH2 0x7F8 DUP1 PUSH2 0x1C PUSH0 CODECOPY PUSH0 RETURN INVALID PUSH1 0x80 PUSH1 0x40 MSTORE CALLVALUE DUP1 ISZERO PUSH2 0xF JUMPI PUSH0 DUP1 REVERT JUMPDEST POP PUSH1 0x4 CALLDATASIZE LT PUSH2 0x4A JUMPI PUSH0 CALLDATALOAD PUSH1 0xE0 SHR DUP1 PUSH4 0x41A4E56 EQ PUSH2 0x4E JUMPI DUP1 PUSH4 0x1EC12603 EQ PUSH2 0x7E JUMPI DUP1 PUSH4 0x3D41C222 EQ PUSH2 0xAE JUMPI DUP1 PUSH4 0x42703494 EQ PUSH2 0xDE JUMPI JUMPDEST PUSH0 DUP1 REVERT JUMPDEST PUSH2 0x68 PUSH1 0x4 DUP1 CALLDATASIZE SUB DUP2 ADD SWAP1 PUSH2 0x63 SWAP2 SWAP1 PUSH2 0x3F8 JUMP JUMPDEST PUSH2 0x10E JUMP JUMPDEST PUSH1 0x40 MLOAD PUSH2 0x75 SWAP2 SWAP1 PUSH2 0x43D JUMP JUMPDEST PUSH1 0x40 MLOAD DUP1 SWAP2 SUB SWAP1 RETURN JUMPDEST PUSH2 0x98 PUSH1 0x4 DUP1 CALLDATASIZE SUB DUP2 ADD SWAP1 PUSH2 0x93 SWAP2 SWAP1 PUSH2 0x3F8 JUMP JUMPDEST PUSH2 0x163 JUMP JUMPDEST PUSH1 0x40 MLOAD PUSH2 0xA5 SWAP2 SWAP1 PUSH2 0x50D JUMP JUMPDEST PUSH1 0x40 MLOAD DUP1 SWAP2 SUB SWAP1 RETURN JUMPDEST PUSH2 0xC8 PUSH1 0x4 DUP1 CALLDATASIZE SUB DUP2 ADD SWAP1 PUSH2 0xC3 SWAP2 SWAP1 PUSH2 0x3F8 JUMP JUMPDEST PUSH2 0x25A JUMP JUMPDEST PUSH1 0x40 MLOAD PUSH2 0xD5 SWAP2 SWAP1 PUSH2 0x53C JUMP JUMPDEST PUSH1 0x40 MLOAD DUP1 SWAP2 SUB SWAP1 RETURN JUMPDEST PUSH2 0xF8 PUSH1 0x4 DUP1 CALLDATASIZE SUB DUP2 ADD SWAP1 PUSH2 0xF3 SWAP2 SWAP1 PUSH2 0x3F8 JUMP JUMPDEST PUSH2 0x2F9 JUMP JUMPDEST PUSH1 0x40 MLOAD PUSH2 0x105 SWAP2 SWAP1 PUSH2 0x43D JUMP JUMPDEST PUSH1 0x40 MLOAD DUP1 SWAP2 SUB SWAP1 RETURN JUMPDEST PUSH0 DUP1 DUP3 SWAP1 POP PUSH0 JUMPDEST PUSH0 DUP5 GT ISZERO PUSH2 0x157 JUMPI PUSH1 0xA DUP5 PUSH2 0x12A SWAP2 SWAP1 PUSH2 0x582 JUMP JUMPDEST PUSH1 0xA DUP3 PUSH2 0x137 SWAP2 SWAP1 PUSH2 0x5DF JUMP JUMPDEST PUSH2 0x141 SWAP2 SWAP1 PUSH2 0x620 JUMP JUMPDEST SWAP1 POP PUSH1 0xA DUP5 PUSH2 0x150 SWAP2 SWAP1 PUSH2 0x653 JUMP JUMPDEST SWAP4 POP PUSH2 0x115 JUMP JUMPDEST DUP1 DUP3 EQ SWAP3 POP POP POP SWAP2 SWAP1 POP JUMP JUMPDEST PUSH1 0x60 PUSH0 DUP1 PUSH1 0x2 SWAP1 POP JUMPDEST DUP4 DUP2 GT PUSH2 0x1A3 JUMPI PUSH2 0x17C DUP2 PUSH2 0x2F9 JUMP JUMPDEST ISZERO PUSH2 0x190 JUMPI DUP2 DUP1 PUSH2 0x18C SWAP1 PUSH2 0x683 JUMP JUMPDEST SWAP3 POP POP JUMPDEST DUP1 DUP1 PUSH2 0x19B SWAP1 PUSH2 0x683 JUMP JUMPDEST SWAP2 POP POP PUSH2 0x16C JUMP JUMPDEST POP PUSH0 DUP2 PUSH8 0xFFFFFFFFFFFFFFFF DUP2 GT ISZERO PUSH2 0x1BF JUMPI PUSH2 0x1BE PUSH2 0x6CA JUMP JUMPDEST JUMPDEST PUSH1 0x40 MLOAD SWAP1 DUP1 DUP3 MSTORE DUP1 PUSH1 0x20 MUL PUSH1 0x20 ADD DUP3 ADD PUSH1 0x40 MSTORE DUP1 ISZERO PUSH2 0x1ED JUMPI DUP2 PUSH1 0x20 ADD PUSH1 0x20 DUP3 MUL DUP1 CALLDATASIZE DUP4 CALLDATACOPY DUP1 DUP3 ADD SWAP2 POP POP SWAP1 POP JUMPDEST POP SWAP1 POP PUSH0 DUP1 PUSH1 0x2 SWAP1 POP JUMPDEST DUP6 DUP2 GT PUSH2 0x24E JUMPI PUSH2 0x207 DUP2 PUSH2 0x2F9 JUMP JUMPDEST ISZERO PUSH2 0x23B JUMPI DUP1 DUP4 DUP4 DUP2 MLOAD DUP2 LT PUSH2 0x220 JUMPI PUSH2 0x21F PUSH2 0x6F7 JUMP JUMPDEST JUMPDEST PUSH1 0x20 MUL PUSH1 0x20 ADD ADD DUP2 DUP2 MSTORE POP POP DUP2 DUP1 PUSH2 0x237 SWAP1 PUSH2 0x683 JUMP JUMPDEST SWAP3 POP POP JUMPDEST DUP1 DUP1 PUSH2 0x246 SWAP1 PUSH2 0x683 JUMP JUMPDEST SWAP2 POP POP PUSH2 0x1F7 JUMP JUMPDEST POP DUP2 SWAP4 POP POP POP POP SWAP2 SWAP1 POP JUMP JUMPDEST PUSH0 PUSH1 0x14 DUP3 GT ISZERO PUSH2 0x29F JUMPI PUSH1 0x40 MLOAD PUSH32 0x8C379A000000000000000000000000000000000000000000000000000000000 DUP2 MSTORE PUSH1 0x4 ADD PUSH2 0x296 SWAP1 PUSH2 0x7A4 JUMP JUMPDEST PUSH1 0x40 MLOAD DUP1 SWAP2 SUB SWAP1 REVERT JUMPDEST PUSH0 DUP3 EQ DUP1 PUSH2 0x2AD JUMPI POP PUSH1 0x1 DUP3 EQ JUMPDEST ISZERO PUSH2 0x2BB JUMPI PUSH1 0x1 SWAP1 POP PUSH2 0x2F4 JUMP JUMPDEST PUSH0 PUSH1 0x1 SWAP1 POP PUSH0 PUSH1 0x2 SWAP1 POP JUMPDEST DUP4 DUP2 GT PUSH2 0x2EE JUMPI DUP1 DUP3 PUSH2 0x2D9 SWAP2 SWAP1 PUSH2 0x5DF JUMP JUMPDEST SWAP2 POP DUP1 DUP1 PUSH2 0x2E6 SWAP1 PUSH2 0x683 JUMP JUMPDEST SWAP2 POP POP PUSH2 0x2C6 JUMP JUMPDEST POP DUP1 SWAP2 POP POP JUMPDEST SWAP2 SWAP1 POP JUMP JUMPDEST PUSH0 PUSH1 0x1 DUP3 GT PUSH2 0x30A JUMPI PUSH0 SWAP1 POP PUSH2 0x3BC JUMP JUMPDEST PUSH1 0x3 DUP3 GT PUSH2 0x31B JUMPI PUSH1 0x1 SWAP1 POP PUSH2 0x3BC JUMP JUMPDEST PUSH0 PUSH1 0x2 DUP4 PUSH2 0x329 SWAP2 SWAP1 PUSH2 0x582 JUMP JUMPDEST EQ DUP1 PUSH2 0x340 JUMPI POP PUSH0 PUSH1 0x3 DUP4 PUSH2 0x33E SWAP2 SWAP1 PUSH2 0x582 JUMP JUMPDEST EQ JUMPDEST ISZERO PUSH2 0x34D JUMPI PUSH0 SWAP1 POP PUSH2 0x3BC JUMP JUMPDEST PUSH0 PUSH1 0x5 SWAP1 POP JUMPDEST DUP3 DUP2 DUP3 PUSH2 0x360 SWAP2 SWAP1 PUSH2 0x5DF JUMP JUMPDEST GT PUSH2 0x3B6 JUMPI PUSH0 DUP2 DUP5 PUSH2 0x372 SWAP2 SWAP1 PUSH2 0x582 JUMP JUMPDEST EQ DUP1 PUSH2 0x394 JUMPI POP PUSH0 PUSH1 0x2 DUP3 PUSH2 0x387 SWAP2 SWAP1 PUSH2 0x620 JUMP JUMPDEST DUP5 PUSH2 0x392 SWAP2 SWAP1 PUSH2 0x582 JUMP JUMPDEST EQ JUMPDEST ISZERO PUSH2 0x3A2 JUMPI PUSH0 SWAP2 POP POP PUSH2 0x3BC JUMP JUMPDEST PUSH1 0x6 DUP2 PUSH2 0x3AF SWAP2 SWAP1 PUSH2 0x620 JUMP JUMPDEST SWAP1 POP PUSH2 0x353 JUMP JUMPDEST POP PUSH1 0x1 SWAP1 POP JUMPDEST SWAP2 SWAP1 POP JUMP JUMPDEST PUSH0 DUP1 REVERT JUMPDEST PUSH0 DUP2 SWAP1 POP SWAP2 SWAP1 POP JUMP JUMPDEST PUSH2 0x3D7 DUP2 PUSH2 0x3C5 JUMP JUMPDEST DUP2 EQ PUSH2 0x3E1 JUMPI PUSH0 DUP1 REVERT JUMPDEST POP JUMP JUMPDEST PUSH0 DUP2 CALLDATALOAD SWAP1 POP PUSH2 0x3F2 DUP2 PUSH2 0x3CE JUMP JUMPDEST SWAP3 SWAP2 POP POP JUMP JUMPDEST PUSH0 PUSH1 0x20 DUP3 DUP5 SUB SLT ISZERO PUSH2 0x40D JUMPI PUSH2 0x40C PUSH2 0x3C1 JUMP JUMPDEST JUMPDEST PUSH0 PUSH2 0x41A DUP5 DUP3 DUP6 ADD PUSH2 0x3E4 JUMP JUMPDEST SWAP2 POP POP SWAP3 SWAP2 POP POP JUMP JUMPDEST PUSH0 DUP2 ISZERO ISZERO SWAP1 POP SWAP2 SWAP1 POP JUMP JUMPDEST PUSH2 0x437 DUP2 PUSH2 0x423 JUMP JUMPDEST DUP3 MSTORE POP POP JUMP JUMPDEST PUSH0 PUSH1 0x20 DUP3 ADD SWAP1 POP PUSH2 0x450 PUSH0 DUP4 ADD DUP5 PUSH2 0x42E JUMP JUMPDEST SWAP3 SWAP2 POP POP JUMP JUMPDEST PUSH0 DUP2 MLOAD SWAP1 POP SWAP2 SWAP1 POP JUMP JUMPDEST PUSH0 DUP3 DUP3 MSTORE PUSH1 0x20 DUP3 ADD SWAP1 POP SWAP3 SWAP2 POP POP JUMP JUMPDEST PUSH0 DUP2 SWAP1 POP PUSH1 0x20 DUP3 ADD SWAP1 POP SWAP2 SWAP1 POP JUMP JUMPDEST PUSH2 0x488 DUP2 PUSH2 0x3C5 JUMP JUMPDEST DUP3 MSTORE POP POP JUMP JUMPDEST PUSH0 PUSH2 0x499 DUP4 DUP4 PUSH2 0x47F JUMP JUMPDEST PUSH1 0x20 DUP4 ADD SWAP1 POP SWAP3 SWAP2 POP POP JUMP JUMPDEST PUSH0 PUSH1 0x20 DUP3 ADD SWAP1 POP SWAP2 SWAP1 POP JUMP JUMPDEST PUSH0 PUSH2 0x4BB DUP3 PUSH2 0x456 JUMP JUMPDEST PUSH2 0x4C5 DUP2 DUP6 PUSH2 0x460 JUMP JUMPDEST SWAP4 POP PUSH2 0x4D0 DUP4 PUSH2 0x470 JUMP JUMPDEST DUP1 PUSH0 JUMPDEST DUP4 DUP2 LT ISZERO PUSH2 0x500 JUMPI DUP2 MLOAD PUSH2 0x4E7 DUP9 DUP3 PUSH2 0x48E JUMP JUMPDEST SWAP8 POP PUSH2 0x4F2 DUP4 PUSH2 0x4A5 JUMP JUMPDEST SWAP3 POP POP PUSH1 0x1 DUP2 ADD SWAP1 POP PUSH2 0x4D3 JUMP JUMPDEST POP DUP6 SWAP4 POP POP POP POP SWAP3 SWAP2 POP POP JUMP JUMPDEST PUSH0 PUSH1 0x20 DUP3 ADD SWAP1 POP DUP2 DUP2 SUB PUSH0 DUP4 ADD MSTORE PUSH2 0x525 DUP2 DUP5 PUSH2 0x4B1 JUMP JUMPDEST SWAP1 POP SWAP3 SWAP2 POP POP JUMP JUMPDEST PUSH2 0x536 DUP2 PUSH2 0x3C5 JUMP JUMPDEST DUP3 MSTORE POP POP JUMP JUMPDEST PUSH0 PUSH1 0x20 DUP3 ADD SWAP1 POP PUSH2 0x54F PUSH0 DUP4 ADD DUP5 PUSH2 0x52D JUMP JUMPDEST SWAP3 SWAP2 POP POP JUMP JUMPDEST PUSH32 0x4E487B7100000000000000000000000000000000000000000000000000000000 PUSH0 MSTORE PUSH1 0x12 PUSH1 0x4 MSTORE PUSH1 0x24 PUSH0 REVERT JUMPDEST PUSH0 PUSH2 0x58C DUP3 PUSH2 0x3C5 JUMP JUMPDEST SWAP2 POP PUSH2 0x597 DUP4 PUSH2 0x3C5 JUMP JUMPDEST SWAP3 POP DUP3 PUSH2 0x5A7 JUMPI PUSH2 0x5A6 PUSH2 0x555 JUMP JUMPDEST JUMPDEST DUP3 DUP3 MOD SWAP1 POP SWAP3 SWAP2 POP POP JUMP JUMPDEST PUSH32 0x4E487B7100000000000000000000000000000000000000000000000000000000 PUSH0 MSTORE PUSH1 0x11 PUSH1 0x4 MSTORE PUSH1 0x24 PUSH0 REVERT JUMPDEST PUSH0 PUSH2 0x5E9 DUP3 PUSH2 0x3C5 JUMP JUMPDEST SWAP2 POP PUSH2 0x5F4 DUP4 PUSH2 0x3C5 JUMP JUMPDEST SWAP3 POP DUP3 DUP3 MUL PUSH2 0x602 DUP2 PUSH2 0x3C5 JUMP JUMPDEST SWAP2 POP DUP3 DUP3 DIV DUP5 EQ DUP4 ISZERO OR PUSH2 0x619 JUMPI PUSH2 0x618 PUSH2 0x5B2 JUMP JUMPDEST JUMPDEST POP SWAP3 SWAP2 POP POP JUMP JUMPDEST PUSH0 PUSH2 0x62A DUP3 PUSH2 0x3C5 JUMP JUMPDEST SWAP2 POP PUSH2 0x635 DUP4 PUSH2 0x3C5 JUMP JUMPDEST SWAP3 POP DUP3 DUP3 ADD SWAP1 POP DUP1 DUP3 GT ISZERO PUSH2 0x64D JUMPI PUSH2 0x64C PUSH2 0x5B2 JUMP JUMPDEST JUMPDEST SWAP3 SWAP2 POP POP JUMP JUMPDEST PUSH0 PUSH2 0x65D DUP3 PUSH2 0x3C5 JUMP JUMPDEST SWAP2 POP PUSH2 0x668 DUP4 PUSH2 0x3C5 JUMP JUMPDEST SWAP3 POP DUP3 PUSH2 0x678 JUMPI PUSH2 0x677 PUSH2 0x555 JUMP JUMPDEST JUMPDEST DUP3 DUP3 DIV SWAP1 POP SWAP3 SWAP2 POP POP JUMP JUMPDEST PUSH0 PUSH2 0x68D DUP3 PUSH2 0x3C5 JUMP JUMPDEST SWAP2 POP PUSH32 0xFFFFFFFFFFFFFFFFFFFFFFFFFFFFFFFFFFFFFFFFFFFFFFFFFFFFFFFFFFFFFFFF DUP3 SUB PUSH2 0x6BF JUMPI PUSH2 0x6BE PUSH2 0x5B2 JUMP JUMPDEST JUMPDEST PUSH1 0x1 DUP3 ADD SWAP1 POP SWAP2 SWAP1 POP JUMP JUMPDEST PUSH32 0x4E487B7100000000000000000000000000000000000000000000000000000000 PUSH0 MSTORE PUSH1 0x41 PUSH1 0x4 MSTORE PUSH1 0x24 PUSH0 REVERT JUMPDEST PUSH32 0x4E487B7100000000000000000000000000000000000000000000000000000000 PUSH0 MSTORE PUSH1 0x32 PUSH1 0x4 MSTORE PUSH1 0x24 PUSH0 REVERT JUMPDEST PUSH0 DUP3 DUP3 MSTORE PUSH1 0x20 DUP3 ADD SWAP1 POP SWAP3 SWAP2 POP POP JUMP JUMPDEST PUSH32 0x4E756D62657220746F6F206C6172676520666F7220666163746F7269616C2063 PUSH0 DUP3 ADD MSTORE PUSH32 0x616C63756C6174696F6E00000000000000000000000000000000000000000000 PUSH1 0x20 DUP3 ADD MSTORE POP JUMP JUMPDEST PUSH0 PUSH2 0x78E PUSH1 0x2A DUP4 PUSH2 0x724 JUMP JUMPDEST SWAP2 POP PUSH2 0x799 DUP3 PUSH2 0x734 JUMP JUMPDEST PUSH1 0x40 DUP3 ADD SWAP1 POP SWAP2 SWAP1 POP JUMP JUMPDEST PUSH0 PUSH1 0x20 DUP3 ADD SWAP1 POP DUP2 DUP2 SUB PUSH0 DUP4 ADD MSTORE PUSH2 0x7BB DUP2 PUSH2 0x782 JUMP JUMPDEST SWAP1 POP SWAP2 SWAP1 POP JUMP INVALID LOG2 PUSH5 0x6970667358 0x22 SLT KECCAK256 GAS 0xD2 MSTORE8 SWAP10 EQ 0xA8 SWAP14 0x28 DUP1 DUP16 PUSH14 0x39A1537E9998A01519F5AD0F86B5 0xA9 0xC2 0xD6 CALLDATALOAD SHR 0xC3 SHL PUSH5 0x736F6C6343 STOP ADDMOD BYTE STOP CALLER "
		},
		"gasEstimates": {
			"creation": {
				"codeDepositCost": "408000",
				"executionCost": "441",
				"totalCost": "408441"
			},
			"external": {
				"calculateFactorial(uint256)": "infinite",
				"getPrimesUpTo(uint256)": "infinite",
				"isPalindrome(uint256)": "infinite",
				"isPrime(uint256)": "infinite"
			}
		},
		"methodIdentifiers": {
			"calculateFactorial(uint256)": "3d41c222",
			"getPrimesUpTo(uint256)": "1ec12603",
			"isPalindrome(uint256)": "041a4e56",
			"isPrime(uint256)": "42703494"
		}
	},
	"abi": [
		{
			"inputs": [
				{
					"internalType": "uint256",
					"name": "n",
					"type": "uint256"
				}
			],
			"name": "calculateFactorial",
			"outputs": [
				{
					"internalType": "uint256",
					"name": "",
					"type": "uint256"
				}
			],
			"stateMutability": "pure",
			"type": "function"
		},
		{
			"inputs": [
				{
					"internalType": "uint256",
					"name": "n",
					"type": "uint256"
				}
			],
			"name": "getPrimesUpTo",
			"outputs": [
				{
					"internalType": "uint256[]",
					"name": "",
					"type": "uint256[]"
				}
			],
			"stateMutability": "pure",
			"type": "function"
		},
		{
			"inputs": [
				{
					"internalType": "uint256",
					"name": "n",
					"type": "uint256"
				}
			],
			"name": "isPalindrome",
			"outputs": [
				{
					"internalType": "bool",
					"name": "",
					"type": "bool"
				}
			],
			"stateMutability": "pure",
			"type": "function"
		},
		{
			"inputs": [
				{
					"internalType": "uint256",
					"name": "n",
					"type": "uint256"
				}
			],
			"name": "isPrime",
			"outputs": [
				{
					"internalType": "bool",
					"name": "",
					"type": "bool"
				}
			],
			"stateMutability": "pure",
			"type": "function"
		}
	]
}