{
	"data": {
		"bytecode": {
			"linkReferences": {},
			"object": "6080604052348015600e575f80fd5b506106f38061001c5f395ff3fe608060405234801561000f575f80fd5b506004361061003f575f3560e01c8063996bce2b146100435780639bbe88b114610073578063cdabd4f7146100a3575b5f80fd5b61005d60048036038101906100589190610391565b6100d3565b60405161006a91906103d6565b60405180910390f35b61008d60048036038101906100889190610391565b61016e565b60405161009a91906103fe565b60405180910390f35b6100bd60048036038101906100b89190610391565b610207565b6040516100ca91906104ce565b60405180910390f35b5f600182116100e4575f9050610169565b5f600190505f600290505b8381826100fc919061051b565b11610161575f818561010e9190610589565b0361014e57808261011f91906105b9565b9150808461012d91906105ec565b811461014d57808461013f91906105ec565b8261014a91906105b9565b91505b5b80806101599061061c565b9150506100ef565b508281149150505b919050565b5f6001821161017f575f9050610202565b5f600190505f600290505b838182610197919061051b565b116101fc575f81856101a99190610589565b036101e95780826101ba91906105b9565b915080846101c891906105ec565b81146101e85780846101da91906105ec565b826101e591906105b9565b91505b5b80806101f49061061c565b91505061018a565b50809150505b919050565b606060018211610266575f8067ffffffffffffffff81111561022c5761022b610663565b5b60405190808252806020026020018201604052801561025a5781602001602082028036833780820191505090505b50905080915050610355565b5f80600190505b838110156102a3575f81856102829190610589565b036102965781806102929061061c565b9250505b808060010191505061026d565b505f8167ffffffffffffffff8111156102bf576102be610663565b5b6040519080825280602002602001820160405280156102ed5781602001602082028036833780820191505090505b5090505f80600190505b8581101561034d575f818761030c9190610589565b03610340578083838151811061032557610324610690565b5b602002602001018181525050818061033c9061061c565b9250505b80806001019150506102f7565b508193505050505b919050565b5f80fd5b5f819050919050565b6103708161035e565b811461037a575f80fd5b50565b5f8135905061038b81610367565b92915050565b5f602082840312156103a6576103a561035a565b5b5f6103b38482850161037d565b91505092915050565b5f8115159050919050565b6103d0816103bc565b82525050565b5f6020820190506103e95f8301846103c7565b92915050565b6103f88161035e565b82525050565b5f6020820190506104115f8301846103ef565b92915050565b5f81519050919050565b5f82825260208201905092915050565b5f819050602082019050919050565b6104498161035e565b82525050565b5f61045a8383610440565b60208301905092915050565b5f602082019050919050565b5f61047c82610417565b6104868185610421565b935061049183610431565b805f5b838110156104c15781516104a8888261044f565b97506104b383610466565b925050600181019050610494565b5085935050505092915050565b5f6020820190508181035f8301526104e68184610472565b905092915050565b7f4e487b71000000000000000000000000000000000000000000000000000000005f52601160045260245ffd5b5f6105258261035e565b91506105308361035e565b925082820261053e8161035e565b91508282048414831517610555576105546104ee565b5b5092915050565b7f4e487b71000000000000000000000000000000000000000000000000000000005f52601260045260245ffd5b5f6105938261035e565b915061059e8361035e565b9250826105ae576105ad61055c565b5b828206905092915050565b5f6105c38261035e565b91506105ce8361035e565b92508282019050808211156105e6576105e56104ee565b5b92915050565b5f6105f68261035e565b91506106018361035e565b9250826106115761061061055c565b5b828204905092915050565b5f6106268261035e565b91507fffffffffffffffffffffffffffffffffffffffffffffffffffffffffffffffff8203610658576106576104ee565b5b600182019050919050565b7f4e487b71000000000000000000000000000000000000000000000000000000005f52604160045260245ffd5b7f4e487b71000000000000000000000000000000000000000000000000000000005f52603260045260245ffdfea2646970667358221220019f36245ba9f4f503f3c27401378d151a967f4f4a26fb6d3a6e814c2bd3201364736f6c634300081a0033",
			"opcodes": "PUSH1 0x80 PUSH1 0x40 MSTORE CALLVALUE DUP1 ISZERO PUSH1 0xE JUMPI PUSH0 DUP1 REVERT JUMPDEST POP PUSH2 0x6F3 DUP1 PUSH2 0x1C PUSH0 CODECOPY PUSH0 RETURN INVALID PUSH1 0x80 PUSH1 0x40 MSTORE CALLVALUE DUP1 ISZERO PUSH2 0xF JUMPI PUSH0 DUP1 REVERT JUMPDEST POP PUSH1 0x4 CALLDATASIZE LT PUSH2 0x3F JUMPI PUSH0 CALLDATALOAD PUSH1 0xE0 SHR DUP1 PUSH4 0x996BCE2B EQ PUSH2 0x43 JUMPI DUP1 PUSH4 0x9BBE88B1 EQ PUSH2 0x73 JUMPI DUP1 PUSH4 0xCDABD4F7 EQ PUSH2 0xA3 JUMPI JUMPDEST PUSH0 DUP1 REVERT JUMPDEST PUSH2 0x5D PUSH1 0x4 DUP1 CALLDATASIZE SUB DUP2 ADD SWAP1 PUSH2 0x58 SWAP2 SWAP1 PUSH2 0x391 JUMP JUMPDEST PUSH2 0xD3 JUMP JUMPDEST PUSH1 0x40 MLOAD PUSH2 0x6A SWAP2 SWAP1 PUSH2 0x3D6 JUMP JUMPDEST PUSH1 0x40 MLOAD DUP1 SWAP2 SUB SWAP1 RETURN JUMPDEST PUSH2 0x8D PUSH1 0x4 DUP1 CALLDATASIZE SUB DUP2 ADD SWAP1 PUSH2 0x88 SWAP2 SWAP1 PUSH2 0x391 JUMP JUMPDEST PUSH2 0x16E JUMP JUMPDEST PUSH1 0x40 MLOAD PUSH2 0x9A SWAP2 SWAP1 PUSH2 0x3FE JUMP JUMPDEST PUSH1 0x40 MLOAD DUP1 SWAP2 SUB SWAP1 RETURN JUMPDEST PUSH2 0xBD PUSH1 0x4 DUP1 CALLDATASIZE SUB DUP2 ADD SWAP1 PUSH2 0xB8 SWAP2 SWAP1 PUSH2 0x391 JUMP JUMPDEST PUSH2 0x207 JUMP JUMPDEST PUSH1 0x40 MLOAD PUSH2 0xCA SWAP2 SWAP1 PUSH2 0x4CE JUMP JUMPDEST PUSH1 0x40 MLOAD DUP1 SWAP2 SUB SWAP1 RETURN JUMPDEST PUSH0 PUSH1 0x1 DUP3 GT PUSH2 0xE4 JUMPI PUSH0 SWAP1 POP PUSH2 0x169 JUMP JUMPDEST PUSH0 PUSH1 0x1 SWAP1 POP PUSH0 PUSH1 0x2 SWAP1 POP JUMPDEST DUP4 DUP2 DUP3 PUSH2 0xFC SWAP2 SWAP1 PUSH2 0x51B JUMP JUMPDEST GT PUSH2 0x161 JUMPI PUSH0 DUP2 DUP6 PUSH2 0x10E SWAP2 SWAP1 PUSH2 0x589 JUMP JUMPDEST SUB PUSH2 0x14E JUMPI DUP1 DUP3 PUSH2 0x11F SWAP2 SWAP1 PUSH2 0x5B9 JUMP JUMPDEST SWAP2 POP DUP1 DUP5 PUSH2 0x12D SWAP2 SWAP1 PUSH2 0x5EC JUMP JUMPDEST DUP2 EQ PUSH2 0x14D JUMPI DUP1 DUP5 PUSH2 0x13F SWAP2 SWAP1 PUSH2 0x5EC JUMP JUMPDEST DUP3 PUSH2 0x14A SWAP2 SWAP1 PUSH2 0x5B9 JUMP JUMPDEST SWAP2 POP JUMPDEST JUMPDEST DUP1 DUP1 PUSH2 0x159 SWAP1 PUSH2 0x61C JUMP JUMPDEST SWAP2 POP POP PUSH2 0xEF JUMP JUMPDEST POP DUP3 DUP2 EQ SWAP2 POP POP JUMPDEST SWAP2 SWAP1 POP JUMP JUMPDEST PUSH0 PUSH1 0x1 DUP3 GT PUSH2 0x17F JUMPI PUSH0 SWAP1 POP PUSH2 0x202 JUMP JUMPDEST PUSH0 PUSH1 0x1 SWAP1 POP PUSH0 PUSH1 0x2 SWAP1 POP JUMPDEST DUP4 DUP2 DUP3 PUSH2 0x197 SWAP2 SWAP1 PUSH2 0x51B JUMP JUMPDEST GT PUSH2 0x1FC JUMPI PUSH0 DUP2 DUP6 PUSH2 0x1A9 SWAP2 SWAP1 PUSH2 0x589 JUMP JUMPDEST SUB PUSH2 0x1E9 JUMPI DUP1 DUP3 PUSH2 0x1BA SWAP2 SWAP1 PUSH2 0x5B9 JUMP JUMPDEST SWAP2 POP DUP1 DUP5 PUSH2 0x1C8 SWAP2 SWAP1 PUSH2 0x5EC JUMP JUMPDEST DUP2 EQ PUSH2 0x1E8 JUMPI DUP1 DUP5 PUSH2 0x1DA SWAP2 SWAP1 PUSH2 0x5EC JUMP JUMPDEST DUP3 PUSH2 0x1E5 SWAP2 SWAP1 PUSH2 0x5B9 JUMP JUMPDEST SWAP2 POP JUMPDEST JUMPDEST DUP1 DUP1 PUSH2 0x1F4 SWAP1 PUSH2 0x61C JUMP JUMPDEST SWAP2 POP POP PUSH2 0x18A JUMP JUMPDEST POP DUP1 SWAP2 POP POP JUMPDEST SWAP2 SWAP1 POP JUMP JUMPDEST PUSH1 0x60 PUSH1 0x1 DUP3 GT PUSH2 0x266 JUMPI PUSH0 DUP1 PUSH8 0xFFFFFFFFFFFFFFFF DUP2 GT ISZERO PUSH2 0x22C JUMPI PUSH2 0x22B PUSH2 0x663 JUMP JUMPDEST JUMPDEST PUSH1 0x40 MLOAD SWAP1 DUP1 DUP3 MSTORE DUP1 PUSH1 0x20 MUL PUSH1 0x20 ADD DUP3 ADD PUSH1 0x40 MSTORE DUP1 ISZERO PUSH2 0x25A JUMPI DUP2 PUSH1 0x20 ADD PUSH1 0x20 DUP3 MUL DUP1 CALLDATASIZE DUP4 CALLDATACOPY DUP1 DUP3 ADD SWAP2 POP POP SWAP1 POP JUMPDEST POP SWAP1 POP DUP1 SWAP2 POP POP PUSH2 0x355 JUMP JUMPDEST PUSH0 DUP1 PUSH1 0x1 SWAP1 POP JUMPDEST DUP4 DUP2 LT ISZERO PUSH2 0x2A3 JUMPI PUSH0 DUP2 DUP6 PUSH2 0x282 SWAP2 SWAP1 PUSH2 0x589 JUMP JUMPDEST SUB PUSH2 0x296 JUMPI DUP2 DUP1 PUSH2 0x292 SWAP1 PUSH2 0x61C JUMP JUMPDEST SWAP3 POP POP JUMPDEST DUP1 DUP1 PUSH1 0x1 ADD SWAP2 POP POP PUSH2 0x26D JUMP JUMPDEST POP PUSH0 DUP2 PUSH8 0xFFFFFFFFFFFFFFFF DUP2 GT ISZERO PUSH2 0x2BF JUMPI PUSH2 0x2BE PUSH2 0x663 JUMP JUMPDEST JUMPDEST PUSH1 0x40 MLOAD SWAP1 DUP1 DUP3 MSTORE DUP1 PUSH1 0x20 MUL PUSH1 0x20 ADD DUP3 ADD PUSH1 0x40 MSTORE DUP1 ISZERO PUSH2 0x2ED JUMPI DUP2 PUSH1 0x20 ADD PUSH1 0x20 DUP3 MUL DUP1 CALLDATASIZE DUP4 CALLDATACOPY DUP1 DUP3 ADD SWAP2 POP POP SWAP1 POP JUMPDEST POP SWAP1 POP PUSH0 DUP1 PUSH1 0x1 SWAP1 POP JUMPDEST DUP6 DUP2 LT ISZERO PUSH2 0x34D JUMPI PUSH0 DUP2 DUP8 PUSH2 0x30C SWAP2 SWAP1 PUSH2 0x589 JUMP JUMPDEST SUB PUSH2 0x340 JUMPI DUP1 DUP4 DUP4 DUP2 MLOAD DUP2 LT PUSH2 0x325 JUMPI PUSH2 0x324 PUSH2 0x690 JUMP JUMPDEST JUMPDEST PUSH1 0x20 MUL PUSH1 0x20 ADD ADD DUP2 DUP2 MSTORE POP POP DUP2 DUP1 PUSH2 0x33C SWAP1 PUSH2 0x61C JUMP JUMPDEST SWAP3 POP POP JUMPDEST DUP1 DUP1 PUSH1 0x1 ADD SWAP2 POP POP PUSH2 0x2F7 JUMP JUMPDEST POP DUP2 SWAP4 POP POP POP POP JUMPDEST SWAP2 SWAP1 POP JUMP JUMPDEST PUSH0 DUP1 REVERT JUMPDEST PUSH0 DUP2 SWAP1 POP SWAP2 SWAP1 POP JUMP JUMPDEST PUSH2 0x370 DUP2 PUSH2 0x35E JUMP JUMPDEST DUP2 EQ PUSH2 0x37A JUMPI PUSH0 DUP1 REVERT JUMPDEST POP JUMP JUMPDEST PUSH0 DUP2 CALLDATALOAD SWAP1 POP PUSH2 0x38B DUP2 PUSH2 0x367 JUMP JUMPDEST SWAP3 SWAP2 POP POP JUMP JUMPDEST PUSH0 PUSH1 0x20 DUP3 DUP5 SUB SLT ISZERO PUSH2 0x3A6 JUMPI PUSH2 0x3A5 PUSH2 0x35A JUMP JUMPDEST JUMPDEST PUSH0 PUSH2 0x3B3 DUP5 DUP3 DUP6 ADD PUSH2 0x37D JUMP JUMPDEST SWAP2 POP POP SWAP3 SWAP2 POP POP JUMP JUMPDEST PUSH0 DUP2 ISZERO ISZERO SWAP1 POP SWAP2 SWAP1 POP JUMP JUMPDEST PUSH2 0x3D0 DUP2 PUSH2 0x3BC JUMP JUMPDEST DUP3 MSTORE POP POP JUMP JUMPDEST PUSH0 PUSH1 0x20 DUP3 ADD SWAP1 POP PUSH2 0x3E9 PUSH0 DUP4 ADD DUP5 PUSH2 0x3C7 JUMP JUMPDEST SWAP3 SWAP2 POP POP JUMP JUMPDEST PUSH2 0x3F8 DUP2 PUSH2 0x35E JUMP JUMPDEST DUP3 MSTORE POP POP JUMP JUMPDEST PUSH0 PUSH1 0x20 DUP3 ADD SWAP1 POP PUSH2 0x411 PUSH0 DUP4 ADD DUP5 PUSH2 0x3EF JUMP JUMPDEST SWAP3 SWAP2 POP POP JUMP JUMPDEST PUSH0 DUP2 MLOAD SWAP1 POP SWAP2 SWAP1 POP JUMP JUMPDEST PUSH0 DUP3 DUP3 MSTORE PUSH1 0x20 DUP3 ADD SWAP1 POP SWAP3 SWAP2 POP POP JUMP JUMPDEST PUSH0 DUP2 SWAP1 POP PUSH1 0x20 DUP3 ADD SWAP1 POP SWAP2 SWAP1 POP JUMP JUMPDEST PUSH2 0x449 DUP2 PUSH2 0x35E JUMP JUMPDEST DUP3 MSTORE POP POP JUMP JUMPDEST PUSH0 PUSH2 0x45A DUP4 DUP4 PUSH2 0x440 JUMP JUMPDEST PUSH1 0x20 DUP4 ADD SWAP1 POP SWAP3 SWAP2 POP POP JUMP JUMPDEST PUSH0 PUSH1 0x20 DUP3 ADD SWAP1 POP SWAP2 SWAP1 POP JUMP JUMPDEST PUSH0 PUSH2 0x47C DUP3 PUSH2 0x417 JUMP JUMPDEST PUSH2 0x486 DUP2 DUP6 PUSH2 0x421 JUMP JUMPDEST SWAP4 POP PUSH2 0x491 DUP4 PUSH2 0x431 JUMP JUMPDEST DUP1 PUSH0 JUMPDEST DUP4 DUP2 LT ISZERO PUSH2 0x4C1 JUMPI DUP2 MLOAD PUSH2 0x4A8 DUP9 DUP3 PUSH2 0x44F JUMP JUMPDEST SWAP8 POP PUSH2 0x4B3 DUP4 PUSH2 0x466 JUMP JUMPDEST SWAP3 POP POP PUSH1 0x1 DUP2 ADD SWAP1 POP PUSH2 0x494 JUMP JUMPDEST POP DUP6 SWAP4 POP POP POP POP SWAP3 SWAP2 POP POP JUMP JUMPDEST PUSH0 PUSH1 0x20 DUP3 ADD SWAP1 POP DUP2 DUP2 SUB PUSH0 DUP4 ADD MSTORE PUSH2 0x4E6 DUP2 DUP5 PUSH2 0x472 JUMP JUMPDEST SWAP1 POP SWAP3 SWAP2 POP POP JUMP JUMPDEST PUSH32 0x4E487B7100000000000000000000000000000000000000000000000000000000 PUSH0 MSTORE PUSH1 0x11 PUSH1 0x4 MSTORE PUSH1 0x24 PUSH0 REVERT JUMPDEST PUSH0 PUSH2 0x525 DUP3 PUSH2 0x35E JUMP JUMPDEST SWAP2 POP PUSH2 0x530 DUP4 PUSH2 0x35E JUMP JUMPDEST SWAP3 POP DUP3 DUP3 MUL PUSH2 0x53E DUP2 PUSH2 0x35E JUMP JUMPDEST SWAP2 POP DUP3 DUP3 DIV DUP5 EQ DUP4 ISZERO OR PUSH2 0x555 JUMPI PUSH2 0x554 PUSH2 0x4EE JUMP JUMPDEST JUMPDEST POP SWAP3 SWAP2 POP POP JUMP JUMPDEST PUSH32 0x4E487B7100000000000000000000000000000000000000000000000000000000 PUSH0 MSTORE PUSH1 0x12 PUSH1 0x4 MSTORE PUSH1 0x24 PUSH0 REVERT JUMPDEST PUSH0 PUSH2 0x593 DUP3 PUSH2 0x35E JUMP JUMPDEST SWAP2 POP PUSH2 0x59E DUP4 PUSH2 0x35E JUMP JUMPDEST SWAP3 POP DUP3 PUSH2 0x5AE JUMPI PUSH2 0x5AD PUSH2 0x55C JUMP JUMPDEST JUMPDEST DUP3 DUP3 MOD SWAP1 POP SWAP3 SWAP2 POP POP JUMP JUMPDEST PUSH0 PUSH2 0x5C3 DUP3 PUSH2 0x35E JUMP JUMPDEST SWAP2 POP PUSH2 0x5CE DUP4 PUSH2 0x35E JUMP JUMPDEST SWAP3 POP DUP3 DUP3 ADD SWAP1 POP DUP1 DUP3 GT ISZERO PUSH2 0x5E6 JUMPI PUSH2 0x5E5 PUSH2 0x4EE JUMP JUMPDEST JUMPDEST SWAP3 SWAP2 POP POP JUMP JUMPDEST PUSH0 PUSH2 0x5F6 DUP3 PUSH2 0x35E JUMP JUMPDEST SWAP2 POP PUSH2 0x601 DUP4 PUSH2 0x35E JUMP JUMPDEST SWAP3 POP DUP3 PUSH2 0x611 JUMPI PUSH2 0x610 PUSH2 0x55C JUMP JUMPDEST JUMPDEST DUP3 DUP3 DIV SWAP1 POP SWAP3 SWAP2 POP POP JUMP JUMPDEST PUSH0 PUSH2 0x626 DUP3 PUSH2 0x35E JUMP JUMPDEST SWAP2 POP PUSH32 0xFFFFFFFFFFFFFFFFFFFFFFFFFFFFFFFFFFFFFFFFFFFFFFFFFFFFFFFFFFFFFFFF DUP3 SUB PUSH2 0x658 JUMPI PUSH2 0x657 PUSH2 0x4EE JUMP JUMPDEST JUMPDEST PUSH1 0x1 DUP3 ADD SWAP1 POP SWAP2 SWAP1 POP JUMP JUMPDEST PUSH32 0x4E487B7100000000000000000000000000000000000000000000000000000000 PUSH0 MSTORE PUSH1 0x41 PUSH1 0x4 MSTORE PUSH1 0x24 PUSH0 REVERT JUMPDEST PUSH32 0x4E487B7100000000000000000000000000000000000000000000000000000000 PUSH0 MSTORE PUSH1 0x32 PUSH1 0x4 MSTORE PUSH1 0x24 PUSH0 REVERT INVALID LOG2 PUSH5 0x6970667358 0x22 SLT KECCAK256 ADD SWAP16 CALLDATASIZE 0x24 JUMPDEST 0xA9 DELEGATECALL CREATE2 SUB RETURN 0xC2 PUSH21 0x1378D151A967F4F4A26FB6D3A6E814C2BD3201364 PUSH20 0x6F6C634300081A00330000000000000000000000 "
		},
		"gasEstimates": {
			"creation": {
				"codeDepositCost": "355800",
				"executionCost": "391",
				"totalCost": "356191"
			},
			"external": {
				"getProperDivisors(uint256)": "infinite",
				"isPerfectNumber(uint256)": "infinite",
				"sumOfProperDivisors(uint256)": "infinite"
			}
		},
		"methodIdentifiers": {
			"getProperDivisors(uint256)": "cdabd4f7",
			"isPerfectNumber(uint256)": "996bce2b",
			"sumOfProperDivisors(uint256)": "9bbe88b1"
		}
	},
	"abi": [
		{
			"inputs": [
				{
					"internalType": "uint256",
					"name": "num",
					"type": "uint256"
				}
			],
			"name": "getProperDivisors",
			"outputs": [
				{
					"internalType": "uint256[]",
					"name": "",
					"type": "uint256[]"
				}
			],
			"stateMutability": "pure",
			"type": "function"
		},
		{
			"inputs": [
				{
					"internalType": "uint256",
					"name": "num",
					"type": "uint256"
				}
			],
			"name": "isPerfectNumber",
			"outputs": [
				{
					"internalType": "bool",
					"name": "",
					"type": "bool"
				}
			],
			"stateMutability": "pure",
			"type": "function"
		},
		{
			"inputs": [
				{
					"internalType": "uint256",
					"name": "num",
					"type": "uint256"
				}
			],
			"name": "sumOfProperDivisors",
			"outputs": [
				{
					"internalType": "uint256",
					"name": "",
					"type": "uint256"
				}
			],
			"stateMutability": "pure",
			"type": "function"
		}
	]
}