{
	"data": {
		"bytecode": {
			"linkReferences": {},
			"object": "6080604052348015600e575f80fd5b5061040d8061001c5f395ff3fe608060405234801561000f575f80fd5b506004361061003f575f3560e01c80632568000d146100435780634afbcfcb14610073578063b08665e6146100a3575b5f80fd5b61005d600480360381019061005891906101e0565b6100d6565b60405161006a9190610225565b60405180910390f35b61008d600480360381019061008891906101e0565b61011b565b60405161009a919061024d565b60405180910390f35b6100bd60048036038101906100b891906101e0565b61016c565b6040516100cd9493929190610266565b60405180910390f35b5f806100e18361011b565b90505f83846100f091906102d6565b90505f82836100ff91906102d6565b90505f61010b8361011b565b9050808214945050505050919050565b5f805f90505b5f83111561016357600a836101369190610344565b600a8261014391906102d6565b61014d9190610374565b9050600a8361015c91906103a7565b9250610121565b80915050919050565b5f805f806101798561011b565b9350848561018791906102d6565b9250838461019591906102d6565b91506101a08361011b565b90509193509193565b5f80fd5b5f819050919050565b6101bf816101ad565b81146101c9575f80fd5b50565b5f813590506101da816101b6565b92915050565b5f602082840312156101f5576101f46101a9565b5b5f610202848285016101cc565b91505092915050565b5f8115159050919050565b61021f8161020b565b82525050565b5f6020820190506102385f830184610216565b92915050565b610247816101ad565b82525050565b5f6020820190506102605f83018461023e565b92915050565b5f6080820190506102795f83018761023e565b610286602083018661023e565b610293604083018561023e565b6102a0606083018461023e565b95945050505050565b7f4e487b71000000000000000000000000000000000000000000000000000000005f52601160045260245ffd5b5f6102e0826101ad565b91506102eb836101ad565b92508282026102f9816101ad565b915082820484148315176103105761030f6102a9565b5b5092915050565b7f4e487b71000000000000000000000000000000000000000000000000000000005f52601260045260245ffd5b5f61034e826101ad565b9150610359836101ad565b92508261036957610368610317565b5b828206905092915050565b5f61037e826101ad565b9150610389836101ad565b92508282019050808211156103a1576103a06102a9565b5b92915050565b5f6103b1826101ad565b91506103bc836101ad565b9250826103cc576103cb610317565b5b82820490509291505056fea2646970667358221220c7081dfd340745a69ff6a571f4438a6d3c0a8c9106954c1ebb90c125b6a1f42364736f6c634300081a0033",
			"opcodes": "PUSH1 0x80 PUSH1 0x40 MSTORE CALLVALUE DUP1 ISZERO PUSH1 0xE JUMPI PUSH0 DUP1 REVERT JUMPDEST POP PUSH2 0x40D DUP1 PUSH2 0x1C PUSH0 CODECOPY PUSH0 RETURN INVALID PUSH1 0x80 PUSH1 0x40 MSTORE CALLVALUE DUP1 ISZERO PUSH2 0xF JUMPI PUSH0 DUP1 REVERT JUMPDEST POP PUSH1 0x4 CALLDATASIZE LT PUSH2 0x3F JUMPI PUSH0 CALLDATALOAD PUSH1 0xE0 SHR DUP1 PUSH4 0x2568000D EQ PUSH2 0x43 JUMPI DUP1 PUSH4 0x4AFBCFCB EQ PUSH2 0x73 JUMPI DUP1 PUSH4 0xB08665E6 EQ PUSH2 0xA3 JUMPI JUMPDEST PUSH0 DUP1 REVERT JUMPDEST PUSH2 0x5D PUSH1 0x4 DUP1 CALLDATASIZE SUB DUP2 ADD SWAP1 PUSH2 0x58 SWAP2 SWAP1 PUSH2 0x1E0 JUMP JUMPDEST PUSH2 0xD6 JUMP JUMPDEST PUSH1 0x40 MLOAD PUSH2 0x6A SWAP2 SWAP1 PUSH2 0x225 JUMP JUMPDEST PUSH1 0x40 MLOAD DUP1 SWAP2 SUB SWAP1 RETURN JUMPDEST PUSH2 0x8D PUSH1 0x4 DUP1 CALLDATASIZE SUB DUP2 ADD SWAP1 PUSH2 0x88 SWAP2 SWAP1 PUSH2 0x1E0 JUMP JUMPDEST PUSH2 0x11B JUMP JUMPDEST PUSH1 0x40 MLOAD PUSH2 0x9A SWAP2 SWAP1 PUSH2 0x24D JUMP JUMPDEST PUSH1 0x40 MLOAD DUP1 SWAP2 SUB SWAP1 RETURN JUMPDEST PUSH2 0xBD PUSH1 0x4 DUP1 CALLDATASIZE SUB DUP2 ADD SWAP1 PUSH2 0xB8 SWAP2 SWAP1 PUSH2 0x1E0 JUMP JUMPDEST PUSH2 0x16C JUMP JUMPDEST PUSH1 0x40 MLOAD PUSH2 0xCD SWAP5 SWAP4 SWAP3 SWAP2 SWAP1 PUSH2 0x266 JUMP JUMPDEST PUSH1 0x40 MLOAD DUP1 SWAP2 SUB SWAP1 RETURN JUMPDEST PUSH0 DUP1 PUSH2 0xE1 DUP4 PUSH2 0x11B JUMP JUMPDEST SWAP1 POP PUSH0 DUP4 DUP5 PUSH2 0xF0 SWAP2 SWAP1 PUSH2 0x2D6 JUMP JUMPDEST SWAP1 POP PUSH0 DUP3 DUP4 PUSH2 0xFF SWAP2 SWAP1 PUSH2 0x2D6 JUMP JUMPDEST SWAP1 POP PUSH0 PUSH2 0x10B DUP4 PUSH2 0x11B JUMP JUMPDEST SWAP1 POP DUP1 DUP3 EQ SWAP5 POP POP POP POP POP SWAP2 SWAP1 POP JUMP JUMPDEST PUSH0 DUP1 PUSH0 SWAP1 POP JUMPDEST PUSH0 DUP4 GT ISZERO PUSH2 0x163 JUMPI PUSH1 0xA DUP4 PUSH2 0x136 SWAP2 SWAP1 PUSH2 0x344 JUMP JUMPDEST PUSH1 0xA DUP3 PUSH2 0x143 SWAP2 SWAP1 PUSH2 0x2D6 JUMP JUMPDEST PUSH2 0x14D SWAP2 SWAP1 PUSH2 0x374 JUMP JUMPDEST SWAP1 POP PUSH1 0xA DUP4 PUSH2 0x15C SWAP2 SWAP1 PUSH2 0x3A7 JUMP JUMPDEST SWAP3 POP PUSH2 0x121 JUMP JUMPDEST DUP1 SWAP2 POP POP SWAP2 SWAP1 POP JUMP JUMPDEST PUSH0 DUP1 PUSH0 DUP1 PUSH2 0x179 DUP6 PUSH2 0x11B JUMP JUMPDEST SWAP4 POP DUP5 DUP6 PUSH2 0x187 SWAP2 SWAP1 PUSH2 0x2D6 JUMP JUMPDEST SWAP3 POP DUP4 DUP5 PUSH2 0x195 SWAP2 SWAP1 PUSH2 0x2D6 JUMP JUMPDEST SWAP2 POP PUSH2 0x1A0 DUP4 PUSH2 0x11B JUMP JUMPDEST SWAP1 POP SWAP2 SWAP4 POP SWAP2 SWAP4 JUMP JUMPDEST PUSH0 DUP1 REVERT JUMPDEST PUSH0 DUP2 SWAP1 POP SWAP2 SWAP1 POP JUMP JUMPDEST PUSH2 0x1BF DUP2 PUSH2 0x1AD JUMP JUMPDEST DUP2 EQ PUSH2 0x1C9 JUMPI PUSH0 DUP1 REVERT JUMPDEST POP JUMP JUMPDEST PUSH0 DUP2 CALLDATALOAD SWAP1 POP PUSH2 0x1DA DUP2 PUSH2 0x1B6 JUMP JUMPDEST SWAP3 SWAP2 POP POP JUMP JUMPDEST PUSH0 PUSH1 0x20 DUP3 DUP5 SUB SLT ISZERO PUSH2 0x1F5 JUMPI PUSH2 0x1F4 PUSH2 0x1A9 JUMP JUMPDEST JUMPDEST PUSH0 PUSH2 0x202 DUP5 DUP3 DUP6 ADD PUSH2 0x1CC JUMP JUMPDEST SWAP2 POP POP SWAP3 SWAP2 POP POP JUMP JUMPDEST PUSH0 DUP2 ISZERO ISZERO SWAP1 POP SWAP2 SWAP1 POP JUMP JUMPDEST PUSH2 0x21F DUP2 PUSH2 0x20B JUMP JUMPDEST DUP3 MSTORE POP POP JUMP JUMPDEST PUSH0 PUSH1 0x20 DUP3 ADD SWAP1 POP PUSH2 0x238 PUSH0 DUP4 ADD DUP5 PUSH2 0x216 JUMP JUMPDEST SWAP3 SWAP2 POP POP JUMP JUMPDEST PUSH2 0x247 DUP2 PUSH2 0x1AD JUMP JUMPDEST DUP3 MSTORE POP POP JUMP JUMPDEST PUSH0 PUSH1 0x20 DUP3 ADD SWAP1 POP PUSH2 0x260 PUSH0 DUP4 ADD DUP5 PUSH2 0x23E JUMP JUMPDEST SWAP3 SWAP2 POP POP JUMP JUMPDEST PUSH0 PUSH1 0x80 DUP3 ADD SWAP1 POP PUSH2 0x279 PUSH0 DUP4 ADD DUP8 PUSH2 0x23E JUMP JUMPDEST PUSH2 0x286 PUSH1 0x20 DUP4 ADD DUP7 PUSH2 0x23E JUMP JUMPDEST PUSH2 0x293 PUSH1 0x40 DUP4 ADD DUP6 PUSH2 0x23E JUMP JUMPDEST PUSH2 0x2A0 PUSH1 0x60 DUP4 ADD DUP5 PUSH2 0x23E JUMP JUMPDEST SWAP6 SWAP5 POP POP POP POP POP JUMP JUMPDEST PUSH32 0x4E487B7100000000000000000000000000000000000000000000000000000000 PUSH0 MSTORE PUSH1 0x11 PUSH1 0x4 MSTORE PUSH1 0x24 PUSH0 REVERT JUMPDEST PUSH0 PUSH2 0x2E0 DUP3 PUSH2 0x1AD JUMP JUMPDEST SWAP2 POP PUSH2 0x2EB DUP4 PUSH2 0x1AD JUMP JUMPDEST SWAP3 POP DUP3 DUP3 MUL PUSH2 0x2F9 DUP2 PUSH2 0x1AD JUMP JUMPDEST SWAP2 POP DUP3 DUP3 DIV DUP5 EQ DUP4 ISZERO OR PUSH2 0x310 JUMPI PUSH2 0x30F PUSH2 0x2A9 JUMP JUMPDEST JUMPDEST POP SWAP3 SWAP2 POP POP JUMP JUMPDEST PUSH32 0x4E487B7100000000000000000000000000000000000000000000000000000000 PUSH0 MSTORE PUSH1 0x12 PUSH1 0x4 MSTORE PUSH1 0x24 PUSH0 REVERT JUMPDEST PUSH0 PUSH2 0x34E DUP3 PUSH2 0x1AD JUMP JUMPDEST SWAP2 POP PUSH2 0x359 DUP4 PUSH2 0x1AD JUMP JUMPDEST SWAP3 POP DUP3 PUSH2 0x369 JUMPI PUSH2 0x368 PUSH2 0x317 JUMP JUMPDEST JUMPDEST DUP3 DUP3 MOD SWAP1 POP SWAP3 SWAP2 POP POP JUMP JUMPDEST PUSH0 PUSH2 0x37E DUP3 PUSH2 0x1AD JUMP JUMPDEST SWAP2 POP PUSH2 0x389 DUP4 PUSH2 0x1AD JUMP JUMPDEST SWAP3 POP DUP3 DUP3 ADD SWAP1 POP DUP1 DUP3 GT ISZERO PUSH2 0x3A1 JUMPI PUSH2 0x3A0 PUSH2 0x2A9 JUMP JUMPDEST JUMPDEST SWAP3 SWAP2 POP POP JUMP JUMPDEST PUSH0 PUSH2 0x3B1 DUP3 PUSH2 0x1AD JUMP JUMPDEST SWAP2 POP PUSH2 0x3BC DUP4 PUSH2 0x1AD JUMP JUMPDEST SWAP3 POP DUP3 PUSH2 0x3CC JUMPI PUSH2 0x3CB PUSH2 0x317 JUMP JUMPDEST JUMPDEST DUP3 DUP3 DIV SWAP1 POP SWAP3 SWAP2 POP POP JUMP INVALID LOG2 PUSH5 0x6970667358 0x22 SLT KECCAK256 0xC7 ADDMOD SAR REVERT CALLVALUE SMOD GASLIMIT 0xA6 SWAP16 0xF6 0xA5 PUSH18 0xF4438A6D3C0A8C9106954C1EBB90C125B6A1 DELEGATECALL 0x23 PUSH5 0x736F6C6343 STOP ADDMOD BYTE STOP CALLER "
		},
		"gasEstimates": {
			"creation": {
				"codeDepositCost": "207400",
				"executionCost": "249",
				"totalCost": "207649"
			},
			"external": {
				"checkReverseSquareProperty(uint256)": "infinite",
				"getCalculations(uint256)": "infinite",
				"reverseNumber(uint256)": "infinite"
			}
		},
		"methodIdentifiers": {
			"checkReverseSquareProperty(uint256)": "2568000d",
			"getCalculations(uint256)": "b08665e6",
			"reverseNumber(uint256)": "4afbcfcb"
		}
	},
	"abi": [
		{
			"inputs": [
				{
					"internalType": "uint256",
					"name": "num",
					"type": "uint256"
				}
			],
			"name": "checkReverseSquareProperty",
			"outputs": [
				{
					"internalType": "bool",
					"name": "",
					"type": "bool"
				}
			],
			"stateMutability": "pure",
			"type": "function"
		},
		{
			"inputs": [
				{
					"internalType": "uint256",
					"name": "num",
					"type": "uint256"
				}
			],
			"name": "getCalculations",
			"outputs": [
				{
					"internalType": "uint256",
					"name": "reverseOfNum",
					"type": "uint256"
				},
				{
					"internalType": "uint256",
					"name": "squareOfNum",
					"type": "uint256"
				},
				{
					"internalType": "uint256",
					"name": "squareOfReverseNum",
					"type": "uint256"
				},
				{
					"internalType": "uint256",
					"name": "reverseOfSquare",
					"type": "uint256"
				}
			],
			"stateMutability": "pure",
			"type": "function"
		},
		{
			"inputs": [
				{
					"internalType": "uint256",
					"name": "num",
					"type": "uint256"
				}
			],
			"name": "reverseNumber",
			"outputs": [
				{
					"internalType": "uint256",
					"name": "",
					"type": "uint256"
				}
			],
			"stateMutability": "pure",
			"type": "function"
		}
	]
}