{
	"week3/hw3.sol": {
		"SeriesSumCalculator": {
			"abi": [
				{
					"inputs": [
						{
							"internalType": "uint256",
							"name": "n",
							"type": "uint256"
						}
					],
					"name": "calculateFirstNOddNumbersSum",
					"outputs": [
						{
							"internalType": "uint256",
							"name": "",
							"type": "uint256"
						}
					],
					"stateMutability": "pure",
					"type": "function"
				},
				{
					"inputs": [
						{
							"internalType": "uint256",
							"name": "n",
							"type": "uint256"
						}
					],
					"name": "calculateNaturalNumbersSum",
					"outputs": [
						{
							"internalType": "uint256",
							"name": "",
							"type": "uint256"
						}
					],
					"stateMutability": "pure",
					"type": "function"
				},
				{
					"inputs": [
						{
							"internalType": "uint256",
							"name": "n",
							"type": "uint256"
						}
					],
					"name": "calculateOddNumbersSum",
					"outputs": [
						{
							"internalType": "uint256",
							"name": "",
							"type": "uint256"
						}
					],
					"stateMutability": "pure",
					"type": "function"
				},
				{
					"inputs": [
						{
							"internalType": "uint256",
							"name": "n",
							"type": "uint256"
						},
						{
							"internalType": "bool",
							"name": "oddOnly",
							"type": "bool"
						}
					],
					"name": "calculateSumByIteration",
					"outputs": [
						{
							"internalType": "uint256",
							"name": "",
							"type": "uint256"
						}
					],
					"stateMutability": "pure",
					"type": "function"
				}
			],
			"devdoc": {
				"kind": "dev",
				"methods": {},
				"version": 1
			},
			"evm": {
				"assembly": "    /* \"week3/hw3.sol\":60:1651  contract SeriesSumCalculator {... */\n  mstore(0x40, 0x80)\n  callvalue\n  dup1\n  iszero\n  tag_1\n  jumpi\n  0x00\n  dup1\n  revert\ntag_1:\n  pop\n  dataSize(sub_0)\n  dup1\n  dataOffset(sub_0)\n  0x00\n  codecopy\n  0x00\n  return\nstop\n\nsub_0: assembly {\n        /* \"week3/hw3.sol\":60:1651  contract SeriesSumCalculator {... */\n      mstore(0x40, 0x80)\n      callvalue\n      dup1\n      iszero\n      tag_1\n      jumpi\n      0x00\n      dup1\n      revert\n    tag_1:\n      pop\n      jumpi(tag_2, lt(calldatasize, 0x04))\n      shr(0xe0, calldataload(0x00))\n      dup1\n      0x37b39481\n      eq\n      tag_3\n      jumpi\n      dup1\n      0x5a5fb987\n      eq\n      tag_4\n      jumpi\n      dup1\n      0xa5c5a0ce\n      eq\n      tag_5\n      jumpi\n      dup1\n      0xfbf73382\n      eq\n      tag_6\n      jumpi\n    tag_2:\n      0x00\n      dup1\n      revert\n        /* \"week3/hw3.sol\":486:809  function calculateOddNumbersSum(uint256 n) public pure returns (uint256) {... */\n    tag_3:\n      tag_7\n      0x04\n      dup1\n      calldatasize\n      sub\n      dup2\n      add\n      swap1\n      tag_8\n      swap2\n      swap1\n      tag_9\n      jump\t// in\n    tag_8:\n      tag_10\n      jump\t// in\n    tag_7:\n      mload(0x40)\n      tag_11\n      swap2\n      swap1\n      tag_12\n      jump\t// in\n    tag_11:\n      mload(0x40)\n      dup1\n      swap2\n      sub\n      swap1\n      return\n        /* \"week3/hw3.sol\":193:364  function calculateNaturalNumbersSum(uint256 n) public pure returns (uint256) {... */\n    tag_4:\n      tag_13\n      0x04\n      dup1\n      calldatasize\n      sub\n      dup2\n      add\n      swap1\n      tag_14\n      swap2\n      swap1\n      tag_9\n      jump\t// in\n    tag_14:\n      tag_15\n      jump\t// in\n    tag_13:\n      mload(0x40)\n      tag_16\n      swap2\n      swap1\n      tag_12\n      jump\t// in\n    tag_16:\n      mload(0x40)\n      dup1\n      swap2\n      sub\n      swap1\n      return\n        /* \"week3/hw3.sol\":941:1092  function calculateFirstNOddNumbersSum(uint256 n) public pure returns (uint256) {... */\n    tag_5:\n      tag_17\n      0x04\n      dup1\n      calldatasize\n      sub\n      dup2\n      add\n      swap1\n      tag_18\n      swap2\n      swap1\n      tag_9\n      jump\t// in\n    tag_18:\n      tag_19\n      jump\t// in\n    tag_17:\n      mload(0x40)\n      tag_20\n      swap2\n      swap1\n      tag_12\n      jump\t// in\n    tag_20:\n      mload(0x40)\n      dup1\n      swap2\n      sub\n      swap1\n      return\n        /* \"week3/hw3.sol\":1174:1648  function calculateSumByIteration(uint256 n, bool oddOnly) public pure returns (uint256) {... */\n    tag_6:\n      tag_21\n      0x04\n      dup1\n      calldatasize\n      sub\n      dup2\n      add\n      swap1\n      tag_22\n      swap2\n      swap1\n      tag_23\n      jump\t// in\n    tag_22:\n      tag_24\n      jump\t// in\n    tag_21:\n      mload(0x40)\n      tag_25\n      swap2\n      swap1\n      tag_12\n      jump\t// in\n    tag_25:\n      mload(0x40)\n      dup1\n      swap2\n      sub\n      swap1\n      return\n        /* \"week3/hw3.sol\":486:809  function calculateOddNumbersSum(uint256 n) public pure returns (uint256) {... */\n    tag_10:\n        /* \"week3/hw3.sol\":550:557  uint256 */\n      0x00\n        /* \"week3/hw3.sol\":587:588  1 */\n      0x01\n        /* \"week3/hw3.sol\":582:583  2 */\n      0x02\n        /* \"week3/hw3.sol\":578:579  n */\n      dup4\n        /* \"week3/hw3.sol\":578:583  n % 2 */\n      tag_27\n      swap2\n      swap1\n      tag_28\n      jump\t// in\n    tag_27:\n        /* \"week3/hw3.sol\":578:588  n % 2 == 1 */\n      eq\n        /* \"week3/hw3.sol\":570:606  require(n % 2 == 1, \"N must be odd\") */\n      tag_29\n      jumpi\n      mload(0x40)\n      0x08c379a000000000000000000000000000000000000000000000000000000000\n      dup2\n      mstore\n      0x04\n      add\n      tag_30\n      swap1\n      tag_31\n      jump\t// in\n    tag_30:\n      mload(0x40)\n      dup1\n      swap2\n      sub\n      swap1\n      revert\n    tag_29:\n        /* \"week3/hw3.sol\":688:701  uint256 count */\n      0x00\n        /* \"week3/hw3.sol\":714:715  2 */\n      0x02\n        /* \"week3/hw3.sol\":709:710  1 */\n      0x01\n        /* \"week3/hw3.sol\":705:706  n */\n      dup5\n        /* \"week3/hw3.sol\":705:710  n + 1 */\n      tag_32\n      swap2\n      swap1\n      tag_33\n      jump\t// in\n    tag_32:\n        /* \"week3/hw3.sol\":704:715  (n + 1) / 2 */\n      tag_34\n      swap2\n      swap1\n      tag_35\n      jump\t// in\n    tag_34:\n        /* \"week3/hw3.sol\":688:715  uint256 count = (n + 1) / 2 */\n      swap1\n      pop\n        /* \"week3/hw3.sol\":796:801  count */\n      dup1\n        /* \"week3/hw3.sol\":788:793  count */\n      dup2\n        /* \"week3/hw3.sol\":788:801  count * count */\n      tag_36\n      swap2\n      swap1\n      tag_37\n      jump\t// in\n    tag_36:\n        /* \"week3/hw3.sol\":781:801  return count * count */\n      swap2\n      pop\n      pop\n        /* \"week3/hw3.sol\":486:809  function calculateOddNumbersSum(uint256 n) public pure returns (uint256) {... */\n      swap2\n      swap1\n      pop\n      jump\t// out\n        /* \"week3/hw3.sol\":193:364  function calculateNaturalNumbersSum(uint256 n) public pure returns (uint256) {... */\n    tag_15:\n        /* \"week3/hw3.sol\":261:268  uint256 */\n      0x00\n        /* \"week3/hw3.sol\":355:356  2 */\n      0x02\n        /* \"week3/hw3.sol\":350:351  1 */\n      0x01\n        /* \"week3/hw3.sol\":346:347  n */\n      dup4\n        /* \"week3/hw3.sol\":346:351  n + 1 */\n      tag_39\n      swap2\n      swap1\n      tag_33\n      jump\t// in\n    tag_39:\n        /* \"week3/hw3.sol\":341:342  n */\n      dup4\n        /* \"week3/hw3.sol\":341:352  n * (n + 1) */\n      tag_40\n      swap2\n      swap1\n      tag_37\n      jump\t// in\n    tag_40:\n        /* \"week3/hw3.sol\":341:356  n * (n + 1) / 2 */\n      tag_41\n      swap2\n      swap1\n      tag_35\n      jump\t// in\n    tag_41:\n        /* \"week3/hw3.sol\":334:356  return n * (n + 1) / 2 */\n      swap1\n      pop\n        /* \"week3/hw3.sol\":193:364  function calculateNaturalNumbersSum(uint256 n) public pure returns (uint256) {... */\n      swap2\n      swap1\n      pop\n      jump\t// out\n        /* \"week3/hw3.sol\":941:1092  function calculateFirstNOddNumbersSum(uint256 n) public pure returns (uint256) {... */\n    tag_19:\n        /* \"week3/hw3.sol\":1011:1018  uint256 */\n      0x00\n        /* \"week3/hw3.sol\":1083:1084  n */\n      dup2\n        /* \"week3/hw3.sol\":1079:1080  n */\n      dup3\n        /* \"week3/hw3.sol\":1079:1084  n * n */\n      tag_43\n      swap2\n      swap1\n      tag_37\n      jump\t// in\n    tag_43:\n        /* \"week3/hw3.sol\":1072:1084  return n * n */\n      swap1\n      pop\n        /* \"week3/hw3.sol\":941:1092  function calculateFirstNOddNumbersSum(uint256 n) public pure returns (uint256) {... */\n      swap2\n      swap1\n      pop\n      jump\t// out\n        /* \"week3/hw3.sol\":1174:1648  function calculateSumByIteration(uint256 n, bool oddOnly) public pure returns (uint256) {... */\n    tag_24:\n        /* \"week3/hw3.sol\":1253:1260  uint256 */\n      0x00\n        /* \"week3/hw3.sol\":1273:1284  uint256 sum */\n      dup1\n        /* \"week3/hw3.sol\":1287:1288  0 */\n      0x00\n        /* \"week3/hw3.sol\":1273:1288  uint256 sum = 0 */\n      swap1\n      pop\n        /* \"week3/hw3.sol\":1313:1320  oddOnly */\n      dup3\n        /* \"week3/hw3.sol\":1309:1610  if (oddOnly) {... */\n      iszero\n      tag_45\n      jumpi\n        /* \"week3/hw3.sol\":1382:1391  uint256 i */\n      0x00\n        /* \"week3/hw3.sol\":1394:1395  1 */\n      0x01\n        /* \"week3/hw3.sol\":1382:1395  uint256 i = 1 */\n      swap1\n      pop\n        /* \"week3/hw3.sol\":1377:1456  for (uint256 i = 1; i <= n; i += 2) {... */\n    tag_46:\n        /* \"week3/hw3.sol\":1402:1403  n */\n      dup5\n        /* \"week3/hw3.sol\":1397:1398  i */\n      dup2\n        /* \"week3/hw3.sol\":1397:1403  i <= n */\n      gt\n        /* \"week3/hw3.sol\":1377:1456  for (uint256 i = 1; i <= n; i += 2) {... */\n      tag_47\n      jumpi\n        /* \"week3/hw3.sol\":1439:1440  i */\n      dup1\n        /* \"week3/hw3.sol\":1432:1440  sum += i */\n      dup3\n      tag_49\n      swap2\n      swap1\n      tag_33\n      jump\t// in\n    tag_49:\n      swap2\n      pop\n        /* \"week3/hw3.sol\":1410:1411  2 */\n      0x02\n        /* \"week3/hw3.sol\":1405:1411  i += 2 */\n      dup2\n      tag_50\n      swap2\n      swap1\n      tag_33\n      jump\t// in\n    tag_50:\n      swap1\n      pop\n        /* \"week3/hw3.sol\":1377:1456  for (uint256 i = 1; i <= n; i += 2) {... */\n      jump(tag_46)\n    tag_47:\n      pop\n        /* \"week3/hw3.sol\":1309:1610  if (oddOnly) {... */\n      jump(tag_51)\n    tag_45:\n        /* \"week3/hw3.sol\":1528:1537  uint256 i */\n      0x00\n        /* \"week3/hw3.sol\":1540:1541  1 */\n      0x01\n        /* \"week3/hw3.sol\":1528:1541  uint256 i = 1 */\n      swap1\n      pop\n        /* \"week3/hw3.sol\":1523:1599  for (uint256 i = 1; i <= n; i++) {... */\n    tag_52:\n        /* \"week3/hw3.sol\":1548:1549  n */\n      dup5\n        /* \"week3/hw3.sol\":1543:1544  i */\n      dup2\n        /* \"week3/hw3.sol\":1543:1549  i <= n */\n      gt\n        /* \"week3/hw3.sol\":1523:1599  for (uint256 i = 1; i <= n; i++) {... */\n      tag_53\n      jumpi\n        /* \"week3/hw3.sol\":1582:1583  i */\n      dup1\n        /* \"week3/hw3.sol\":1575:1583  sum += i */\n      dup3\n      tag_55\n      swap2\n      swap1\n      tag_33\n      jump\t// in\n    tag_55:\n      swap2\n      pop\n        /* \"week3/hw3.sol\":1551:1554  i++ */\n      dup1\n      dup1\n      tag_56\n      swap1\n      tag_57\n      jump\t// in\n    tag_56:\n      swap2\n      pop\n      pop\n        /* \"week3/hw3.sol\":1523:1599  for (uint256 i = 1; i <= n; i++) {... */\n      jump(tag_52)\n    tag_53:\n      pop\n        /* \"week3/hw3.sol\":1309:1610  if (oddOnly) {... */\n    tag_51:\n        /* \"week3/hw3.sol\":1637:1640  sum */\n      dup1\n        /* \"week3/hw3.sol\":1630:1640  return sum */\n      swap2\n      pop\n      pop\n        /* \"week3/hw3.sol\":1174:1648  function calculateSumByIteration(uint256 n, bool oddOnly) public pure returns (uint256) {... */\n      swap3\n      swap2\n      pop\n      pop\n      jump\t// out\n        /* \"#utility.yul\":88:205   */\n    tag_59:\n        /* \"#utility.yul\":197:198   */\n      0x00\n        /* \"#utility.yul\":194:195   */\n      dup1\n        /* \"#utility.yul\":187:199   */\n      revert\n        /* \"#utility.yul\":334:411   */\n    tag_61:\n        /* \"#utility.yul\":371:378   */\n      0x00\n        /* \"#utility.yul\":400:405   */\n      dup2\n        /* \"#utility.yul\":389:405   */\n      swap1\n      pop\n        /* \"#utility.yul\":334:411   */\n      swap2\n      swap1\n      pop\n      jump\t// out\n        /* \"#utility.yul\":417:539   */\n    tag_62:\n        /* \"#utility.yul\":490:514   */\n      tag_79\n        /* \"#utility.yul\":508:513   */\n      dup2\n        /* \"#utility.yul\":490:514   */\n      tag_61\n      jump\t// in\n    tag_79:\n        /* \"#utility.yul\":483:488   */\n      dup2\n        /* \"#utility.yul\":480:515   */\n      eq\n        /* \"#utility.yul\":470:533   */\n      tag_80\n      jumpi\n        /* \"#utility.yul\":529:530   */\n      0x00\n        /* \"#utility.yul\":526:527   */\n      dup1\n        /* \"#utility.yul\":519:531   */\n      revert\n        /* \"#utility.yul\":470:533   */\n    tag_80:\n        /* \"#utility.yul\":417:539   */\n      pop\n      jump\t// out\n        /* \"#utility.yul\":545:684   */\n    tag_63:\n        /* \"#utility.yul\":591:596   */\n      0x00\n        /* \"#utility.yul\":629:635   */\n      dup2\n        /* \"#utility.yul\":616:636   */\n      calldataload\n        /* \"#utility.yul\":607:636   */\n      swap1\n      pop\n        /* \"#utility.yul\":645:678   */\n      tag_82\n        /* \"#utility.yul\":672:677   */\n      dup2\n        /* \"#utility.yul\":645:678   */\n      tag_62\n      jump\t// in\n    tag_82:\n        /* \"#utility.yul\":545:684   */\n      swap3\n      swap2\n      pop\n      pop\n      jump\t// out\n        /* \"#utility.yul\":690:1019   */\n    tag_9:\n        /* \"#utility.yul\":749:755   */\n      0x00\n        /* \"#utility.yul\":798:800   */\n      0x20\n        /* \"#utility.yul\":786:795   */\n      dup3\n        /* \"#utility.yul\":777:784   */\n      dup5\n        /* \"#utility.yul\":773:796   */\n      sub\n        /* \"#utility.yul\":769:801   */\n      slt\n        /* \"#utility.yul\":766:885   */\n      iszero\n      tag_84\n      jumpi\n        /* \"#utility.yul\":804:883   */\n      tag_85\n      tag_59\n      jump\t// in\n    tag_85:\n        /* \"#utility.yul\":766:885   */\n    tag_84:\n        /* \"#utility.yul\":924:925   */\n      0x00\n        /* \"#utility.yul\":949:1002   */\n      tag_86\n        /* \"#utility.yul\":994:1001   */\n      dup5\n        /* \"#utility.yul\":985:991   */\n      dup3\n        /* \"#utility.yul\":974:983   */\n      dup6\n        /* \"#utility.yul\":970:992   */\n      add\n        /* \"#utility.yul\":949:1002   */\n      tag_63\n      jump\t// in\n    tag_86:\n        /* \"#utility.yul\":939:1002   */\n      swap2\n      pop\n        /* \"#utility.yul\":895:1012   */\n      pop\n        /* \"#utility.yul\":690:1019   */\n      swap3\n      swap2\n      pop\n      pop\n      jump\t// out\n        /* \"#utility.yul\":1025:1143   */\n    tag_64:\n        /* \"#utility.yul\":1112:1136   */\n      tag_88\n        /* \"#utility.yul\":1130:1135   */\n      dup2\n        /* \"#utility.yul\":1112:1136   */\n      tag_61\n      jump\t// in\n    tag_88:\n        /* \"#utility.yul\":1107:1110   */\n      dup3\n        /* \"#utility.yul\":1100:1137   */\n      mstore\n        /* \"#utility.yul\":1025:1143   */\n      pop\n      pop\n      jump\t// out\n        /* \"#utility.yul\":1149:1371   */\n    tag_12:\n        /* \"#utility.yul\":1242:1246   */\n      0x00\n        /* \"#utility.yul\":1280:1282   */\n      0x20\n        /* \"#utility.yul\":1269:1278   */\n      dup3\n        /* \"#utility.yul\":1265:1283   */\n      add\n        /* \"#utility.yul\":1257:1283   */\n      swap1\n      pop\n        /* \"#utility.yul\":1293:1364   */\n      tag_90\n        /* \"#utility.yul\":1361:1362   */\n      0x00\n        /* \"#utility.yul\":1350:1359   */\n      dup4\n        /* \"#utility.yul\":1346:1363   */\n      add\n        /* \"#utility.yul\":1337:1343   */\n      dup5\n        /* \"#utility.yul\":1293:1364   */\n      tag_64\n      jump\t// in\n    tag_90:\n        /* \"#utility.yul\":1149:1371   */\n      swap3\n      swap2\n      pop\n      pop\n      jump\t// out\n        /* \"#utility.yul\":1377:1467   */\n    tag_65:\n        /* \"#utility.yul\":1411:1418   */\n      0x00\n        /* \"#utility.yul\":1454:1459   */\n      dup2\n        /* \"#utility.yul\":1447:1460   */\n      iszero\n        /* \"#utility.yul\":1440:1461   */\n      iszero\n        /* \"#utility.yul\":1429:1461   */\n      swap1\n      pop\n        /* \"#utility.yul\":1377:1467   */\n      swap2\n      swap1\n      pop\n      jump\t// out\n        /* \"#utility.yul\":1473:1589   */\n    tag_66:\n        /* \"#utility.yul\":1543:1564   */\n      tag_93\n        /* \"#utility.yul\":1558:1563   */\n      dup2\n        /* \"#utility.yul\":1543:1564   */\n      tag_65\n      jump\t// in\n    tag_93:\n        /* \"#utility.yul\":1536:1541   */\n      dup2\n        /* \"#utility.yul\":1533:1565   */\n      eq\n        /* \"#utility.yul\":1523:1583   */\n      tag_94\n      jumpi\n        /* \"#utility.yul\":1579:1580   */\n      0x00\n        /* \"#utility.yul\":1576:1577   */\n      dup1\n        /* \"#utility.yul\":1569:1581   */\n      revert\n        /* \"#utility.yul\":1523:1583   */\n    tag_94:\n        /* \"#utility.yul\":1473:1589   */\n      pop\n      jump\t// out\n        /* \"#utility.yul\":1595:1728   */\n    tag_67:\n        /* \"#utility.yul\":1638:1643   */\n      0x00\n        /* \"#utility.yul\":1676:1682   */\n      dup2\n        /* \"#utility.yul\":1663:1683   */\n      calldataload\n        /* \"#utility.yul\":1654:1683   */\n      swap1\n      pop\n        /* \"#utility.yul\":1692:1722   */\n      tag_96\n        /* \"#utility.yul\":1716:1721   */\n      dup2\n        /* \"#utility.yul\":1692:1722   */\n      tag_66\n      jump\t// in\n    tag_96:\n        /* \"#utility.yul\":1595:1728   */\n      swap3\n      swap2\n      pop\n      pop\n      jump\t// out\n        /* \"#utility.yul\":1734:2202   */\n    tag_23:\n        /* \"#utility.yul\":1799:1805   */\n      0x00\n        /* \"#utility.yul\":1807:1813   */\n      dup1\n        /* \"#utility.yul\":1856:1858   */\n      0x40\n        /* \"#utility.yul\":1844:1853   */\n      dup4\n        /* \"#utility.yul\":1835:1842   */\n      dup6\n        /* \"#utility.yul\":1831:1854   */\n      sub\n        /* \"#utility.yul\":1827:1859   */\n      slt\n        /* \"#utility.yul\":1824:1943   */\n      iszero\n      tag_98\n      jumpi\n        /* \"#utility.yul\":1862:1941   */\n      tag_99\n      tag_59\n      jump\t// in\n    tag_99:\n        /* \"#utility.yul\":1824:1943   */\n    tag_98:\n        /* \"#utility.yul\":1982:1983   */\n      0x00\n        /* \"#utility.yul\":2007:2060   */\n      tag_100\n        /* \"#utility.yul\":2052:2059   */\n      dup6\n        /* \"#utility.yul\":2043:2049   */\n      dup3\n        /* \"#utility.yul\":2032:2041   */\n      dup7\n        /* \"#utility.yul\":2028:2050   */\n      add\n        /* \"#utility.yul\":2007:2060   */\n      tag_63\n      jump\t// in\n    tag_100:\n        /* \"#utility.yul\":1997:2060   */\n      swap3\n      pop\n        /* \"#utility.yul\":1953:2070   */\n      pop\n        /* \"#utility.yul\":2109:2111   */\n      0x20\n        /* \"#utility.yul\":2135:2185   */\n      tag_101\n        /* \"#utility.yul\":2177:2184   */\n      dup6\n        /* \"#utility.yul\":2168:2174   */\n      dup3\n        /* \"#utility.yul\":2157:2166   */\n      dup7\n        /* \"#utility.yul\":2153:2175   */\n      add\n        /* \"#utility.yul\":2135:2185   */\n      tag_67\n      jump\t// in\n    tag_101:\n        /* \"#utility.yul\":2125:2185   */\n      swap2\n      pop\n        /* \"#utility.yul\":2080:2195   */\n      pop\n        /* \"#utility.yul\":1734:2202   */\n      swap3\n      pop\n      swap3\n      swap1\n      pop\n      jump\t// out\n        /* \"#utility.yul\":2208:2388   */\n    tag_68:\n        /* \"#utility.yul\":2256:2333   */\n      0x4e487b7100000000000000000000000000000000000000000000000000000000\n        /* \"#utility.yul\":2253:2254   */\n      0x00\n        /* \"#utility.yul\":2246:2334   */\n      mstore\n        /* \"#utility.yul\":2353:2357   */\n      0x12\n        /* \"#utility.yul\":2350:2351   */\n      0x04\n        /* \"#utility.yul\":2343:2358   */\n      mstore\n        /* \"#utility.yul\":2377:2381   */\n      0x24\n        /* \"#utility.yul\":2374:2375   */\n      0x00\n        /* \"#utility.yul\":2367:2382   */\n      revert\n        /* \"#utility.yul\":2394:2570   */\n    tag_28:\n        /* \"#utility.yul\":2426:2427   */\n      0x00\n        /* \"#utility.yul\":2443:2463   */\n      tag_104\n        /* \"#utility.yul\":2461:2462   */\n      dup3\n        /* \"#utility.yul\":2443:2463   */\n      tag_61\n      jump\t// in\n    tag_104:\n        /* \"#utility.yul\":2438:2463   */\n      swap2\n      pop\n        /* \"#utility.yul\":2477:2497   */\n      tag_105\n        /* \"#utility.yul\":2495:2496   */\n      dup4\n        /* \"#utility.yul\":2477:2497   */\n      tag_61\n      jump\t// in\n    tag_105:\n        /* \"#utility.yul\":2472:2497   */\n      swap3\n      pop\n        /* \"#utility.yul\":2516:2517   */\n      dup3\n        /* \"#utility.yul\":2506:2541   */\n      tag_106\n      jumpi\n        /* \"#utility.yul\":2521:2539   */\n      tag_107\n      tag_68\n      jump\t// in\n    tag_107:\n        /* \"#utility.yul\":2506:2541   */\n    tag_106:\n        /* \"#utility.yul\":2562:2563   */\n      dup3\n        /* \"#utility.yul\":2559:2560   */\n      dup3\n        /* \"#utility.yul\":2555:2564   */\n      mod\n        /* \"#utility.yul\":2550:2564   */\n      swap1\n      pop\n        /* \"#utility.yul\":2394:2570   */\n      swap3\n      swap2\n      pop\n      pop\n      jump\t// out\n        /* \"#utility.yul\":2576:2745   */\n    tag_69:\n        /* \"#utility.yul\":2660:2671   */\n      0x00\n        /* \"#utility.yul\":2694:2700   */\n      dup3\n        /* \"#utility.yul\":2689:2692   */\n      dup3\n        /* \"#utility.yul\":2682:2701   */\n      mstore\n        /* \"#utility.yul\":2734:2738   */\n      0x20\n        /* \"#utility.yul\":2729:2732   */\n      dup3\n        /* \"#utility.yul\":2725:2739   */\n      add\n        /* \"#utility.yul\":2710:2739   */\n      swap1\n      pop\n        /* \"#utility.yul\":2576:2745   */\n      swap3\n      swap2\n      pop\n      pop\n      jump\t// out\n        /* \"#utility.yul\":2751:2914   */\n    tag_70:\n        /* \"#utility.yul\":2891:2906   */\n      0x4e206d757374206265206f646400000000000000000000000000000000000000\n        /* \"#utility.yul\":2887:2888   */\n      0x00\n        /* \"#utility.yul\":2879:2885   */\n      dup3\n        /* \"#utility.yul\":2875:2889   */\n      add\n        /* \"#utility.yul\":2868:2907   */\n      mstore\n        /* \"#utility.yul\":2751:2914   */\n      pop\n      jump\t// out\n        /* \"#utility.yul\":2920:3286   */\n    tag_71:\n        /* \"#utility.yul\":3062:3065   */\n      0x00\n        /* \"#utility.yul\":3083:3150   */\n      tag_111\n        /* \"#utility.yul\":3147:3149   */\n      0x0d\n        /* \"#utility.yul\":3142:3145   */\n      dup4\n        /* \"#utility.yul\":3083:3150   */\n      tag_69\n      jump\t// in\n    tag_111:\n        /* \"#utility.yul\":3076:3150   */\n      swap2\n      pop\n        /* \"#utility.yul\":3159:3252   */\n      tag_112\n        /* \"#utility.yul\":3248:3251   */\n      dup3\n        /* \"#utility.yul\":3159:3252   */\n      tag_70\n      jump\t// in\n    tag_112:\n        /* \"#utility.yul\":3277:3279   */\n      0x20\n        /* \"#utility.yul\":3272:3275   */\n      dup3\n        /* \"#utility.yul\":3268:3280   */\n      add\n        /* \"#utility.yul\":3261:3280   */\n      swap1\n      pop\n        /* \"#utility.yul\":2920:3286   */\n      swap2\n      swap1\n      pop\n      jump\t// out\n        /* \"#utility.yul\":3292:3711   */\n    tag_31:\n        /* \"#utility.yul\":3458:3462   */\n      0x00\n        /* \"#utility.yul\":3496:3498   */\n      0x20\n        /* \"#utility.yul\":3485:3494   */\n      dup3\n        /* \"#utility.yul\":3481:3499   */\n      add\n        /* \"#utility.yul\":3473:3499   */\n      swap1\n      pop\n        /* \"#utility.yul\":3545:3554   */\n      dup2\n        /* \"#utility.yul\":3539:3543   */\n      dup2\n        /* \"#utility.yul\":3535:3555   */\n      sub\n        /* \"#utility.yul\":3531:3532   */\n      0x00\n        /* \"#utility.yul\":3520:3529   */\n      dup4\n        /* \"#utility.yul\":3516:3533   */\n      add\n        /* \"#utility.yul\":3509:3556   */\n      mstore\n        /* \"#utility.yul\":3573:3704   */\n      tag_114\n        /* \"#utility.yul\":3699:3703   */\n      dup2\n        /* \"#utility.yul\":3573:3704   */\n      tag_71\n      jump\t// in\n    tag_114:\n        /* \"#utility.yul\":3565:3704   */\n      swap1\n      pop\n        /* \"#utility.yul\":3292:3711   */\n      swap2\n      swap1\n      pop\n      jump\t// out\n        /* \"#utility.yul\":3717:3897   */\n    tag_72:\n        /* \"#utility.yul\":3765:3842   */\n      0x4e487b7100000000000000000000000000000000000000000000000000000000\n        /* \"#utility.yul\":3762:3763   */\n      0x00\n        /* \"#utility.yul\":3755:3843   */\n      mstore\n        /* \"#utility.yul\":3862:3866   */\n      0x11\n        /* \"#utility.yul\":3859:3860   */\n      0x04\n        /* \"#utility.yul\":3852:3867   */\n      mstore\n        /* \"#utility.yul\":3886:3890   */\n      0x24\n        /* \"#utility.yul\":3883:3884   */\n      0x00\n        /* \"#utility.yul\":3876:3891   */\n      revert\n        /* \"#utility.yul\":3903:4094   */\n    tag_33:\n        /* \"#utility.yul\":3943:3946   */\n      0x00\n        /* \"#utility.yul\":3962:3982   */\n      tag_117\n        /* \"#utility.yul\":3980:3981   */\n      dup3\n        /* \"#utility.yul\":3962:3982   */\n      tag_61\n      jump\t// in\n    tag_117:\n        /* \"#utility.yul\":3957:3982   */\n      swap2\n      pop\n        /* \"#utility.yul\":3996:4016   */\n      tag_118\n        /* \"#utility.yul\":4014:4015   */\n      dup4\n        /* \"#utility.yul\":3996:4016   */\n      tag_61\n      jump\t// in\n    tag_118:\n        /* \"#utility.yul\":3991:4016   */\n      swap3\n      pop\n        /* \"#utility.yul\":4039:4040   */\n      dup3\n        /* \"#utility.yul\":4036:4037   */\n      dup3\n        /* \"#utility.yul\":4032:4041   */\n      add\n        /* \"#utility.yul\":4025:4041   */\n      swap1\n      pop\n        /* \"#utility.yul\":4060:4063   */\n      dup1\n        /* \"#utility.yul\":4057:4058   */\n      dup3\n        /* \"#utility.yul\":4054:4064   */\n      gt\n        /* \"#utility.yul\":4051:4087   */\n      iszero\n      tag_119\n      jumpi\n        /* \"#utility.yul\":4067:4085   */\n      tag_120\n      tag_72\n      jump\t// in\n    tag_120:\n        /* \"#utility.yul\":4051:4087   */\n    tag_119:\n        /* \"#utility.yul\":3903:4094   */\n      swap3\n      swap2\n      pop\n      pop\n      jump\t// out\n        /* \"#utility.yul\":4100:4285   */\n    tag_35:\n        /* \"#utility.yul\":4140:4141   */\n      0x00\n        /* \"#utility.yul\":4157:4177   */\n      tag_122\n        /* \"#utility.yul\":4175:4176   */\n      dup3\n        /* \"#utility.yul\":4157:4177   */\n      tag_61\n      jump\t// in\n    tag_122:\n        /* \"#utility.yul\":4152:4177   */\n      swap2\n      pop\n        /* \"#utility.yul\":4191:4211   */\n      tag_123\n        /* \"#utility.yul\":4209:4210   */\n      dup4\n        /* \"#utility.yul\":4191:4211   */\n      tag_61\n      jump\t// in\n    tag_123:\n        /* \"#utility.yul\":4186:4211   */\n      swap3\n      pop\n        /* \"#utility.yul\":4230:4231   */\n      dup3\n        /* \"#utility.yul\":4220:4255   */\n      tag_124\n      jumpi\n        /* \"#utility.yul\":4235:4253   */\n      tag_125\n      tag_68\n      jump\t// in\n    tag_125:\n        /* \"#utility.yul\":4220:4255   */\n    tag_124:\n        /* \"#utility.yul\":4277:4278   */\n      dup3\n        /* \"#utility.yul\":4274:4275   */\n      dup3\n        /* \"#utility.yul\":4270:4279   */\n      div\n        /* \"#utility.yul\":4265:4279   */\n      swap1\n      pop\n        /* \"#utility.yul\":4100:4285   */\n      swap3\n      swap2\n      pop\n      pop\n      jump\t// out\n        /* \"#utility.yul\":4291:4701   */\n    tag_37:\n        /* \"#utility.yul\":4331:4338   */\n      0x00\n        /* \"#utility.yul\":4354:4374   */\n      tag_127\n        /* \"#utility.yul\":4372:4373   */\n      dup3\n        /* \"#utility.yul\":4354:4374   */\n      tag_61\n      jump\t// in\n    tag_127:\n        /* \"#utility.yul\":4349:4374   */\n      swap2\n      pop\n        /* \"#utility.yul\":4388:4408   */\n      tag_128\n        /* \"#utility.yul\":4406:4407   */\n      dup4\n        /* \"#utility.yul\":4388:4408   */\n      tag_61\n      jump\t// in\n    tag_128:\n        /* \"#utility.yul\":4383:4408   */\n      swap3\n      pop\n        /* \"#utility.yul\":4443:4444   */\n      dup3\n        /* \"#utility.yul\":4440:4441   */\n      dup3\n        /* \"#utility.yul\":4436:4445   */\n      mul\n        /* \"#utility.yul\":4465:4495   */\n      tag_129\n        /* \"#utility.yul\":4483:4494   */\n      dup2\n        /* \"#utility.yul\":4465:4495   */\n      tag_61\n      jump\t// in\n    tag_129:\n        /* \"#utility.yul\":4454:4495   */\n      swap2\n      pop\n        /* \"#utility.yul\":4644:4645   */\n      dup3\n        /* \"#utility.yul\":4635:4642   */\n      dup3\n        /* \"#utility.yul\":4631:4646   */\n      div\n        /* \"#utility.yul\":4628:4629   */\n      dup5\n        /* \"#utility.yul\":4625:4647   */\n      eq\n        /* \"#utility.yul\":4605:4606   */\n      dup4\n        /* \"#utility.yul\":4598:4607   */\n      iszero\n        /* \"#utility.yul\":4578:4661   */\n      or\n        /* \"#utility.yul\":4555:4694   */\n      tag_130\n      jumpi\n        /* \"#utility.yul\":4674:4692   */\n      tag_131\n      tag_72\n      jump\t// in\n    tag_131:\n        /* \"#utility.yul\":4555:4694   */\n    tag_130:\n        /* \"#utility.yul\":4339:4701   */\n      pop\n        /* \"#utility.yul\":4291:4701   */\n      swap3\n      swap2\n      pop\n      pop\n      jump\t// out\n        /* \"#utility.yul\":4707:4940   */\n    tag_57:\n        /* \"#utility.yul\":4746:4749   */\n      0x00\n        /* \"#utility.yul\":4769:4793   */\n      tag_133\n        /* \"#utility.yul\":4787:4792   */\n      dup3\n        /* \"#utility.yul\":4769:4793   */\n      tag_61\n      jump\t// in\n    tag_133:\n        /* \"#utility.yul\":4760:4793   */\n      swap2\n      pop\n        /* \"#utility.yul\":4815:4881   */\n      0xffffffffffffffffffffffffffffffffffffffffffffffffffffffffffffffff\n        /* \"#utility.yul\":4808:4813   */\n      dup3\n        /* \"#utility.yul\":4805:4882   */\n      sub\n        /* \"#utility.yul\":4802:4905   */\n      tag_134\n      jumpi\n        /* \"#utility.yul\":4885:4903   */\n      tag_135\n      tag_72\n      jump\t// in\n    tag_135:\n        /* \"#utility.yul\":4802:4905   */\n    tag_134:\n        /* \"#utility.yul\":4932:4933   */\n      0x01\n        /* \"#utility.yul\":4925:4930   */\n      dup3\n        /* \"#utility.yul\":4921:4934   */\n      add\n        /* \"#utility.yul\":4914:4934   */\n      swap1\n      pop\n        /* \"#utility.yul\":4707:4940   */\n      swap2\n      swap1\n      pop\n      jump\t// out\n\n    auxdata: 0xa2646970667358221220f505fc082edc6f3fe53e343e6f85e18a38bf9a16534c28f0fbae5e802bb7dbd064736f6c634300081a0033\n}\n",
				"bytecode": {
					"linkReferences": {},
					"object": "6080604052348015600e575f80fd5b506105688061001c5f395ff3fe608060405234801561000f575f80fd5b506004361061004a575f3560e01c806337b394811461004e5780635a5fb9871461007e578063a5c5a0ce146100ae578063fbf73382146100de575b5f80fd5b6100686004803603810190610063919061027f565b61010e565b60405161007591906102b9565b60405180910390f35b6100986004803603810190610093919061027f565b61018e565b6040516100a591906102b9565b60405180910390f35b6100c860048036038101906100c3919061027f565b6101ba565b6040516100d591906102b9565b60405180910390f35b6100f860048036038101906100f39190610307565b6101ce565b60405161010591906102b9565b60405180910390f35b5f600160028361011e9190610372565b1461015e576040517f08c379a0000000000000000000000000000000000000000000000000000000008152600401610155906103fc565b60405180910390fd5b5f600260018461016e9190610447565b610178919061047a565b9050808161018691906104aa565b915050919050565b5f600260018361019e9190610447565b836101a991906104aa565b6101b3919061047a565b9050919050565b5f81826101c791906104aa565b9050919050565b5f805f9050821561020e575f600190505b8481116102085780826101f29190610447565b91506002816102019190610447565b90506101df565b5061023e565b5f600190505b84811161023c5780826102279190610447565b91508080610234906104eb565b915050610214565b505b8091505092915050565b5f80fd5b5f819050919050565b61025e8161024c565b8114610268575f80fd5b50565b5f8135905061027981610255565b92915050565b5f6020828403121561029457610293610248565b5b5f6102a18482850161026b565b91505092915050565b6102b38161024c565b82525050565b5f6020820190506102cc5f8301846102aa565b92915050565b5f8115159050919050565b6102e6816102d2565b81146102f0575f80fd5b50565b5f81359050610301816102dd565b92915050565b5f806040838503121561031d5761031c610248565b5b5f61032a8582860161026b565b925050602061033b858286016102f3565b9150509250929050565b7f4e487b71000000000000000000000000000000000000000000000000000000005f52601260045260245ffd5b5f61037c8261024c565b91506103878361024c565b92508261039757610396610345565b5b828206905092915050565b5f82825260208201905092915050565b7f4e206d757374206265206f6464000000000000000000000000000000000000005f82015250565b5f6103e6600d836103a2565b91506103f1826103b2565b602082019050919050565b5f6020820190508181035f830152610413816103da565b9050919050565b7f4e487b71000000000000000000000000000000000000000000000000000000005f52601160045260245ffd5b5f6104518261024c565b915061045c8361024c565b92508282019050808211156104745761047361041a565b5b92915050565b5f6104848261024c565b915061048f8361024c565b92508261049f5761049e610345565b5b828204905092915050565b5f6104b48261024c565b91506104bf8361024c565b92508282026104cd8161024c565b915082820484148315176104e4576104e361041a565b5b5092915050565b5f6104f58261024c565b91507fffffffffffffffffffffffffffffffffffffffffffffffffffffffffffffffff82036105275761052661041a565b5b60018201905091905056fea2646970667358221220f505fc082edc6f3fe53e343e6f85e18a38bf9a16534c28f0fbae5e802bb7dbd064736f6c634300081a0033",
					"opcodes": "PUSH1 0x80 PUSH1 0x40 MSTORE CALLVALUE DUP1 ISZERO PUSH1 0xE JUMPI PUSH0 DUP1 REVERT JUMPDEST POP PUSH2 0x568 DUP1 PUSH2 0x1C PUSH0 CODECOPY PUSH0 RETURN INVALID PUSH1 0x80 PUSH1 0x40 MSTORE CALLVALUE DUP1 ISZERO PUSH2 0xF JUMPI PUSH0 DUP1 REVERT JUMPDEST POP PUSH1 0x4 CALLDATASIZE LT PUSH2 0x4A JUMPI PUSH0 CALLDATALOAD PUSH1 0xE0 SHR DUP1 PUSH4 0x37B39481 EQ PUSH2 0x4E JUMPI DUP1 PUSH4 0x5A5FB987 EQ PUSH2 0x7E JUMPI DUP1 PUSH4 0xA5C5A0CE EQ PUSH2 0xAE JUMPI DUP1 PUSH4 0xFBF73382 EQ PUSH2 0xDE JUMPI JUMPDEST PUSH0 DUP1 REVERT JUMPDEST PUSH2 0x68 PUSH1 0x4 DUP1 CALLDATASIZE SUB DUP2 ADD SWAP1 PUSH2 0x63 SWAP2 SWAP1 PUSH2 0x27F JUMP JUMPDEST PUSH2 0x10E JUMP JUMPDEST PUSH1 0x40 MLOAD PUSH2 0x75 SWAP2 SWAP1 PUSH2 0x2B9 JUMP JUMPDEST PUSH1 0x40 MLOAD DUP1 SWAP2 SUB SWAP1 RETURN JUMPDEST PUSH2 0x98 PUSH1 0x4 DUP1 CALLDATASIZE SUB DUP2 ADD SWAP1 PUSH2 0x93 SWAP2 SWAP1 PUSH2 0x27F JUMP JUMPDEST PUSH2 0x18E JUMP JUMPDEST PUSH1 0x40 MLOAD PUSH2 0xA5 SWAP2 SWAP1 PUSH2 0x2B9 JUMP JUMPDEST PUSH1 0x40 MLOAD DUP1 SWAP2 SUB SWAP1 RETURN JUMPDEST PUSH2 0xC8 PUSH1 0x4 DUP1 CALLDATASIZE SUB DUP2 ADD SWAP1 PUSH2 0xC3 SWAP2 SWAP1 PUSH2 0x27F JUMP JUMPDEST PUSH2 0x1BA JUMP JUMPDEST PUSH1 0x40 MLOAD PUSH2 0xD5 SWAP2 SWAP1 PUSH2 0x2B9 JUMP JUMPDEST PUSH1 0x40 MLOAD DUP1 SWAP2 SUB SWAP1 RETURN JUMPDEST PUSH2 0xF8 PUSH1 0x4 DUP1 CALLDATASIZE SUB DUP2 ADD SWAP1 PUSH2 0xF3 SWAP2 SWAP1 PUSH2 0x307 JUMP JUMPDEST PUSH2 0x1CE JUMP JUMPDEST PUSH1 0x40 MLOAD PUSH2 0x105 SWAP2 SWAP1 PUSH2 0x2B9 JUMP JUMPDEST PUSH1 0x40 MLOAD DUP1 SWAP2 SUB SWAP1 RETURN JUMPDEST PUSH0 PUSH1 0x1 PUSH1 0x2 DUP4 PUSH2 0x11E SWAP2 SWAP1 PUSH2 0x372 JUMP JUMPDEST EQ PUSH2 0x15E JUMPI PUSH1 0x40 MLOAD PUSH32 0x8C379A000000000000000000000000000000000000000000000000000000000 DUP2 MSTORE PUSH1 0x4 ADD PUSH2 0x155 SWAP1 PUSH2 0x3FC JUMP JUMPDEST PUSH1 0x40 MLOAD DUP1 SWAP2 SUB SWAP1 REVERT JUMPDEST PUSH0 PUSH1 0x2 PUSH1 0x1 DUP5 PUSH2 0x16E SWAP2 SWAP1 PUSH2 0x447 JUMP JUMPDEST PUSH2 0x178 SWAP2 SWAP1 PUSH2 0x47A JUMP JUMPDEST SWAP1 POP DUP1 DUP2 PUSH2 0x186 SWAP2 SWAP1 PUSH2 0x4AA JUMP JUMPDEST SWAP2 POP POP SWAP2 SWAP1 POP JUMP JUMPDEST PUSH0 PUSH1 0x2 PUSH1 0x1 DUP4 PUSH2 0x19E SWAP2 SWAP1 PUSH2 0x447 JUMP JUMPDEST DUP4 PUSH2 0x1A9 SWAP2 SWAP1 PUSH2 0x4AA JUMP JUMPDEST PUSH2 0x1B3 SWAP2 SWAP1 PUSH2 0x47A JUMP JUMPDEST SWAP1 POP SWAP2 SWAP1 POP JUMP JUMPDEST PUSH0 DUP2 DUP3 PUSH2 0x1C7 SWAP2 SWAP1 PUSH2 0x4AA JUMP JUMPDEST SWAP1 POP SWAP2 SWAP1 POP JUMP JUMPDEST PUSH0 DUP1 PUSH0 SWAP1 POP DUP3 ISZERO PUSH2 0x20E JUMPI PUSH0 PUSH1 0x1 SWAP1 POP JUMPDEST DUP5 DUP2 GT PUSH2 0x208 JUMPI DUP1 DUP3 PUSH2 0x1F2 SWAP2 SWAP1 PUSH2 0x447 JUMP JUMPDEST SWAP2 POP PUSH1 0x2 DUP2 PUSH2 0x201 SWAP2 SWAP1 PUSH2 0x447 JUMP JUMPDEST SWAP1 POP PUSH2 0x1DF JUMP JUMPDEST POP PUSH2 0x23E JUMP JUMPDEST PUSH0 PUSH1 0x1 SWAP1 POP JUMPDEST DUP5 DUP2 GT PUSH2 0x23C JUMPI DUP1 DUP3 PUSH2 0x227 SWAP2 SWAP1 PUSH2 0x447 JUMP JUMPDEST SWAP2 POP DUP1 DUP1 PUSH2 0x234 SWAP1 PUSH2 0x4EB JUMP JUMPDEST SWAP2 POP POP PUSH2 0x214 JUMP JUMPDEST POP JUMPDEST DUP1 SWAP2 POP POP SWAP3 SWAP2 POP POP JUMP JUMPDEST PUSH0 DUP1 REVERT JUMPDEST PUSH0 DUP2 SWAP1 POP SWAP2 SWAP1 POP JUMP JUMPDEST PUSH2 0x25E DUP2 PUSH2 0x24C JUMP JUMPDEST DUP2 EQ PUSH2 0x268 JUMPI PUSH0 DUP1 REVERT JUMPDEST POP JUMP JUMPDEST PUSH0 DUP2 CALLDATALOAD SWAP1 POP PUSH2 0x279 DUP2 PUSH2 0x255 JUMP JUMPDEST SWAP3 SWAP2 POP POP JUMP JUMPDEST PUSH0 PUSH1 0x20 DUP3 DUP5 SUB SLT ISZERO PUSH2 0x294 JUMPI PUSH2 0x293 PUSH2 0x248 JUMP JUMPDEST JUMPDEST PUSH0 PUSH2 0x2A1 DUP5 DUP3 DUP6 ADD PUSH2 0x26B JUMP JUMPDEST SWAP2 POP POP SWAP3 SWAP2 POP POP JUMP JUMPDEST PUSH2 0x2B3 DUP2 PUSH2 0x24C JUMP JUMPDEST DUP3 MSTORE POP POP JUMP JUMPDEST PUSH0 PUSH1 0x20 DUP3 ADD SWAP1 POP PUSH2 0x2CC PUSH0 DUP4 ADD DUP5 PUSH2 0x2AA JUMP JUMPDEST SWAP3 SWAP2 POP POP JUMP JUMPDEST PUSH0 DUP2 ISZERO ISZERO SWAP1 POP SWAP2 SWAP1 POP JUMP JUMPDEST PUSH2 0x2E6 DUP2 PUSH2 0x2D2 JUMP JUMPDEST DUP2 EQ PUSH2 0x2F0 JUMPI PUSH0 DUP1 REVERT JUMPDEST POP JUMP JUMPDEST PUSH0 DUP2 CALLDATALOAD SWAP1 POP PUSH2 0x301 DUP2 PUSH2 0x2DD JUMP JUMPDEST SWAP3 SWAP2 POP POP JUMP JUMPDEST PUSH0 DUP1 PUSH1 0x40 DUP4 DUP6 SUB SLT ISZERO PUSH2 0x31D JUMPI PUSH2 0x31C PUSH2 0x248 JUMP JUMPDEST JUMPDEST PUSH0 PUSH2 0x32A DUP6 DUP3 DUP7 ADD PUSH2 0x26B JUMP JUMPDEST SWAP3 POP POP PUSH1 0x20 PUSH2 0x33B DUP6 DUP3 DUP7 ADD PUSH2 0x2F3 JUMP JUMPDEST SWAP2 POP POP SWAP3 POP SWAP3 SWAP1 POP JUMP JUMPDEST PUSH32 0x4E487B7100000000000000000000000000000000000000000000000000000000 PUSH0 MSTORE PUSH1 0x12 PUSH1 0x4 MSTORE PUSH1 0x24 PUSH0 REVERT JUMPDEST PUSH0 PUSH2 0x37C DUP3 PUSH2 0x24C JUMP JUMPDEST SWAP2 POP PUSH2 0x387 DUP4 PUSH2 0x24C JUMP JUMPDEST SWAP3 POP DUP3 PUSH2 0x397 JUMPI PUSH2 0x396 PUSH2 0x345 JUMP JUMPDEST JUMPDEST DUP3 DUP3 MOD SWAP1 POP SWAP3 SWAP2 POP POP JUMP JUMPDEST PUSH0 DUP3 DUP3 MSTORE PUSH1 0x20 DUP3 ADD SWAP1 POP SWAP3 SWAP2 POP POP JUMP JUMPDEST PUSH32 0x4E206D757374206265206F646400000000000000000000000000000000000000 PUSH0 DUP3 ADD MSTORE POP JUMP JUMPDEST PUSH0 PUSH2 0x3E6 PUSH1 0xD DUP4 PUSH2 0x3A2 JUMP JUMPDEST SWAP2 POP PUSH2 0x3F1 DUP3 PUSH2 0x3B2 JUMP JUMPDEST PUSH1 0x20 DUP3 ADD SWAP1 POP SWAP2 SWAP1 POP JUMP JUMPDEST PUSH0 PUSH1 0x20 DUP3 ADD SWAP1 POP DUP2 DUP2 SUB PUSH0 DUP4 ADD MSTORE PUSH2 0x413 DUP2 PUSH2 0x3DA JUMP JUMPDEST SWAP1 POP SWAP2 SWAP1 POP JUMP JUMPDEST PUSH32 0x4E487B7100000000000000000000000000000000000000000000000000000000 PUSH0 MSTORE PUSH1 0x11 PUSH1 0x4 MSTORE PUSH1 0x24 PUSH0 REVERT JUMPDEST PUSH0 PUSH2 0x451 DUP3 PUSH2 0x24C JUMP JUMPDEST SWAP2 POP PUSH2 0x45C DUP4 PUSH2 0x24C JUMP JUMPDEST SWAP3 POP DUP3 DUP3 ADD SWAP1 POP DUP1 DUP3 GT ISZERO PUSH2 0x474 JUMPI PUSH2 0x473 PUSH2 0x41A JUMP JUMPDEST JUMPDEST SWAP3 SWAP2 POP POP JUMP JUMPDEST PUSH0 PUSH2 0x484 DUP3 PUSH2 0x24C JUMP JUMPDEST SWAP2 POP PUSH2 0x48F DUP4 PUSH2 0x24C JUMP JUMPDEST SWAP3 POP DUP3 PUSH2 0x49F JUMPI PUSH2 0x49E PUSH2 0x345 JUMP JUMPDEST JUMPDEST DUP3 DUP3 DIV SWAP1 POP SWAP3 SWAP2 POP POP JUMP JUMPDEST PUSH0 PUSH2 0x4B4 DUP3 PUSH2 0x24C JUMP JUMPDEST SWAP2 POP PUSH2 0x4BF DUP4 PUSH2 0x24C JUMP JUMPDEST SWAP3 POP DUP3 DUP3 MUL PUSH2 0x4CD DUP2 PUSH2 0x24C JUMP JUMPDEST SWAP2 POP DUP3 DUP3 DIV DUP5 EQ DUP4 ISZERO OR PUSH2 0x4E4 JUMPI PUSH2 0x4E3 PUSH2 0x41A JUMP JUMPDEST JUMPDEST POP SWAP3 SWAP2 POP POP JUMP JUMPDEST PUSH0 PUSH2 0x4F5 DUP3 PUSH2 0x24C JUMP JUMPDEST SWAP2 POP PUSH32 0xFFFFFFFFFFFFFFFFFFFFFFFFFFFFFFFFFFFFFFFFFFFFFFFFFFFFFFFFFFFFFFFF DUP3 SUB PUSH2 0x527 JUMPI PUSH2 0x526 PUSH2 0x41A JUMP JUMPDEST JUMPDEST PUSH1 0x1 DUP3 ADD SWAP1 POP SWAP2 SWAP1 POP JUMP INVALID LOG2 PUSH5 0x6970667358 0x22 SLT KECCAK256 CREATE2 SDIV 0xFC ADDMOD 0x2E 0xDC PUSH16 0x3FE53E343E6F85E18A38BF9A16534C28 CREATE 0xFB 0xAE MCOPY DUP1 0x2B 0xB7 0xDB 0xD0 PUSH5 0x736F6C6343 STOP ADDMOD BYTE STOP CALLER "
				},
				"gasEstimates": {
					"creation": {
						"codeDepositCost": "276800",
						"executionCost": "316",
						"totalCost": "277116"
					},
					"external": {
						"calculateFirstNOddNumbersSum(uint256)": "infinite",
						"calculateNaturalNumbersSum(uint256)": "infinite",
						"calculateOddNumbersSum(uint256)": "infinite",
						"calculateSumByIteration(uint256,bool)": "infinite"
					}
				},
				"methodIdentifiers": {
					"calculateFirstNOddNumbersSum(uint256)": "a5c5a0ce",
					"calculateNaturalNumbersSum(uint256)": "5a5fb987",
					"calculateOddNumbersSum(uint256)": "37b39481",
					"calculateSumByIteration(uint256,bool)": "fbf73382"
				}
			},
			"storageLayout": {
				"storage": [],
				"types": null
			},
			"userdoc": {
				"kind": "user",
				"methods": {},
				"version": 1
			}
		}
	}
}