{
	"week3/hw2.sol": {
		"ReverseSquareChecker": {
			"abi": [
				{
					"inputs": [
						{
							"internalType": "uint256",
							"name": "num",
							"type": "uint256"
						}
					],
					"name": "checkReverseSquareProperty",
					"outputs": [
						{
							"internalType": "bool",
							"name": "",
							"type": "bool"
						}
					],
					"stateMutability": "pure",
					"type": "function"
				},
				{
					"inputs": [
						{
							"internalType": "uint256",
							"name": "num",
							"type": "uint256"
						}
					],
					"name": "getCalculations",
					"outputs": [
						{
							"internalType": "uint256",
							"name": "reverseOfNum",
							"type": "uint256"
						},
						{
							"internalType": "uint256",
							"name": "squareOfNum",
							"type": "uint256"
						},
						{
							"internalType": "uint256",
							"name": "squareOfReverseNum",
							"type": "uint256"
						},
						{
							"internalType": "uint256",
							"name": "reverseOfSquare",
							"type": "uint256"
						}
					],
					"stateMutability": "pure",
					"type": "function"
				},
				{
					"inputs": [
						{
							"internalType": "uint256",
							"name": "num",
							"type": "uint256"
						}
					],
					"name": "reverseNumber",
					"outputs": [
						{
							"internalType": "uint256",
							"name": "",
							"type": "uint256"
						}
					],
					"stateMutability": "pure",
					"type": "function"
				}
			],
			"devdoc": {
				"kind": "dev",
				"methods": {},
				"version": 1
			},
			"evm": {
				"assembly": "    /* \"week3/hw2.sol\":60:1440  contract ReverseSquareChecker {... */\n  mstore(0x40, 0x80)\n  callvalue\n  dup1\n  iszero\n  tag_1\n  jumpi\n  0x00\n  dup1\n  revert\ntag_1:\n  pop\n  dataSize(sub_0)\n  dup1\n  dataOffset(sub_0)\n  0x00\n  codecopy\n  0x00\n  return\nstop\n\nsub_0: assembly {\n        /* \"week3/hw2.sol\":60:1440  contract ReverseSquareChecker {... */\n      mstore(0x40, 0x80)\n      callvalue\n      dup1\n      iszero\n      tag_1\n      jumpi\n      0x00\n      dup1\n      revert\n    tag_1:\n      pop\n      jumpi(tag_2, lt(calldatasize, 0x04))\n      shr(0xe0, calldataload(0x00))\n      dup1\n      0x2568000d\n      eq\n      tag_3\n      jumpi\n      dup1\n      0x4afbcfcb\n      eq\n      tag_4\n      jumpi\n      dup1\n      0xb08665e6\n      eq\n      tag_5\n      jumpi\n    tag_2:\n      0x00\n      dup1\n      revert\n        /* \"week3/hw2.sol\":507:880  function checkReverseSquareProperty(uint256 num) public pure returns (bool) {... */\n    tag_3:\n      tag_6\n      0x04\n      dup1\n      calldatasize\n      sub\n      dup2\n      add\n      swap1\n      tag_7\n      swap2\n      swap1\n      tag_8\n      jump\t// in\n    tag_7:\n      tag_9\n      jump\t// in\n    tag_6:\n      mload(0x40)\n      tag_10\n      swap2\n      swap1\n      tag_11\n      jump\t// in\n    tag_10:\n      mload(0x40)\n      dup1\n      swap2\n      sub\n      swap1\n      return\n        /* \"week3/hw2.sol\":134:397  function reverseNumber(uint256 num) public pure returns (uint256) {... */\n    tag_4:\n      tag_12\n      0x04\n      dup1\n      calldatasize\n      sub\n      dup2\n      add\n      swap1\n      tag_13\n      swap2\n      swap1\n      tag_8\n      jump\t// in\n    tag_13:\n      tag_14\n      jump\t// in\n    tag_12:\n      mload(0x40)\n      tag_15\n      swap2\n      swap1\n      tag_16\n      jump\t// in\n    tag_15:\n      mload(0x40)\n      dup1\n      swap2\n      sub\n      swap1\n      return\n        /* \"week3/hw2.sol\":947:1437  function getCalculations(uint256 num) public pure returns (... */\n    tag_5:\n      tag_17\n      0x04\n      dup1\n      calldatasize\n      sub\n      dup2\n      add\n      swap1\n      tag_18\n      swap2\n      swap1\n      tag_8\n      jump\t// in\n    tag_18:\n      tag_19\n      jump\t// in\n    tag_17:\n      mload(0x40)\n      tag_20\n      swap5\n      swap4\n      swap3\n      swap2\n      swap1\n      tag_21\n      jump\t// in\n    tag_20:\n      mload(0x40)\n      dup1\n      swap2\n      sub\n      swap1\n      return\n        /* \"week3/hw2.sol\":507:880  function checkReverseSquareProperty(uint256 num) public pure returns (bool) {... */\n    tag_9:\n        /* \"week3/hw2.sol\":577:581  bool */\n      0x00\n        /* \"week3/hw2.sol\":594:614  uint256 reverseOfNum */\n      dup1\n        /* \"week3/hw2.sol\":617:635  reverseNumber(num) */\n      tag_23\n        /* \"week3/hw2.sol\":631:634  num */\n      dup4\n        /* \"week3/hw2.sol\":617:630  reverseNumber */\n      tag_14\n        /* \"week3/hw2.sol\":617:635  reverseNumber(num) */\n      jump\t// in\n    tag_23:\n        /* \"week3/hw2.sol\":594:635  uint256 reverseOfNum = reverseNumber(num) */\n      swap1\n      pop\n        /* \"week3/hw2.sol\":646:665  uint256 squareOfNum */\n      0x00\n        /* \"week3/hw2.sol\":674:677  num */\n      dup4\n        /* \"week3/hw2.sol\":668:671  num */\n      dup5\n        /* \"week3/hw2.sol\":668:677  num * num */\n      tag_24\n      swap2\n      swap1\n      tag_25\n      jump\t// in\n    tag_24:\n        /* \"week3/hw2.sol\":646:677  uint256 squareOfNum = num * num */\n      swap1\n      pop\n        /* \"week3/hw2.sol\":688:714  uint256 squareOfReverseNum */\n      0x00\n        /* \"week3/hw2.sol\":732:744  reverseOfNum */\n      dup3\n        /* \"week3/hw2.sol\":717:729  reverseOfNum */\n      dup4\n        /* \"week3/hw2.sol\":717:744  reverseOfNum * reverseOfNum */\n      tag_26\n      swap2\n      swap1\n      tag_25\n      jump\t// in\n    tag_26:\n        /* \"week3/hw2.sol\":688:744  uint256 squareOfReverseNum = reverseOfNum * reverseOfNum */\n      swap1\n      pop\n        /* \"week3/hw2.sol\":755:778  uint256 reverseOfSquare */\n      0x00\n        /* \"week3/hw2.sol\":781:807  reverseNumber(squareOfNum) */\n      tag_27\n        /* \"week3/hw2.sol\":795:806  squareOfNum */\n      dup4\n        /* \"week3/hw2.sol\":781:794  reverseNumber */\n      tag_14\n        /* \"week3/hw2.sol\":781:807  reverseNumber(squareOfNum) */\n      jump\t// in\n    tag_27:\n        /* \"week3/hw2.sol\":755:807  uint256 reverseOfSquare = reverseNumber(squareOfNum) */\n      swap1\n      pop\n        /* \"week3/hw2.sol\":857:872  reverseOfSquare */\n      dup1\n        /* \"week3/hw2.sol\":835:853  squareOfReverseNum */\n      dup3\n        /* \"week3/hw2.sol\":835:872  squareOfReverseNum == reverseOfSquare */\n      eq\n        /* \"week3/hw2.sol\":828:872  return squareOfReverseNum == reverseOfSquare */\n      swap5\n      pop\n      pop\n      pop\n      pop\n      pop\n        /* \"week3/hw2.sol\":507:880  function checkReverseSquareProperty(uint256 num) public pure returns (bool) {... */\n      swap2\n      swap1\n      pop\n      jump\t// out\n        /* \"week3/hw2.sol\":134:397  function reverseNumber(uint256 num) public pure returns (uint256) {... */\n    tag_14:\n        /* \"week3/hw2.sol\":191:198  uint256 */\n      0x00\n        /* \"week3/hw2.sol\":211:227  uint256 reversed */\n      dup1\n        /* \"week3/hw2.sol\":230:231  0 */\n      0x00\n        /* \"week3/hw2.sol\":211:231  uint256 reversed = 0 */\n      swap1\n      pop\n        /* \"week3/hw2.sol\":252:354  while (num > 0) {... */\n    tag_29:\n        /* \"week3/hw2.sol\":265:266  0 */\n      0x00\n        /* \"week3/hw2.sol\":259:262  num */\n      dup4\n        /* \"week3/hw2.sol\":259:266  num > 0 */\n      gt\n        /* \"week3/hw2.sol\":252:354  while (num > 0) {... */\n      iszero\n      tag_30\n      jumpi\n        /* \"week3/hw2.sol\":316:318  10 */\n      0x0a\n        /* \"week3/hw2.sol\":310:313  num */\n      dup4\n        /* \"week3/hw2.sol\":310:318  num % 10 */\n      tag_31\n      swap2\n      swap1\n      tag_32\n      jump\t// in\n    tag_31:\n        /* \"week3/hw2.sol\":305:307  10 */\n      0x0a\n        /* \"week3/hw2.sol\":294:302  reversed */\n      dup3\n        /* \"week3/hw2.sol\":294:307  reversed * 10 */\n      tag_33\n      swap2\n      swap1\n      tag_25\n      jump\t// in\n    tag_33:\n        /* \"week3/hw2.sol\":294:318  reversed * 10 + num % 10 */\n      tag_34\n      swap2\n      swap1\n      tag_35\n      jump\t// in\n    tag_34:\n        /* \"week3/hw2.sol\":283:318  reversed = reversed * 10 + num % 10 */\n      swap1\n      pop\n        /* \"week3/hw2.sol\":340:342  10 */\n      0x0a\n        /* \"week3/hw2.sol\":333:342  num /= 10 */\n      dup4\n      tag_36\n      swap2\n      swap1\n      tag_37\n      jump\t// in\n    tag_36:\n      swap3\n      pop\n        /* \"week3/hw2.sol\":252:354  while (num > 0) {... */\n      jump(tag_29)\n    tag_30:\n        /* \"week3/hw2.sol\":381:389  reversed */\n      dup1\n        /* \"week3/hw2.sol\":374:389  return reversed */\n      swap2\n      pop\n      pop\n        /* \"week3/hw2.sol\":134:397  function reverseNumber(uint256 num) public pure returns (uint256) {... */\n      swap2\n      swap1\n      pop\n      jump\t// out\n        /* \"week3/hw2.sol\":947:1437  function getCalculations(uint256 num) public pure returns (... */\n    tag_19:\n        /* \"week3/hw2.sol\":1016:1036  uint256 reverseOfNum */\n      0x00\n        /* \"week3/hw2.sol\":1047:1066  uint256 squareOfNum */\n      dup1\n        /* \"week3/hw2.sol\":1077:1103  uint256 squareOfReverseNum */\n      0x00\n        /* \"week3/hw2.sol\":1114:1137  uint256 reverseOfSquare */\n      dup1\n        /* \"week3/hw2.sol\":1171:1189  reverseNumber(num) */\n      tag_39\n        /* \"week3/hw2.sol\":1185:1188  num */\n      dup6\n        /* \"week3/hw2.sol\":1171:1184  reverseNumber */\n      tag_14\n        /* \"week3/hw2.sol\":1171:1189  reverseNumber(num) */\n      jump\t// in\n    tag_39:\n        /* \"week3/hw2.sol\":1156:1189  reverseOfNum = reverseNumber(num) */\n      swap4\n      pop\n        /* \"week3/hw2.sol\":1220:1223  num */\n      dup5\n        /* \"week3/hw2.sol\":1214:1217  num */\n      dup6\n        /* \"week3/hw2.sol\":1214:1223  num * num */\n      tag_40\n      swap2\n      swap1\n      tag_25\n      jump\t// in\n    tag_40:\n        /* \"week3/hw2.sol\":1200:1223  squareOfNum = num * num */\n      swap3\n      pop\n        /* \"week3/hw2.sol\":1270:1282  reverseOfNum */\n      dup4\n        /* \"week3/hw2.sol\":1255:1267  reverseOfNum */\n      dup5\n        /* \"week3/hw2.sol\":1255:1282  reverseOfNum * reverseOfNum */\n      tag_41\n      swap2\n      swap1\n      tag_25\n      jump\t// in\n    tag_41:\n        /* \"week3/hw2.sol\":1234:1282  squareOfReverseNum = reverseOfNum * reverseOfNum */\n      swap2\n      pop\n        /* \"week3/hw2.sol\":1311:1337  reverseNumber(squareOfNum) */\n      tag_42\n        /* \"week3/hw2.sol\":1325:1336  squareOfNum */\n      dup4\n        /* \"week3/hw2.sol\":1311:1324  reverseNumber */\n      tag_14\n        /* \"week3/hw2.sol\":1311:1337  reverseNumber(squareOfNum) */\n      jump\t// in\n    tag_42:\n        /* \"week3/hw2.sol\":1293:1337  reverseOfSquare = reverseNumber(squareOfNum) */\n      swap1\n      pop\n        /* \"week3/hw2.sol\":947:1437  function getCalculations(uint256 num) public pure returns (... */\n      swap2\n      swap4\n      pop\n      swap2\n      swap4\n      jump\t// out\n        /* \"#utility.yul\":88:205   */\n    tag_44:\n        /* \"#utility.yul\":197:198   */\n      0x00\n        /* \"#utility.yul\":194:195   */\n      dup1\n        /* \"#utility.yul\":187:199   */\n      revert\n        /* \"#utility.yul\":334:411   */\n    tag_46:\n        /* \"#utility.yul\":371:378   */\n      0x00\n        /* \"#utility.yul\":400:405   */\n      dup2\n        /* \"#utility.yul\":389:405   */\n      swap1\n      pop\n        /* \"#utility.yul\":334:411   */\n      swap2\n      swap1\n      pop\n      jump\t// out\n        /* \"#utility.yul\":417:539   */\n    tag_47:\n        /* \"#utility.yul\":490:514   */\n      tag_60\n        /* \"#utility.yul\":508:513   */\n      dup2\n        /* \"#utility.yul\":490:514   */\n      tag_46\n      jump\t// in\n    tag_60:\n        /* \"#utility.yul\":483:488   */\n      dup2\n        /* \"#utility.yul\":480:515   */\n      eq\n        /* \"#utility.yul\":470:533   */\n      tag_61\n      jumpi\n        /* \"#utility.yul\":529:530   */\n      0x00\n        /* \"#utility.yul\":526:527   */\n      dup1\n        /* \"#utility.yul\":519:531   */\n      revert\n        /* \"#utility.yul\":470:533   */\n    tag_61:\n        /* \"#utility.yul\":417:539   */\n      pop\n      jump\t// out\n        /* \"#utility.yul\":545:684   */\n    tag_48:\n        /* \"#utility.yul\":591:596   */\n      0x00\n        /* \"#utility.yul\":629:635   */\n      dup2\n        /* \"#utility.yul\":616:636   */\n      calldataload\n        /* \"#utility.yul\":607:636   */\n      swap1\n      pop\n        /* \"#utility.yul\":645:678   */\n      tag_63\n        /* \"#utility.yul\":672:677   */\n      dup2\n        /* \"#utility.yul\":645:678   */\n      tag_47\n      jump\t// in\n    tag_63:\n        /* \"#utility.yul\":545:684   */\n      swap3\n      swap2\n      pop\n      pop\n      jump\t// out\n        /* \"#utility.yul\":690:1019   */\n    tag_8:\n        /* \"#utility.yul\":749:755   */\n      0x00\n        /* \"#utility.yul\":798:800   */\n      0x20\n        /* \"#utility.yul\":786:795   */\n      dup3\n        /* \"#utility.yul\":777:784   */\n      dup5\n        /* \"#utility.yul\":773:796   */\n      sub\n        /* \"#utility.yul\":769:801   */\n      slt\n        /* \"#utility.yul\":766:885   */\n      iszero\n      tag_65\n      jumpi\n        /* \"#utility.yul\":804:883   */\n      tag_66\n      tag_44\n      jump\t// in\n    tag_66:\n        /* \"#utility.yul\":766:885   */\n    tag_65:\n        /* \"#utility.yul\":924:925   */\n      0x00\n        /* \"#utility.yul\":949:1002   */\n      tag_67\n        /* \"#utility.yul\":994:1001   */\n      dup5\n        /* \"#utility.yul\":985:991   */\n      dup3\n        /* \"#utility.yul\":974:983   */\n      dup6\n        /* \"#utility.yul\":970:992   */\n      add\n        /* \"#utility.yul\":949:1002   */\n      tag_48\n      jump\t// in\n    tag_67:\n        /* \"#utility.yul\":939:1002   */\n      swap2\n      pop\n        /* \"#utility.yul\":895:1012   */\n      pop\n        /* \"#utility.yul\":690:1019   */\n      swap3\n      swap2\n      pop\n      pop\n      jump\t// out\n        /* \"#utility.yul\":1025:1115   */\n    tag_49:\n        /* \"#utility.yul\":1059:1066   */\n      0x00\n        /* \"#utility.yul\":1102:1107   */\n      dup2\n        /* \"#utility.yul\":1095:1108   */\n      iszero\n        /* \"#utility.yul\":1088:1109   */\n      iszero\n        /* \"#utility.yul\":1077:1109   */\n      swap1\n      pop\n        /* \"#utility.yul\":1025:1115   */\n      swap2\n      swap1\n      pop\n      jump\t// out\n        /* \"#utility.yul\":1121:1230   */\n    tag_50:\n        /* \"#utility.yul\":1202:1223   */\n      tag_70\n        /* \"#utility.yul\":1217:1222   */\n      dup2\n        /* \"#utility.yul\":1202:1223   */\n      tag_49\n      jump\t// in\n    tag_70:\n        /* \"#utility.yul\":1197:1200   */\n      dup3\n        /* \"#utility.yul\":1190:1224   */\n      mstore\n        /* \"#utility.yul\":1121:1230   */\n      pop\n      pop\n      jump\t// out\n        /* \"#utility.yul\":1236:1446   */\n    tag_11:\n        /* \"#utility.yul\":1323:1327   */\n      0x00\n        /* \"#utility.yul\":1361:1363   */\n      0x20\n        /* \"#utility.yul\":1350:1359   */\n      dup3\n        /* \"#utility.yul\":1346:1364   */\n      add\n        /* \"#utility.yul\":1338:1364   */\n      swap1\n      pop\n        /* \"#utility.yul\":1374:1439   */\n      tag_72\n        /* \"#utility.yul\":1436:1437   */\n      0x00\n        /* \"#utility.yul\":1425:1434   */\n      dup4\n        /* \"#utility.yul\":1421:1438   */\n      add\n        /* \"#utility.yul\":1412:1418   */\n      dup5\n        /* \"#utility.yul\":1374:1439   */\n      tag_50\n      jump\t// in\n    tag_72:\n        /* \"#utility.yul\":1236:1446   */\n      swap3\n      swap2\n      pop\n      pop\n      jump\t// out\n        /* \"#utility.yul\":1452:1570   */\n    tag_51:\n        /* \"#utility.yul\":1539:1563   */\n      tag_74\n        /* \"#utility.yul\":1557:1562   */\n      dup2\n        /* \"#utility.yul\":1539:1563   */\n      tag_46\n      jump\t// in\n    tag_74:\n        /* \"#utility.yul\":1534:1537   */\n      dup3\n        /* \"#utility.yul\":1527:1564   */\n      mstore\n        /* \"#utility.yul\":1452:1570   */\n      pop\n      pop\n      jump\t// out\n        /* \"#utility.yul\":1576:1798   */\n    tag_16:\n        /* \"#utility.yul\":1669:1673   */\n      0x00\n        /* \"#utility.yul\":1707:1709   */\n      0x20\n        /* \"#utility.yul\":1696:1705   */\n      dup3\n        /* \"#utility.yul\":1692:1710   */\n      add\n        /* \"#utility.yul\":1684:1710   */\n      swap1\n      pop\n        /* \"#utility.yul\":1720:1791   */\n      tag_76\n        /* \"#utility.yul\":1788:1789   */\n      0x00\n        /* \"#utility.yul\":1777:1786   */\n      dup4\n        /* \"#utility.yul\":1773:1790   */\n      add\n        /* \"#utility.yul\":1764:1770   */\n      dup5\n        /* \"#utility.yul\":1720:1791   */\n      tag_51\n      jump\t// in\n    tag_76:\n        /* \"#utility.yul\":1576:1798   */\n      swap3\n      swap2\n      pop\n      pop\n      jump\t// out\n        /* \"#utility.yul\":1804:2357   */\n    tag_21:\n        /* \"#utility.yul\":1981:1985   */\n      0x00\n        /* \"#utility.yul\":2019:2022   */\n      0x80\n        /* \"#utility.yul\":2008:2017   */\n      dup3\n        /* \"#utility.yul\":2004:2023   */\n      add\n        /* \"#utility.yul\":1996:2023   */\n      swap1\n      pop\n        /* \"#utility.yul\":2033:2104   */\n      tag_78\n        /* \"#utility.yul\":2101:2102   */\n      0x00\n        /* \"#utility.yul\":2090:2099   */\n      dup4\n        /* \"#utility.yul\":2086:2103   */\n      add\n        /* \"#utility.yul\":2077:2083   */\n      dup8\n        /* \"#utility.yul\":2033:2104   */\n      tag_51\n      jump\t// in\n    tag_78:\n        /* \"#utility.yul\":2114:2186   */\n      tag_79\n        /* \"#utility.yul\":2182:2184   */\n      0x20\n        /* \"#utility.yul\":2171:2180   */\n      dup4\n        /* \"#utility.yul\":2167:2185   */\n      add\n        /* \"#utility.yul\":2158:2164   */\n      dup7\n        /* \"#utility.yul\":2114:2186   */\n      tag_51\n      jump\t// in\n    tag_79:\n        /* \"#utility.yul\":2196:2268   */\n      tag_80\n        /* \"#utility.yul\":2264:2266   */\n      0x40\n        /* \"#utility.yul\":2253:2262   */\n      dup4\n        /* \"#utility.yul\":2249:2267   */\n      add\n        /* \"#utility.yul\":2240:2246   */\n      dup6\n        /* \"#utility.yul\":2196:2268   */\n      tag_51\n      jump\t// in\n    tag_80:\n        /* \"#utility.yul\":2278:2350   */\n      tag_81\n        /* \"#utility.yul\":2346:2348   */\n      0x60\n        /* \"#utility.yul\":2335:2344   */\n      dup4\n        /* \"#utility.yul\":2331:2349   */\n      add\n        /* \"#utility.yul\":2322:2328   */\n      dup5\n        /* \"#utility.yul\":2278:2350   */\n      tag_51\n      jump\t// in\n    tag_81:\n        /* \"#utility.yul\":1804:2357   */\n      swap6\n      swap5\n      pop\n      pop\n      pop\n      pop\n      pop\n      jump\t// out\n        /* \"#utility.yul\":2363:2543   */\n    tag_52:\n        /* \"#utility.yul\":2411:2488   */\n      0x4e487b7100000000000000000000000000000000000000000000000000000000\n        /* \"#utility.yul\":2408:2409   */\n      0x00\n        /* \"#utility.yul\":2401:2489   */\n      mstore\n        /* \"#utility.yul\":2508:2512   */\n      0x11\n        /* \"#utility.yul\":2505:2506   */\n      0x04\n        /* \"#utility.yul\":2498:2513   */\n      mstore\n        /* \"#utility.yul\":2532:2536   */\n      0x24\n        /* \"#utility.yul\":2529:2530   */\n      0x00\n        /* \"#utility.yul\":2522:2537   */\n      revert\n        /* \"#utility.yul\":2549:2959   */\n    tag_25:\n        /* \"#utility.yul\":2589:2596   */\n      0x00\n        /* \"#utility.yul\":2612:2632   */\n      tag_84\n        /* \"#utility.yul\":2630:2631   */\n      dup3\n        /* \"#utility.yul\":2612:2632   */\n      tag_46\n      jump\t// in\n    tag_84:\n        /* \"#utility.yul\":2607:2632   */\n      swap2\n      pop\n        /* \"#utility.yul\":2646:2666   */\n      tag_85\n        /* \"#utility.yul\":2664:2665   */\n      dup4\n        /* \"#utility.yul\":2646:2666   */\n      tag_46\n      jump\t// in\n    tag_85:\n        /* \"#utility.yul\":2641:2666   */\n      swap3\n      pop\n        /* \"#utility.yul\":2701:2702   */\n      dup3\n        /* \"#utility.yul\":2698:2699   */\n      dup3\n        /* \"#utility.yul\":2694:2703   */\n      mul\n        /* \"#utility.yul\":2723:2753   */\n      tag_86\n        /* \"#utility.yul\":2741:2752   */\n      dup2\n        /* \"#utility.yul\":2723:2753   */\n      tag_46\n      jump\t// in\n    tag_86:\n        /* \"#utility.yul\":2712:2753   */\n      swap2\n      pop\n        /* \"#utility.yul\":2902:2903   */\n      dup3\n        /* \"#utility.yul\":2893:2900   */\n      dup3\n        /* \"#utility.yul\":2889:2904   */\n      div\n        /* \"#utility.yul\":2886:2887   */\n      dup5\n        /* \"#utility.yul\":2883:2905   */\n      eq\n        /* \"#utility.yul\":2863:2864   */\n      dup4\n        /* \"#utility.yul\":2856:2865   */\n      iszero\n        /* \"#utility.yul\":2836:2919   */\n      or\n        /* \"#utility.yul\":2813:2952   */\n      tag_87\n      jumpi\n        /* \"#utility.yul\":2932:2950   */\n      tag_88\n      tag_52\n      jump\t// in\n    tag_88:\n        /* \"#utility.yul\":2813:2952   */\n    tag_87:\n        /* \"#utility.yul\":2597:2959   */\n      pop\n        /* \"#utility.yul\":2549:2959   */\n      swap3\n      swap2\n      pop\n      pop\n      jump\t// out\n        /* \"#utility.yul\":2965:3145   */\n    tag_53:\n        /* \"#utility.yul\":3013:3090   */\n      0x4e487b7100000000000000000000000000000000000000000000000000000000\n        /* \"#utility.yul\":3010:3011   */\n      0x00\n        /* \"#utility.yul\":3003:3091   */\n      mstore\n        /* \"#utility.yul\":3110:3114   */\n      0x12\n        /* \"#utility.yul\":3107:3108   */\n      0x04\n        /* \"#utility.yul\":3100:3115   */\n      mstore\n        /* \"#utility.yul\":3134:3138   */\n      0x24\n        /* \"#utility.yul\":3131:3132   */\n      0x00\n        /* \"#utility.yul\":3124:3139   */\n      revert\n        /* \"#utility.yul\":3151:3327   */\n    tag_32:\n        /* \"#utility.yul\":3183:3184   */\n      0x00\n        /* \"#utility.yul\":3200:3220   */\n      tag_91\n        /* \"#utility.yul\":3218:3219   */\n      dup3\n        /* \"#utility.yul\":3200:3220   */\n      tag_46\n      jump\t// in\n    tag_91:\n        /* \"#utility.yul\":3195:3220   */\n      swap2\n      pop\n        /* \"#utility.yul\":3234:3254   */\n      tag_92\n        /* \"#utility.yul\":3252:3253   */\n      dup4\n        /* \"#utility.yul\":3234:3254   */\n      tag_46\n      jump\t// in\n    tag_92:\n        /* \"#utility.yul\":3229:3254   */\n      swap3\n      pop\n        /* \"#utility.yul\":3273:3274   */\n      dup3\n        /* \"#utility.yul\":3263:3298   */\n      tag_93\n      jumpi\n        /* \"#utility.yul\":3278:3296   */\n      tag_94\n      tag_53\n      jump\t// in\n    tag_94:\n        /* \"#utility.yul\":3263:3298   */\n    tag_93:\n        /* \"#utility.yul\":3319:3320   */\n      dup3\n        /* \"#utility.yul\":3316:3317   */\n      dup3\n        /* \"#utility.yul\":3312:3321   */\n      mod\n        /* \"#utility.yul\":3307:3321   */\n      swap1\n      pop\n        /* \"#utility.yul\":3151:3327   */\n      swap3\n      swap2\n      pop\n      pop\n      jump\t// out\n        /* \"#utility.yul\":3333:3524   */\n    tag_35:\n        /* \"#utility.yul\":3373:3376   */\n      0x00\n        /* \"#utility.yul\":3392:3412   */\n      tag_96\n        /* \"#utility.yul\":3410:3411   */\n      dup3\n        /* \"#utility.yul\":3392:3412   */\n      tag_46\n      jump\t// in\n    tag_96:\n        /* \"#utility.yul\":3387:3412   */\n      swap2\n      pop\n        /* \"#utility.yul\":3426:3446   */\n      tag_97\n        /* \"#utility.yul\":3444:3445   */\n      dup4\n        /* \"#utility.yul\":3426:3446   */\n      tag_46\n      jump\t// in\n    tag_97:\n        /* \"#utility.yul\":3421:3446   */\n      swap3\n      pop\n        /* \"#utility.yul\":3469:3470   */\n      dup3\n        /* \"#utility.yul\":3466:3467   */\n      dup3\n        /* \"#utility.yul\":3462:3471   */\n      add\n        /* \"#utility.yul\":3455:3471   */\n      swap1\n      pop\n        /* \"#utility.yul\":3490:3493   */\n      dup1\n        /* \"#utility.yul\":3487:3488   */\n      dup3\n        /* \"#utility.yul\":3484:3494   */\n      gt\n        /* \"#utility.yul\":3481:3517   */\n      iszero\n      tag_98\n      jumpi\n        /* \"#utility.yul\":3497:3515   */\n      tag_99\n      tag_52\n      jump\t// in\n    tag_99:\n        /* \"#utility.yul\":3481:3517   */\n    tag_98:\n        /* \"#utility.yul\":3333:3524   */\n      swap3\n      swap2\n      pop\n      pop\n      jump\t// out\n        /* \"#utility.yul\":3530:3715   */\n    tag_37:\n        /* \"#utility.yul\":3570:3571   */\n      0x00\n        /* \"#utility.yul\":3587:3607   */\n      tag_101\n        /* \"#utility.yul\":3605:3606   */\n      dup3\n        /* \"#utility.yul\":3587:3607   */\n      tag_46\n      jump\t// in\n    tag_101:\n        /* \"#utility.yul\":3582:3607   */\n      swap2\n      pop\n        /* \"#utility.yul\":3621:3641   */\n      tag_102\n        /* \"#utility.yul\":3639:3640   */\n      dup4\n        /* \"#utility.yul\":3621:3641   */\n      tag_46\n      jump\t// in\n    tag_102:\n        /* \"#utility.yul\":3616:3641   */\n      swap3\n      pop\n        /* \"#utility.yul\":3660:3661   */\n      dup3\n        /* \"#utility.yul\":3650:3685   */\n      tag_103\n      jumpi\n        /* \"#utility.yul\":3665:3683   */\n      tag_104\n      tag_53\n      jump\t// in\n    tag_104:\n        /* \"#utility.yul\":3650:3685   */\n    tag_103:\n        /* \"#utility.yul\":3707:3708   */\n      dup3\n        /* \"#utility.yul\":3704:3705   */\n      dup3\n        /* \"#utility.yul\":3700:3709   */\n      div\n        /* \"#utility.yul\":3695:3709   */\n      swap1\n      pop\n        /* \"#utility.yul\":3530:3715   */\n      swap3\n      swap2\n      pop\n      pop\n      jump\t// out\n\n    auxdata: 0xa2646970667358221220c7081dfd340745a69ff6a571f4438a6d3c0a8c9106954c1ebb90c125b6a1f42364736f6c634300081a0033\n}\n",
				"bytecode": {
					"linkReferences": {},
					"object": "6080604052348015600e575f80fd5b5061040d8061001c5f395ff3fe608060405234801561000f575f80fd5b506004361061003f575f3560e01c80632568000d146100435780634afbcfcb14610073578063b08665e6146100a3575b5f80fd5b61005d600480360381019061005891906101e0565b6100d6565b60405161006a9190610225565b60405180910390f35b61008d600480360381019061008891906101e0565b61011b565b60405161009a919061024d565b60405180910390f35b6100bd60048036038101906100b891906101e0565b61016c565b6040516100cd9493929190610266565b60405180910390f35b5f806100e18361011b565b90505f83846100f091906102d6565b90505f82836100ff91906102d6565b90505f61010b8361011b565b9050808214945050505050919050565b5f805f90505b5f83111561016357600a836101369190610344565b600a8261014391906102d6565b61014d9190610374565b9050600a8361015c91906103a7565b9250610121565b80915050919050565b5f805f806101798561011b565b9350848561018791906102d6565b9250838461019591906102d6565b91506101a08361011b565b90509193509193565b5f80fd5b5f819050919050565b6101bf816101ad565b81146101c9575f80fd5b50565b5f813590506101da816101b6565b92915050565b5f602082840312156101f5576101f46101a9565b5b5f610202848285016101cc565b91505092915050565b5f8115159050919050565b61021f8161020b565b82525050565b5f6020820190506102385f830184610216565b92915050565b610247816101ad565b82525050565b5f6020820190506102605f83018461023e565b92915050565b5f6080820190506102795f83018761023e565b610286602083018661023e565b610293604083018561023e565b6102a0606083018461023e565b95945050505050565b7f4e487b71000000000000000000000000000000000000000000000000000000005f52601160045260245ffd5b5f6102e0826101ad565b91506102eb836101ad565b92508282026102f9816101ad565b915082820484148315176103105761030f6102a9565b5b5092915050565b7f4e487b71000000000000000000000000000000000000000000000000000000005f52601260045260245ffd5b5f61034e826101ad565b9150610359836101ad565b92508261036957610368610317565b5b828206905092915050565b5f61037e826101ad565b9150610389836101ad565b92508282019050808211156103a1576103a06102a9565b5b92915050565b5f6103b1826101ad565b91506103bc836101ad565b9250826103cc576103cb610317565b5b82820490509291505056fea2646970667358221220c7081dfd340745a69ff6a571f4438a6d3c0a8c9106954c1ebb90c125b6a1f42364736f6c634300081a0033",
					"opcodes": "PUSH1 0x80 PUSH1 0x40 MSTORE CALLVALUE DUP1 ISZERO PUSH1 0xE JUMPI PUSH0 DUP1 REVERT JUMPDEST POP PUSH2 0x40D DUP1 PUSH2 0x1C PUSH0 CODECOPY PUSH0 RETURN INVALID PUSH1 0x80 PUSH1 0x40 MSTORE CALLVALUE DUP1 ISZERO PUSH2 0xF JUMPI PUSH0 DUP1 REVERT JUMPDEST POP PUSH1 0x4 CALLDATASIZE LT PUSH2 0x3F JUMPI PUSH0 CALLDATALOAD PUSH1 0xE0 SHR DUP1 PUSH4 0x2568000D EQ PUSH2 0x43 JUMPI DUP1 PUSH4 0x4AFBCFCB EQ PUSH2 0x73 JUMPI DUP1 PUSH4 0xB08665E6 EQ PUSH2 0xA3 JUMPI JUMPDEST PUSH0 DUP1 REVERT JUMPDEST PUSH2 0x5D PUSH1 0x4 DUP1 CALLDATASIZE SUB DUP2 ADD SWAP1 PUSH2 0x58 SWAP2 SWAP1 PUSH2 0x1E0 JUMP JUMPDEST PUSH2 0xD6 JUMP JUMPDEST PUSH1 0x40 MLOAD PUSH2 0x6A SWAP2 SWAP1 PUSH2 0x225 JUMP JUMPDEST PUSH1 0x40 MLOAD DUP1 SWAP2 SUB SWAP1 RETURN JUMPDEST PUSH2 0x8D PUSH1 0x4 DUP1 CALLDATASIZE SUB DUP2 ADD SWAP1 PUSH2 0x88 SWAP2 SWAP1 PUSH2 0x1E0 JUMP JUMPDEST PUSH2 0x11B JUMP JUMPDEST PUSH1 0x40 MLOAD PUSH2 0x9A SWAP2 SWAP1 PUSH2 0x24D JUMP JUMPDEST PUSH1 0x40 MLOAD DUP1 SWAP2 SUB SWAP1 RETURN JUMPDEST PUSH2 0xBD PUSH1 0x4 DUP1 CALLDATASIZE SUB DUP2 ADD SWAP1 PUSH2 0xB8 SWAP2 SWAP1 PUSH2 0x1E0 JUMP JUMPDEST PUSH2 0x16C JUMP JUMPDEST PUSH1 0x40 MLOAD PUSH2 0xCD SWAP5 SWAP4 SWAP3 SWAP2 SWAP1 PUSH2 0x266 JUMP JUMPDEST PUSH1 0x40 MLOAD DUP1 SWAP2 SUB SWAP1 RETURN JUMPDEST PUSH0 DUP1 PUSH2 0xE1 DUP4 PUSH2 0x11B JUMP JUMPDEST SWAP1 POP PUSH0 DUP4 DUP5 PUSH2 0xF0 SWAP2 SWAP1 PUSH2 0x2D6 JUMP JUMPDEST SWAP1 POP PUSH0 DUP3 DUP4 PUSH2 0xFF SWAP2 SWAP1 PUSH2 0x2D6 JUMP JUMPDEST SWAP1 POP PUSH0 PUSH2 0x10B DUP4 PUSH2 0x11B JUMP JUMPDEST SWAP1 POP DUP1 DUP3 EQ SWAP5 POP POP POP POP POP SWAP2 SWAP1 POP JUMP JUMPDEST PUSH0 DUP1 PUSH0 SWAP1 POP JUMPDEST PUSH0 DUP4 GT ISZERO PUSH2 0x163 JUMPI PUSH1 0xA DUP4 PUSH2 0x136 SWAP2 SWAP1 PUSH2 0x344 JUMP JUMPDEST PUSH1 0xA DUP3 PUSH2 0x143 SWAP2 SWAP1 PUSH2 0x2D6 JUMP JUMPDEST PUSH2 0x14D SWAP2 SWAP1 PUSH2 0x374 JUMP JUMPDEST SWAP1 POP PUSH1 0xA DUP4 PUSH2 0x15C SWAP2 SWAP1 PUSH2 0x3A7 JUMP JUMPDEST SWAP3 POP PUSH2 0x121 JUMP JUMPDEST DUP1 SWAP2 POP POP SWAP2 SWAP1 POP JUMP JUMPDEST PUSH0 DUP1 PUSH0 DUP1 PUSH2 0x179 DUP6 PUSH2 0x11B JUMP JUMPDEST SWAP4 POP DUP5 DUP6 PUSH2 0x187 SWAP2 SWAP1 PUSH2 0x2D6 JUMP JUMPDEST SWAP3 POP DUP4 DUP5 PUSH2 0x195 SWAP2 SWAP1 PUSH2 0x2D6 JUMP JUMPDEST SWAP2 POP PUSH2 0x1A0 DUP4 PUSH2 0x11B JUMP JUMPDEST SWAP1 POP SWAP2 SWAP4 POP SWAP2 SWAP4 JUMP JUMPDEST PUSH0 DUP1 REVERT JUMPDEST PUSH0 DUP2 SWAP1 POP SWAP2 SWAP1 POP JUMP JUMPDEST PUSH2 0x1BF DUP2 PUSH2 0x1AD JUMP JUMPDEST DUP2 EQ PUSH2 0x1C9 JUMPI PUSH0 DUP1 REVERT JUMPDEST POP JUMP JUMPDEST PUSH0 DUP2 CALLDATALOAD SWAP1 POP PUSH2 0x1DA DUP2 PUSH2 0x1B6 JUMP JUMPDEST SWAP3 SWAP2 POP POP JUMP JUMPDEST PUSH0 PUSH1 0x20 DUP3 DUP5 SUB SLT ISZERO PUSH2 0x1F5 JUMPI PUSH2 0x1F4 PUSH2 0x1A9 JUMP JUMPDEST JUMPDEST PUSH0 PUSH2 0x202 DUP5 DUP3 DUP6 ADD PUSH2 0x1CC JUMP JUMPDEST SWAP2 POP POP SWAP3 SWAP2 POP POP JUMP JUMPDEST PUSH0 DUP2 ISZERO ISZERO SWAP1 POP SWAP2 SWAP1 POP JUMP JUMPDEST PUSH2 0x21F DUP2 PUSH2 0x20B JUMP JUMPDEST DUP3 MSTORE POP POP JUMP JUMPDEST PUSH0 PUSH1 0x20 DUP3 ADD SWAP1 POP PUSH2 0x238 PUSH0 DUP4 ADD DUP5 PUSH2 0x216 JUMP JUMPDEST SWAP3 SWAP2 POP POP JUMP JUMPDEST PUSH2 0x247 DUP2 PUSH2 0x1AD JUMP JUMPDEST DUP3 MSTORE POP POP JUMP JUMPDEST PUSH0 PUSH1 0x20 DUP3 ADD SWAP1 POP PUSH2 0x260 PUSH0 DUP4 ADD DUP5 PUSH2 0x23E JUMP JUMPDEST SWAP3 SWAP2 POP POP JUMP JUMPDEST PUSH0 PUSH1 0x80 DUP3 ADD SWAP1 POP PUSH2 0x279 PUSH0 DUP4 ADD DUP8 PUSH2 0x23E JUMP JUMPDEST PUSH2 0x286 PUSH1 0x20 DUP4 ADD DUP7 PUSH2 0x23E JUMP JUMPDEST PUSH2 0x293 PUSH1 0x40 DUP4 ADD DUP6 PUSH2 0x23E JUMP JUMPDEST PUSH2 0x2A0 PUSH1 0x60 DUP4 ADD DUP5 PUSH2 0x23E JUMP JUMPDEST SWAP6 SWAP5 POP POP POP POP POP JUMP JUMPDEST PUSH32 0x4E487B7100000000000000000000000000000000000000000000000000000000 PUSH0 MSTORE PUSH1 0x11 PUSH1 0x4 MSTORE PUSH1 0x24 PUSH0 REVERT JUMPDEST PUSH0 PUSH2 0x2E0 DUP3 PUSH2 0x1AD JUMP JUMPDEST SWAP2 POP PUSH2 0x2EB DUP4 PUSH2 0x1AD JUMP JUMPDEST SWAP3 POP DUP3 DUP3 MUL PUSH2 0x2F9 DUP2 PUSH2 0x1AD JUMP JUMPDEST SWAP2 POP DUP3 DUP3 DIV DUP5 EQ DUP4 ISZERO OR PUSH2 0x310 JUMPI PUSH2 0x30F PUSH2 0x2A9 JUMP JUMPDEST JUMPDEST POP SWAP3 SWAP2 POP POP JUMP JUMPDEST PUSH32 0x4E487B7100000000000000000000000000000000000000000000000000000000 PUSH0 MSTORE PUSH1 0x12 PUSH1 0x4 MSTORE PUSH1 0x24 PUSH0 REVERT JUMPDEST PUSH0 PUSH2 0x34E DUP3 PUSH2 0x1AD JUMP JUMPDEST SWAP2 POP PUSH2 0x359 DUP4 PUSH2 0x1AD JUMP JUMPDEST SWAP3 POP DUP3 PUSH2 0x369 JUMPI PUSH2 0x368 PUSH2 0x317 JUMP JUMPDEST JUMPDEST DUP3 DUP3 MOD SWAP1 POP SWAP3 SWAP2 POP POP JUMP JUMPDEST PUSH0 PUSH2 0x37E DUP3 PUSH2 0x1AD JUMP JUMPDEST SWAP2 POP PUSH2 0x389 DUP4 PUSH2 0x1AD JUMP JUMPDEST SWAP3 POP DUP3 DUP3 ADD SWAP1 POP DUP1 DUP3 GT ISZERO PUSH2 0x3A1 JUMPI PUSH2 0x3A0 PUSH2 0x2A9 JUMP JUMPDEST JUMPDEST SWAP3 SWAP2 POP POP JUMP JUMPDEST PUSH0 PUSH2 0x3B1 DUP3 PUSH2 0x1AD JUMP JUMPDEST SWAP2 POP PUSH2 0x3BC DUP4 PUSH2 0x1AD JUMP JUMPDEST SWAP3 POP DUP3 PUSH2 0x3CC JUMPI PUSH2 0x3CB PUSH2 0x317 JUMP JUMPDEST JUMPDEST DUP3 DUP3 DIV SWAP1 POP SWAP3 SWAP2 POP POP JUMP INVALID LOG2 PUSH5 0x6970667358 0x22 SLT KECCAK256 0xC7 ADDMOD SAR REVERT CALLVALUE SMOD GASLIMIT 0xA6 SWAP16 0xF6 0xA5 PUSH18 0xF4438A6D3C0A8C9106954C1EBB90C125B6A1 DELEGATECALL 0x23 PUSH5 0x736F6C6343 STOP ADDMOD BYTE STOP CALLER "
				},
				"gasEstimates": {
					"creation": {
						"codeDepositCost": "207400",
						"executionCost": "249",
						"totalCost": "207649"
					},
					"external": {
						"checkReverseSquareProperty(uint256)": "infinite",
						"getCalculations(uint256)": "infinite",
						"reverseNumber(uint256)": "infinite"
					}
				},
				"methodIdentifiers": {
					"checkReverseSquareProperty(uint256)": "2568000d",
					"getCalculations(uint256)": "b08665e6",
					"reverseNumber(uint256)": "4afbcfcb"
				}
			},
			"storageLayout": {
				"storage": [],
				"types": null
			},
			"userdoc": {
				"kind": "user",
				"methods": {},
				"version": 1
			}
		}
	}
}