{
	"week3/d3p3.sol": {
		"Lottery": {
			"abi": [
				{
					"anonymous": false,
					"inputs": [
						{
							"indexed": false,
							"internalType": "uint256",
							"name": "winningNumber",
							"type": "uint256"
						},
						{
							"indexed": false,
							"internalType": "address",
							"name": "firstPrizeWinner",
							"type": "address"
						},
						{
							"indexed": false,
							"internalType": "address",
							"name": "secondPrizeWinner",
							"type": "address"
						},
						{
							"indexed": false,
							"internalType": "address",
							"name": "thirdPrizeWinner",
							"type": "address"
						}
					],
					"name": "LotteryDrawn",
					"type": "event"
				},
				{
					"inputs": [],
					"name": "drawLottery",
					"outputs": [],
					"stateMutability": "nonpayable",
					"type": "function"
				},
				{
					"inputs": [],
					"name": "firstPrizeWinner",
					"outputs": [
						{
							"internalType": "address",
							"name": "",
							"type": "address"
						}
					],
					"stateMutability": "view",
					"type": "function"
				},
				{
					"inputs": [],
					"name": "getFirstPrizeWinner",
					"outputs": [
						{
							"internalType": "address",
							"name": "",
							"type": "address"
						}
					],
					"stateMutability": "view",
					"type": "function"
				},
				{
					"inputs": [],
					"name": "getRandomNumber",
					"outputs": [
						{
							"internalType": "uint256",
							"name": "",
							"type": "uint256"
						}
					],
					"stateMutability": "view",
					"type": "function"
				},
				{
					"inputs": [],
					"name": "getSecondPrizeWinner",
					"outputs": [
						{
							"internalType": "address",
							"name": "",
							"type": "address"
						}
					],
					"stateMutability": "view",
					"type": "function"
				},
				{
					"inputs": [],
					"name": "getThirdPrizeWinner",
					"outputs": [
						{
							"internalType": "address",
							"name": "",
							"type": "address"
						}
					],
					"stateMutability": "view",
					"type": "function"
				},
				{
					"inputs": [],
					"name": "randomNumber",
					"outputs": [
						{
							"internalType": "uint256",
							"name": "",
							"type": "uint256"
						}
					],
					"stateMutability": "view",
					"type": "function"
				},
				{
					"inputs": [],
					"name": "secondPrizeWinner",
					"outputs": [
						{
							"internalType": "address",
							"name": "",
							"type": "address"
						}
					],
					"stateMutability": "view",
					"type": "function"
				},
				{
					"inputs": [],
					"name": "thirdPrizeWinner",
					"outputs": [
						{
							"internalType": "address",
							"name": "",
							"type": "address"
						}
					],
					"stateMutability": "view",
					"type": "function"
				}
			],
			"devdoc": {
				"kind": "dev",
				"methods": {},
				"version": 1
			},
			"evm": {
				"assembly": "    /* \"week3/d3p3.sol\":29:1647  contract Lottery {... */\n  mstore(0x40, 0x80)\n  callvalue\n  dup1\n  iszero\n  tag_1\n  jumpi\n  0x00\n  dup1\n  revert\ntag_1:\n  pop\n  dataSize(sub_0)\n  dup1\n  dataOffset(sub_0)\n  0x00\n  codecopy\n  0x00\n  return\nstop\n\nsub_0: assembly {\n        /* \"week3/d3p3.sol\":29:1647  contract Lottery {... */\n      mstore(0x40, 0x80)\n      callvalue\n      dup1\n      iszero\n      tag_1\n      jumpi\n      0x00\n      dup1\n      revert\n    tag_1:\n      pop\n      jumpi(tag_2, lt(calldatasize, 0x04))\n      shr(0xe0, calldataload(0x00))\n      dup1\n      0x9be6ae64\n      gt\n      tag_12\n      jumpi\n      dup1\n      0x9be6ae64\n      eq\n      tag_7\n      jumpi\n      dup1\n      0xb3d64268\n      eq\n      tag_8\n      jumpi\n      dup1\n      0xb92abc94\n      eq\n      tag_9\n      jumpi\n      dup1\n      0xccbac9f5\n      eq\n      tag_10\n      jumpi\n      dup1\n      0xdbdff2c1\n      eq\n      tag_11\n      jumpi\n      jump(tag_2)\n    tag_12:\n      dup1\n      0x192c9040\n      eq\n      tag_3\n      jumpi\n      dup1\n      0x1a8056e1\n      eq\n      tag_4\n      jumpi\n      dup1\n      0x27e605ec\n      eq\n      tag_5\n      jumpi\n      dup1\n      0x42a3e93f\n      eq\n      tag_6\n      jumpi\n    tag_2:\n      0x00\n      dup1\n      revert\n        /* \"week3/d3p3.sol\":1316:1421  function getSecondPrizeWinner() public view returns (address) {... */\n    tag_3:\n      tag_13\n      tag_14\n      jump\t// in\n    tag_13:\n      mload(0x40)\n      tag_15\n      swap2\n      swap1\n      tag_16\n      jump\t// in\n    tag_15:\n      mload(0x40)\n      dup1\n      swap2\n      sub\n      swap1\n      return\n        /* \"week3/d3p3.sol\":1435:1538  function getThirdPrizeWinner() public view returns (address) {... */\n    tag_4:\n      tag_17\n      tag_18\n      jump\t// in\n    tag_17:\n      mload(0x40)\n      tag_19\n      swap2\n      swap1\n      tag_16\n      jump\t// in\n    tag_19:\n      mload(0x40)\n      dup1\n      swap2\n      sub\n      swap1\n      return\n        /* \"week3/d3p3.sol\":340:1192  function drawLottery() public {... */\n    tag_5:\n      tag_20\n      tag_21\n      jump\t// in\n    tag_20:\n      stop\n        /* \"week3/d3p3.sol\":61:92  address public firstPrizeWinner */\n    tag_6:\n      tag_22\n      tag_23\n      jump\t// in\n    tag_22:\n      mload(0x40)\n      tag_24\n      swap2\n      swap1\n      tag_16\n      jump\t// in\n    tag_24:\n      mload(0x40)\n      dup1\n      swap2\n      sub\n      swap1\n      return\n        /* \"week3/d3p3.sol\":138:169  address public thirdPrizeWinner */\n    tag_7:\n      tag_25\n      tag_26\n      jump\t// in\n    tag_25:\n      mload(0x40)\n      tag_27\n      swap2\n      swap1\n      tag_16\n      jump\t// in\n    tag_27:\n      mload(0x40)\n      dup1\n      swap2\n      sub\n      swap1\n      return\n        /* \"week3/d3p3.sol\":99:131  address public secondPrizeWinner */\n    tag_8:\n      tag_28\n      tag_29\n      jump\t// in\n    tag_28:\n      mload(0x40)\n      tag_30\n      swap2\n      swap1\n      tag_16\n      jump\t// in\n    tag_30:\n      mload(0x40)\n      dup1\n      swap2\n      sub\n      swap1\n      return\n        /* \"week3/d3p3.sol\":1200:1303  function getFirstPrizeWinner() public view returns (address) {... */\n    tag_9:\n      tag_31\n      tag_32\n      jump\t// in\n    tag_31:\n      mload(0x40)\n      tag_33\n      swap2\n      swap1\n      tag_16\n      jump\t// in\n    tag_33:\n      mload(0x40)\n      dup1\n      swap2\n      sub\n      swap1\n      return\n        /* \"week3/d3p3.sol\":178:202  uint public randomNumber */\n    tag_10:\n      tag_34\n      tag_35\n      jump\t// in\n    tag_34:\n      mload(0x40)\n      tag_36\n      swap2\n      swap1\n      tag_37\n      jump\t// in\n    tag_36:\n      mload(0x40)\n      dup1\n      swap2\n      sub\n      swap1\n      return\n        /* \"week3/d3p3.sol\":1552:1644  function getRandomNumber() public view returns (uint) {... */\n    tag_11:\n      tag_38\n      tag_39\n      jump\t// in\n    tag_38:\n      mload(0x40)\n      tag_40\n      swap2\n      swap1\n      tag_37\n      jump\t// in\n    tag_40:\n      mload(0x40)\n      dup1\n      swap2\n      sub\n      swap1\n      return\n        /* \"week3/d3p3.sol\":1316:1421  function getSecondPrizeWinner() public view returns (address) {... */\n    tag_14:\n        /* \"week3/d3p3.sol\":1369:1376  address */\n      0x00\n        /* \"week3/d3p3.sol\":1396:1413  secondPrizeWinner */\n      0x01\n      0x00\n      swap1\n      sload\n      swap1\n      0x0100\n      exp\n      swap1\n      div\n      0xffffffffffffffffffffffffffffffffffffffff\n      and\n        /* \"week3/d3p3.sol\":1389:1413  return secondPrizeWinner */\n      swap1\n      pop\n        /* \"week3/d3p3.sol\":1316:1421  function getSecondPrizeWinner() public view returns (address) {... */\n      swap1\n      jump\t// out\n        /* \"week3/d3p3.sol\":1435:1538  function getThirdPrizeWinner() public view returns (address) {... */\n    tag_18:\n        /* \"week3/d3p3.sol\":1487:1494  address */\n      0x00\n        /* \"week3/d3p3.sol\":1514:1530  thirdPrizeWinner */\n      0x02\n      0x00\n      swap1\n      sload\n      swap1\n      0x0100\n      exp\n      swap1\n      div\n      0xffffffffffffffffffffffffffffffffffffffff\n      and\n        /* \"week3/d3p3.sol\":1507:1530  return thirdPrizeWinner */\n      swap1\n      pop\n        /* \"week3/d3p3.sol\":1435:1538  function getThirdPrizeWinner() public view returns (address) {... */\n      swap1\n      jump\t// out\n        /* \"week3/d3p3.sol\":340:1192  function drawLottery() public {... */\n    tag_21:\n        /* \"week3/d3p3.sol\":389:407  uint lotteryNumber */\n      0x00\n        /* \"week3/d3p3.sol\":493:497  1000 */\n      0x03e8\n        /* \"week3/d3p3.sol\":442:457  block.timestamp */\n      timestamp\n        /* \"week3/d3p3.sol\":459:475  block.prevrandao */\n      prevrandao\n        /* \"week3/d3p3.sol\":477:487  msg.sender */\n      caller\n        /* \"week3/d3p3.sol\":425:488  abi.encodePacked(block.timestamp, block.prevrandao, msg.sender) */\n      add(0x20, mload(0x40))\n      tag_44\n      swap4\n      swap3\n      swap2\n      swap1\n      tag_45\n      jump\t// in\n    tag_44:\n      mload(0x40)\n      0x20\n      dup2\n      dup4\n      sub\n      sub\n      dup2\n      mstore\n      swap1\n      0x40\n      mstore\n        /* \"week3/d3p3.sol\":415:489  keccak256(abi.encodePacked(block.timestamp, block.prevrandao, msg.sender)) */\n      dup1\n      mload\n      swap1\n      0x20\n      add\n      keccak256\n        /* \"week3/d3p3.sol\":410:490  uint(keccak256(abi.encodePacked(block.timestamp, block.prevrandao, msg.sender))) */\n      0x00\n      shr\n        /* \"week3/d3p3.sol\":410:497  uint(keccak256(abi.encodePacked(block.timestamp, block.prevrandao, msg.sender))) % 1000 */\n      tag_46\n      swap2\n      swap1\n      tag_47\n      jump\t// in\n    tag_46:\n        /* \"week3/d3p3.sol\":389:497  uint lotteryNumber = uint(keccak256(abi.encodePacked(block.timestamp, block.prevrandao, msg.sender))) % 1000 */\n      swap1\n      pop\n        /* \"week3/d3p3.sol\":523:536  lotteryNumber */\n      dup1\n        /* \"week3/d3p3.sol\":508:520  randomNumber */\n      0x03\n        /* \"week3/d3p3.sol\":508:536  randomNumber = lotteryNumber */\n      dup2\n      swap1\n      sstore\n      pop\n        /* \"week3/d3p3.sol\":575:576  0 */\n      0x00\n        /* \"week3/d3p3.sol\":548:564  firstPrizeWinner */\n      dup1\n      0x00\n        /* \"week3/d3p3.sol\":548:577  firstPrizeWinner = address(0) */\n      0x0100\n      exp\n      dup2\n      sload\n      dup2\n      0xffffffffffffffffffffffffffffffffffffffff\n      mul\n      not\n      and\n      swap1\n      dup4\n      0xffffffffffffffffffffffffffffffffffffffff\n      and\n      mul\n      or\n      swap1\n      sstore\n      pop\n        /* \"week3/d3p3.sol\":616:617  0 */\n      0x00\n        /* \"week3/d3p3.sol\":588:605  secondPrizeWinner */\n      0x01\n      0x00\n        /* \"week3/d3p3.sol\":588:618  secondPrizeWinner = address(0) */\n      0x0100\n      exp\n      dup2\n      sload\n      dup2\n      0xffffffffffffffffffffffffffffffffffffffff\n      mul\n      not\n      and\n      swap1\n      dup4\n      0xffffffffffffffffffffffffffffffffffffffff\n      and\n      mul\n      or\n      swap1\n      sstore\n      pop\n        /* \"week3/d3p3.sol\":656:657  0 */\n      0x00\n        /* \"week3/d3p3.sol\":629:645  thirdPrizeWinner */\n      0x02\n      0x00\n        /* \"week3/d3p3.sol\":629:658  thirdPrizeWinner = address(0) */\n      0x0100\n      exp\n      dup2\n      sload\n      dup2\n      0xffffffffffffffffffffffffffffffffffffffff\n      mul\n      not\n      and\n      swap1\n      dup4\n      0xffffffffffffffffffffffffffffffffffffffff\n      and\n      mul\n      or\n      swap1\n      sstore\n      pop\n        /* \"week3/d3p3.sol\":714:715  0 */\n      0x00\n        /* \"week3/d3p3.sol\":709:710  3 */\n      0x03\n        /* \"week3/d3p3.sol\":693:706  lotteryNumber */\n      dup3\n        /* \"week3/d3p3.sol\":693:710  lotteryNumber % 3 */\n      tag_48\n      swap2\n      swap1\n      tag_47\n      jump\t// in\n    tag_48:\n        /* \"week3/d3p3.sol\":693:715  lotteryNumber % 3 == 0 */\n      eq\n        /* \"week3/d3p3.sol\":693:741  lotteryNumber % 3 == 0 && lotteryNumber % 5 == 0 */\n      dup1\n      iszero\n      tag_49\n      jumpi\n      pop\n        /* \"week3/d3p3.sol\":740:741  0 */\n      0x00\n        /* \"week3/d3p3.sol\":735:736  5 */\n      0x05\n        /* \"week3/d3p3.sol\":719:732  lotteryNumber */\n      dup3\n        /* \"week3/d3p3.sol\":719:736  lotteryNumber % 5 */\n      tag_50\n      swap2\n      swap1\n      tag_47\n      jump\t// in\n    tag_50:\n        /* \"week3/d3p3.sol\":719:741  lotteryNumber % 5 == 0 */\n      eq\n        /* \"week3/d3p3.sol\":693:741  lotteryNumber % 3 == 0 && lotteryNumber % 5 == 0 */\n    tag_49:\n        /* \"week3/d3p3.sol\":689:1075  if (lotteryNumber % 3 == 0 && lotteryNumber % 5 == 0) {... */\n      iszero\n      tag_51\n      jumpi\n        /* \"week3/d3p3.sol\":777:787  msg.sender */\n      caller\n        /* \"week3/d3p3.sol\":758:774  firstPrizeWinner */\n      0x00\n      dup1\n        /* \"week3/d3p3.sol\":758:787  firstPrizeWinner = msg.sender */\n      0x0100\n      exp\n      dup2\n      sload\n      dup2\n      0xffffffffffffffffffffffffffffffffffffffff\n      mul\n      not\n      and\n      swap1\n      dup4\n      0xffffffffffffffffffffffffffffffffffffffff\n      and\n      mul\n      or\n      swap1\n      sstore\n      pop\n        /* \"week3/d3p3.sol\":689:1075  if (lotteryNumber % 3 == 0 && lotteryNumber % 5 == 0) {... */\n      jump(tag_52)\n    tag_51:\n        /* \"week3/d3p3.sol\":850:851  0 */\n      0x00\n        /* \"week3/d3p3.sol\":845:846  7 */\n      0x07\n        /* \"week3/d3p3.sol\":829:842  lotteryNumber */\n      dup3\n        /* \"week3/d3p3.sol\":829:846  lotteryNumber % 7 */\n      tag_53\n      swap2\n      swap1\n      tag_47\n      jump\t// in\n    tag_53:\n        /* \"week3/d3p3.sol\":829:851  lotteryNumber % 7 == 0 */\n      eq\n        /* \"week3/d3p3.sol\":829:878  lotteryNumber % 7 == 0 || lotteryNumber % 11 == 0 */\n      dup1\n      tag_54\n      jumpi\n      pop\n        /* \"week3/d3p3.sol\":877:878  0 */\n      0x00\n        /* \"week3/d3p3.sol\":871:873  11 */\n      0x0b\n        /* \"week3/d3p3.sol\":855:868  lotteryNumber */\n      dup3\n        /* \"week3/d3p3.sol\":855:873  lotteryNumber % 11 */\n      tag_55\n      swap2\n      swap1\n      tag_47\n      jump\t// in\n    tag_55:\n        /* \"week3/d3p3.sol\":855:878  lotteryNumber % 11 == 0 */\n      eq\n        /* \"week3/d3p3.sol\":829:878  lotteryNumber % 7 == 0 || lotteryNumber % 11 == 0 */\n    tag_54:\n        /* \"week3/d3p3.sol\":825:1075  if (lotteryNumber % 7 == 0 || lotteryNumber % 11 == 0) {... */\n      iszero\n      tag_56\n      jumpi\n        /* \"week3/d3p3.sol\":915:925  msg.sender */\n      caller\n        /* \"week3/d3p3.sol\":895:912  secondPrizeWinner */\n      0x01\n      0x00\n        /* \"week3/d3p3.sol\":895:925  secondPrizeWinner = msg.sender */\n      0x0100\n      exp\n      dup2\n      sload\n      dup2\n      0xffffffffffffffffffffffffffffffffffffffff\n      mul\n      not\n      and\n      swap1\n      dup4\n      0xffffffffffffffffffffffffffffffffffffffff\n      and\n      mul\n      or\n      swap1\n      sstore\n      pop\n        /* \"week3/d3p3.sol\":825:1075  if (lotteryNumber % 7 == 0 || lotteryNumber % 11 == 0) {... */\n      jump(tag_57)\n    tag_56:\n        /* \"week3/d3p3.sol\":988:989  0 */\n      0x00\n        /* \"week3/d3p3.sol\":983:984  5 */\n      0x05\n        /* \"week3/d3p3.sol\":967:980  lotteryNumber */\n      dup3\n        /* \"week3/d3p3.sol\":967:984  lotteryNumber % 5 */\n      tag_58\n      swap2\n      swap1\n      tag_47\n      jump\t// in\n    tag_58:\n        /* \"week3/d3p3.sol\":967:989  lotteryNumber % 5 == 0 */\n      eq\n        /* \"week3/d3p3.sol\":967:1016  lotteryNumber % 5 == 0 && lotteryNumber % 10 != 0 */\n      dup1\n      iszero\n      tag_59\n      jumpi\n      pop\n        /* \"week3/d3p3.sol\":1015:1016  0 */\n      0x00\n        /* \"week3/d3p3.sol\":1009:1011  10 */\n      0x0a\n        /* \"week3/d3p3.sol\":993:1006  lotteryNumber */\n      dup3\n        /* \"week3/d3p3.sol\":993:1011  lotteryNumber % 10 */\n      tag_60\n      swap2\n      swap1\n      tag_47\n      jump\t// in\n    tag_60:\n        /* \"week3/d3p3.sol\":993:1016  lotteryNumber % 10 != 0 */\n      eq\n      iszero\n        /* \"week3/d3p3.sol\":967:1016  lotteryNumber % 5 == 0 && lotteryNumber % 10 != 0 */\n    tag_59:\n        /* \"week3/d3p3.sol\":963:1075  if (lotteryNumber % 5 == 0 && lotteryNumber % 10 != 0) {... */\n      iszero\n      tag_61\n      jumpi\n        /* \"week3/d3p3.sol\":1052:1062  msg.sender */\n      caller\n        /* \"week3/d3p3.sol\":1033:1049  thirdPrizeWinner */\n      0x02\n      0x00\n        /* \"week3/d3p3.sol\":1033:1062  thirdPrizeWinner = msg.sender */\n      0x0100\n      exp\n      dup2\n      sload\n      dup2\n      0xffffffffffffffffffffffffffffffffffffffff\n      mul\n      not\n      and\n      swap1\n      dup4\n      0xffffffffffffffffffffffffffffffffffffffff\n      and\n      mul\n      or\n      swap1\n      sstore\n      pop\n        /* \"week3/d3p3.sol\":963:1075  if (lotteryNumber % 5 == 0 && lotteryNumber % 10 != 0) {... */\n    tag_61:\n        /* \"week3/d3p3.sol\":825:1075  if (lotteryNumber % 7 == 0 || lotteryNumber % 11 == 0) {... */\n    tag_57:\n        /* \"week3/d3p3.sol\":689:1075  if (lotteryNumber % 3 == 0 && lotteryNumber % 5 == 0) {... */\n    tag_52:\n        /* \"week3/d3p3.sol\":1102:1184  LotteryDrawn(lotteryNumber, firstPrizeWinner, secondPrizeWinner, thirdPrizeWinner) */\n      0xc3c1f65fc96cbd14a085f7ddbb1e3dcc87916f31dba1f4d1586b92ca62e3eed2\n        /* \"week3/d3p3.sol\":1115:1128  lotteryNumber */\n      dup2\n        /* \"week3/d3p3.sol\":1130:1146  firstPrizeWinner */\n      0x00\n      dup1\n      sload\n      swap1\n      0x0100\n      exp\n      swap1\n      div\n      0xffffffffffffffffffffffffffffffffffffffff\n      and\n        /* \"week3/d3p3.sol\":1148:1165  secondPrizeWinner */\n      0x01\n      0x00\n      swap1\n      sload\n      swap1\n      0x0100\n      exp\n      swap1\n      div\n      0xffffffffffffffffffffffffffffffffffffffff\n      and\n        /* \"week3/d3p3.sol\":1167:1183  thirdPrizeWinner */\n      0x02\n      0x00\n      swap1\n      sload\n      swap1\n      0x0100\n      exp\n      swap1\n      div\n      0xffffffffffffffffffffffffffffffffffffffff\n      and\n        /* \"week3/d3p3.sol\":1102:1184  LotteryDrawn(lotteryNumber, firstPrizeWinner, secondPrizeWinner, thirdPrizeWinner) */\n      mload(0x40)\n      tag_62\n      swap5\n      swap4\n      swap3\n      swap2\n      swap1\n      tag_63\n      jump\t// in\n    tag_62:\n      mload(0x40)\n      dup1\n      swap2\n      sub\n      swap1\n      log1\n        /* \"week3/d3p3.sol\":370:1192  {... */\n      pop\n        /* \"week3/d3p3.sol\":340:1192  function drawLottery() public {... */\n      jump\t// out\n        /* \"week3/d3p3.sol\":61:92  address public firstPrizeWinner */\n    tag_23:\n      0x00\n      dup1\n      sload\n      swap1\n      0x0100\n      exp\n      swap1\n      div\n      0xffffffffffffffffffffffffffffffffffffffff\n      and\n      dup2\n      jump\t// out\n        /* \"week3/d3p3.sol\":138:169  address public thirdPrizeWinner */\n    tag_26:\n      0x02\n      0x00\n      swap1\n      sload\n      swap1\n      0x0100\n      exp\n      swap1\n      div\n      0xffffffffffffffffffffffffffffffffffffffff\n      and\n      dup2\n      jump\t// out\n        /* \"week3/d3p3.sol\":99:131  address public secondPrizeWinner */\n    tag_29:\n      0x01\n      0x00\n      swap1\n      sload\n      swap1\n      0x0100\n      exp\n      swap1\n      div\n      0xffffffffffffffffffffffffffffffffffffffff\n      and\n      dup2\n      jump\t// out\n        /* \"week3/d3p3.sol\":1200:1303  function getFirstPrizeWinner() public view returns (address) {... */\n    tag_32:\n        /* \"week3/d3p3.sol\":1252:1259  address */\n      0x00\n        /* \"week3/d3p3.sol\":1279:1295  firstPrizeWinner */\n      dup1\n      0x00\n      swap1\n      sload\n      swap1\n      0x0100\n      exp\n      swap1\n      div\n      0xffffffffffffffffffffffffffffffffffffffff\n      and\n        /* \"week3/d3p3.sol\":1272:1295  return firstPrizeWinner */\n      swap1\n      pop\n        /* \"week3/d3p3.sol\":1200:1303  function getFirstPrizeWinner() public view returns (address) {... */\n      swap1\n      jump\t// out\n        /* \"week3/d3p3.sol\":178:202  uint public randomNumber */\n    tag_35:\n      sload(0x03)\n      dup2\n      jump\t// out\n        /* \"week3/d3p3.sol\":1552:1644  function getRandomNumber() public view returns (uint) {... */\n    tag_39:\n        /* \"week3/d3p3.sol\":1600:1604  uint */\n      0x00\n        /* \"week3/d3p3.sol\":1624:1636  randomNumber */\n      sload(0x03)\n        /* \"week3/d3p3.sol\":1617:1636  return randomNumber */\n      swap1\n      pop\n        /* \"week3/d3p3.sol\":1552:1644  function getRandomNumber() public view returns (uint) {... */\n      swap1\n      jump\t// out\n        /* \"#utility.yul\":7:133   */\n    tag_66:\n        /* \"#utility.yul\":44:51   */\n      0x00\n        /* \"#utility.yul\":84:126   */\n      0xffffffffffffffffffffffffffffffffffffffff\n        /* \"#utility.yul\":77:82   */\n      dup3\n        /* \"#utility.yul\":73:127   */\n      and\n        /* \"#utility.yul\":62:127   */\n      swap1\n      pop\n        /* \"#utility.yul\":7:133   */\n      swap2\n      swap1\n      pop\n      jump\t// out\n        /* \"#utility.yul\":139:235   */\n    tag_67:\n        /* \"#utility.yul\":176:183   */\n      0x00\n        /* \"#utility.yul\":205:229   */\n      tag_81\n        /* \"#utility.yul\":223:228   */\n      dup3\n        /* \"#utility.yul\":205:229   */\n      tag_66\n      jump\t// in\n    tag_81:\n        /* \"#utility.yul\":194:229   */\n      swap1\n      pop\n        /* \"#utility.yul\":139:235   */\n      swap2\n      swap1\n      pop\n      jump\t// out\n        /* \"#utility.yul\":241:359   */\n    tag_68:\n        /* \"#utility.yul\":328:352   */\n      tag_83\n        /* \"#utility.yul\":346:351   */\n      dup2\n        /* \"#utility.yul\":328:352   */\n      tag_67\n      jump\t// in\n    tag_83:\n        /* \"#utility.yul\":323:326   */\n      dup3\n        /* \"#utility.yul\":316:353   */\n      mstore\n        /* \"#utility.yul\":241:359   */\n      pop\n      pop\n      jump\t// out\n        /* \"#utility.yul\":365:587   */\n    tag_16:\n        /* \"#utility.yul\":458:462   */\n      0x00\n        /* \"#utility.yul\":496:498   */\n      0x20\n        /* \"#utility.yul\":485:494   */\n      dup3\n        /* \"#utility.yul\":481:499   */\n      add\n        /* \"#utility.yul\":473:499   */\n      swap1\n      pop\n        /* \"#utility.yul\":509:580   */\n      tag_85\n        /* \"#utility.yul\":577:578   */\n      0x00\n        /* \"#utility.yul\":566:575   */\n      dup4\n        /* \"#utility.yul\":562:579   */\n      add\n        /* \"#utility.yul\":553:559   */\n      dup5\n        /* \"#utility.yul\":509:580   */\n      tag_68\n      jump\t// in\n    tag_85:\n        /* \"#utility.yul\":365:587   */\n      swap3\n      swap2\n      pop\n      pop\n      jump\t// out\n        /* \"#utility.yul\":593:670   */\n    tag_69:\n        /* \"#utility.yul\":630:637   */\n      0x00\n        /* \"#utility.yul\":659:664   */\n      dup2\n        /* \"#utility.yul\":648:664   */\n      swap1\n      pop\n        /* \"#utility.yul\":593:670   */\n      swap2\n      swap1\n      pop\n      jump\t// out\n        /* \"#utility.yul\":676:794   */\n    tag_70:\n        /* \"#utility.yul\":763:787   */\n      tag_88\n        /* \"#utility.yul\":781:786   */\n      dup2\n        /* \"#utility.yul\":763:787   */\n      tag_69\n      jump\t// in\n    tag_88:\n        /* \"#utility.yul\":758:761   */\n      dup3\n        /* \"#utility.yul\":751:788   */\n      mstore\n        /* \"#utility.yul\":676:794   */\n      pop\n      pop\n      jump\t// out\n        /* \"#utility.yul\":800:1022   */\n    tag_37:\n        /* \"#utility.yul\":893:897   */\n      0x00\n        /* \"#utility.yul\":931:933   */\n      0x20\n        /* \"#utility.yul\":920:929   */\n      dup3\n        /* \"#utility.yul\":916:934   */\n      add\n        /* \"#utility.yul\":908:934   */\n      swap1\n      pop\n        /* \"#utility.yul\":944:1015   */\n      tag_90\n        /* \"#utility.yul\":1012:1013   */\n      0x00\n        /* \"#utility.yul\":1001:1010   */\n      dup4\n        /* \"#utility.yul\":997:1014   */\n      add\n        /* \"#utility.yul\":988:994   */\n      dup5\n        /* \"#utility.yul\":944:1015   */\n      tag_70\n      jump\t// in\n    tag_90:\n        /* \"#utility.yul\":800:1022   */\n      swap3\n      swap2\n      pop\n      pop\n      jump\t// out\n        /* \"#utility.yul\":1028:1107   */\n    tag_71:\n        /* \"#utility.yul\":1067:1074   */\n      0x00\n        /* \"#utility.yul\":1096:1101   */\n      dup2\n        /* \"#utility.yul\":1085:1101   */\n      swap1\n      pop\n        /* \"#utility.yul\":1028:1107   */\n      swap2\n      swap1\n      pop\n      jump\t// out\n        /* \"#utility.yul\":1113:1270   */\n    tag_72:\n        /* \"#utility.yul\":1218:1263   */\n      tag_93\n        /* \"#utility.yul\":1238:1262   */\n      tag_94\n        /* \"#utility.yul\":1256:1261   */\n      dup3\n        /* \"#utility.yul\":1238:1262   */\n      tag_69\n      jump\t// in\n    tag_94:\n        /* \"#utility.yul\":1218:1263   */\n      tag_71\n      jump\t// in\n    tag_93:\n        /* \"#utility.yul\":1213:1216   */\n      dup3\n        /* \"#utility.yul\":1206:1264   */\n      mstore\n        /* \"#utility.yul\":1113:1270   */\n      pop\n      pop\n      jump\t// out\n        /* \"#utility.yul\":1276:1370   */\n    tag_73:\n        /* \"#utility.yul\":1309:1317   */\n      0x00\n        /* \"#utility.yul\":1357:1362   */\n      dup2\n        /* \"#utility.yul\":1353:1355   */\n      0x60\n        /* \"#utility.yul\":1349:1363   */\n      shl\n        /* \"#utility.yul\":1328:1363   */\n      swap1\n      pop\n        /* \"#utility.yul\":1276:1370   */\n      swap2\n      swap1\n      pop\n      jump\t// out\n        /* \"#utility.yul\":1376:1470   */\n    tag_74:\n        /* \"#utility.yul\":1415:1422   */\n      0x00\n        /* \"#utility.yul\":1444:1464   */\n      tag_97\n        /* \"#utility.yul\":1458:1463   */\n      dup3\n        /* \"#utility.yul\":1444:1464   */\n      tag_73\n      jump\t// in\n    tag_97:\n        /* \"#utility.yul\":1433:1464   */\n      swap1\n      pop\n        /* \"#utility.yul\":1376:1470   */\n      swap2\n      swap1\n      pop\n      jump\t// out\n        /* \"#utility.yul\":1476:1576   */\n    tag_75:\n        /* \"#utility.yul\":1515:1522   */\n      0x00\n        /* \"#utility.yul\":1544:1570   */\n      tag_99\n        /* \"#utility.yul\":1564:1569   */\n      dup3\n        /* \"#utility.yul\":1544:1570   */\n      tag_74\n      jump\t// in\n    tag_99:\n        /* \"#utility.yul\":1533:1570   */\n      swap1\n      pop\n        /* \"#utility.yul\":1476:1576   */\n      swap2\n      swap1\n      pop\n      jump\t// out\n        /* \"#utility.yul\":1582:1739   */\n    tag_76:\n        /* \"#utility.yul\":1687:1732   */\n      tag_101\n        /* \"#utility.yul\":1707:1731   */\n      tag_102\n        /* \"#utility.yul\":1725:1730   */\n      dup3\n        /* \"#utility.yul\":1707:1731   */\n      tag_67\n      jump\t// in\n    tag_102:\n        /* \"#utility.yul\":1687:1732   */\n      tag_75\n      jump\t// in\n    tag_101:\n        /* \"#utility.yul\":1682:1685   */\n      dup3\n        /* \"#utility.yul\":1675:1733   */\n      mstore\n        /* \"#utility.yul\":1582:1739   */\n      pop\n      pop\n      jump\t// out\n        /* \"#utility.yul\":1745:2283   */\n    tag_45:\n        /* \"#utility.yul\":1913:1916   */\n      0x00\n        /* \"#utility.yul\":1928:2003   */\n      tag_104\n        /* \"#utility.yul\":1999:2002   */\n      dup3\n        /* \"#utility.yul\":1990:1996   */\n      dup7\n        /* \"#utility.yul\":1928:2003   */\n      tag_72\n      jump\t// in\n    tag_104:\n        /* \"#utility.yul\":2028:2030   */\n      0x20\n        /* \"#utility.yul\":2023:2026   */\n      dup3\n        /* \"#utility.yul\":2019:2031   */\n      add\n        /* \"#utility.yul\":2012:2031   */\n      swap2\n      pop\n        /* \"#utility.yul\":2041:2116   */\n      tag_105\n        /* \"#utility.yul\":2112:2115   */\n      dup3\n        /* \"#utility.yul\":2103:2109   */\n      dup6\n        /* \"#utility.yul\":2041:2116   */\n      tag_72\n      jump\t// in\n    tag_105:\n        /* \"#utility.yul\":2141:2143   */\n      0x20\n        /* \"#utility.yul\":2136:2139   */\n      dup3\n        /* \"#utility.yul\":2132:2144   */\n      add\n        /* \"#utility.yul\":2125:2144   */\n      swap2\n      pop\n        /* \"#utility.yul\":2154:2229   */\n      tag_106\n        /* \"#utility.yul\":2225:2228   */\n      dup3\n        /* \"#utility.yul\":2216:2222   */\n      dup5\n        /* \"#utility.yul\":2154:2229   */\n      tag_76\n      jump\t// in\n    tag_106:\n        /* \"#utility.yul\":2254:2256   */\n      0x14\n        /* \"#utility.yul\":2249:2252   */\n      dup3\n        /* \"#utility.yul\":2245:2257   */\n      add\n        /* \"#utility.yul\":2238:2257   */\n      swap2\n      pop\n        /* \"#utility.yul\":2274:2277   */\n      dup2\n        /* \"#utility.yul\":2267:2277   */\n      swap1\n      pop\n        /* \"#utility.yul\":1745:2283   */\n      swap5\n      swap4\n      pop\n      pop\n      pop\n      pop\n      jump\t// out\n        /* \"#utility.yul\":2289:2469   */\n    tag_77:\n        /* \"#utility.yul\":2337:2414   */\n      0x4e487b7100000000000000000000000000000000000000000000000000000000\n        /* \"#utility.yul\":2334:2335   */\n      0x00\n        /* \"#utility.yul\":2327:2415   */\n      mstore\n        /* \"#utility.yul\":2434:2438   */\n      0x12\n        /* \"#utility.yul\":2431:2432   */\n      0x04\n        /* \"#utility.yul\":2424:2439   */\n      mstore\n        /* \"#utility.yul\":2458:2462   */\n      0x24\n        /* \"#utility.yul\":2455:2456   */\n      0x00\n        /* \"#utility.yul\":2448:2463   */\n      revert\n        /* \"#utility.yul\":2475:2651   */\n    tag_47:\n        /* \"#utility.yul\":2507:2508   */\n      0x00\n        /* \"#utility.yul\":2524:2544   */\n      tag_109\n        /* \"#utility.yul\":2542:2543   */\n      dup3\n        /* \"#utility.yul\":2524:2544   */\n      tag_69\n      jump\t// in\n    tag_109:\n        /* \"#utility.yul\":2519:2544   */\n      swap2\n      pop\n        /* \"#utility.yul\":2558:2578   */\n      tag_110\n        /* \"#utility.yul\":2576:2577   */\n      dup4\n        /* \"#utility.yul\":2558:2578   */\n      tag_69\n      jump\t// in\n    tag_110:\n        /* \"#utility.yul\":2553:2578   */\n      swap3\n      pop\n        /* \"#utility.yul\":2597:2598   */\n      dup3\n        /* \"#utility.yul\":2587:2622   */\n      tag_111\n      jumpi\n        /* \"#utility.yul\":2602:2620   */\n      tag_112\n      tag_77\n      jump\t// in\n    tag_112:\n        /* \"#utility.yul\":2587:2622   */\n    tag_111:\n        /* \"#utility.yul\":2643:2644   */\n      dup3\n        /* \"#utility.yul\":2640:2641   */\n      dup3\n        /* \"#utility.yul\":2636:2645   */\n      mod\n        /* \"#utility.yul\":2631:2645   */\n      swap1\n      pop\n        /* \"#utility.yul\":2475:2651   */\n      swap3\n      swap2\n      pop\n      pop\n      jump\t// out\n        /* \"#utility.yul\":2657:3210   */\n    tag_63:\n        /* \"#utility.yul\":2834:2838   */\n      0x00\n        /* \"#utility.yul\":2872:2875   */\n      0x80\n        /* \"#utility.yul\":2861:2870   */\n      dup3\n        /* \"#utility.yul\":2857:2876   */\n      add\n        /* \"#utility.yul\":2849:2876   */\n      swap1\n      pop\n        /* \"#utility.yul\":2886:2957   */\n      tag_114\n        /* \"#utility.yul\":2954:2955   */\n      0x00\n        /* \"#utility.yul\":2943:2952   */\n      dup4\n        /* \"#utility.yul\":2939:2956   */\n      add\n        /* \"#utility.yul\":2930:2936   */\n      dup8\n        /* \"#utility.yul\":2886:2957   */\n      tag_70\n      jump\t// in\n    tag_114:\n        /* \"#utility.yul\":2967:3039   */\n      tag_115\n        /* \"#utility.yul\":3035:3037   */\n      0x20\n        /* \"#utility.yul\":3024:3033   */\n      dup4\n        /* \"#utility.yul\":3020:3038   */\n      add\n        /* \"#utility.yul\":3011:3017   */\n      dup7\n        /* \"#utility.yul\":2967:3039   */\n      tag_68\n      jump\t// in\n    tag_115:\n        /* \"#utility.yul\":3049:3121   */\n      tag_116\n        /* \"#utility.yul\":3117:3119   */\n      0x40\n        /* \"#utility.yul\":3106:3115   */\n      dup4\n        /* \"#utility.yul\":3102:3120   */\n      add\n        /* \"#utility.yul\":3093:3099   */\n      dup6\n        /* \"#utility.yul\":3049:3121   */\n      tag_68\n      jump\t// in\n    tag_116:\n        /* \"#utility.yul\":3131:3203   */\n      tag_117\n        /* \"#utility.yul\":3199:3201   */\n      0x60\n        /* \"#utility.yul\":3188:3197   */\n      dup4\n        /* \"#utility.yul\":3184:3202   */\n      add\n        /* \"#utility.yul\":3175:3181   */\n      dup5\n        /* \"#utility.yul\":3131:3203   */\n      tag_68\n      jump\t// in\n    tag_117:\n        /* \"#utility.yul\":2657:3210   */\n      swap6\n      swap5\n      pop\n      pop\n      pop\n      pop\n      pop\n      jump\t// out\n\n    auxdata: 0xa2646970667358221220cbc0bb277ef52a6bdd25dd1b2b8793e8a6d7ab9bfd3e2e8652fab048b1439fef64736f6c634300081a0033\n}\n",
				"bytecode": {
					"linkReferences": {},
					"object": "6080604052348015600e575f80fd5b506107738061001c5f395ff3fe608060405234801561000f575f80fd5b5060043610610091575f3560e01c80639be6ae64116100645780639be6ae64146100f9578063b3d6426814610117578063b92abc9414610135578063ccbac9f514610153578063dbdff2c11461017157610091565b8063192c9040146100955780631a8056e1146100b357806327e605ec146100d157806342a3e93f146100db575b5f80fd5b61009d61018f565b6040516100aa91906105b2565b60405180910390f35b6100bb6101b7565b6040516100c891906105b2565b60405180910390f35b6100d96101df565b005b6100e36104d0565b6040516100f091906105b2565b60405180910390f35b6101016104f3565b60405161010e91906105b2565b60405180910390f35b61011f610518565b60405161012c91906105b2565b60405180910390f35b61013d61053d565b60405161014a91906105b2565b60405180910390f35b61015b610564565b60405161016891906105e3565b60405180910390f35b61017961056a565b60405161018691906105e3565b60405180910390f35b5f60015f9054906101000a900473ffffffffffffffffffffffffffffffffffffffff16905090565b5f60025f9054906101000a900473ffffffffffffffffffffffffffffffffffffffff16905090565b5f6103e84244336040516020016101f893929190610661565b604051602081830303815290604052805190602001205f1c61021a91906106ca565b9050806003819055505f805f6101000a81548173ffffffffffffffffffffffffffffffffffffffff021916908373ffffffffffffffffffffffffffffffffffffffff1602179055505f60015f6101000a81548173ffffffffffffffffffffffffffffffffffffffff021916908373ffffffffffffffffffffffffffffffffffffffff1602179055505f60025f6101000a81548173ffffffffffffffffffffffffffffffffffffffff021916908373ffffffffffffffffffffffffffffffffffffffff1602179055505f6003826102f091906106ca565b14801561030857505f60058261030691906106ca565b145b1561035157335f806101000a81548173ffffffffffffffffffffffffffffffffffffffff021916908373ffffffffffffffffffffffffffffffffffffffff16021790555061042f565b5f60078261035f91906106ca565b148061037657505f600b8261037491906106ca565b145b156103c0573360015f6101000a81548173ffffffffffffffffffffffffffffffffffffffff021916908373ffffffffffffffffffffffffffffffffffffffff16021790555061042e565b5f6005826103ce91906106ca565b1480156103e757505f600a826103e491906106ca565b14155b1561042d573360025f6101000a81548173ffffffffffffffffffffffffffffffffffffffff021916908373ffffffffffffffffffffffffffffffffffffffff1602179055505b5b5b7fc3c1f65fc96cbd14a085f7ddbb1e3dcc87916f31dba1f4d1586b92ca62e3eed2815f8054906101000a900473ffffffffffffffffffffffffffffffffffffffff1660015f9054906101000a900473ffffffffffffffffffffffffffffffffffffffff1660025f9054906101000a900473ffffffffffffffffffffffffffffffffffffffff166040516104c594939291906106fa565b60405180910390a150565b5f8054906101000a900473ffffffffffffffffffffffffffffffffffffffff1681565b60025f9054906101000a900473ffffffffffffffffffffffffffffffffffffffff1681565b60015f9054906101000a900473ffffffffffffffffffffffffffffffffffffffff1681565b5f805f9054906101000a900473ffffffffffffffffffffffffffffffffffffffff16905090565b60035481565b5f600354905090565b5f73ffffffffffffffffffffffffffffffffffffffff82169050919050565b5f61059c82610573565b9050919050565b6105ac81610592565b82525050565b5f6020820190506105c55f8301846105a3565b92915050565b5f819050919050565b6105dd816105cb565b82525050565b5f6020820190506105f65f8301846105d4565b92915050565b5f819050919050565b610616610611826105cb565b6105fc565b82525050565b5f8160601b9050919050565b5f6106328261061c565b9050919050565b5f61064382610628565b9050919050565b61065b61065682610592565b610639565b82525050565b5f61066c8286610605565b60208201915061067c8285610605565b60208201915061068c828461064a565b601482019150819050949350505050565b7f4e487b71000000000000000000000000000000000000000000000000000000005f52601260045260245ffd5b5f6106d4826105cb565b91506106df836105cb565b9250826106ef576106ee61069d565b5b828206905092915050565b5f60808201905061070d5f8301876105d4565b61071a60208301866105a3565b61072760408301856105a3565b61073460608301846105a3565b9594505050505056fea2646970667358221220cbc0bb277ef52a6bdd25dd1b2b8793e8a6d7ab9bfd3e2e8652fab048b1439fef64736f6c634300081a0033",
					"opcodes": "PUSH1 0x80 PUSH1 0x40 MSTORE CALLVALUE DUP1 ISZERO PUSH1 0xE JUMPI PUSH0 DUP1 REVERT JUMPDEST POP PUSH2 0x773 DUP1 PUSH2 0x1C PUSH0 CODECOPY PUSH0 RETURN INVALID PUSH1 0x80 PUSH1 0x40 MSTORE CALLVALUE DUP1 ISZERO PUSH2 0xF JUMPI PUSH0 DUP1 REVERT JUMPDEST POP PUSH1 0x4 CALLDATASIZE LT PUSH2 0x91 JUMPI PUSH0 CALLDATALOAD PUSH1 0xE0 SHR DUP1 PUSH4 0x9BE6AE64 GT PUSH2 0x64 JUMPI DUP1 PUSH4 0x9BE6AE64 EQ PUSH2 0xF9 JUMPI DUP1 PUSH4 0xB3D64268 EQ PUSH2 0x117 JUMPI DUP1 PUSH4 0xB92ABC94 EQ PUSH2 0x135 JUMPI DUP1 PUSH4 0xCCBAC9F5 EQ PUSH2 0x153 JUMPI DUP1 PUSH4 0xDBDFF2C1 EQ PUSH2 0x171 JUMPI PUSH2 0x91 JUMP JUMPDEST DUP1 PUSH4 0x192C9040 EQ PUSH2 0x95 JUMPI DUP1 PUSH4 0x1A8056E1 EQ PUSH2 0xB3 JUMPI DUP1 PUSH4 0x27E605EC EQ PUSH2 0xD1 JUMPI DUP1 PUSH4 0x42A3E93F EQ PUSH2 0xDB JUMPI JUMPDEST PUSH0 DUP1 REVERT JUMPDEST PUSH2 0x9D PUSH2 0x18F JUMP JUMPDEST PUSH1 0x40 MLOAD PUSH2 0xAA SWAP2 SWAP1 PUSH2 0x5B2 JUMP JUMPDEST PUSH1 0x40 MLOAD DUP1 SWAP2 SUB SWAP1 RETURN JUMPDEST PUSH2 0xBB PUSH2 0x1B7 JUMP JUMPDEST PUSH1 0x40 MLOAD PUSH2 0xC8 SWAP2 SWAP1 PUSH2 0x5B2 JUMP JUMPDEST PUSH1 0x40 MLOAD DUP1 SWAP2 SUB SWAP1 RETURN JUMPDEST PUSH2 0xD9 PUSH2 0x1DF JUMP JUMPDEST STOP JUMPDEST PUSH2 0xE3 PUSH2 0x4D0 JUMP JUMPDEST PUSH1 0x40 MLOAD PUSH2 0xF0 SWAP2 SWAP1 PUSH2 0x5B2 JUMP JUMPDEST PUSH1 0x40 MLOAD DUP1 SWAP2 SUB SWAP1 RETURN JUMPDEST PUSH2 0x101 PUSH2 0x4F3 JUMP JUMPDEST PUSH1 0x40 MLOAD PUSH2 0x10E SWAP2 SWAP1 PUSH2 0x5B2 JUMP JUMPDEST PUSH1 0x40 MLOAD DUP1 SWAP2 SUB SWAP1 RETURN JUMPDEST PUSH2 0x11F PUSH2 0x518 JUMP JUMPDEST PUSH1 0x40 MLOAD PUSH2 0x12C SWAP2 SWAP1 PUSH2 0x5B2 JUMP JUMPDEST PUSH1 0x40 MLOAD DUP1 SWAP2 SUB SWAP1 RETURN JUMPDEST PUSH2 0x13D PUSH2 0x53D JUMP JUMPDEST PUSH1 0x40 MLOAD PUSH2 0x14A SWAP2 SWAP1 PUSH2 0x5B2 JUMP JUMPDEST PUSH1 0x40 MLOAD DUP1 SWAP2 SUB SWAP1 RETURN JUMPDEST PUSH2 0x15B PUSH2 0x564 JUMP JUMPDEST PUSH1 0x40 MLOAD PUSH2 0x168 SWAP2 SWAP1 PUSH2 0x5E3 JUMP JUMPDEST PUSH1 0x40 MLOAD DUP1 SWAP2 SUB SWAP1 RETURN JUMPDEST PUSH2 0x179 PUSH2 0x56A JUMP JUMPDEST PUSH1 0x40 MLOAD PUSH2 0x186 SWAP2 SWAP1 PUSH2 0x5E3 JUMP JUMPDEST PUSH1 0x40 MLOAD DUP1 SWAP2 SUB SWAP1 RETURN JUMPDEST PUSH0 PUSH1 0x1 PUSH0 SWAP1 SLOAD SWAP1 PUSH2 0x100 EXP SWAP1 DIV PUSH20 0xFFFFFFFFFFFFFFFFFFFFFFFFFFFFFFFFFFFFFFFF AND SWAP1 POP SWAP1 JUMP JUMPDEST PUSH0 PUSH1 0x2 PUSH0 SWAP1 SLOAD SWAP1 PUSH2 0x100 EXP SWAP1 DIV PUSH20 0xFFFFFFFFFFFFFFFFFFFFFFFFFFFFFFFFFFFFFFFF AND SWAP1 POP SWAP1 JUMP JUMPDEST PUSH0 PUSH2 0x3E8 TIMESTAMP PREVRANDAO CALLER PUSH1 0x40 MLOAD PUSH1 0x20 ADD PUSH2 0x1F8 SWAP4 SWAP3 SWAP2 SWAP1 PUSH2 0x661 JUMP JUMPDEST PUSH1 0x40 MLOAD PUSH1 0x20 DUP2 DUP4 SUB SUB DUP2 MSTORE SWAP1 PUSH1 0x40 MSTORE DUP1 MLOAD SWAP1 PUSH1 0x20 ADD KECCAK256 PUSH0 SHR PUSH2 0x21A SWAP2 SWAP1 PUSH2 0x6CA JUMP JUMPDEST SWAP1 POP DUP1 PUSH1 0x3 DUP2 SWAP1 SSTORE POP PUSH0 DUP1 PUSH0 PUSH2 0x100 EXP DUP2 SLOAD DUP2 PUSH20 0xFFFFFFFFFFFFFFFFFFFFFFFFFFFFFFFFFFFFFFFF MUL NOT AND SWAP1 DUP4 PUSH20 0xFFFFFFFFFFFFFFFFFFFFFFFFFFFFFFFFFFFFFFFF AND MUL OR SWAP1 SSTORE POP PUSH0 PUSH1 0x1 PUSH0 PUSH2 0x100 EXP DUP2 SLOAD DUP2 PUSH20 0xFFFFFFFFFFFFFFFFFFFFFFFFFFFFFFFFFFFFFFFF MUL NOT AND SWAP1 DUP4 PUSH20 0xFFFFFFFFFFFFFFFFFFFFFFFFFFFFFFFFFFFFFFFF AND MUL OR SWAP1 SSTORE POP PUSH0 PUSH1 0x2 PUSH0 PUSH2 0x100 EXP DUP2 SLOAD DUP2 PUSH20 0xFFFFFFFFFFFFFFFFFFFFFFFFFFFFFFFFFFFFFFFF MUL NOT AND SWAP1 DUP4 PUSH20 0xFFFFFFFFFFFFFFFFFFFFFFFFFFFFFFFFFFFFFFFF AND MUL OR SWAP1 SSTORE POP PUSH0 PUSH1 0x3 DUP3 PUSH2 0x2F0 SWAP2 SWAP1 PUSH2 0x6CA JUMP JUMPDEST EQ DUP1 ISZERO PUSH2 0x308 JUMPI POP PUSH0 PUSH1 0x5 DUP3 PUSH2 0x306 SWAP2 SWAP1 PUSH2 0x6CA JUMP JUMPDEST EQ JUMPDEST ISZERO PUSH2 0x351 JUMPI CALLER PUSH0 DUP1 PUSH2 0x100 EXP DUP2 SLOAD DUP2 PUSH20 0xFFFFFFFFFFFFFFFFFFFFFFFFFFFFFFFFFFFFFFFF MUL NOT AND SWAP1 DUP4 PUSH20 0xFFFFFFFFFFFFFFFFFFFFFFFFFFFFFFFFFFFFFFFF AND MUL OR SWAP1 SSTORE POP PUSH2 0x42F JUMP JUMPDEST PUSH0 PUSH1 0x7 DUP3 PUSH2 0x35F SWAP2 SWAP1 PUSH2 0x6CA JUMP JUMPDEST EQ DUP1 PUSH2 0x376 JUMPI POP PUSH0 PUSH1 0xB DUP3 PUSH2 0x374 SWAP2 SWAP1 PUSH2 0x6CA JUMP JUMPDEST EQ JUMPDEST ISZERO PUSH2 0x3C0 JUMPI CALLER PUSH1 0x1 PUSH0 PUSH2 0x100 EXP DUP2 SLOAD DUP2 PUSH20 0xFFFFFFFFFFFFFFFFFFFFFFFFFFFFFFFFFFFFFFFF MUL NOT AND SWAP1 DUP4 PUSH20 0xFFFFFFFFFFFFFFFFFFFFFFFFFFFFFFFFFFFFFFFF AND MUL OR SWAP1 SSTORE POP PUSH2 0x42E JUMP JUMPDEST PUSH0 PUSH1 0x5 DUP3 PUSH2 0x3CE SWAP2 SWAP1 PUSH2 0x6CA JUMP JUMPDEST EQ DUP1 ISZERO PUSH2 0x3E7 JUMPI POP PUSH0 PUSH1 0xA DUP3 PUSH2 0x3E4 SWAP2 SWAP1 PUSH2 0x6CA JUMP JUMPDEST EQ ISZERO JUMPDEST ISZERO PUSH2 0x42D JUMPI CALLER PUSH1 0x2 PUSH0 PUSH2 0x100 EXP DUP2 SLOAD DUP2 PUSH20 0xFFFFFFFFFFFFFFFFFFFFFFFFFFFFFFFFFFFFFFFF MUL NOT AND SWAP1 DUP4 PUSH20 0xFFFFFFFFFFFFFFFFFFFFFFFFFFFFFFFFFFFFFFFF AND MUL OR SWAP1 SSTORE POP JUMPDEST JUMPDEST JUMPDEST PUSH32 0xC3C1F65FC96CBD14A085F7DDBB1E3DCC87916F31DBA1F4D1586B92CA62E3EED2 DUP2 PUSH0 DUP1 SLOAD SWAP1 PUSH2 0x100 EXP SWAP1 DIV PUSH20 0xFFFFFFFFFFFFFFFFFFFFFFFFFFFFFFFFFFFFFFFF AND PUSH1 0x1 PUSH0 SWAP1 SLOAD SWAP1 PUSH2 0x100 EXP SWAP1 DIV PUSH20 0xFFFFFFFFFFFFFFFFFFFFFFFFFFFFFFFFFFFFFFFF AND PUSH1 0x2 PUSH0 SWAP1 SLOAD SWAP1 PUSH2 0x100 EXP SWAP1 DIV PUSH20 0xFFFFFFFFFFFFFFFFFFFFFFFFFFFFFFFFFFFFFFFF AND PUSH1 0x40 MLOAD PUSH2 0x4C5 SWAP5 SWAP4 SWAP3 SWAP2 SWAP1 PUSH2 0x6FA JUMP JUMPDEST PUSH1 0x40 MLOAD DUP1 SWAP2 SUB SWAP1 LOG1 POP JUMP JUMPDEST PUSH0 DUP1 SLOAD SWAP1 PUSH2 0x100 EXP SWAP1 DIV PUSH20 0xFFFFFFFFFFFFFFFFFFFFFFFFFFFFFFFFFFFFFFFF AND DUP2 JUMP JUMPDEST PUSH1 0x2 PUSH0 SWAP1 SLOAD SWAP1 PUSH2 0x100 EXP SWAP1 DIV PUSH20 0xFFFFFFFFFFFFFFFFFFFFFFFFFFFFFFFFFFFFFFFF AND DUP2 JUMP JUMPDEST PUSH1 0x1 PUSH0 SWAP1 SLOAD SWAP1 PUSH2 0x100 EXP SWAP1 DIV PUSH20 0xFFFFFFFFFFFFFFFFFFFFFFFFFFFFFFFFFFFFFFFF AND DUP2 JUMP JUMPDEST PUSH0 DUP1 PUSH0 SWAP1 SLOAD SWAP1 PUSH2 0x100 EXP SWAP1 DIV PUSH20 0xFFFFFFFFFFFFFFFFFFFFFFFFFFFFFFFFFFFFFFFF AND SWAP1 POP SWAP1 JUMP JUMPDEST PUSH1 0x3 SLOAD DUP2 JUMP JUMPDEST PUSH0 PUSH1 0x3 SLOAD SWAP1 POP SWAP1 JUMP JUMPDEST PUSH0 PUSH20 0xFFFFFFFFFFFFFFFFFFFFFFFFFFFFFFFFFFFFFFFF DUP3 AND SWAP1 POP SWAP2 SWAP1 POP JUMP JUMPDEST PUSH0 PUSH2 0x59C DUP3 PUSH2 0x573 JUMP JUMPDEST SWAP1 POP SWAP2 SWAP1 POP JUMP JUMPDEST PUSH2 0x5AC DUP2 PUSH2 0x592 JUMP JUMPDEST DUP3 MSTORE POP POP JUMP JUMPDEST PUSH0 PUSH1 0x20 DUP3 ADD SWAP1 POP PUSH2 0x5C5 PUSH0 DUP4 ADD DUP5 PUSH2 0x5A3 JUMP JUMPDEST SWAP3 SWAP2 POP POP JUMP JUMPDEST PUSH0 DUP2 SWAP1 POP SWAP2 SWAP1 POP JUMP JUMPDEST PUSH2 0x5DD DUP2 PUSH2 0x5CB JUMP JUMPDEST DUP3 MSTORE POP POP JUMP JUMPDEST PUSH0 PUSH1 0x20 DUP3 ADD SWAP1 POP PUSH2 0x5F6 PUSH0 DUP4 ADD DUP5 PUSH2 0x5D4 JUMP JUMPDEST SWAP3 SWAP2 POP POP JUMP JUMPDEST PUSH0 DUP2 SWAP1 POP SWAP2 SWAP1 POP JUMP JUMPDEST PUSH2 0x616 PUSH2 0x611 DUP3 PUSH2 0x5CB JUMP JUMPDEST PUSH2 0x5FC JUMP JUMPDEST DUP3 MSTORE POP POP JUMP JUMPDEST PUSH0 DUP2 PUSH1 0x60 SHL SWAP1 POP SWAP2 SWAP1 POP JUMP JUMPDEST PUSH0 PUSH2 0x632 DUP3 PUSH2 0x61C JUMP JUMPDEST SWAP1 POP SWAP2 SWAP1 POP JUMP JUMPDEST PUSH0 PUSH2 0x643 DUP3 PUSH2 0x628 JUMP JUMPDEST SWAP1 POP SWAP2 SWAP1 POP JUMP JUMPDEST PUSH2 0x65B PUSH2 0x656 DUP3 PUSH2 0x592 JUMP JUMPDEST PUSH2 0x639 JUMP JUMPDEST DUP3 MSTORE POP POP JUMP JUMPDEST PUSH0 PUSH2 0x66C DUP3 DUP7 PUSH2 0x605 JUMP JUMPDEST PUSH1 0x20 DUP3 ADD SWAP2 POP PUSH2 0x67C DUP3 DUP6 PUSH2 0x605 JUMP JUMPDEST PUSH1 0x20 DUP3 ADD SWAP2 POP PUSH2 0x68C DUP3 DUP5 PUSH2 0x64A JUMP JUMPDEST PUSH1 0x14 DUP3 ADD SWAP2 POP DUP2 SWAP1 POP SWAP5 SWAP4 POP POP POP POP JUMP JUMPDEST PUSH32 0x4E487B7100000000000000000000000000000000000000000000000000000000 PUSH0 MSTORE PUSH1 0x12 PUSH1 0x4 MSTORE PUSH1 0x24 PUSH0 REVERT JUMPDEST PUSH0 PUSH2 0x6D4 DUP3 PUSH2 0x5CB JUMP JUMPDEST SWAP2 POP PUSH2 0x6DF DUP4 PUSH2 0x5CB JUMP JUMPDEST SWAP3 POP DUP3 PUSH2 0x6EF JUMPI PUSH2 0x6EE PUSH2 0x69D JUMP JUMPDEST JUMPDEST DUP3 DUP3 MOD SWAP1 POP SWAP3 SWAP2 POP POP JUMP JUMPDEST PUSH0 PUSH1 0x80 DUP3 ADD SWAP1 POP PUSH2 0x70D PUSH0 DUP4 ADD DUP8 PUSH2 0x5D4 JUMP JUMPDEST PUSH2 0x71A PUSH1 0x20 DUP4 ADD DUP7 PUSH2 0x5A3 JUMP JUMPDEST PUSH2 0x727 PUSH1 0x40 DUP4 ADD DUP6 PUSH2 0x5A3 JUMP JUMPDEST PUSH2 0x734 PUSH1 0x60 DUP4 ADD DUP5 PUSH2 0x5A3 JUMP JUMPDEST SWAP6 SWAP5 POP POP POP POP POP JUMP INVALID LOG2 PUSH5 0x6970667358 0x22 SLT KECCAK256 0xCB 0xC0 0xBB 0x27 PUSH31 0xF52A6BDD25DD1B2B8793E8A6D7AB9BFD3E2E8652FAB048B1439FEF64736F6C PUSH4 0x4300081A STOP CALLER "
				},
				"gasEstimates": {
					"creation": {
						"codeDepositCost": "381400",
						"executionCost": "416",
						"totalCost": "381816"
					},
					"external": {
						"drawLottery()": "infinite",
						"firstPrizeWinner()": "2572",
						"getFirstPrizeWinner()": "2559",
						"getRandomNumber()": "2520",
						"getSecondPrizeWinner()": "2516",
						"getThirdPrizeWinner()": "2538",
						"randomNumber()": "2491",
						"secondPrizeWinner()": "2530",
						"thirdPrizeWinner()": "2508"
					}
				},
				"methodIdentifiers": {
					"drawLottery()": "27e605ec",
					"firstPrizeWinner()": "42a3e93f",
					"getFirstPrizeWinner()": "b92abc94",
					"getRandomNumber()": "dbdff2c1",
					"getSecondPrizeWinner()": "192c9040",
					"getThirdPrizeWinner()": "1a8056e1",
					"randomNumber()": "ccbac9f5",
					"secondPrizeWinner()": "b3d64268",
					"thirdPrizeWinner()": "9be6ae64"
				}
			},
			"storageLayout": {
				"storage": [
					{
						"astId": 3,
						"contract": "week3/d3p3.sol:Lottery",
						"label": "firstPrizeWinner",
						"offset": 0,
						"slot": "0",
						"type": "t_address"
					},
					{
						"astId": 5,
						"contract": "week3/d3p3.sol:Lottery",
						"label": "secondPrizeWinner",
						"offset": 0,
						"slot": "1",
						"type": "t_address"
					},
					{
						"astId": 7,
						"contract": "week3/d3p3.sol:Lottery",
						"label": "thirdPrizeWinner",
						"offset": 0,
						"slot": "2",
						"type": "t_address"
					},
					{
						"astId": 9,
						"contract": "week3/d3p3.sol:Lottery",
						"label": "randomNumber",
						"offset": 0,
						"slot": "3",
						"type": "t_uint256"
					}
				],
				"types": {
					"t_address": {
						"encoding": "inplace",
						"label": "address",
						"numberOfBytes": "20"
					},
					"t_uint256": {
						"encoding": "inplace",
						"label": "uint256",
						"numberOfBytes": "32"
					}
				}
			},
			"userdoc": {
				"kind": "user",
				"methods": {},
				"version": 1
			}
		}
	}
}