{
	"day6/d6p1.sol": {
		"Employee": {
			"abi": [
				{
					"inputs": [
						{
							"internalType": "string",
							"name": "_name",
							"type": "string"
						},
						{
							"internalType": "string",
							"name": "_location",
							"type": "string"
						},
						{
							"internalType": "uint256",
							"name": "_salary",
							"type": "uint256"
						},
						{
							"internalType": "string",
							"name": "_jobTitle",
							"type": "string"
						}
					],
					"stateMutability": "nonpayable",
					"type": "constructor"
				},
				{
					"inputs": [],
					"name": "calculateBonus",
					"outputs": [
						{
							"internalType": "uint256",
							"name": "",
							"type": "uint256"
						}
					],
					"stateMutability": "view",
					"type": "function"
				},
				{
					"inputs": [],
					"name": "jobTitle",
					"outputs": [
						{
							"internalType": "string",
							"name": "",
							"type": "string"
						}
					],
					"stateMutability": "view",
					"type": "function"
				},
				{
					"inputs": [],
					"name": "location",
					"outputs": [
						{
							"internalType": "string",
							"name": "",
							"type": "string"
						}
					],
					"stateMutability": "view",
					"type": "function"
				},
				{
					"inputs": [],
					"name": "manageProjects",
					"outputs": [
						{
							"internalType": "string",
							"name": "",
							"type": "string"
						}
					],
					"stateMutability": "view",
					"type": "function"
				},
				{
					"inputs": [],
					"name": "name",
					"outputs": [
						{
							"internalType": "string",
							"name": "",
							"type": "string"
						}
					],
					"stateMutability": "view",
					"type": "function"
				},
				{
					"inputs": [],
					"name": "performanceReport",
					"outputs": [
						{
							"internalType": "string",
							"name": "",
							"type": "string"
						}
					],
					"stateMutability": "view",
					"type": "function"
				},
				{
					"inputs": [],
					"name": "salary",
					"outputs": [
						{
							"internalType": "uint256",
							"name": "",
							"type": "uint256"
						}
					],
					"stateMutability": "view",
					"type": "function"
				}
			],
			"devdoc": {
				"kind": "dev",
				"methods": {},
				"version": 1
			},
			"evm": {
				"assembly": "    /* \"day6/d6p1.sol\":88:1046  contract Employee {... */\n  mstore(0x40, 0x80)\n    /* \"day6/d6p1.sol\":303:566  constructor(string memory _name, string memory _location, uint256 _salary, string memory _jobTitle) {... */\n  callvalue\n  dup1\n  iszero\n  tag_1\n  jumpi\n  0x00\n  dup1\n  revert\ntag_1:\n  pop\n  mload(0x40)\n  sub(codesize, bytecodeSize)\n  dup1\n  bytecodeSize\n  dup4\n  codecopy\n  dup2\n  dup2\n  add\n  0x40\n  mstore\n  dup2\n  add\n  swap1\n  tag_2\n  swap2\n  swap1\n  tag_3\n  jump\t// in\ntag_2:\n    /* \"day6/d6p1.sol\":421:426  _name */\n  dup4\n    /* \"day6/d6p1.sol\":414:418  name */\n  0x00\n    /* \"day6/d6p1.sol\":414:426  name = _name */\n  swap1\n  dup2\n  tag_6\n  swap2\n  swap1\n  tag_7\n  jump\t// in\ntag_6:\n  pop\n    /* \"day6/d6p1.sol\":448:457  _location */\n  dup3\n    /* \"day6/d6p1.sol\":437:445  location */\n  0x01\n    /* \"day6/d6p1.sol\":437:457  location = _location */\n  swap1\n  dup2\n  tag_8\n  swap2\n  swap1\n  tag_7\n  jump\t// in\ntag_8:\n  pop\n    /* \"day6/d6p1.sol\":477:484  _salary */\n  dup2\n    /* \"day6/d6p1.sol\":468:474  salary */\n  0x02\n    /* \"day6/d6p1.sol\":468:484  salary = _salary */\n  dup2\n  swap1\n  sstore\n  pop\n    /* \"day6/d6p1.sol\":506:515  _jobTitle */\n  dup1\n    /* \"day6/d6p1.sol\":495:503  jobTitle */\n  0x03\n    /* \"day6/d6p1.sol\":495:515  jobTitle = _jobTitle */\n  swap1\n  dup2\n  tag_9\n  swap2\n  swap1\n  tag_7\n  jump\t// in\ntag_9:\n  pop\n    /* \"day6/d6p1.sol\":303:566  constructor(string memory _name, string memory _location, uint256 _salary, string memory _jobTitle) {... */\n  pop\n  pop\n  pop\n  pop\n    /* \"day6/d6p1.sol\":88:1046  contract Employee {... */\n  jump(tag_10)\n    /* \"#utility.yul\":7:82   */\ntag_11:\n    /* \"#utility.yul\":40:46   */\n  0x00\n    /* \"#utility.yul\":73:75   */\n  0x40\n    /* \"#utility.yul\":67:76   */\n  mload\n    /* \"#utility.yul\":57:76   */\n  swap1\n  pop\n    /* \"#utility.yul\":7:82   */\n  swap1\n  jump\t// out\n    /* \"#utility.yul\":88:205   */\ntag_12:\n    /* \"#utility.yul\":197:198   */\n  0x00\n    /* \"#utility.yul\":194:195   */\n  dup1\n    /* \"#utility.yul\":187:199   */\n  revert\n    /* \"#utility.yul\":211:328   */\ntag_13:\n    /* \"#utility.yul\":320:321   */\n  0x00\n    /* \"#utility.yul\":317:318   */\n  dup1\n    /* \"#utility.yul\":310:322   */\n  revert\n    /* \"#utility.yul\":334:451   */\ntag_14:\n    /* \"#utility.yul\":443:444   */\n  0x00\n    /* \"#utility.yul\":440:441   */\n  dup1\n    /* \"#utility.yul\":433:445   */\n  revert\n    /* \"#utility.yul\":457:574   */\ntag_15:\n    /* \"#utility.yul\":566:567   */\n  0x00\n    /* \"#utility.yul\":563:564   */\n  dup1\n    /* \"#utility.yul\":556:568   */\n  revert\n    /* \"#utility.yul\":580:682   */\ntag_16:\n    /* \"#utility.yul\":621:627   */\n  0x00\n    /* \"#utility.yul\":672:674   */\n  0x1f\n    /* \"#utility.yul\":668:675   */\n  not\n    /* \"#utility.yul\":663:665   */\n  0x1f\n    /* \"#utility.yul\":656:661   */\n  dup4\n    /* \"#utility.yul\":652:666   */\n  add\n    /* \"#utility.yul\":648:676   */\n  and\n    /* \"#utility.yul\":638:676   */\n  swap1\n  pop\n    /* \"#utility.yul\":580:682   */\n  swap2\n  swap1\n  pop\n  jump\t// out\n    /* \"#utility.yul\":688:868   */\ntag_17:\n    /* \"#utility.yul\":736:813   */\n  0x4e487b7100000000000000000000000000000000000000000000000000000000\n    /* \"#utility.yul\":733:734   */\n  0x00\n    /* \"#utility.yul\":726:814   */\n  mstore\n    /* \"#utility.yul\":833:837   */\n  0x41\n    /* \"#utility.yul\":830:831   */\n  0x04\n    /* \"#utility.yul\":823:838   */\n  mstore\n    /* \"#utility.yul\":857:861   */\n  0x24\n    /* \"#utility.yul\":854:855   */\n  0x00\n    /* \"#utility.yul\":847:862   */\n  revert\n    /* \"#utility.yul\":874:1155   */\ntag_18:\n    /* \"#utility.yul\":957:984   */\n  tag_54\n    /* \"#utility.yul\":979:983   */\n  dup3\n    /* \"#utility.yul\":957:984   */\n  tag_16\n  jump\t// in\ntag_54:\n    /* \"#utility.yul\":949:955   */\n  dup2\n    /* \"#utility.yul\":945:985   */\n  add\n    /* \"#utility.yul\":1087:1093   */\n  dup2\n    /* \"#utility.yul\":1075:1085   */\n  dup2\n    /* \"#utility.yul\":1072:1094   */\n  lt\n    /* \"#utility.yul\":1051:1069   */\n  0xffffffffffffffff\n    /* \"#utility.yul\":1039:1049   */\n  dup3\n    /* \"#utility.yul\":1036:1070   */\n  gt\n    /* \"#utility.yul\":1033:1095   */\n  or\n    /* \"#utility.yul\":1030:1118   */\n  iszero\n  tag_55\n  jumpi\n    /* \"#utility.yul\":1098:1116   */\n  tag_56\n  tag_17\n  jump\t// in\ntag_56:\n    /* \"#utility.yul\":1030:1118   */\ntag_55:\n    /* \"#utility.yul\":1138:1148   */\n  dup1\n    /* \"#utility.yul\":1134:1136   */\n  0x40\n    /* \"#utility.yul\":1127:1149   */\n  mstore\n    /* \"#utility.yul\":917:1155   */\n  pop\n    /* \"#utility.yul\":874:1155   */\n  pop\n  pop\n  jump\t// out\n    /* \"#utility.yul\":1161:1290   */\ntag_19:\n    /* \"#utility.yul\":1195:1201   */\n  0x00\n    /* \"#utility.yul\":1222:1242   */\n  tag_58\n  tag_11\n  jump\t// in\ntag_58:\n    /* \"#utility.yul\":1212:1242   */\n  swap1\n  pop\n    /* \"#utility.yul\":1251:1284   */\n  tag_59\n    /* \"#utility.yul\":1279:1283   */\n  dup3\n    /* \"#utility.yul\":1271:1277   */\n  dup3\n    /* \"#utility.yul\":1251:1284   */\n  tag_18\n  jump\t// in\ntag_59:\n    /* \"#utility.yul\":1161:1290   */\n  swap2\n  swap1\n  pop\n  jump\t// out\n    /* \"#utility.yul\":1296:1604   */\ntag_20:\n    /* \"#utility.yul\":1358:1362   */\n  0x00\n    /* \"#utility.yul\":1448:1466   */\n  0xffffffffffffffff\n    /* \"#utility.yul\":1440:1446   */\n  dup3\n    /* \"#utility.yul\":1437:1467   */\n  gt\n    /* \"#utility.yul\":1434:1490   */\n  iszero\n  tag_61\n  jumpi\n    /* \"#utility.yul\":1470:1488   */\n  tag_62\n  tag_17\n  jump\t// in\ntag_62:\n    /* \"#utility.yul\":1434:1490   */\ntag_61:\n    /* \"#utility.yul\":1508:1537   */\n  tag_63\n    /* \"#utility.yul\":1530:1536   */\n  dup3\n    /* \"#utility.yul\":1508:1537   */\n  tag_16\n  jump\t// in\ntag_63:\n    /* \"#utility.yul\":1500:1537   */\n  swap1\n  pop\n    /* \"#utility.yul\":1592:1596   */\n  0x20\n    /* \"#utility.yul\":1586:1590   */\n  dup2\n    /* \"#utility.yul\":1582:1597   */\n  add\n    /* \"#utility.yul\":1574:1597   */\n  swap1\n  pop\n    /* \"#utility.yul\":1296:1604   */\n  swap2\n  swap1\n  pop\n  jump\t// out\n    /* \"#utility.yul\":1610:1749   */\ntag_21:\n    /* \"#utility.yul\":1699:1705   */\n  dup3\n    /* \"#utility.yul\":1694:1697   */\n  dup2\n    /* \"#utility.yul\":1689:1692   */\n  dup4\n    /* \"#utility.yul\":1683:1706   */\n  mcopy\n    /* \"#utility.yul\":1740:1741   */\n  0x00\n    /* \"#utility.yul\":1731:1737   */\n  dup4\n    /* \"#utility.yul\":1726:1729   */\n  dup4\n    /* \"#utility.yul\":1722:1738   */\n  add\n    /* \"#utility.yul\":1715:1742   */\n  mstore\n    /* \"#utility.yul\":1610:1749   */\n  pop\n  pop\n  pop\n  jump\t// out\n    /* \"#utility.yul\":1755:2189   */\ntag_22:\n    /* \"#utility.yul\":1844:1849   */\n  0x00\n    /* \"#utility.yul\":1869:1935   */\n  tag_66\n    /* \"#utility.yul\":1885:1934   */\n  tag_67\n    /* \"#utility.yul\":1927:1933   */\n  dup5\n    /* \"#utility.yul\":1885:1934   */\n  tag_20\n  jump\t// in\ntag_67:\n    /* \"#utility.yul\":1869:1935   */\n  tag_19\n  jump\t// in\ntag_66:\n    /* \"#utility.yul\":1860:1935   */\n  swap1\n  pop\n    /* \"#utility.yul\":1958:1964   */\n  dup3\n    /* \"#utility.yul\":1951:1956   */\n  dup2\n    /* \"#utility.yul\":1944:1965   */\n  mstore\n    /* \"#utility.yul\":1996:2000   */\n  0x20\n    /* \"#utility.yul\":1989:1994   */\n  dup2\n    /* \"#utility.yul\":1985:2001   */\n  add\n    /* \"#utility.yul\":2034:2037   */\n  dup5\n    /* \"#utility.yul\":2025:2031   */\n  dup5\n    /* \"#utility.yul\":2020:2023   */\n  dup5\n    /* \"#utility.yul\":2016:2032   */\n  add\n    /* \"#utility.yul\":2013:2038   */\n  gt\n    /* \"#utility.yul\":2010:2122   */\n  iszero\n  tag_68\n  jumpi\n    /* \"#utility.yul\":2041:2120   */\n  tag_69\n  tag_15\n  jump\t// in\ntag_69:\n    /* \"#utility.yul\":2010:2122   */\ntag_68:\n    /* \"#utility.yul\":2131:2183   */\n  tag_70\n    /* \"#utility.yul\":2176:2182   */\n  dup5\n    /* \"#utility.yul\":2171:2174   */\n  dup3\n    /* \"#utility.yul\":2166:2169   */\n  dup6\n    /* \"#utility.yul\":2131:2183   */\n  tag_21\n  jump\t// in\ntag_70:\n    /* \"#utility.yul\":1850:2189   */\n  pop\n    /* \"#utility.yul\":1755:2189   */\n  swap4\n  swap3\n  pop\n  pop\n  pop\n  jump\t// out\n    /* \"#utility.yul\":2209:2564   */\ntag_23:\n    /* \"#utility.yul\":2276:2281   */\n  0x00\n    /* \"#utility.yul\":2325:2328   */\n  dup3\n    /* \"#utility.yul\":2318:2322   */\n  0x1f\n    /* \"#utility.yul\":2310:2316   */\n  dup4\n    /* \"#utility.yul\":2306:2323   */\n  add\n    /* \"#utility.yul\":2302:2329   */\n  slt\n    /* \"#utility.yul\":2292:2414   */\n  tag_72\n  jumpi\n    /* \"#utility.yul\":2333:2412   */\n  tag_73\n  tag_14\n  jump\t// in\ntag_73:\n    /* \"#utility.yul\":2292:2414   */\ntag_72:\n    /* \"#utility.yul\":2443:2449   */\n  dup2\n    /* \"#utility.yul\":2437:2450   */\n  mload\n    /* \"#utility.yul\":2468:2558   */\n  tag_74\n    /* \"#utility.yul\":2554:2557   */\n  dup5\n    /* \"#utility.yul\":2546:2552   */\n  dup3\n    /* \"#utility.yul\":2539:2543   */\n  0x20\n    /* \"#utility.yul\":2531:2537   */\n  dup7\n    /* \"#utility.yul\":2527:2544   */\n  add\n    /* \"#utility.yul\":2468:2558   */\n  tag_22\n  jump\t// in\ntag_74:\n    /* \"#utility.yul\":2459:2558   */\n  swap2\n  pop\n    /* \"#utility.yul\":2282:2564   */\n  pop\n    /* \"#utility.yul\":2209:2564   */\n  swap3\n  swap2\n  pop\n  pop\n  jump\t// out\n    /* \"#utility.yul\":2570:2647   */\ntag_24:\n    /* \"#utility.yul\":2607:2614   */\n  0x00\n    /* \"#utility.yul\":2636:2641   */\n  dup2\n    /* \"#utility.yul\":2625:2641   */\n  swap1\n  pop\n    /* \"#utility.yul\":2570:2647   */\n  swap2\n  swap1\n  pop\n  jump\t// out\n    /* \"#utility.yul\":2653:2775   */\ntag_25:\n    /* \"#utility.yul\":2726:2750   */\n  tag_77\n    /* \"#utility.yul\":2744:2749   */\n  dup2\n    /* \"#utility.yul\":2726:2750   */\n  tag_24\n  jump\t// in\ntag_77:\n    /* \"#utility.yul\":2719:2724   */\n  dup2\n    /* \"#utility.yul\":2716:2751   */\n  eq\n    /* \"#utility.yul\":2706:2769   */\n  tag_78\n  jumpi\n    /* \"#utility.yul\":2765:2766   */\n  0x00\n    /* \"#utility.yul\":2762:2763   */\n  dup1\n    /* \"#utility.yul\":2755:2767   */\n  revert\n    /* \"#utility.yul\":2706:2769   */\ntag_78:\n    /* \"#utility.yul\":2653:2775   */\n  pop\n  jump\t// out\n    /* \"#utility.yul\":2781:2924   */\ntag_26:\n    /* \"#utility.yul\":2838:2843   */\n  0x00\n    /* \"#utility.yul\":2869:2875   */\n  dup2\n    /* \"#utility.yul\":2863:2876   */\n  mload\n    /* \"#utility.yul\":2854:2876   */\n  swap1\n  pop\n    /* \"#utility.yul\":2885:2918   */\n  tag_80\n    /* \"#utility.yul\":2912:2917   */\n  dup2\n    /* \"#utility.yul\":2885:2918   */\n  tag_25\n  jump\t// in\ntag_80:\n    /* \"#utility.yul\":2781:2924   */\n  swap3\n  swap2\n  pop\n  pop\n  jump\t// out\n    /* \"#utility.yul\":2930:4269   */\ntag_3:\n    /* \"#utility.yul\":3057:3063   */\n  0x00\n    /* \"#utility.yul\":3065:3071   */\n  dup1\n    /* \"#utility.yul\":3073:3079   */\n  0x00\n    /* \"#utility.yul\":3081:3087   */\n  dup1\n    /* \"#utility.yul\":3130:3133   */\n  0x80\n    /* \"#utility.yul\":3118:3127   */\n  dup6\n    /* \"#utility.yul\":3109:3116   */\n  dup8\n    /* \"#utility.yul\":3105:3128   */\n  sub\n    /* \"#utility.yul\":3101:3134   */\n  slt\n    /* \"#utility.yul\":3098:3218   */\n  iszero\n  tag_82\n  jumpi\n    /* \"#utility.yul\":3137:3216   */\n  tag_83\n  tag_12\n  jump\t// in\ntag_83:\n    /* \"#utility.yul\":3098:3218   */\ntag_82:\n    /* \"#utility.yul\":3278:3279   */\n  0x00\n    /* \"#utility.yul\":3267:3276   */\n  dup6\n    /* \"#utility.yul\":3263:3280   */\n  add\n    /* \"#utility.yul\":3257:3281   */\n  mload\n    /* \"#utility.yul\":3308:3326   */\n  0xffffffffffffffff\n    /* \"#utility.yul\":3300:3306   */\n  dup2\n    /* \"#utility.yul\":3297:3327   */\n  gt\n    /* \"#utility.yul\":3294:3411   */\n  iszero\n  tag_84\n  jumpi\n    /* \"#utility.yul\":3330:3409   */\n  tag_85\n  tag_13\n  jump\t// in\ntag_85:\n    /* \"#utility.yul\":3294:3411   */\ntag_84:\n    /* \"#utility.yul\":3435:3509   */\n  tag_86\n    /* \"#utility.yul\":3501:3508   */\n  dup8\n    /* \"#utility.yul\":3492:3498   */\n  dup3\n    /* \"#utility.yul\":3481:3490   */\n  dup9\n    /* \"#utility.yul\":3477:3499   */\n  add\n    /* \"#utility.yul\":3435:3509   */\n  tag_23\n  jump\t// in\ntag_86:\n    /* \"#utility.yul\":3425:3509   */\n  swap5\n  pop\n    /* \"#utility.yul\":3228:3519   */\n  pop\n    /* \"#utility.yul\":3579:3581   */\n  0x20\n    /* \"#utility.yul\":3568:3577   */\n  dup6\n    /* \"#utility.yul\":3564:3582   */\n  add\n    /* \"#utility.yul\":3558:3583   */\n  mload\n    /* \"#utility.yul\":3610:3628   */\n  0xffffffffffffffff\n    /* \"#utility.yul\":3602:3608   */\n  dup2\n    /* \"#utility.yul\":3599:3629   */\n  gt\n    /* \"#utility.yul\":3596:3713   */\n  iszero\n  tag_87\n  jumpi\n    /* \"#utility.yul\":3632:3711   */\n  tag_88\n  tag_13\n  jump\t// in\ntag_88:\n    /* \"#utility.yul\":3596:3713   */\ntag_87:\n    /* \"#utility.yul\":3737:3811   */\n  tag_89\n    /* \"#utility.yul\":3803:3810   */\n  dup8\n    /* \"#utility.yul\":3794:3800   */\n  dup3\n    /* \"#utility.yul\":3783:3792   */\n  dup9\n    /* \"#utility.yul\":3779:3801   */\n  add\n    /* \"#utility.yul\":3737:3811   */\n  tag_23\n  jump\t// in\ntag_89:\n    /* \"#utility.yul\":3727:3811   */\n  swap4\n  pop\n    /* \"#utility.yul\":3529:3821   */\n  pop\n    /* \"#utility.yul\":3860:3862   */\n  0x40\n    /* \"#utility.yul\":3886:3950   */\n  tag_90\n    /* \"#utility.yul\":3942:3949   */\n  dup8\n    /* \"#utility.yul\":3933:3939   */\n  dup3\n    /* \"#utility.yul\":3922:3931   */\n  dup9\n    /* \"#utility.yul\":3918:3940   */\n  add\n    /* \"#utility.yul\":3886:3950   */\n  tag_26\n  jump\t// in\ntag_90:\n    /* \"#utility.yul\":3876:3950   */\n  swap3\n  pop\n    /* \"#utility.yul\":3831:3960   */\n  pop\n    /* \"#utility.yul\":4020:4022   */\n  0x60\n    /* \"#utility.yul\":4009:4018   */\n  dup6\n    /* \"#utility.yul\":4005:4023   */\n  add\n    /* \"#utility.yul\":3999:4024   */\n  mload\n    /* \"#utility.yul\":4051:4069   */\n  0xffffffffffffffff\n    /* \"#utility.yul\":4043:4049   */\n  dup2\n    /* \"#utility.yul\":4040:4070   */\n  gt\n    /* \"#utility.yul\":4037:4154   */\n  iszero\n  tag_91\n  jumpi\n    /* \"#utility.yul\":4073:4152   */\n  tag_92\n  tag_13\n  jump\t// in\ntag_92:\n    /* \"#utility.yul\":4037:4154   */\ntag_91:\n    /* \"#utility.yul\":4178:4252   */\n  tag_93\n    /* \"#utility.yul\":4244:4251   */\n  dup8\n    /* \"#utility.yul\":4235:4241   */\n  dup3\n    /* \"#utility.yul\":4224:4233   */\n  dup9\n    /* \"#utility.yul\":4220:4242   */\n  add\n    /* \"#utility.yul\":4178:4252   */\n  tag_23\n  jump\t// in\ntag_93:\n    /* \"#utility.yul\":4168:4252   */\n  swap2\n  pop\n    /* \"#utility.yul\":3970:4262   */\n  pop\n    /* \"#utility.yul\":2930:4269   */\n  swap3\n  swap6\n  swap2\n  swap5\n  pop\n  swap3\n  pop\n  jump\t// out\n    /* \"#utility.yul\":4275:4374   */\ntag_27:\n    /* \"#utility.yul\":4327:4333   */\n  0x00\n    /* \"#utility.yul\":4361:4366   */\n  dup2\n    /* \"#utility.yul\":4355:4367   */\n  mload\n    /* \"#utility.yul\":4345:4367   */\n  swap1\n  pop\n    /* \"#utility.yul\":4275:4374   */\n  swap2\n  swap1\n  pop\n  jump\t// out\n    /* \"#utility.yul\":4380:4560   */\ntag_28:\n    /* \"#utility.yul\":4428:4505   */\n  0x4e487b7100000000000000000000000000000000000000000000000000000000\n    /* \"#utility.yul\":4425:4426   */\n  0x00\n    /* \"#utility.yul\":4418:4506   */\n  mstore\n    /* \"#utility.yul\":4525:4529   */\n  0x22\n    /* \"#utility.yul\":4522:4523   */\n  0x04\n    /* \"#utility.yul\":4515:4530   */\n  mstore\n    /* \"#utility.yul\":4549:4553   */\n  0x24\n    /* \"#utility.yul\":4546:4547   */\n  0x00\n    /* \"#utility.yul\":4539:4554   */\n  revert\n    /* \"#utility.yul\":4566:4886   */\ntag_29:\n    /* \"#utility.yul\":4610:4616   */\n  0x00\n    /* \"#utility.yul\":4647:4648   */\n  0x02\n    /* \"#utility.yul\":4641:4645   */\n  dup3\n    /* \"#utility.yul\":4637:4649   */\n  div\n    /* \"#utility.yul\":4627:4649   */\n  swap1\n  pop\n    /* \"#utility.yul\":4694:4695   */\n  0x01\n    /* \"#utility.yul\":4688:4692   */\n  dup3\n    /* \"#utility.yul\":4684:4696   */\n  and\n    /* \"#utility.yul\":4715:4733   */\n  dup1\n    /* \"#utility.yul\":4705:4786   */\n  tag_97\n  jumpi\n    /* \"#utility.yul\":4771:4775   */\n  0x7f\n    /* \"#utility.yul\":4763:4769   */\n  dup3\n    /* \"#utility.yul\":4759:4776   */\n  and\n    /* \"#utility.yul\":4749:4776   */\n  swap2\n  pop\n    /* \"#utility.yul\":4705:4786   */\ntag_97:\n    /* \"#utility.yul\":4833:4835   */\n  0x20\n    /* \"#utility.yul\":4825:4831   */\n  dup3\n    /* \"#utility.yul\":4822:4836   */\n  lt\n    /* \"#utility.yul\":4802:4820   */\n  dup2\n    /* \"#utility.yul\":4799:4837   */\n  sub\n    /* \"#utility.yul\":4796:4880   */\n  tag_98\n  jumpi\n    /* \"#utility.yul\":4852:4870   */\n  tag_99\n  tag_28\n  jump\t// in\ntag_99:\n    /* \"#utility.yul\":4796:4880   */\ntag_98:\n    /* \"#utility.yul\":4617:4886   */\n  pop\n    /* \"#utility.yul\":4566:4886   */\n  swap2\n  swap1\n  pop\n  jump\t// out\n    /* \"#utility.yul\":4892:5033   */\ntag_30:\n    /* \"#utility.yul\":4941:4945   */\n  0x00\n    /* \"#utility.yul\":4964:4967   */\n  dup2\n    /* \"#utility.yul\":4956:4967   */\n  swap1\n  pop\n    /* \"#utility.yul\":4987:4990   */\n  dup2\n    /* \"#utility.yul\":4984:4985   */\n  0x00\n    /* \"#utility.yul\":4977:4991   */\n  mstore\n    /* \"#utility.yul\":5021:5025   */\n  0x20\n    /* \"#utility.yul\":5018:5019   */\n  0x00\n    /* \"#utility.yul\":5008:5026   */\n  keccak256\n    /* \"#utility.yul\":5000:5026   */\n  swap1\n  pop\n    /* \"#utility.yul\":4892:5033   */\n  swap2\n  swap1\n  pop\n  jump\t// out\n    /* \"#utility.yul\":5039:5132   */\ntag_31:\n    /* \"#utility.yul\":5076:5082   */\n  0x00\n    /* \"#utility.yul\":5123:5125   */\n  0x20\n    /* \"#utility.yul\":5118:5120   */\n  0x1f\n    /* \"#utility.yul\":5111:5116   */\n  dup4\n    /* \"#utility.yul\":5107:5121   */\n  add\n    /* \"#utility.yul\":5103:5126   */\n  div\n    /* \"#utility.yul\":5093:5126   */\n  swap1\n  pop\n    /* \"#utility.yul\":5039:5132   */\n  swap2\n  swap1\n  pop\n  jump\t// out\n    /* \"#utility.yul\":5138:5245   */\ntag_32:\n    /* \"#utility.yul\":5182:5190   */\n  0x00\n    /* \"#utility.yul\":5232:5237   */\n  dup3\n    /* \"#utility.yul\":5226:5230   */\n  dup3\n    /* \"#utility.yul\":5222:5238   */\n  shl\n    /* \"#utility.yul\":5201:5238   */\n  swap1\n  pop\n    /* \"#utility.yul\":5138:5245   */\n  swap3\n  swap2\n  pop\n  pop\n  jump\t// out\n    /* \"#utility.yul\":5251:5644   */\ntag_33:\n    /* \"#utility.yul\":5320:5326   */\n  0x00\n    /* \"#utility.yul\":5370:5371   */\n  0x08\n    /* \"#utility.yul\":5358:5368   */\n  dup4\n    /* \"#utility.yul\":5354:5372   */\n  mul\n    /* \"#utility.yul\":5393:5490   */\n  tag_104\n    /* \"#utility.yul\":5423:5489   */\n  0xffffffffffffffffffffffffffffffffffffffffffffffffffffffffffffffff\n    /* \"#utility.yul\":5412:5421   */\n  dup3\n    /* \"#utility.yul\":5393:5490   */\n  tag_32\n  jump\t// in\ntag_104:\n    /* \"#utility.yul\":5511:5550   */\n  tag_105\n    /* \"#utility.yul\":5541:5549   */\n  dup7\n    /* \"#utility.yul\":5530:5539   */\n  dup4\n    /* \"#utility.yul\":5511:5550   */\n  tag_32\n  jump\t// in\ntag_105:\n    /* \"#utility.yul\":5499:5550   */\n  swap6\n  pop\n    /* \"#utility.yul\":5583:5587   */\n  dup1\n    /* \"#utility.yul\":5579:5588   */\n  not\n    /* \"#utility.yul\":5572:5577   */\n  dup5\n    /* \"#utility.yul\":5568:5589   */\n  and\n    /* \"#utility.yul\":5559:5589   */\n  swap4\n  pop\n    /* \"#utility.yul\":5632:5636   */\n  dup1\n    /* \"#utility.yul\":5622:5630   */\n  dup7\n    /* \"#utility.yul\":5618:5637   */\n  and\n    /* \"#utility.yul\":5611:5616   */\n  dup5\n    /* \"#utility.yul\":5608:5638   */\n  or\n    /* \"#utility.yul\":5598:5638   */\n  swap3\n  pop\n    /* \"#utility.yul\":5327:5644   */\n  pop\n  pop\n    /* \"#utility.yul\":5251:5644   */\n  swap4\n  swap3\n  pop\n  pop\n  pop\n  jump\t// out\n    /* \"#utility.yul\":5650:5710   */\ntag_34:\n    /* \"#utility.yul\":5678:5681   */\n  0x00\n    /* \"#utility.yul\":5699:5704   */\n  dup2\n    /* \"#utility.yul\":5692:5704   */\n  swap1\n  pop\n    /* \"#utility.yul\":5650:5710   */\n  swap2\n  swap1\n  pop\n  jump\t// out\n    /* \"#utility.yul\":5716:5858   */\ntag_35:\n    /* \"#utility.yul\":5766:5775   */\n  0x00\n    /* \"#utility.yul\":5799:5852   */\n  tag_108\n    /* \"#utility.yul\":5817:5851   */\n  tag_109\n    /* \"#utility.yul\":5826:5850   */\n  tag_110\n    /* \"#utility.yul\":5844:5849   */\n  dup5\n    /* \"#utility.yul\":5826:5850   */\n  tag_24\n  jump\t// in\ntag_110:\n    /* \"#utility.yul\":5817:5851   */\n  tag_34\n  jump\t// in\ntag_109:\n    /* \"#utility.yul\":5799:5852   */\n  tag_24\n  jump\t// in\ntag_108:\n    /* \"#utility.yul\":5786:5852   */\n  swap1\n  pop\n    /* \"#utility.yul\":5716:5858   */\n  swap2\n  swap1\n  pop\n  jump\t// out\n    /* \"#utility.yul\":5864:5939   */\ntag_36:\n    /* \"#utility.yul\":5907:5910   */\n  0x00\n    /* \"#utility.yul\":5928:5933   */\n  dup2\n    /* \"#utility.yul\":5921:5933   */\n  swap1\n  pop\n    /* \"#utility.yul\":5864:5939   */\n  swap2\n  swap1\n  pop\n  jump\t// out\n    /* \"#utility.yul\":5945:6214   */\ntag_37:\n    /* \"#utility.yul\":6055:6094   */\n  tag_113\n    /* \"#utility.yul\":6086:6093   */\n  dup4\n    /* \"#utility.yul\":6055:6094   */\n  tag_35\n  jump\t// in\ntag_113:\n    /* \"#utility.yul\":6116:6207   */\n  tag_114\n    /* \"#utility.yul\":6165:6206   */\n  tag_115\n    /* \"#utility.yul\":6189:6205   */\n  dup3\n    /* \"#utility.yul\":6165:6206   */\n  tag_36\n  jump\t// in\ntag_115:\n    /* \"#utility.yul\":6157:6163   */\n  dup5\n    /* \"#utility.yul\":6150:6154   */\n  dup5\n    /* \"#utility.yul\":6144:6155   */\n  sload\n    /* \"#utility.yul\":6116:6207   */\n  tag_33\n  jump\t// in\ntag_114:\n    /* \"#utility.yul\":6110:6114   */\n  dup3\n    /* \"#utility.yul\":6103:6208   */\n  sstore\n    /* \"#utility.yul\":6021:6214   */\n  pop\n    /* \"#utility.yul\":5945:6214   */\n  pop\n  pop\n  pop\n  jump\t// out\n    /* \"#utility.yul\":6220:6293   */\ntag_38:\n    /* \"#utility.yul\":6265:6268   */\n  0x00\n    /* \"#utility.yul\":6220:6293   */\n  swap1\n  jump\t// out\n    /* \"#utility.yul\":6299:6488   */\ntag_39:\n    /* \"#utility.yul\":6376:6408   */\n  tag_118\n  tag_38\n  jump\t// in\ntag_118:\n    /* \"#utility.yul\":6417:6482   */\n  tag_119\n    /* \"#utility.yul\":6475:6481   */\n  dup2\n    /* \"#utility.yul\":6467:6473   */\n  dup5\n    /* \"#utility.yul\":6461:6465   */\n  dup5\n    /* \"#utility.yul\":6417:6482   */\n  tag_37\n  jump\t// in\ntag_119:\n    /* \"#utility.yul\":6352:6488   */\n  pop\n    /* \"#utility.yul\":6299:6488   */\n  pop\n  pop\n  jump\t// out\n    /* \"#utility.yul\":6494:6680   */\ntag_40:\n    /* \"#utility.yul\":6554:6674   */\ntag_121:\n    /* \"#utility.yul\":6571:6574   */\n  dup2\n    /* \"#utility.yul\":6564:6569   */\n  dup2\n    /* \"#utility.yul\":6561:6575   */\n  lt\n    /* \"#utility.yul\":6554:6674   */\n  iszero\n  tag_123\n  jumpi\n    /* \"#utility.yul\":6625:6664   */\n  tag_124\n    /* \"#utility.yul\":6662:6663   */\n  0x00\n    /* \"#utility.yul\":6655:6660   */\n  dup3\n    /* \"#utility.yul\":6625:6664   */\n  tag_39\n  jump\t// in\ntag_124:\n    /* \"#utility.yul\":6598:6599   */\n  0x01\n    /* \"#utility.yul\":6591:6596   */\n  dup2\n    /* \"#utility.yul\":6587:6600   */\n  add\n    /* \"#utility.yul\":6578:6600   */\n  swap1\n  pop\n    /* \"#utility.yul\":6554:6674   */\n  jump(tag_121)\ntag_123:\n    /* \"#utility.yul\":6494:6680   */\n  pop\n  pop\n  jump\t// out\n    /* \"#utility.yul\":6686:7229   */\ntag_41:\n    /* \"#utility.yul\":6787:6789   */\n  0x1f\n    /* \"#utility.yul\":6782:6785   */\n  dup3\n    /* \"#utility.yul\":6779:6790   */\n  gt\n    /* \"#utility.yul\":6776:7222   */\n  iszero\n  tag_126\n  jumpi\n    /* \"#utility.yul\":6821:6859   */\n  tag_127\n    /* \"#utility.yul\":6853:6858   */\n  dup2\n    /* \"#utility.yul\":6821:6859   */\n  tag_30\n  jump\t// in\ntag_127:\n    /* \"#utility.yul\":6905:6934   */\n  tag_128\n    /* \"#utility.yul\":6923:6933   */\n  dup5\n    /* \"#utility.yul\":6905:6934   */\n  tag_31\n  jump\t// in\ntag_128:\n    /* \"#utility.yul\":6895:6903   */\n  dup2\n    /* \"#utility.yul\":6891:6935   */\n  add\n    /* \"#utility.yul\":7088:7090   */\n  0x20\n    /* \"#utility.yul\":7076:7086   */\n  dup6\n    /* \"#utility.yul\":7073:7091   */\n  lt\n    /* \"#utility.yul\":7070:7119   */\n  iszero\n  tag_129\n  jumpi\n    /* \"#utility.yul\":7109:7117   */\n  dup2\n    /* \"#utility.yul\":7094:7117   */\n  swap1\n  pop\n    /* \"#utility.yul\":7070:7119   */\ntag_129:\n    /* \"#utility.yul\":7132:7212   */\n  tag_130\n    /* \"#utility.yul\":7188:7210   */\n  tag_131\n    /* \"#utility.yul\":7206:7209   */\n  dup6\n    /* \"#utility.yul\":7188:7210   */\n  tag_31\n  jump\t// in\ntag_131:\n    /* \"#utility.yul\":7178:7186   */\n  dup4\n    /* \"#utility.yul\":7174:7211   */\n  add\n    /* \"#utility.yul\":7161:7172   */\n  dup3\n    /* \"#utility.yul\":7132:7212   */\n  tag_40\n  jump\t// in\ntag_130:\n    /* \"#utility.yul\":6791:7222   */\n  pop\n  pop\n    /* \"#utility.yul\":6776:7222   */\ntag_126:\n    /* \"#utility.yul\":6686:7229   */\n  pop\n  pop\n  pop\n  jump\t// out\n    /* \"#utility.yul\":7235:7352   */\ntag_42:\n    /* \"#utility.yul\":7289:7297   */\n  0x00\n    /* \"#utility.yul\":7339:7344   */\n  dup3\n    /* \"#utility.yul\":7333:7337   */\n  dup3\n    /* \"#utility.yul\":7329:7345   */\n  shr\n    /* \"#utility.yul\":7308:7345   */\n  swap1\n  pop\n    /* \"#utility.yul\":7235:7352   */\n  swap3\n  swap2\n  pop\n  pop\n  jump\t// out\n    /* \"#utility.yul\":7358:7527   */\ntag_43:\n    /* \"#utility.yul\":7402:7408   */\n  0x00\n    /* \"#utility.yul\":7435:7486   */\n  tag_134\n    /* \"#utility.yul\":7483:7484   */\n  0x00\n    /* \"#utility.yul\":7479:7485   */\n  not\n    /* \"#utility.yul\":7471:7476   */\n  dup5\n    /* \"#utility.yul\":7468:7469   */\n  0x08\n    /* \"#utility.yul\":7464:7477   */\n  mul\n    /* \"#utility.yul\":7435:7486   */\n  tag_42\n  jump\t// in\ntag_134:\n    /* \"#utility.yul\":7431:7487   */\n  not\n    /* \"#utility.yul\":7516:7520   */\n  dup1\n    /* \"#utility.yul\":7510:7514   */\n  dup4\n    /* \"#utility.yul\":7506:7521   */\n  and\n    /* \"#utility.yul\":7496:7521   */\n  swap2\n  pop\n    /* \"#utility.yul\":7409:7527   */\n  pop\n    /* \"#utility.yul\":7358:7527   */\n  swap3\n  swap2\n  pop\n  pop\n  jump\t// out\n    /* \"#utility.yul\":7532:7827   */\ntag_44:\n    /* \"#utility.yul\":7608:7612   */\n  0x00\n    /* \"#utility.yul\":7754:7783   */\n  tag_136\n    /* \"#utility.yul\":7779:7782   */\n  dup4\n    /* \"#utility.yul\":7773:7777   */\n  dup4\n    /* \"#utility.yul\":7754:7783   */\n  tag_43\n  jump\t// in\ntag_136:\n    /* \"#utility.yul\":7746:7783   */\n  swap2\n  pop\n    /* \"#utility.yul\":7816:7819   */\n  dup3\n    /* \"#utility.yul\":7813:7814   */\n  0x02\n    /* \"#utility.yul\":7809:7820   */\n  mul\n    /* \"#utility.yul\":7803:7807   */\n  dup3\n    /* \"#utility.yul\":7800:7821   */\n  or\n    /* \"#utility.yul\":7792:7821   */\n  swap1\n  pop\n    /* \"#utility.yul\":7532:7827   */\n  swap3\n  swap2\n  pop\n  pop\n  jump\t// out\n    /* \"#utility.yul\":7832:9227   */\ntag_7:\n    /* \"#utility.yul\":7949:7986   */\n  tag_138\n    /* \"#utility.yul\":7982:7985   */\n  dup3\n    /* \"#utility.yul\":7949:7986   */\n  tag_27\n  jump\t// in\ntag_138:\n    /* \"#utility.yul\":8051:8069   */\n  0xffffffffffffffff\n    /* \"#utility.yul\":8043:8049   */\n  dup2\n    /* \"#utility.yul\":8040:8070   */\n  gt\n    /* \"#utility.yul\":8037:8093   */\n  iszero\n  tag_139\n  jumpi\n    /* \"#utility.yul\":8073:8091   */\n  tag_140\n  tag_17\n  jump\t// in\ntag_140:\n    /* \"#utility.yul\":8037:8093   */\ntag_139:\n    /* \"#utility.yul\":8117:8155   */\n  tag_141\n    /* \"#utility.yul\":8149:8153   */\n  dup3\n    /* \"#utility.yul\":8143:8154   */\n  sload\n    /* \"#utility.yul\":8117:8155   */\n  tag_29\n  jump\t// in\ntag_141:\n    /* \"#utility.yul\":8202:8269   */\n  tag_142\n    /* \"#utility.yul\":8262:8268   */\n  dup3\n    /* \"#utility.yul\":8254:8260   */\n  dup3\n    /* \"#utility.yul\":8248:8252   */\n  dup6\n    /* \"#utility.yul\":8202:8269   */\n  tag_41\n  jump\t// in\ntag_142:\n    /* \"#utility.yul\":8296:8297   */\n  0x00\n    /* \"#utility.yul\":8320:8324   */\n  0x20\n    /* \"#utility.yul\":8307:8324   */\n  swap1\n  pop\n    /* \"#utility.yul\":8352:8354   */\n  0x1f\n    /* \"#utility.yul\":8344:8350   */\n  dup4\n    /* \"#utility.yul\":8341:8355   */\n  gt\n    /* \"#utility.yul\":8369:8370   */\n  0x01\n    /* \"#utility.yul\":8364:8982   */\n  dup2\n  eq\n  tag_144\n  jumpi\n    /* \"#utility.yul\":9026:9027   */\n  0x00\n    /* \"#utility.yul\":9043:9049   */\n  dup5\n    /* \"#utility.yul\":9040:9117   */\n  iszero\n  tag_145\n  jumpi\n    /* \"#utility.yul\":9092:9101   */\n  dup3\n    /* \"#utility.yul\":9087:9090   */\n  dup8\n    /* \"#utility.yul\":9083:9102   */\n  add\n    /* \"#utility.yul\":9077:9103   */\n  mload\n    /* \"#utility.yul\":9068:9103   */\n  swap1\n  pop\n    /* \"#utility.yul\":9040:9117   */\ntag_145:\n    /* \"#utility.yul\":9143:9210   */\n  tag_146\n    /* \"#utility.yul\":9203:9209   */\n  dup6\n    /* \"#utility.yul\":9196:9201   */\n  dup3\n    /* \"#utility.yul\":9143:9210   */\n  tag_44\n  jump\t// in\ntag_146:\n    /* \"#utility.yul\":9137:9141   */\n  dup7\n    /* \"#utility.yul\":9130:9211   */\n  sstore\n    /* \"#utility.yul\":8999:9221   */\n  pop\n    /* \"#utility.yul\":8334:9221   */\n  jump(tag_143)\n    /* \"#utility.yul\":8364:8982   */\ntag_144:\n    /* \"#utility.yul\":8416:8420   */\n  0x1f\n    /* \"#utility.yul\":8412:8421   */\n  not\n    /* \"#utility.yul\":8404:8410   */\n  dup5\n    /* \"#utility.yul\":8400:8422   */\n  and\n    /* \"#utility.yul\":8450:8487   */\n  tag_147\n    /* \"#utility.yul\":8482:8486   */\n  dup7\n    /* \"#utility.yul\":8450:8487   */\n  tag_30\n  jump\t// in\ntag_147:\n    /* \"#utility.yul\":8509:8510   */\n  0x00\n    /* \"#utility.yul\":8523:8731   */\ntag_148:\n    /* \"#utility.yul\":8537:8544   */\n  dup3\n    /* \"#utility.yul\":8534:8535   */\n  dup2\n    /* \"#utility.yul\":8531:8545   */\n  lt\n    /* \"#utility.yul\":8523:8731   */\n  iszero\n  tag_150\n  jumpi\n    /* \"#utility.yul\":8616:8625   */\n  dup5\n    /* \"#utility.yul\":8611:8614   */\n  dup10\n    /* \"#utility.yul\":8607:8626   */\n  add\n    /* \"#utility.yul\":8601:8627   */\n  mload\n    /* \"#utility.yul\":8593:8599   */\n  dup3\n    /* \"#utility.yul\":8586:8628   */\n  sstore\n    /* \"#utility.yul\":8667:8668   */\n  0x01\n    /* \"#utility.yul\":8659:8665   */\n  dup3\n    /* \"#utility.yul\":8655:8669   */\n  add\n    /* \"#utility.yul\":8645:8669   */\n  swap2\n  pop\n    /* \"#utility.yul\":8714:8716   */\n  0x20\n    /* \"#utility.yul\":8703:8712   */\n  dup6\n    /* \"#utility.yul\":8699:8717   */\n  add\n    /* \"#utility.yul\":8686:8717   */\n  swap5\n  pop\n    /* \"#utility.yul\":8560:8564   */\n  0x20\n    /* \"#utility.yul\":8557:8558   */\n  dup2\n    /* \"#utility.yul\":8553:8565   */\n  add\n    /* \"#utility.yul\":8548:8565   */\n  swap1\n  pop\n    /* \"#utility.yul\":8523:8731   */\n  jump(tag_148)\ntag_150:\n    /* \"#utility.yul\":8759:8765   */\n  dup7\n    /* \"#utility.yul\":8750:8757   */\n  dup4\n    /* \"#utility.yul\":8747:8766   */\n  lt\n    /* \"#utility.yul\":8744:8923   */\n  iszero\n  tag_151\n  jumpi\n    /* \"#utility.yul\":8817:8826   */\n  dup5\n    /* \"#utility.yul\":8812:8815   */\n  dup10\n    /* \"#utility.yul\":8808:8827   */\n  add\n    /* \"#utility.yul\":8802:8828   */\n  mload\n    /* \"#utility.yul\":8860:8908   */\n  tag_152\n    /* \"#utility.yul\":8902:8906   */\n  0x1f\n    /* \"#utility.yul\":8894:8900   */\n  dup10\n    /* \"#utility.yul\":8890:8907   */\n  and\n    /* \"#utility.yul\":8879:8888   */\n  dup3\n    /* \"#utility.yul\":8860:8908   */\n  tag_43\n  jump\t// in\ntag_152:\n    /* \"#utility.yul\":8852:8858   */\n  dup4\n    /* \"#utility.yul\":8845:8909   */\n  sstore\n    /* \"#utility.yul\":8767:8923   */\n  pop\n    /* \"#utility.yul\":8744:8923   */\ntag_151:\n    /* \"#utility.yul\":8969:8970   */\n  0x01\n    /* \"#utility.yul\":8965:8966   */\n  0x02\n    /* \"#utility.yul\":8957:8963   */\n  dup9\n    /* \"#utility.yul\":8953:8967   */\n  mul\n    /* \"#utility.yul\":8949:8971   */\n  add\n    /* \"#utility.yul\":8943:8947   */\n  dup9\n    /* \"#utility.yul\":8936:8972   */\n  sstore\n    /* \"#utility.yul\":8371:8982   */\n  pop\n  pop\n  pop\n    /* \"#utility.yul\":8334:9221   */\ntag_143:\n  pop\n    /* \"#utility.yul\":7924:9227   */\n  pop\n  pop\n  pop\n    /* \"#utility.yul\":7832:9227   */\n  pop\n  pop\n  jump\t// out\n    /* \"day6/d6p1.sol\":88:1046  contract Employee {... */\ntag_10:\n  dataSize(sub_0)\n  dup1\n  dataOffset(sub_0)\n  0x00\n  codecopy\n  0x00\n  return\nstop\n\nsub_0: assembly {\n        /* \"day6/d6p1.sol\":88:1046  contract Employee {... */\n      mstore(0x40, 0x80)\n      callvalue\n      dup1\n      iszero\n      tag_1\n      jumpi\n      0x00\n      dup1\n      revert\n    tag_1:\n      pop\n      jumpi(tag_2, lt(calldatasize, 0x04))\n      shr(0xe0, calldataload(0x00))\n      dup1\n      0x402e7f4b\n      gt\n      tag_10\n      jumpi\n      dup1\n      0x402e7f4b\n      eq\n      tag_6\n      jumpi\n      dup1\n      0x516f279e\n      eq\n      tag_7\n      jumpi\n      dup1\n      0x97c16e78\n      eq\n      tag_8\n      jumpi\n      dup1\n      0xa4e7d437\n      eq\n      tag_9\n      jumpi\n      jump(tag_2)\n    tag_10:\n      dup1\n      0x0397b652\n      eq\n      tag_3\n      jumpi\n      dup1\n      0x06fdde03\n      eq\n      tag_4\n      jumpi\n      dup1\n      0x3ff4b938\n      eq\n      tag_5\n      jumpi\n    tag_2:\n      0x00\n      dup1\n      revert\n        /* \"day6/d6p1.sol\":192:213  uint256 public salary */\n    tag_3:\n      tag_11\n      tag_12\n      jump\t// in\n    tag_11:\n      mload(0x40)\n      tag_13\n      swap2\n      swap1\n      tag_14\n      jump\t// in\n    tag_13:\n      mload(0x40)\n      dup1\n      swap2\n      sub\n      swap1\n      return\n        /* \"day6/d6p1.sol\":137:155  string public name */\n    tag_4:\n      tag_15\n      tag_16\n      jump\t// in\n    tag_15:\n      mload(0x40)\n      tag_17\n      swap2\n      swap1\n      tag_18\n      jump\t// in\n    tag_17:\n      mload(0x40)\n      dup1\n      swap2\n      sub\n      swap1\n      return\n        /* \"day6/d6p1.sol\":220:242  string public jobTitle */\n    tag_5:\n      tag_19\n      tag_20\n      jump\t// in\n    tag_19:\n      mload(0x40)\n      tag_21\n      swap2\n      swap1\n      tag_18\n      jump\t// in\n    tag_21:\n      mload(0x40)\n      dup1\n      swap2\n      sub\n      swap1\n      return\n        /* \"day6/d6p1.sol\":770:904  function performanceReport() public view virtual returns (string memory) {... */\n    tag_6:\n      tag_22\n      tag_23\n      jump\t// in\n    tag_22:\n      mload(0x40)\n      tag_24\n      swap2\n      swap1\n      tag_18\n      jump\t// in\n    tag_24:\n      mload(0x40)\n      dup1\n      swap2\n      sub\n      swap1\n      return\n        /* \"day6/d6p1.sol\":162:184  string public location */\n    tag_7:\n      tag_25\n      tag_26\n      jump\t// in\n    tag_25:\n      mload(0x40)\n      tag_27\n      swap2\n      swap1\n      tag_18\n      jump\t// in\n    tag_27:\n      mload(0x40)\n      dup1\n      swap2\n      sub\n      swap1\n      return\n        /* \"day6/d6p1.sol\":912:1043  function manageProjects() public view virtual returns (string memory) {... */\n    tag_8:\n      tag_28\n      tag_29\n      jump\t// in\n    tag_28:\n      mload(0x40)\n      tag_30\n      swap2\n      swap1\n      tag_18\n      jump\t// in\n    tag_30:\n      mload(0x40)\n      dup1\n      swap2\n      sub\n      swap1\n      return\n        /* \"day6/d6p1.sol\":634:762  function calculateBonus() public view virtual returns (uint256) {... */\n    tag_9:\n      tag_31\n      tag_32\n      jump\t// in\n    tag_31:\n      mload(0x40)\n      tag_33\n      swap2\n      swap1\n      tag_14\n      jump\t// in\n    tag_33:\n      mload(0x40)\n      dup1\n      swap2\n      sub\n      swap1\n      return\n        /* \"day6/d6p1.sol\":192:213  uint256 public salary */\n    tag_12:\n      sload(0x02)\n      dup2\n      jump\t// out\n        /* \"day6/d6p1.sol\":137:155  string public name */\n    tag_16:\n      0x00\n      dup1\n      sload\n      tag_34\n      swap1\n      tag_35\n      jump\t// in\n    tag_34:\n      dup1\n      0x1f\n      add\n      0x20\n      dup1\n      swap2\n      div\n      mul\n      0x20\n      add\n      mload(0x40)\n      swap1\n      dup2\n      add\n      0x40\n      mstore\n      dup1\n      swap3\n      swap2\n      swap1\n      dup2\n      dup2\n      mstore\n      0x20\n      add\n      dup3\n      dup1\n      sload\n      tag_36\n      swap1\n      tag_35\n      jump\t// in\n    tag_36:\n      dup1\n      iszero\n      tag_37\n      jumpi\n      dup1\n      0x1f\n      lt\n      tag_38\n      jumpi\n      0x0100\n      dup1\n      dup4\n      sload\n      div\n      mul\n      dup4\n      mstore\n      swap2\n      0x20\n      add\n      swap2\n      jump(tag_37)\n    tag_38:\n      dup3\n      add\n      swap2\n      swap1\n      0x00\n      mstore\n      keccak256(0x00, 0x20)\n      swap1\n    tag_39:\n      dup2\n      sload\n      dup2\n      mstore\n      swap1\n      0x01\n      add\n      swap1\n      0x20\n      add\n      dup1\n      dup4\n      gt\n      tag_39\n      jumpi\n      dup3\n      swap1\n      sub\n      0x1f\n      and\n      dup3\n      add\n      swap2\n    tag_37:\n      pop\n      pop\n      pop\n      pop\n      pop\n      dup2\n      jump\t// out\n        /* \"day6/d6p1.sol\":220:242  string public jobTitle */\n    tag_20:\n      0x03\n      dup1\n      sload\n      tag_40\n      swap1\n      tag_35\n      jump\t// in\n    tag_40:\n      dup1\n      0x1f\n      add\n      0x20\n      dup1\n      swap2\n      div\n      mul\n      0x20\n      add\n      mload(0x40)\n      swap1\n      dup2\n      add\n      0x40\n      mstore\n      dup1\n      swap3\n      swap2\n      swap1\n      dup2\n      dup2\n      mstore\n      0x20\n      add\n      dup3\n      dup1\n      sload\n      tag_41\n      swap1\n      tag_35\n      jump\t// in\n    tag_41:\n      dup1\n      iszero\n      tag_42\n      jumpi\n      dup1\n      0x1f\n      lt\n      tag_43\n      jumpi\n      0x0100\n      dup1\n      dup4\n      sload\n      div\n      mul\n      dup4\n      mstore\n      swap2\n      0x20\n      add\n      swap2\n      jump(tag_42)\n    tag_43:\n      dup3\n      add\n      swap2\n      swap1\n      0x00\n      mstore\n      keccak256(0x00, 0x20)\n      swap1\n    tag_44:\n      dup2\n      sload\n      dup2\n      mstore\n      swap1\n      0x01\n      add\n      swap1\n      0x20\n      add\n      dup1\n      dup4\n      gt\n      tag_44\n      jumpi\n      dup3\n      swap1\n      sub\n      0x1f\n      and\n      dup3\n      add\n      swap2\n    tag_42:\n      pop\n      pop\n      pop\n      pop\n      pop\n      dup2\n      jump\t// out\n        /* \"day6/d6p1.sol\":770:904  function performanceReport() public view virtual returns (string memory) {... */\n    tag_23:\n        /* \"day6/d6p1.sol\":828:841  string memory */\n      0x60\n        /* \"day6/d6p1.sol\":854:896  return \"Performance report not available.\" */\n      mload(0x40)\n      dup1\n      0x60\n      add\n      0x40\n      mstore\n      dup1\n      0x21\n      dup2\n      mstore\n      0x20\n      add\n      data_5ced4e2e497a020cb82d8977e146723174f3d30d687974d716881db9c28ff244\n      0x21\n      swap2\n      codecopy\n      swap1\n      pop\n        /* \"day6/d6p1.sol\":770:904  function performanceReport() public view virtual returns (string memory) {... */\n      swap1\n      jump\t// out\n        /* \"day6/d6p1.sol\":162:184  string public location */\n    tag_26:\n      0x01\n      dup1\n      sload\n      tag_46\n      swap1\n      tag_35\n      jump\t// in\n    tag_46:\n      dup1\n      0x1f\n      add\n      0x20\n      dup1\n      swap2\n      div\n      mul\n      0x20\n      add\n      mload(0x40)\n      swap1\n      dup2\n      add\n      0x40\n      mstore\n      dup1\n      swap3\n      swap2\n      swap1\n      dup2\n      dup2\n      mstore\n      0x20\n      add\n      dup3\n      dup1\n      sload\n      tag_47\n      swap1\n      tag_35\n      jump\t// in\n    tag_47:\n      dup1\n      iszero\n      tag_48\n      jumpi\n      dup1\n      0x1f\n      lt\n      tag_49\n      jumpi\n      0x0100\n      dup1\n      dup4\n      sload\n      div\n      mul\n      dup4\n      mstore\n      swap2\n      0x20\n      add\n      swap2\n      jump(tag_48)\n    tag_49:\n      dup3\n      add\n      swap2\n      swap1\n      0x00\n      mstore\n      keccak256(0x00, 0x20)\n      swap1\n    tag_50:\n      dup2\n      sload\n      dup2\n      mstore\n      swap1\n      0x01\n      add\n      swap1\n      0x20\n      add\n      dup1\n      dup4\n      gt\n      tag_50\n      jumpi\n      dup3\n      swap1\n      sub\n      0x1f\n      and\n      dup3\n      add\n      swap2\n    tag_48:\n      pop\n      pop\n      pop\n      pop\n      pop\n      dup2\n      jump\t// out\n        /* \"day6/d6p1.sol\":912:1043  function manageProjects() public view virtual returns (string memory) {... */\n    tag_29:\n        /* \"day6/d6p1.sol\":967:980  string memory */\n      0x60\n        /* \"day6/d6p1.sol\":993:1035  return \"Project management not available.\" */\n      mload(0x40)\n      dup1\n      0x60\n      add\n      0x40\n      mstore\n      dup1\n      0x21\n      dup2\n      mstore\n      0x20\n      add\n      data_134d4b327a36ad2a091fa7ecd3d3286bb96d20486adf4401feab8553c0069984\n      0x21\n      swap2\n      codecopy\n      swap1\n      pop\n        /* \"day6/d6p1.sol\":912:1043  function manageProjects() public view virtual returns (string memory) {... */\n      swap1\n      jump\t// out\n        /* \"day6/d6p1.sol\":634:762  function calculateBonus() public view virtual returns (uint256) {... */\n    tag_32:\n        /* \"day6/d6p1.sol\":689:696  uint256 */\n      0x00\n        /* \"day6/d6p1.sol\":634:762  function calculateBonus() public view virtual returns (uint256) {... */\n      swap1\n      jump\t// out\n        /* \"#utility.yul\":7:84   */\n    tag_53:\n        /* \"#utility.yul\":44:51   */\n      0x00\n        /* \"#utility.yul\":73:78   */\n      dup2\n        /* \"#utility.yul\":62:78   */\n      swap1\n      pop\n        /* \"#utility.yul\":7:84   */\n      swap2\n      swap1\n      pop\n      jump\t// out\n        /* \"#utility.yul\":90:208   */\n    tag_54:\n        /* \"#utility.yul\":177:201   */\n      tag_64\n        /* \"#utility.yul\":195:200   */\n      dup2\n        /* \"#utility.yul\":177:201   */\n      tag_53\n      jump\t// in\n    tag_64:\n        /* \"#utility.yul\":172:175   */\n      dup3\n        /* \"#utility.yul\":165:202   */\n      mstore\n        /* \"#utility.yul\":90:208   */\n      pop\n      pop\n      jump\t// out\n        /* \"#utility.yul\":214:436   */\n    tag_14:\n        /* \"#utility.yul\":307:311   */\n      0x00\n        /* \"#utility.yul\":345:347   */\n      0x20\n        /* \"#utility.yul\":334:343   */\n      dup3\n        /* \"#utility.yul\":330:348   */\n      add\n        /* \"#utility.yul\":322:348   */\n      swap1\n      pop\n        /* \"#utility.yul\":358:429   */\n      tag_66\n        /* \"#utility.yul\":426:427   */\n      0x00\n        /* \"#utility.yul\":415:424   */\n      dup4\n        /* \"#utility.yul\":411:428   */\n      add\n        /* \"#utility.yul\":402:408   */\n      dup5\n        /* \"#utility.yul\":358:429   */\n      tag_54\n      jump\t// in\n    tag_66:\n        /* \"#utility.yul\":214:436   */\n      swap3\n      swap2\n      pop\n      pop\n      jump\t// out\n        /* \"#utility.yul\":442:541   */\n    tag_55:\n        /* \"#utility.yul\":494:500   */\n      0x00\n        /* \"#utility.yul\":528:533   */\n      dup2\n        /* \"#utility.yul\":522:534   */\n      mload\n        /* \"#utility.yul\":512:534   */\n      swap1\n      pop\n        /* \"#utility.yul\":442:541   */\n      swap2\n      swap1\n      pop\n      jump\t// out\n        /* \"#utility.yul\":547:716   */\n    tag_56:\n        /* \"#utility.yul\":631:642   */\n      0x00\n        /* \"#utility.yul\":665:671   */\n      dup3\n        /* \"#utility.yul\":660:663   */\n      dup3\n        /* \"#utility.yul\":653:672   */\n      mstore\n        /* \"#utility.yul\":705:709   */\n      0x20\n        /* \"#utility.yul\":700:703   */\n      dup3\n        /* \"#utility.yul\":696:710   */\n      add\n        /* \"#utility.yul\":681:710   */\n      swap1\n      pop\n        /* \"#utility.yul\":547:716   */\n      swap3\n      swap2\n      pop\n      pop\n      jump\t// out\n        /* \"#utility.yul\":722:861   */\n    tag_57:\n        /* \"#utility.yul\":811:817   */\n      dup3\n        /* \"#utility.yul\":806:809   */\n      dup2\n        /* \"#utility.yul\":801:804   */\n      dup4\n        /* \"#utility.yul\":795:818   */\n      mcopy\n        /* \"#utility.yul\":852:853   */\n      0x00\n        /* \"#utility.yul\":843:849   */\n      dup4\n        /* \"#utility.yul\":838:841   */\n      dup4\n        /* \"#utility.yul\":834:850   */\n      add\n        /* \"#utility.yul\":827:854   */\n      mstore\n        /* \"#utility.yul\":722:861   */\n      pop\n      pop\n      pop\n      jump\t// out\n        /* \"#utility.yul\":867:969   */\n    tag_58:\n        /* \"#utility.yul\":908:914   */\n      0x00\n        /* \"#utility.yul\":959:961   */\n      0x1f\n        /* \"#utility.yul\":955:962   */\n      not\n        /* \"#utility.yul\":950:952   */\n      0x1f\n        /* \"#utility.yul\":943:948   */\n      dup4\n        /* \"#utility.yul\":939:953   */\n      add\n        /* \"#utility.yul\":935:963   */\n      and\n        /* \"#utility.yul\":925:963   */\n      swap1\n      pop\n        /* \"#utility.yul\":867:969   */\n      swap2\n      swap1\n      pop\n      jump\t// out\n        /* \"#utility.yul\":975:1352   */\n    tag_59:\n        /* \"#utility.yul\":1063:1066   */\n      0x00\n        /* \"#utility.yul\":1091:1130   */\n      tag_72\n        /* \"#utility.yul\":1124:1129   */\n      dup3\n        /* \"#utility.yul\":1091:1130   */\n      tag_55\n      jump\t// in\n    tag_72:\n        /* \"#utility.yul\":1146:1217   */\n      tag_73\n        /* \"#utility.yul\":1210:1216   */\n      dup2\n        /* \"#utility.yul\":1205:1208   */\n      dup6\n        /* \"#utility.yul\":1146:1217   */\n      tag_56\n      jump\t// in\n    tag_73:\n        /* \"#utility.yul\":1139:1217   */\n      swap4\n      pop\n        /* \"#utility.yul\":1226:1291   */\n      tag_74\n        /* \"#utility.yul\":1284:1290   */\n      dup2\n        /* \"#utility.yul\":1279:1282   */\n      dup6\n        /* \"#utility.yul\":1272:1276   */\n      0x20\n        /* \"#utility.yul\":1265:1270   */\n      dup7\n        /* \"#utility.yul\":1261:1277   */\n      add\n        /* \"#utility.yul\":1226:1291   */\n      tag_57\n      jump\t// in\n    tag_74:\n        /* \"#utility.yul\":1316:1345   */\n      tag_75\n        /* \"#utility.yul\":1338:1344   */\n      dup2\n        /* \"#utility.yul\":1316:1345   */\n      tag_58\n      jump\t// in\n    tag_75:\n        /* \"#utility.yul\":1311:1314   */\n      dup5\n        /* \"#utility.yul\":1307:1346   */\n      add\n        /* \"#utility.yul\":1300:1346   */\n      swap2\n      pop\n        /* \"#utility.yul\":1067:1352   */\n      pop\n        /* \"#utility.yul\":975:1352   */\n      swap3\n      swap2\n      pop\n      pop\n      jump\t// out\n        /* \"#utility.yul\":1358:1671   */\n    tag_18:\n        /* \"#utility.yul\":1471:1475   */\n      0x00\n        /* \"#utility.yul\":1509:1511   */\n      0x20\n        /* \"#utility.yul\":1498:1507   */\n      dup3\n        /* \"#utility.yul\":1494:1512   */\n      add\n        /* \"#utility.yul\":1486:1512   */\n      swap1\n      pop\n        /* \"#utility.yul\":1558:1567   */\n      dup2\n        /* \"#utility.yul\":1552:1556   */\n      dup2\n        /* \"#utility.yul\":1548:1568   */\n      sub\n        /* \"#utility.yul\":1544:1545   */\n      0x00\n        /* \"#utility.yul\":1533:1542   */\n      dup4\n        /* \"#utility.yul\":1529:1546   */\n      add\n        /* \"#utility.yul\":1522:1569   */\n      mstore\n        /* \"#utility.yul\":1586:1664   */\n      tag_77\n        /* \"#utility.yul\":1659:1663   */\n      dup2\n        /* \"#utility.yul\":1650:1656   */\n      dup5\n        /* \"#utility.yul\":1586:1664   */\n      tag_59\n      jump\t// in\n    tag_77:\n        /* \"#utility.yul\":1578:1664   */\n      swap1\n      pop\n        /* \"#utility.yul\":1358:1671   */\n      swap3\n      swap2\n      pop\n      pop\n      jump\t// out\n        /* \"#utility.yul\":1677:1857   */\n    tag_60:\n        /* \"#utility.yul\":1725:1802   */\n      0x4e487b7100000000000000000000000000000000000000000000000000000000\n        /* \"#utility.yul\":1722:1723   */\n      0x00\n        /* \"#utility.yul\":1715:1803   */\n      mstore\n        /* \"#utility.yul\":1822:1826   */\n      0x22\n        /* \"#utility.yul\":1819:1820   */\n      0x04\n        /* \"#utility.yul\":1812:1827   */\n      mstore\n        /* \"#utility.yul\":1846:1850   */\n      0x24\n        /* \"#utility.yul\":1843:1844   */\n      0x00\n        /* \"#utility.yul\":1836:1851   */\n      revert\n        /* \"#utility.yul\":1863:2183   */\n    tag_35:\n        /* \"#utility.yul\":1907:1913   */\n      0x00\n        /* \"#utility.yul\":1944:1945   */\n      0x02\n        /* \"#utility.yul\":1938:1942   */\n      dup3\n        /* \"#utility.yul\":1934:1946   */\n      div\n        /* \"#utility.yul\":1924:1946   */\n      swap1\n      pop\n        /* \"#utility.yul\":1991:1992   */\n      0x01\n        /* \"#utility.yul\":1985:1989   */\n      dup3\n        /* \"#utility.yul\":1981:1993   */\n      and\n        /* \"#utility.yul\":2012:2030   */\n      dup1\n        /* \"#utility.yul\":2002:2083   */\n      tag_80\n      jumpi\n        /* \"#utility.yul\":2068:2072   */\n      0x7f\n        /* \"#utility.yul\":2060:2066   */\n      dup3\n        /* \"#utility.yul\":2056:2073   */\n      and\n        /* \"#utility.yul\":2046:2073   */\n      swap2\n      pop\n        /* \"#utility.yul\":2002:2083   */\n    tag_80:\n        /* \"#utility.yul\":2130:2132   */\n      0x20\n        /* \"#utility.yul\":2122:2128   */\n      dup3\n        /* \"#utility.yul\":2119:2133   */\n      lt\n        /* \"#utility.yul\":2099:2117   */\n      dup2\n        /* \"#utility.yul\":2096:2134   */\n      sub\n        /* \"#utility.yul\":2093:2177   */\n      tag_81\n      jumpi\n        /* \"#utility.yul\":2149:2167   */\n      tag_82\n      tag_60\n      jump\t// in\n    tag_82:\n        /* \"#utility.yul\":2093:2177   */\n    tag_81:\n        /* \"#utility.yul\":1914:2183   */\n      pop\n        /* \"#utility.yul\":1863:2183   */\n      swap2\n      swap1\n      pop\n      jump\t// out\n    stop\n    data_134d4b327a36ad2a091fa7ecd3d3286bb96d20486adf4401feab8553c0069984 50726f6a656374206d616e6167656d656e74206e6f7420617661696c61626c652e\n    data_5ced4e2e497a020cb82d8977e146723174f3d30d687974d716881db9c28ff244 506572666f726d616e6365207265706f7274206e6f7420617661696c61626c652e\n\n    auxdata: 0xa264697066735822122089aaddd10b1b411bb30146dc035e8112aefc4c39927751c5eb5a769fd02e1a9564736f6c634300081a0033\n}\n",
				"bytecode": {
					"linkReferences": {},
					"object": "608060405234801561000f575f80fd5b50604051610a5c380380610a5c833981810160405281019061003191906101f0565b835f908161003f91906104ac565b50826001908161004f91906104ac565b5081600281905550806003908161006691906104ac565b505050505061057b565b5f604051905090565b5f80fd5b5f80fd5b5f80fd5b5f80fd5b5f601f19601f8301169050919050565b7f4e487b71000000000000000000000000000000000000000000000000000000005f52604160045260245ffd5b6100cf82610089565b810181811067ffffffffffffffff821117156100ee576100ed610099565b5b80604052505050565b5f610100610070565b905061010c82826100c6565b919050565b5f67ffffffffffffffff82111561012b5761012a610099565b5b61013482610089565b9050602081019050919050565b8281835e5f83830152505050565b5f61016161015c84610111565b6100f7565b90508281526020810184848401111561017d5761017c610085565b5b610188848285610141565b509392505050565b5f82601f8301126101a4576101a3610081565b5b81516101b484826020860161014f565b91505092915050565b5f819050919050565b6101cf816101bd565b81146101d9575f80fd5b50565b5f815190506101ea816101c6565b92915050565b5f805f806080858703121561020857610207610079565b5b5f85015167ffffffffffffffff8111156102255761022461007d565b5b61023187828801610190565b945050602085015167ffffffffffffffff8111156102525761025161007d565b5b61025e87828801610190565b935050604061026f878288016101dc565b925050606085015167ffffffffffffffff8111156102905761028f61007d565b5b61029c87828801610190565b91505092959194509250565b5f81519050919050565b7f4e487b71000000000000000000000000000000000000000000000000000000005f52602260045260245ffd5b5f60028204905060018216806102f657607f821691505b602082108103610309576103086102b2565b5b50919050565b5f819050815f5260205f209050919050565b5f6020601f8301049050919050565b5f82821b905092915050565b5f6008830261036b7fffffffffffffffffffffffffffffffffffffffffffffffffffffffffffffffff82610330565b6103758683610330565b95508019841693508086168417925050509392505050565b5f819050919050565b5f6103b06103ab6103a6846101bd565b61038d565b6101bd565b9050919050565b5f819050919050565b6103c983610396565b6103dd6103d5826103b7565b84845461033c565b825550505050565b5f90565b6103f16103e5565b6103fc8184846103c0565b505050565b5b8181101561041f576104145f826103e9565b600181019050610402565b5050565b601f821115610464576104358161030f565b61043e84610321565b8101602085101561044d578190505b61046161045985610321565b830182610401565b50505b505050565b5f82821c905092915050565b5f6104845f1984600802610469565b1980831691505092915050565b5f61049c8383610475565b9150826002028217905092915050565b6104b5826102a8565b67ffffffffffffffff8111156104ce576104cd610099565b5b6104d882546102df565b6104e3828285610423565b5f60209050601f831160018114610514575f8415610502578287015190505b61050c8582610491565b865550610573565b601f1984166105228661030f565b5f5b8281101561054957848901518255600182019150602085019450602081019050610524565b868310156105665784890151610562601f891682610475565b8355505b6001600288020188555050505b505050505050565b6104d4806105885f395ff3fe608060405234801561000f575f80fd5b506004361061007b575f3560e01c8063402e7f4b11610059578063402e7f4b146100d9578063516f279e146100f757806397c16e7814610115578063a4e7d437146101335761007b565b80630397b6521461007f57806306fdde031461009d5780633ff4b938146100bb575b5f80fd5b610087610151565b6040516100949190610356565b60405180910390f35b6100a5610157565b6040516100b291906103df565b60405180910390f35b6100c36101e2565b6040516100d091906103df565b60405180910390f35b6100e161026e565b6040516100ee91906103df565b60405180910390f35b6100ff61028e565b60405161010c91906103df565b60405180910390f35b61011d61031a565b60405161012a91906103df565b60405180910390f35b61013b61033a565b6040516101489190610356565b60405180910390f35b60025481565b5f80546101639061042c565b80601f016020809104026020016040519081016040528092919081815260200182805461018f9061042c565b80156101da5780601f106101b1576101008083540402835291602001916101da565b820191905f5260205f20905b8154815290600101906020018083116101bd57829003601f168201915b505050505081565b600380546101ef9061042c565b80601f016020809104026020016040519081016040528092919081815260200182805461021b9061042c565b80156102665780601f1061023d57610100808354040283529160200191610266565b820191905f5260205f20905b81548152906001019060200180831161024957829003601f168201915b505050505081565b606060405180606001604052806021815260200161047e60219139905090565b6001805461029b9061042c565b80601f01602080910402602001604051908101604052809291908181526020018280546102c79061042c565b80156103125780601f106102e957610100808354040283529160200191610312565b820191905f5260205f20905b8154815290600101906020018083116102f557829003601f168201915b505050505081565b606060405180606001604052806021815260200161045d60219139905090565b5f90565b5f819050919050565b6103508161033e565b82525050565b5f6020820190506103695f830184610347565b92915050565b5f81519050919050565b5f82825260208201905092915050565b8281835e5f83830152505050565b5f601f19601f8301169050919050565b5f6103b18261036f565b6103bb8185610379565b93506103cb818560208601610389565b6103d481610397565b840191505092915050565b5f6020820190508181035f8301526103f781846103a7565b905092915050565b7f4e487b71000000000000000000000000000000000000000000000000000000005f52602260045260245ffd5b5f600282049050600182168061044357607f821691505b602082108103610456576104556103ff565b5b5091905056fe50726f6a656374206d616e6167656d656e74206e6f7420617661696c61626c652e506572666f726d616e6365207265706f7274206e6f7420617661696c61626c652ea264697066735822122089aaddd10b1b411bb30146dc035e8112aefc4c39927751c5eb5a769fd02e1a9564736f6c634300081a0033",
					"opcodes": "PUSH1 0x80 PUSH1 0x40 MSTORE CALLVALUE DUP1 ISZERO PUSH2 0xF JUMPI PUSH0 DUP1 REVERT JUMPDEST POP PUSH1 0x40 MLOAD PUSH2 0xA5C CODESIZE SUB DUP1 PUSH2 0xA5C DUP4 CODECOPY DUP2 DUP2 ADD PUSH1 0x40 MSTORE DUP2 ADD SWAP1 PUSH2 0x31 SWAP2 SWAP1 PUSH2 0x1F0 JUMP JUMPDEST DUP4 PUSH0 SWAP1 DUP2 PUSH2 0x3F SWAP2 SWAP1 PUSH2 0x4AC JUMP JUMPDEST POP DUP3 PUSH1 0x1 SWAP1 DUP2 PUSH2 0x4F SWAP2 SWAP1 PUSH2 0x4AC JUMP JUMPDEST POP DUP2 PUSH1 0x2 DUP2 SWAP1 SSTORE POP DUP1 PUSH1 0x3 SWAP1 DUP2 PUSH2 0x66 SWAP2 SWAP1 PUSH2 0x4AC JUMP JUMPDEST POP POP POP POP POP PUSH2 0x57B JUMP JUMPDEST PUSH0 PUSH1 0x40 MLOAD SWAP1 POP SWAP1 JUMP JUMPDEST PUSH0 DUP1 REVERT JUMPDEST PUSH0 DUP1 REVERT JUMPDEST PUSH0 DUP1 REVERT JUMPDEST PUSH0 DUP1 REVERT JUMPDEST PUSH0 PUSH1 0x1F NOT PUSH1 0x1F DUP4 ADD AND SWAP1 POP SWAP2 SWAP1 POP JUMP JUMPDEST PUSH32 0x4E487B7100000000000000000000000000000000000000000000000000000000 PUSH0 MSTORE PUSH1 0x41 PUSH1 0x4 MSTORE PUSH1 0x24 PUSH0 REVERT JUMPDEST PUSH2 0xCF DUP3 PUSH2 0x89 JUMP JUMPDEST DUP2 ADD DUP2 DUP2 LT PUSH8 0xFFFFFFFFFFFFFFFF DUP3 GT OR ISZERO PUSH2 0xEE JUMPI PUSH2 0xED PUSH2 0x99 JUMP JUMPDEST JUMPDEST DUP1 PUSH1 0x40 MSTORE POP POP POP JUMP JUMPDEST PUSH0 PUSH2 0x100 PUSH2 0x70 JUMP JUMPDEST SWAP1 POP PUSH2 0x10C DUP3 DUP3 PUSH2 0xC6 JUMP JUMPDEST SWAP2 SWAP1 POP JUMP JUMPDEST PUSH0 PUSH8 0xFFFFFFFFFFFFFFFF DUP3 GT ISZERO PUSH2 0x12B JUMPI PUSH2 0x12A PUSH2 0x99 JUMP JUMPDEST JUMPDEST PUSH2 0x134 DUP3 PUSH2 0x89 JUMP JUMPDEST SWAP1 POP PUSH1 0x20 DUP2 ADD SWAP1 POP SWAP2 SWAP1 POP JUMP JUMPDEST DUP3 DUP2 DUP4 MCOPY PUSH0 DUP4 DUP4 ADD MSTORE POP POP POP JUMP JUMPDEST PUSH0 PUSH2 0x161 PUSH2 0x15C DUP5 PUSH2 0x111 JUMP JUMPDEST PUSH2 0xF7 JUMP JUMPDEST SWAP1 POP DUP3 DUP2 MSTORE PUSH1 0x20 DUP2 ADD DUP5 DUP5 DUP5 ADD GT ISZERO PUSH2 0x17D JUMPI PUSH2 0x17C PUSH2 0x85 JUMP JUMPDEST JUMPDEST PUSH2 0x188 DUP5 DUP3 DUP6 PUSH2 0x141 JUMP JUMPDEST POP SWAP4 SWAP3 POP POP POP JUMP JUMPDEST PUSH0 DUP3 PUSH1 0x1F DUP4 ADD SLT PUSH2 0x1A4 JUMPI PUSH2 0x1A3 PUSH2 0x81 JUMP JUMPDEST JUMPDEST DUP2 MLOAD PUSH2 0x1B4 DUP5 DUP3 PUSH1 0x20 DUP7 ADD PUSH2 0x14F JUMP JUMPDEST SWAP2 POP POP SWAP3 SWAP2 POP POP JUMP JUMPDEST PUSH0 DUP2 SWAP1 POP SWAP2 SWAP1 POP JUMP JUMPDEST PUSH2 0x1CF DUP2 PUSH2 0x1BD JUMP JUMPDEST DUP2 EQ PUSH2 0x1D9 JUMPI PUSH0 DUP1 REVERT JUMPDEST POP JUMP JUMPDEST PUSH0 DUP2 MLOAD SWAP1 POP PUSH2 0x1EA DUP2 PUSH2 0x1C6 JUMP JUMPDEST SWAP3 SWAP2 POP POP JUMP JUMPDEST PUSH0 DUP1 PUSH0 DUP1 PUSH1 0x80 DUP6 DUP8 SUB SLT ISZERO PUSH2 0x208 JUMPI PUSH2 0x207 PUSH2 0x79 JUMP JUMPDEST JUMPDEST PUSH0 DUP6 ADD MLOAD PUSH8 0xFFFFFFFFFFFFFFFF DUP2 GT ISZERO PUSH2 0x225 JUMPI PUSH2 0x224 PUSH2 0x7D JUMP JUMPDEST JUMPDEST PUSH2 0x231 DUP8 DUP3 DUP9 ADD PUSH2 0x190 JUMP JUMPDEST SWAP5 POP POP PUSH1 0x20 DUP6 ADD MLOAD PUSH8 0xFFFFFFFFFFFFFFFF DUP2 GT ISZERO PUSH2 0x252 JUMPI PUSH2 0x251 PUSH2 0x7D JUMP JUMPDEST JUMPDEST PUSH2 0x25E DUP8 DUP3 DUP9 ADD PUSH2 0x190 JUMP JUMPDEST SWAP4 POP POP PUSH1 0x40 PUSH2 0x26F DUP8 DUP3 DUP9 ADD PUSH2 0x1DC JUMP JUMPDEST SWAP3 POP POP PUSH1 0x60 DUP6 ADD MLOAD PUSH8 0xFFFFFFFFFFFFFFFF DUP2 GT ISZERO PUSH2 0x290 JUMPI PUSH2 0x28F PUSH2 0x7D JUMP JUMPDEST JUMPDEST PUSH2 0x29C DUP8 DUP3 DUP9 ADD PUSH2 0x190 JUMP JUMPDEST SWAP2 POP POP SWAP3 SWAP6 SWAP2 SWAP5 POP SWAP3 POP JUMP JUMPDEST PUSH0 DUP2 MLOAD SWAP1 POP SWAP2 SWAP1 POP JUMP JUMPDEST PUSH32 0x4E487B7100000000000000000000000000000000000000000000000000000000 PUSH0 MSTORE PUSH1 0x22 PUSH1 0x4 MSTORE PUSH1 0x24 PUSH0 REVERT JUMPDEST PUSH0 PUSH1 0x2 DUP3 DIV SWAP1 POP PUSH1 0x1 DUP3 AND DUP1 PUSH2 0x2F6 JUMPI PUSH1 0x7F DUP3 AND SWAP2 POP JUMPDEST PUSH1 0x20 DUP3 LT DUP2 SUB PUSH2 0x309 JUMPI PUSH2 0x308 PUSH2 0x2B2 JUMP JUMPDEST JUMPDEST POP SWAP2 SWAP1 POP JUMP JUMPDEST PUSH0 DUP2 SWAP1 POP DUP2 PUSH0 MSTORE PUSH1 0x20 PUSH0 KECCAK256 SWAP1 POP SWAP2 SWAP1 POP JUMP JUMPDEST PUSH0 PUSH1 0x20 PUSH1 0x1F DUP4 ADD DIV SWAP1 POP SWAP2 SWAP1 POP JUMP JUMPDEST PUSH0 DUP3 DUP3 SHL SWAP1 POP SWAP3 SWAP2 POP POP JUMP JUMPDEST PUSH0 PUSH1 0x8 DUP4 MUL PUSH2 0x36B PUSH32 0xFFFFFFFFFFFFFFFFFFFFFFFFFFFFFFFFFFFFFFFFFFFFFFFFFFFFFFFFFFFFFFFF DUP3 PUSH2 0x330 JUMP JUMPDEST PUSH2 0x375 DUP7 DUP4 PUSH2 0x330 JUMP JUMPDEST SWAP6 POP DUP1 NOT DUP5 AND SWAP4 POP DUP1 DUP7 AND DUP5 OR SWAP3 POP POP POP SWAP4 SWAP3 POP POP POP JUMP JUMPDEST PUSH0 DUP2 SWAP1 POP SWAP2 SWAP1 POP JUMP JUMPDEST PUSH0 PUSH2 0x3B0 PUSH2 0x3AB PUSH2 0x3A6 DUP5 PUSH2 0x1BD JUMP JUMPDEST PUSH2 0x38D JUMP JUMPDEST PUSH2 0x1BD JUMP JUMPDEST SWAP1 POP SWAP2 SWAP1 POP JUMP JUMPDEST PUSH0 DUP2 SWAP1 POP SWAP2 SWAP1 POP JUMP JUMPDEST PUSH2 0x3C9 DUP4 PUSH2 0x396 JUMP JUMPDEST PUSH2 0x3DD PUSH2 0x3D5 DUP3 PUSH2 0x3B7 JUMP JUMPDEST DUP5 DUP5 SLOAD PUSH2 0x33C JUMP JUMPDEST DUP3 SSTORE POP POP POP POP JUMP JUMPDEST PUSH0 SWAP1 JUMP JUMPDEST PUSH2 0x3F1 PUSH2 0x3E5 JUMP JUMPDEST PUSH2 0x3FC DUP2 DUP5 DUP5 PUSH2 0x3C0 JUMP JUMPDEST POP POP POP JUMP JUMPDEST JUMPDEST DUP2 DUP2 LT ISZERO PUSH2 0x41F JUMPI PUSH2 0x414 PUSH0 DUP3 PUSH2 0x3E9 JUMP JUMPDEST PUSH1 0x1 DUP2 ADD SWAP1 POP PUSH2 0x402 JUMP JUMPDEST POP POP JUMP JUMPDEST PUSH1 0x1F DUP3 GT ISZERO PUSH2 0x464 JUMPI PUSH2 0x435 DUP2 PUSH2 0x30F JUMP JUMPDEST PUSH2 0x43E DUP5 PUSH2 0x321 JUMP JUMPDEST DUP2 ADD PUSH1 0x20 DUP6 LT ISZERO PUSH2 0x44D JUMPI DUP2 SWAP1 POP JUMPDEST PUSH2 0x461 PUSH2 0x459 DUP6 PUSH2 0x321 JUMP JUMPDEST DUP4 ADD DUP3 PUSH2 0x401 JUMP JUMPDEST POP POP JUMPDEST POP POP POP JUMP JUMPDEST PUSH0 DUP3 DUP3 SHR SWAP1 POP SWAP3 SWAP2 POP POP JUMP JUMPDEST PUSH0 PUSH2 0x484 PUSH0 NOT DUP5 PUSH1 0x8 MUL PUSH2 0x469 JUMP JUMPDEST NOT DUP1 DUP4 AND SWAP2 POP POP SWAP3 SWAP2 POP POP JUMP JUMPDEST PUSH0 PUSH2 0x49C DUP4 DUP4 PUSH2 0x475 JUMP JUMPDEST SWAP2 POP DUP3 PUSH1 0x2 MUL DUP3 OR SWAP1 POP SWAP3 SWAP2 POP POP JUMP JUMPDEST PUSH2 0x4B5 DUP3 PUSH2 0x2A8 JUMP JUMPDEST PUSH8 0xFFFFFFFFFFFFFFFF DUP2 GT ISZERO PUSH2 0x4CE JUMPI PUSH2 0x4CD PUSH2 0x99 JUMP JUMPDEST JUMPDEST PUSH2 0x4D8 DUP3 SLOAD PUSH2 0x2DF JUMP JUMPDEST PUSH2 0x4E3 DUP3 DUP3 DUP6 PUSH2 0x423 JUMP JUMPDEST PUSH0 PUSH1 0x20 SWAP1 POP PUSH1 0x1F DUP4 GT PUSH1 0x1 DUP2 EQ PUSH2 0x514 JUMPI PUSH0 DUP5 ISZERO PUSH2 0x502 JUMPI DUP3 DUP8 ADD MLOAD SWAP1 POP JUMPDEST PUSH2 0x50C DUP6 DUP3 PUSH2 0x491 JUMP JUMPDEST DUP7 SSTORE POP PUSH2 0x573 JUMP JUMPDEST PUSH1 0x1F NOT DUP5 AND PUSH2 0x522 DUP7 PUSH2 0x30F JUMP JUMPDEST PUSH0 JUMPDEST DUP3 DUP2 LT ISZERO PUSH2 0x549 JUMPI DUP5 DUP10 ADD MLOAD DUP3 SSTORE PUSH1 0x1 DUP3 ADD SWAP2 POP PUSH1 0x20 DUP6 ADD SWAP5 POP PUSH1 0x20 DUP2 ADD SWAP1 POP PUSH2 0x524 JUMP JUMPDEST DUP7 DUP4 LT ISZERO PUSH2 0x566 JUMPI DUP5 DUP10 ADD MLOAD PUSH2 0x562 PUSH1 0x1F DUP10 AND DUP3 PUSH2 0x475 JUMP JUMPDEST DUP4 SSTORE POP JUMPDEST PUSH1 0x1 PUSH1 0x2 DUP9 MUL ADD DUP9 SSTORE POP POP POP JUMPDEST POP POP POP POP POP POP JUMP JUMPDEST PUSH2 0x4D4 DUP1 PUSH2 0x588 PUSH0 CODECOPY PUSH0 RETURN INVALID PUSH1 0x80 PUSH1 0x40 MSTORE CALLVALUE DUP1 ISZERO PUSH2 0xF JUMPI PUSH0 DUP1 REVERT JUMPDEST POP PUSH1 0x4 CALLDATASIZE LT PUSH2 0x7B JUMPI PUSH0 CALLDATALOAD PUSH1 0xE0 SHR DUP1 PUSH4 0x402E7F4B GT PUSH2 0x59 JUMPI DUP1 PUSH4 0x402E7F4B EQ PUSH2 0xD9 JUMPI DUP1 PUSH4 0x516F279E EQ PUSH2 0xF7 JUMPI DUP1 PUSH4 0x97C16E78 EQ PUSH2 0x115 JUMPI DUP1 PUSH4 0xA4E7D437 EQ PUSH2 0x133 JUMPI PUSH2 0x7B JUMP JUMPDEST DUP1 PUSH4 0x397B652 EQ PUSH2 0x7F JUMPI DUP1 PUSH4 0x6FDDE03 EQ PUSH2 0x9D JUMPI DUP1 PUSH4 0x3FF4B938 EQ PUSH2 0xBB JUMPI JUMPDEST PUSH0 DUP1 REVERT JUMPDEST PUSH2 0x87 PUSH2 0x151 JUMP JUMPDEST PUSH1 0x40 MLOAD PUSH2 0x94 SWAP2 SWAP1 PUSH2 0x356 JUMP JUMPDEST PUSH1 0x40 MLOAD DUP1 SWAP2 SUB SWAP1 RETURN JUMPDEST PUSH2 0xA5 PUSH2 0x157 JUMP JUMPDEST PUSH1 0x40 MLOAD PUSH2 0xB2 SWAP2 SWAP1 PUSH2 0x3DF JUMP JUMPDEST PUSH1 0x40 MLOAD DUP1 SWAP2 SUB SWAP1 RETURN JUMPDEST PUSH2 0xC3 PUSH2 0x1E2 JUMP JUMPDEST PUSH1 0x40 MLOAD PUSH2 0xD0 SWAP2 SWAP1 PUSH2 0x3DF JUMP JUMPDEST PUSH1 0x40 MLOAD DUP1 SWAP2 SUB SWAP1 RETURN JUMPDEST PUSH2 0xE1 PUSH2 0x26E JUMP JUMPDEST PUSH1 0x40 MLOAD PUSH2 0xEE SWAP2 SWAP1 PUSH2 0x3DF JUMP JUMPDEST PUSH1 0x40 MLOAD DUP1 SWAP2 SUB SWAP1 RETURN JUMPDEST PUSH2 0xFF PUSH2 0x28E JUMP JUMPDEST PUSH1 0x40 MLOAD PUSH2 0x10C SWAP2 SWAP1 PUSH2 0x3DF JUMP JUMPDEST PUSH1 0x40 MLOAD DUP1 SWAP2 SUB SWAP1 RETURN JUMPDEST PUSH2 0x11D PUSH2 0x31A JUMP JUMPDEST PUSH1 0x40 MLOAD PUSH2 0x12A SWAP2 SWAP1 PUSH2 0x3DF JUMP JUMPDEST PUSH1 0x40 MLOAD DUP1 SWAP2 SUB SWAP1 RETURN JUMPDEST PUSH2 0x13B PUSH2 0x33A JUMP JUMPDEST PUSH1 0x40 MLOAD PUSH2 0x148 SWAP2 SWAP1 PUSH2 0x356 JUMP JUMPDEST PUSH1 0x40 MLOAD DUP1 SWAP2 SUB SWAP1 RETURN JUMPDEST PUSH1 0x2 SLOAD DUP2 JUMP JUMPDEST PUSH0 DUP1 SLOAD PUSH2 0x163 SWAP1 PUSH2 0x42C JUMP JUMPDEST DUP1 PUSH1 0x1F ADD PUSH1 0x20 DUP1 SWAP2 DIV MUL PUSH1 0x20 ADD PUSH1 0x40 MLOAD SWAP1 DUP2 ADD PUSH1 0x40 MSTORE DUP1 SWAP3 SWAP2 SWAP1 DUP2 DUP2 MSTORE PUSH1 0x20 ADD DUP3 DUP1 SLOAD PUSH2 0x18F SWAP1 PUSH2 0x42C JUMP JUMPDEST DUP1 ISZERO PUSH2 0x1DA JUMPI DUP1 PUSH1 0x1F LT PUSH2 0x1B1 JUMPI PUSH2 0x100 DUP1 DUP4 SLOAD DIV MUL DUP4 MSTORE SWAP2 PUSH1 0x20 ADD SWAP2 PUSH2 0x1DA JUMP JUMPDEST DUP3 ADD SWAP2 SWAP1 PUSH0 MSTORE PUSH1 0x20 PUSH0 KECCAK256 SWAP1 JUMPDEST DUP2 SLOAD DUP2 MSTORE SWAP1 PUSH1 0x1 ADD SWAP1 PUSH1 0x20 ADD DUP1 DUP4 GT PUSH2 0x1BD JUMPI DUP3 SWAP1 SUB PUSH1 0x1F AND DUP3 ADD SWAP2 JUMPDEST POP POP POP POP POP DUP2 JUMP JUMPDEST PUSH1 0x3 DUP1 SLOAD PUSH2 0x1EF SWAP1 PUSH2 0x42C JUMP JUMPDEST DUP1 PUSH1 0x1F ADD PUSH1 0x20 DUP1 SWAP2 DIV MUL PUSH1 0x20 ADD PUSH1 0x40 MLOAD SWAP1 DUP2 ADD PUSH1 0x40 MSTORE DUP1 SWAP3 SWAP2 SWAP1 DUP2 DUP2 MSTORE PUSH1 0x20 ADD DUP3 DUP1 SLOAD PUSH2 0x21B SWAP1 PUSH2 0x42C JUMP JUMPDEST DUP1 ISZERO PUSH2 0x266 JUMPI DUP1 PUSH1 0x1F LT PUSH2 0x23D JUMPI PUSH2 0x100 DUP1 DUP4 SLOAD DIV MUL DUP4 MSTORE SWAP2 PUSH1 0x20 ADD SWAP2 PUSH2 0x266 JUMP JUMPDEST DUP3 ADD SWAP2 SWAP1 PUSH0 MSTORE PUSH1 0x20 PUSH0 KECCAK256 SWAP1 JUMPDEST DUP2 SLOAD DUP2 MSTORE SWAP1 PUSH1 0x1 ADD SWAP1 PUSH1 0x20 ADD DUP1 DUP4 GT PUSH2 0x249 JUMPI DUP3 SWAP1 SUB PUSH1 0x1F AND DUP3 ADD SWAP2 JUMPDEST POP POP POP POP POP DUP2 JUMP JUMPDEST PUSH1 0x60 PUSH1 0x40 MLOAD DUP1 PUSH1 0x60 ADD PUSH1 0x40 MSTORE DUP1 PUSH1 0x21 DUP2 MSTORE PUSH1 0x20 ADD PUSH2 0x47E PUSH1 0x21 SWAP2 CODECOPY SWAP1 POP SWAP1 JUMP JUMPDEST PUSH1 0x1 DUP1 SLOAD PUSH2 0x29B SWAP1 PUSH2 0x42C JUMP JUMPDEST DUP1 PUSH1 0x1F ADD PUSH1 0x20 DUP1 SWAP2 DIV MUL PUSH1 0x20 ADD PUSH1 0x40 MLOAD SWAP1 DUP2 ADD PUSH1 0x40 MSTORE DUP1 SWAP3 SWAP2 SWAP1 DUP2 DUP2 MSTORE PUSH1 0x20 ADD DUP3 DUP1 SLOAD PUSH2 0x2C7 SWAP1 PUSH2 0x42C JUMP JUMPDEST DUP1 ISZERO PUSH2 0x312 JUMPI DUP1 PUSH1 0x1F LT PUSH2 0x2E9 JUMPI PUSH2 0x100 DUP1 DUP4 SLOAD DIV MUL DUP4 MSTORE SWAP2 PUSH1 0x20 ADD SWAP2 PUSH2 0x312 JUMP JUMPDEST DUP3 ADD SWAP2 SWAP1 PUSH0 MSTORE PUSH1 0x20 PUSH0 KECCAK256 SWAP1 JUMPDEST DUP2 SLOAD DUP2 MSTORE SWAP1 PUSH1 0x1 ADD SWAP1 PUSH1 0x20 ADD DUP1 DUP4 GT PUSH2 0x2F5 JUMPI DUP3 SWAP1 SUB PUSH1 0x1F AND DUP3 ADD SWAP2 JUMPDEST POP POP POP POP POP DUP2 JUMP JUMPDEST PUSH1 0x60 PUSH1 0x40 MLOAD DUP1 PUSH1 0x60 ADD PUSH1 0x40 MSTORE DUP1 PUSH1 0x21 DUP2 MSTORE PUSH1 0x20 ADD PUSH2 0x45D PUSH1 0x21 SWAP2 CODECOPY SWAP1 POP SWAP1 JUMP JUMPDEST PUSH0 SWAP1 JUMP JUMPDEST PUSH0 DUP2 SWAP1 POP SWAP2 SWAP1 POP JUMP JUMPDEST PUSH2 0x350 DUP2 PUSH2 0x33E JUMP JUMPDEST DUP3 MSTORE POP POP JUMP JUMPDEST PUSH0 PUSH1 0x20 DUP3 ADD SWAP1 POP PUSH2 0x369 PUSH0 DUP4 ADD DUP5 PUSH2 0x347 JUMP JUMPDEST SWAP3 SWAP2 POP POP JUMP JUMPDEST PUSH0 DUP2 MLOAD SWAP1 POP SWAP2 SWAP1 POP JUMP JUMPDEST PUSH0 DUP3 DUP3 MSTORE PUSH1 0x20 DUP3 ADD SWAP1 POP SWAP3 SWAP2 POP POP JUMP JUMPDEST DUP3 DUP2 DUP4 MCOPY PUSH0 DUP4 DUP4 ADD MSTORE POP POP POP JUMP JUMPDEST PUSH0 PUSH1 0x1F NOT PUSH1 0x1F DUP4 ADD AND SWAP1 POP SWAP2 SWAP1 POP JUMP JUMPDEST PUSH0 PUSH2 0x3B1 DUP3 PUSH2 0x36F JUMP JUMPDEST PUSH2 0x3BB DUP2 DUP6 PUSH2 0x379 JUMP JUMPDEST SWAP4 POP PUSH2 0x3CB DUP2 DUP6 PUSH1 0x20 DUP7 ADD PUSH2 0x389 JUMP JUMPDEST PUSH2 0x3D4 DUP2 PUSH2 0x397 JUMP JUMPDEST DUP5 ADD SWAP2 POP POP SWAP3 SWAP2 POP POP JUMP JUMPDEST PUSH0 PUSH1 0x20 DUP3 ADD SWAP1 POP DUP2 DUP2 SUB PUSH0 DUP4 ADD MSTORE PUSH2 0x3F7 DUP2 DUP5 PUSH2 0x3A7 JUMP JUMPDEST SWAP1 POP SWAP3 SWAP2 POP POP JUMP JUMPDEST PUSH32 0x4E487B7100000000000000000000000000000000000000000000000000000000 PUSH0 MSTORE PUSH1 0x22 PUSH1 0x4 MSTORE PUSH1 0x24 PUSH0 REVERT JUMPDEST PUSH0 PUSH1 0x2 DUP3 DIV SWAP1 POP PUSH1 0x1 DUP3 AND DUP1 PUSH2 0x443 JUMPI PUSH1 0x7F DUP3 AND SWAP2 POP JUMPDEST PUSH1 0x20 DUP3 LT DUP2 SUB PUSH2 0x456 JUMPI PUSH2 0x455 PUSH2 0x3FF JUMP JUMPDEST JUMPDEST POP SWAP2 SWAP1 POP JUMP INVALID POP PUSH19 0x6F6A656374206D616E6167656D656E74206E6F PUSH21 0x20617661696C61626C652E506572666F726D616E63 PUSH6 0x207265706F72 PUSH21 0x206E6F7420617661696C61626C652EA26469706673 PC 0x22 SLT KECCAK256 DUP10 0xAA 0xDD 0xD1 SIGNEXTEND SHL COINBASE SHL 0xB3 ADD CHAINID 0xDC SUB MCOPY DUP2 SLT 0xAE 0xFC 0x4C CODECOPY SWAP3 PUSH24 0x51C5EB5A769FD02E1A9564736F6C634300081A0033000000 "
				},
				"gasEstimates": {
					"creation": {
						"codeDepositCost": "247200",
						"executionCost": "infinite",
						"totalCost": "infinite"
					},
					"external": {
						"calculateBonus()": "390",
						"jobTitle()": "infinite",
						"location()": "infinite",
						"manageProjects()": "infinite",
						"name()": "infinite",
						"performanceReport()": "infinite",
						"salary()": "2426"
					}
				},
				"methodIdentifiers": {
					"calculateBonus()": "a4e7d437",
					"jobTitle()": "3ff4b938",
					"location()": "516f279e",
					"manageProjects()": "97c16e78",
					"name()": "06fdde03",
					"performanceReport()": "402e7f4b",
					"salary()": "0397b652"
				}
			},
			"storageLayout": {
				"storage": [
					{
						"astId": 3,
						"contract": "day6/d6p1.sol:Employee",
						"label": "name",
						"offset": 0,
						"slot": "0",
						"type": "t_string_storage"
					},
					{
						"astId": 5,
						"contract": "day6/d6p1.sol:Employee",
						"label": "location",
						"offset": 0,
						"slot": "1",
						"type": "t_string_storage"
					},
					{
						"astId": 7,
						"contract": "day6/d6p1.sol:Employee",
						"label": "salary",
						"offset": 0,
						"slot": "2",
						"type": "t_uint256"
					},
					{
						"astId": 9,
						"contract": "day6/d6p1.sol:Employee",
						"label": "jobTitle",
						"offset": 0,
						"slot": "3",
						"type": "t_string_storage"
					}
				],
				"types": {
					"t_string_storage": {
						"encoding": "bytes",
						"label": "string",
						"numberOfBytes": "32"
					},
					"t_uint256": {
						"encoding": "inplace",
						"label": "uint256",
						"numberOfBytes": "32"
					}
				}
			},
			"userdoc": {
				"kind": "user",
				"methods": {},
				"version": 1
			}
		}
	}
}